:20000000008020208F3B0000C32C0000C32C00000000000000000000000000000000000078
:20002000000000000000000000000000C32C00000000000000000000C32C0000C32C0000F3
:20004000C32C0000633B0000C32C0000C32C0000C32C0000C32C0000C32C0000C32C000079
:2000600000000000C32C0000C32C00000000000000000000C32C0000C32C0000733B000016
:20008000C32C0000C32C0000C32C0000C32C0000C32C00006B3B000000000000000000000F
:2000A000C32C0000C32C00000000000000000000C32C000000000000C32C0000C32C000095
:2000C000F0B58FB0002800D1BEE30446B84F6D21384603F017FC7321384603F013FC3D21CD
:2000E000384603F00FFC6568002D0B942DD000270A262846314603F01FFB4643A91B302602
:2001000031430CAAD1550A2D24D30A2103F014FB31430CA8C0194170642D1DD3642128460E
:2001200003F00AFB0A2103F007FB3143FE1C0CA8C01981707D20C100284603F0FDFAE908F4
:200140007D2937460546D3D207E03021384603F0D9FB41E07E1C00E0BE1C002E944F3BD07E
:20016000701E032103F0E8FA481C0027032800D00746099602D135468D4C16E00CA8801E17
:200180000A908B4C0A9880194178204603F0BAFB012F09D0B51E0A98815D204603F0B2FB8A
:2001A000BF1E2E46EED100E0751E09980328274612D30CA82818C61EB178384603F0A2FB8F
:2001C0007178384603F09EFBED1E3178384603F099FBF61E002DEFD12021384603F092FB33
:2001E0007321384603F08EFB74253846294603F089FB6121384603F085FB3846294603F021
:2002000081FB6521384603F07DFB3D21384603F079FB0B9E3078062803D8800065490958C7
:2002200000E065490878002816D0CD1CAC1EC1B2384603F067FB217800290DD06C1E384602
:2002400003F060FB2178002906D0384603F05AFB2878ED1C0028E9D12021384603F052FB68
:200260006721384603F04EFB7921384603F04AFB7221384603F046FB6F21384603F042FB69
:200280003D21384603F03EFB707E002804D0307E00280FD149490EE04F21384603F032FB28
:2002A00046253846294603F02DFB3846294603F029FB1AE042490878002816D0CD1CAC1E01
:2002C000C1B2384603F01EFB217800290DD06C1E384603F017FB2178002906D0384603F06C
:2002E00011FB2878ED1C0028E9D13046243007902021384603F006FB6221384603F002FB62
:200300006121384603F0FEFA6321384603F0FAFA6B21384603F0F6FA6521384603F0F2FA39
:200320006E21384603F0EEFA6421384603F0EAFA3D21384603F0E6FAF1690878002816D064
:20034000CD1CAC1EC1B2384603F0DCFA217800290DD06C1E384603F0D5FA2178002906D02F
:20036000384603F0CFFA2878ED1C0028E9D12021384603F0C7FA6C21384603F0C3FA692100
:20038000384603F0BFFA6E21384603F0BBFA6521384603F0B7FA3D21384603F0B3FA306AC0
:2003A00001F0D0FD0798007800280DD105490CE000801040743C0000773D0000653D000052
:2003C000723D00003C3D000060490878002816D0CD1CAC1EC1B2384603F094FA21780029D7
:2003E0000DD06C1E384603F08DFA2178002906D0384603F087FA2878ED1C0028E9D1202148
:200400000991384603F07EFA67210891384603F079FA72210691384603F074FA61274C482F
:20042000394603F06FFA79254948294603F06AFA3D210A91464803F065FA302144480491A1
:2004400003F060FA7821424803F05CFA0B98C48C200B404E315C3E4803F054FA2005000FAF
:20046000315C3B4803F04EFA2006000F315C384803F048FA0F2005900440315D344803F0B5
:2004800041FA3348099903F03DFA3148089903F039FA2F48069903F035FA2D4839462C4FF3
:2004A00003F030FA3846294603F02CFA5F21384603F028FA6221384603F024FA75213846E0
:2004C00003F020FA7321384603F01CFA38460A9903F018FA079C2079002805D04F213846A7
:2004E00003F010FA4B2138E04E21384603F00AFA4121384603F006FA4321384603F002FAF3
:200500004B21384603F0FEF96679002E24D0012009900A273046394603F00EF90546394662
:2005200003F00AF90A916F43F01B049D28430CAC20706421304603F0FFF8A1780A2E00D310
:2005400084E16278099C25468BE1C046603D000000801040A43C00003021384603F0D2F900
:2005600020210991384603F0CDF967210391384603F0C8F9722638463146069603F0C2F944
:20058000612438462146009403F0BCF9792538462946019503F0B6F95F210891384603F068
:2005A000B1F93846214603F0ADF9642438462146049403F0A7F93846214603F0A3F9384689
:2005C000314603F09FF93D210A91384603F09AF93021384603F096F97821384603F092F936
:2005E000079884792009C04E315C384603F08AF905982040315C384603F084F93846099C0C
:20060000214603F07FF93846294603F07BF93846009D294603F076F977210791384603F027
:2006200071F938460A9903F06DF90B98806801F089FC3846214603F065F974243846214622
:20064000029403F05FF93846294603F05BF93846069903F057F93846039903F053F9652146
:200660000591384603F04EF93846214603F04AF93846089903F046F93846019C214603F04B
:2006800041F93846294603F03DF93846079E314603F038F938460A9903F034F90B98C06840
:2006A00001F050FC3846099903F02CF93846214603F028F93846294603F024F938463146DA
:2006C00003F020F93846089903F01CF93846069C214603F017F93846294603F013F93846F3
:2006E000029E314603F00EF93846059D294603F009F938460A9903F005F90B98006901F056
:2007000021FC3846099903F0FDF83846314603F0F9F87521384603F0F5F83846214603F00F
:20072000F1F86E21384603F0EDF83846089903F0E9F83846294603F0E5F83846214603F063
:20074000E1F83846214603F0DDF838460A9903F0D9F80B9C606901F0F5FB3846099903F0CA
:20076000D1F87321384603F0CDF870263846314603F0C8F83846294603F0C4F8384629461F
:2007800003F0C0F83846049903F0BCF838460A9903F0B8F8E06A01F09FF82F2104913846F3
:2007A00003F0B0F8206B01F097F83846099903F0A9F83846314603F0A5F83846079903F049
:2007C000A1F86D253846294603F09CF83846089903F098F83846314603F094F83846059E43
:2007E000314603F08FF83846069903F08BF83846294603F087F86921384603F083F86C250F
:200800003846294603F07EF83846294603F07AF83846314603F076F838460A9903F072F85C
:200820003420205E01F058F83846049903F06AF83620205E01F050F80D21384603F062F82F
:200840000A21384603F05EF80FB0F0BD099C0A9A2A43642E01D2022503E02843032500245E
:2008600001460CA842708170681E032102F064FF481C0027032800D00746099402D12E4624
:20088000184C16E00CA8801E0A90164C0A9840194178204603F036F8012F09D0AE1E0A98FE
:2008A000415D204603F02EF8BF1E3546EED100E06E1E09980028274600D051E60CA830185F
:2008C000C51EA978384603F01DF86978384603F019F8F61E2978384603F014F8ED1E002EC0
:2008E000EFD13DE600801040A43C0000F0B58BB0002800D126E1E1490978002900D123E1DC
:200900000690E24CE2490120870705904607E1480F61206020682060201F0A908125056052
:2009200008464038089006600E60A020049003F00BF92560D6480446303C27600797076055
:200940000746049803F000F90A980560266009963E60D148007800F0A1F9002800D1FFE005
:2009600003940495079D0027384600F097F9002800D125E1C6490D61C44AC64F17601068F0
:2009800010600A9C049F2760099E089806600E60A020029003F0D8F8BC48076003990D6073
:2009A000BB48056002980D4603F0CEF827602E60B7480660B84800780599084300F06EF9F7
:2009C000002800D134E1AE48042102910170059800F072FE0190002000F06EFE0090AB4E57
:2009E0003760079E2E60AA480660A025284603F0ABF80A980760099808990860A44C2060E9
:200A0000284603F0A1F82661A248A049086008680860284603F098F800980007020D01980A
:200A200017189948036800D183E096480780012039460A90014002263E407806C40F2046CA
:200A40000B304D1CD20A002A00D10FE100D110E1002900D00B3802993940002E01D00B38D7
:200A6000801C019608223A402E46002901D00B38001D10253D400995002A0893029107948E
:200A8000039201D00B38801D20223A409106CC17802139400A9B1B02099D002D049601D0C0
:200AA0000B3808300A9D6D023B4000190029019E00D0C01C0A9CA4023D40002B00D0401D7C
:200AC0003C40002D00D0C01D76080196029EB6080296039EF6080396099E36095209C9096A
:200AE00009911B0A0A936B0AA50A002C00D00930049C019964180299641803996418A4199F
:200B0000A218079C1219099951180A9A8918C9184D1902F04FFE0646284602F04DFF014638
:200B2000304602F0F7FA002D089B00D00346564803600698059C791E3A468A410780436027
:200B4000027236E0002470E04D4A012111704D4A12884D4B1B68028043600024048160E003
:200B600047490598087049480560079F2760484C27602E46A025284602F0E6FF0A9806600C
:200B80000998089908602060284602F0DDFF276140483E49086008680860284602F0D4FFE5
:200BA000384801883848026806980180426000240472334909780A1F53425341437230E0D3
:200BC0002F49022008703148049E0660039805602F480560A024204602F0B6FF0A980660CD
:200BE0000998089908602A490860204602F0ACFF2748056127482549086008680860204615
:200C000002F0A2FF1F4801881F48026806980180426007721A4909780A1F5342534143725B
:200C20003C4681721C490978C17220460BB0F0BD134903200870154E3760079E2E60144DD3
:200C40002E60A024204602F07FFF0A9807600998089908602860204602F076FF2E610D4880
:200C60000A49086008680860204697E7204600D0EEE60D46002900D0ECE6ECE6630120205F
:200C8000640120205E0120202C01202014804240D0120A4081000E0076012020F0B587B03F
:200CA0000290A34EA3490120840747078120019030600D46303D2C600C60A020039002F00C
:200CC00043FF361F019830609A4908464038059007600F60039802F037FF019803963060BB
:200CE0002F6094490F60029940290694049505D28F4908602C608F48046006E08D480461E4
:200D00008B498D48086008680860A025284602F01BFF039E019C34600598076085480760A1
:200D2000284602F011FF3460049A1760814807600298800606D47E480460069911607D4871
:200D4000016007E07B480699016179497A48086008680860A025284602F0F6FE039E346075
:200D60000598076073480760284602F0EDFE3460049A17606F4807600298C00606D46C484D
:200D80000460069911606B48016007E069480699016167496848086008680860A02528465F
:200DA00002F0D2FE039E34600598076061480760284602F0C9FE3460049A17605D4807604C
:200DC0000298000706D45A480460069911605948016007E057480699016155495648086055
:200DE00008680860A025284602F0AEFE039E3460059807604F480760284602F0A5FE34607C
:200E0000049A17604B4807600298400706D448480460069911604748016007E04548069901
:200E2000016143494448086008680860A025284602F08AFE039E3460059807603D48076026
:200E4000284602F081FE3460049A1760394807600298800706D436480460069911603548B8
:200E6000016007E033480699016131493248086008680860A025284602F066FE039E3460BC
:200E8000059807602B480760284602F05DFE346004990F60274807600298C00706D1244D9A
:200EA0002C60069A0A602348026007E02148069A02611F4D2048286028682860A0240294AE
:200EC000204602F041FE039E019931600598076018480760204602F037FE019C346004988A
:200EE000076014480760069901611348286028682860029D284602F027FE34600598076010
:200F00000C48076028462C4602F01EFE0B480068069908404542454101983060049807604D
:200F200004480760204602F00FFE284607B0F0BD14804240D0120A4081000E0080130A4019
:200F4000F0B587B00593154601910490109C0F9E0E9F14980690139A12991198864B1D6005
:200F6000864B059D1D60864B05971F70854B02961E60854B03941C70844B18808448017008
:200F800084480270844806990170844C2578062D04D80120A840612108421AD1804A1078A9
:200FA00000280FD10598002803D17E480078C00708D17D4800680499081A052670437B4924
:200FC00088420AD300201070062020707A4802F0B1FC02F0E1FA07B0F0BD691E0329F8D8FF
:200FE0000D9D0C9A72480068049B1F1A7743C0467944097949008F4401642E5B06926F494E
:2010000001AB0DCB01F04AF86D4807780126F107284688434121090602F033FA002878D08D
:20102000002F76D100272846394602F02AFA002800D1FE436248067062480568304602F037
:20104000B9FB0646604901F00FFF294601F0D9FC6149086066E0594901981746029A039B89
:2010600001F01CF8564800214056C4B202F0A2FB0646544801683D46384601F0BDFC31469E
:2010800001F0F2FE0646002C00D126464E48314601F0B2FC002C4D4908609CD04A4930466F
:2010A00002F0EFF9002896D0052004992A462CE001AA07CA00F0D4F93E4887428BD326700E
:2010C00084E70692424901AB0DCB00F0E7FF3C48067870B202F06EFB0146284601F0C4FE41
:2010E000F9087D2943D3002E41D04121090602F0C8F900283BD037480168491D016096292F
:2011000000D268E703200499069A01F0BFFF07B0F0BD002F00D15EE72A48056878B202F0FB
:2011200049FB06460698294601F066FC314601F09BFE0546244E3046294601F05DFC234F60
:2011400038602846314602F09CF9002800D142E7022020700498164908601E48002101606C
:201160003960154802F0E6FB1B48069901E019480021016007B0F0BD480120204C01202066
:2011800069012020300120206B0120205C012020660120206701202068012020A001202012
:2011A000720120206A01202038012020A0BB0D005001202030750000BC00202000005C431F
:2011C000750120202801202000002A43580120200000A0432401202054012020F0B581B037
:2011E000994C9A4800250570994805704E20994E7719C1B2204602F085FB7978204602F0BF
:2012000081FBB978204602F07DFBF978204602F079FB3979204602F075FB7979204602F050
:2012200071FBB979204602F06DFBF979204602F069FB397A204602F065FB797A204602F06C
:2012400061FBB97A204602F05DFBF97A204602F059FB397B204602F055FB797B204602F088
:2012600051FBB97B204602F04DFBF97B204602F049FB397C204602F045FB797C204602F0A4
:2012800041FBB97C204602F03DFBF97C204602F039FB397D204602F035FB797D204602F0C0
:2012A00031FBB97D204602F02DFBF97D1835204602F028FB387E302D9AD100254220664E55
:2012C0007719C1B2204602F01DFB7978204602F019FBB978204602F015FBF978204602F0DC
:2012E00011FB3979204602F00DFB7979204602F009FBB979204602F005FBF979204602F02E
:2013000001FB397A204602F0FDFA797A204602F0F9FAB97A204602F0F5FAF97A204602F04C
:20132000F1FA397B204602F0EDFA797B204602F0E9FAB97B204602F0E5FAF97B204602F069
:20134000E1FA397C204602F0DDFA797C204602F0D9FAB97C204602F0D5FAF97C204602F085
:20136000D1FA397D204602F0CDFA797D204602F0C9FAB97D1735204602F0C4FAF87D2E2D54
:201380009ED100254D20354E7719C1B2204602F0B9FA7978204602F0B5FAB978204602F03A
:2013A000B1FAF978204602F0ADFA3979204602F0A9FA7979204602F0A5FAB979204602F0F2
:2013C000A1FAF979204602F09DFA397A204602F099FA797A204602F095FAB97A204602F00E
:2013E00091FAF97A204602F08DFA397B204602F089FA797B204602F085FAB97B204602F02A
:2014000081FAF97B204602F07DFA397C204602F079FA797C204602F075FAB97C204602F045
:2014200071FAF97C204602F06DFA397D204602F069FA797D1635204602F064FAB87D2C2D17
:20144000A2D101B0F0BDC046008010407001202065012020983B0000C93B0000F83B000084
:20146000F0B58BB00790002A23D00D467E49284601F0FEFF00281FD17C49284601F0F8FF2F
:2014800000281BD17A49284601F0F2FF002817D10326B107284601F0EBFF002812D10024BC
:2014A0002846214601F0DBFF002800D1B0E0FF2409E06C48047806E0F62404E0F92402E0E4
:2014C000FB2400E0FD2460B2059002F073F901466C4E3068089101F094FA05466A4F3946B3
:2014E00001F0D8FF002800D12F46684D3846294601F0B5FF002800D13D463560002159489C
:2015000006914156049104700120C007089C84435F49204601F0B5FF00280DD15749204682
:2015200001F0AFFF00280AD15349204601F0A9FF002806D04F4806E04120000603E04E4813
:2015400001E0FF2080050390524E3768524C3846214601F084FF00280FD05049079801F00D
:2015600083FC394601F04DFA0746214601F092FF002800D13C46346000E03C460598049954
:20158000401A02F017F906464549284601F06CFC05464449089801F067FC294601F031FAF7
:2015A00005463649304601F05FFC294601F029FA039901F059FC3C4901F056FC05462046C1
:2015C000294601F019FA06462846214601F019FA0246364C2046314601F0D4FA3448006829
:2015E00002F0E8F805463348006802F0E3F8024609AE01960AAF009720462946079B01F0D0
:2016000001FD0699785E715E00F000FF0BB0F0BD7F20C105284601F02BFF002800D052E712
:201620001449284601F024FF002815D11249284601F01EFF0028344600D044E70F49284683
:2016400001F016FF002809D10D49284601F010FF002805D0072436E7012434E7052432E7F7
:201660000A2430E76F012020000010C10000C0C0000080C0000040400000A0400000E04064
:20168000000010414401202000004843000048C300002041400120200000A043000048448D
:2016A0009A99193E0000C842EC51383DBC002020480120204C012020F0B58DB00890824A8C
:2016C000824C01208107470781480A91216150605068506081261660204640380C90076049
:2016E0002760A025284602F02FFA7A4800680790754806602046303C27600B940760284664
:2017000002F022FA704806600C9807606F480760284602F019FA6F48006806906A48066034
:2017200027606A480760284602F00EFA664C26600C98076065480760284602F005FA65483E
:201740000068059026600B9C276060480760284602F0FAF95C4806600C9807605B48076057
:20176000284602F0F1F95B4800680390564806602760564C2760284602F0E6F9524806608E
:201780000C9807602760284602F0DEF95148006804904D4806600B9C27604C480760284659
:2017A00002F0D2F9484806600C98076047480760284602F0C9F947480068019042480660DB
:2017C0002760424C2760284602F0BEF93E4806600C9807602760284602F0B6F93D480068DC
:2017E0000290394806600B9C276038480760284602F0AAF9344806600C9807603348076089
:20180000284602F0A1F933480068009009962E48066027602D480760284602F095F90898EF
:20182000002807D02848099941600A9921602748016007E025480A99016123492448486029
:201840004868486000984000C00F01994900C90F039A5200D30F069A5200D40F079A550F23
:20186000022215406419A400059D6D0F154064191B199B00049C640F14401B19C91889000A
:20188000029B5B0F1340C91840180890A024204602F05AF90C4D099E2E600C9807600B48C2
:2018A0000760204602F050F92E600B98076007490F600A9808610648686068686860089870
:2018C000C0B20DB0F0BDC04610804240D0120A4081000E0080130A40F0B585B0054600282F
:2018E00030D464D000277D20C00001900A262846314601F021FF4643A91B3026314302AAB2
:20190000D1550A2D59D30A2101F016FF314302A8C0194170642D54D36421284601F00CFFBE
:201920000A2101F009FF3143FC1C02A8C01981702846019E314601F0FFFEB5422746054662
:20194000D4D23BE061487D21C90001912D2101F0D9FF6D4200240A272846394601F0ECFE41
:201960004743E91B3027394302AA11550A2D3AD30A2101F0E1FE394302A800194170642D34
:2019800035D36421284601F0D7FE0A2101F0D4FE3943E71C02A8001981702846019C2146F3
:2019A00001F0CAFEA5423C460546D4D21CE04748302101F0A7FF05B0F0BD7C1C002C03D1A7
:2019C00082E0BC1C002C7FD0601E032101F0B4FE481C0027032800D007463C49009417D139
:2019E00025460C4642E0671C002F03D16CE0A71C002F69D0781E032101F09EFE481C00253B
:201A0000032800D00546009719D13C462F4E45E002A8801E019026460C4601988019417859
:201A2000204601F06FFF012F1FD0B51E0198815D204601F067FFBF1E2E46EED116E002A80B
:201A4000801E0190214E0198C0194178304601F059FF012D21D0BC1E0198C15D304601F0E7
:201A600051FFAD1E2746EED118E0751E009803282AD302A82818C61EB178204601F042FF45
:201A80007178204601F03EFFED1E3178204601F039FFF61E002DEFD116E07C1E0098032832
:201AA00012D302A82018C51EA978304601F02AFF6978304601F026FFE41E2978304601F054
:201AC00021FFED1E002CEFD105B0F0BD00801040F0B59FB000F07EFB411E022905D30328D3
:201AE0000ED004281DD14F4812E004464F48006800F012FE00280AD0022C0CD04E480BE08F
:201B000001F030FF782001F08FFF474800E0484801F0F2FD05E0474801F0EEFDDC2001F072
:201B200083FF464C2068800216D4454D2878002815D101267705434802F006F8206838423D
:201B40000DD12E7001F080FF002859D001F00AFF782001F069FF02E0394800210170EFF386
:201B6000108172B63A4A107800241470002900D162B600282DD001F01FFF364901F074F9D5
:201B800005461BA800901EA91DAA1CAB284600F065F80DAE3046FEF7A9FE244800680A905C
:201BA0001E980C901D980B900E99377A3088727AB37AF67A0094019402940391049705A94E
:201BC0004DC10A9829460C9A0B9BFFF7B9F901F053FD2148017801290CD104701348006891
:201BE0000DAD009521462246234600F071FF2846FEF766FA7D20000201F0A6FF1FB0F0BD8A
:201C00000A48006800F088FD002804D0DC2001F00BFF0E4802E001F0BFFC0B4801F06CFD11
:201C20009DE7C046523C0000063D000020012020DC3C0000D03C0000E73C000080330A40A4
:201C40006201202000E20400B53C0000103D00006C0120200AD7A33B74012020F0B587B0C0
:201C60001D46039202910446EFF3108072B64F490F684F490E68002800D162B60021204640
:201C8000019101F0F5FB0028069500D0494C4A480168791A494A1368F31A04970760059663
:201CA0001660474A10684718176046490868C01800900860444E3168204600F0A2FE054694
:201CC0003060424901F0DDFB002843D0384601F071FD3F4F394601F0C7F8294601F01AFAD7
:201CE0000446009801F066FD394601F0BDF8294601F010FA05463748017800291DD0364848
:201D00000068364901F0B0F80646354F2046394601F0AAF8314600F074FE044631480068F7
:201D20002E4901F0A1F806462846394601F09CF8314600F066FE054601E0012101702648EC
:201D400004602848056001981D4908601D4908601D490860029C002C04D01F48006801F0E9
:201D600081FD2060039C002C069D059E049F04D01C48006801F076FD20600C9C002D08D080
:201D8000384601F017FD124901F06EF801F06AFD2860002C08D0304601F00CFD0C4901F074
:201DA00063F801F05FFD206007B0F0BD780120207C0120200AD7A33B880120208C012020CC
:201DC0009001202094012020980120200AD7A33C9C9D0F3F71012020800120209A99993EC0
:201DE0003333333F84012020F0B58BB04D4A4E4D01208407019046074C4F4D4800230793BD
:201E000003804C4803604C484021009101704B4803704B48037029462C61176010681060EA
:201E2000101F099081270760403D2E600E601760084630380890049404600C60A0242046FB
:201E400001F082FE02970998076006952E600396354D2E60204601F077FE04982861334832
:201E60003049086008680860204601F06DFE0798049C0790470040372B490C61294E2B4888
:201E8000306030683060029D09980560039E069806600E60A0200A9001F056FE2148056065
:201EA00008980460204804600A9801F04DFE09980560089806601C480660F8B2FEF7EEFE13
:201EC00005901848056008980460174804600A9801F03AFE0998056006980660124806604C
:201EE00006460A9D284601F02FFE34610D490F48086008680860284601F026FE059A002A95
:201F000005D10799481CC9B20629B2D9009F0A4807700B48027001985040084908700BB0D8
:201F2000F0BDC04614804240D0120A4081000E005E0120202C0120207601202064012020B5
:201F400063012020F0B587B004460026314601F086FA0546002801D14D4900E04B492046F4
:201F600000F082FF002D4B4F05D02D210446384601F0C8FC204601F0ABFC0A28029004D2F1
:201F80003021384601F0BEFC71E007460A253846294601F0D1FB294601F0CEFB302421436F
:201FA00004A88155642F21D36421384601F0C4FB0A2101F0C1FB214304A880194170F80833
:201FC0007D2815D37D20C100384601F0B5FB05460A2101F0B1FB2143F41C04A8801981703A
:201FE0002D48874226462F46D0D202E0741C00E0B41C002C274F3AD0601E032101F09CFB28
:20200000481C0026032800D00646019402D12546204F16E004A8801E03901E4F03980019B9
:202020004178384601F06EFC012E09D0A51E0398015D384601F066FCB61E2C46EED100E094
:20204000651E0198032812D304A82818C41EA178384601F057FC6178384601F053FCED1E09
:202060002178384601F04EFCE41E002DEFD12E21384601F047FC0A21029801F05DFB3020C0
:202080000143384601F03EFC07B0F0BD000020C1000020410080104010270000F0B589B0C8
:2020A0001F461446059100260690314601F0E0F90028354651D1002F35464ED03B48016855
:2020C000204600F099FC2746069C214601F022F803903748056804973846214600F0C4FEE3
:2020E000294600F08EFC0746324D294601F0D2F9002800D13D46304F2846394601F0AFF97F
:20210000002800D12F462A4807600021384600F0ABFE05468120C105049C204600F0A4FEF6
:20212000294600F06EFC05462449039800F09CFE294600F066FC0546214F394601F0AAF96A
:20214000002800D12F461F4D3846294601F087F9002800D13D4615480460059C2046294694
:2021600000F04FFC07462046294600F045FC02461548394600F006FD1448006801F01AFBF0
:2021800007461348006801F015FB024607AC0194354608AE00960C483946069B00F032FF42
:2021A000705F615F00F032F909B0F0BD3C012020340120200000A0410000A0C10AD7A33C1B
:2021C00000007042000070C2BC002020480120204C01202070B586B045480178012932D17B
:2021E000EFF3108272B61421C943424B03E06D466D18EC75C91C5C18657D002D26D0657DB9
:202200002E46613EF6B21A2E00D2203D6E4676187575A57D002D1BD0A57D2E46613EF6B249
:202220001A2E00D2203D6E467618B575002911D0E57D002D10D0E47D2546613DEDB21A2DF2
:20224000D5D2203CD3E7002006B070BD153104E0163102E0172100E017316B4600245C5486
:20226000047025480470002A00D162B66D462A786B78AC78E8782D7905290CD1522A0AD132
:20228000552B08D14E2C06D1312804D1352D02D1012006B070BD6E4606290FD1522A0DD110
:2022A000552B0BD14E2C09D1502807D1492D05D17579442D02D1022006B070BD04255326F9
:2022C000502801D0284600E00320694072404F2C00D028461143542B03D1002904D106B0D5
:2022E00070BD28460029FAD0284606B070BDC046650120200801202070012020F0B5384933
:2023000008463438872202603648022202600A46383A862313600122026085230B61140267
:2023200004604B61530203602F4CE01C48604B684B600860086808604B68500603434B601E
:202340000B6803430B6082258D61284BCB614D64274D2E463C3E33606C606E686E600E46BB
:20236000083E244F3760346834608124AC622F632C6B2C63EF61EC69EC612F622C6A2C62CB
:202380002F602C682C600C462C3C174E26602568256028390E600C680C6017490C689505BA
:2023A00025430D6015490C6AD20614430C620C6814430C6012490A600A6312490A68042479
:2023C00014430C600A69823B13430B610E490A6A801C02430A620A6802430A60F0BDC0465C
:2023E0003C804240D0120A4081000E0082000400C080424081000C00A0130A4028100A4090
:20240000A0320A4090330A4028300A40F0B585B00C467D27FD003C4A9042034600DC13464E
:20242000AB4200DB2B469442039400DC14461922AC4200DB2C46334ED1010491334A138052
:20244000334A148000280197029512D0DA175340D11A4D19012813DB01223046049901F01F
:202460005FFB04984543F900284601F065F9074612E0002701223046394601F051FB0BE082
:2024800004984543F900284601F056F901460122304601F045FB049F0025304639462A4633
:2024A00001F03EFB20B2C1174840081A02990F180398184E00280BD010DD049D6F430198FF
:2024C000C100384601F038F901460022304602E0304629462A4601F023FB0CE000223046F2
:2024E000049C214601F01CFB67430198C100384601F022F9054601223046294601F010FBF0
:2025000005B0F0BD0000094018FCFFFF9C0120209E01202000008640F0B5394A8218394B36
:20252000C0183A4D4C790B79002C22D0466F202B02D00524E70100E0354F2E40002B00D124
:2025400088273E434667846F2C403C438467446B2D4E34404463846B344084630024446579
:20256000846554688F26F643344054609468344094600C688979202B09D006467036002B85
:2025800015D1641E4460C46E2C40882715E0641E4460C46E2C401E4E3443C466046F2C403D
:2025A000344304671B4D01246707064607E00527FF0164084460C46E2C403C43C4663468EC
:2025C0002C403C433460C46A0F4D2C40C462046B2C4004630024C4640465C46F8F25ED4352
:2025E0002C40C46714682C401460194302680A4B1340BD220A40D118891C0160F0BDC046AF
:2026000084180000041800008888FDFF24493E0001040000FFFFFFCF4000FFCFB0B53A4A83
:2026200080184A6842600A78222A56D8930001A4E3589F46D1260000DB260000D12600006B
:20264000DB260000DB260000DB260000DB260000DB260000DB260000DB260000DB26000072
:20266000DB260000DB260000DB260000DB260000DB260000C1260000DB260000C126000086
:20268000DB260000DB260000DB260000DB260000DB260000DB260000DB260000DB26000032
:2026A000DB260000DB260000DB260000DB260000DB260000C1260000DB260000C126000046
:2026C000036803242407A343012464071B1903E0036803242407A34303600B69C360CB68E0
:2026E000C46A0A4D25400A4C1C402B19C3620368084C1C400460097A114302683F239A43D6
:20270000194051180160B0BD041800008888FDFF777702007F00FFFFF0B581B00446244E02
:2027200031780020062941D801252A468A4061210A423BD000F058FE1E48002707601E48AF
:2027400007601E4807701E4807701E4807601E4807601E4807701E4807801E4807701E48B1
:2027600007701E48402101701D4807601D4807601D4807701D4807601D4807601D480760D2
:202780001D4804601D4807701D480770042030701C4804601C4807601C4807601C4801F041
:2027A000C9F80548076000F0F7FE284601B0F0BDA00120202801202054012020750120205E
:2027C0007201202030012020340120206B0120205C0120206601202067012020680120201F
:2027E0003C012020440120206F01202040012020480120204C012020380120206A0120206C
:2028000069012020500120202401202058012020BC002020F0B585B00393174602910446D9
:20282000066900251046294600F022FE002861D10120C1073046049188433F21090600F0B7
:202840000EFE002856D13046029900F0D5F8054620680290A6692846314600F0CDF80190B0
:202860006168384600F000FB0146284600F0FCFA00900298019900F0F7FA009900F0C1F8A4
:202880000090A068394600F045FC074630460196314600F0B6F801460295284600F0ACF8A1
:2028A000E16900F0AEF80146384600F0DDFA009900F0A7F80146606900F0A3F80646039DFD
:2028C00004996940049100F0CAFD07463046294600F0E0FD002800D13546002F049800D157
:2028E000284660610299A1610199E16100F0BAFF054606E0E168304600F0B6FA6061A56130
:20290000E561284605B0F0BD80B582B01F4900220A701F490A601F490A601F490A601F4958
:202920000A601F490A601F490A701F490A601F490A701F490A601F490A601F490A701F49D7
:202940000A801F490A701F490A701F4940230B701E490A601E490A601E490A701E490A608F
:202960001E490A601E490A601E4908701E4908701E487F21C905009101901D481D491346DD
:2029800000F088FC00F008FE02B080BDA001202038012020500120202801202054012020F5
:2029A0005801202075012020240120207201202030012020340120206B0120205C01202081
:2029C0006601202067012020680120203C012020440120206F012020400120204801202043
:2029E0004C012020690120206A01202000007A44BC002020CDCC4C3FFCB40127FF07794080
:202A000002E0FCB40127FF070C024D002D0E03D1002C52D1FCBC70473C43FF2D50D0A40857
:202A2000002900D56442020243001B0E04D1002A43D10800FCBC70473A43FF2B41D09208A6
:202A4000002800D552425E1B04D5170022003C0076422B00192E06D527003741D2191C274C
:202A6000F71B7F42BC40002A27D002D55242012700E00027013B5200FCD51500802635403D
:202A80000FD01500202635402C43803208D21500402635402C4304D101263602B24300E024
:202AA0005B1C5200023308DDFF2B0BD2500ADB051843FF073843FCBC70470020FCBC704718
:202AC0000800C70FFF07FF20C0053843FCBC7047F0B581B0069C002C37D0254624351C4E6B
:202AE000367826701B4E3668801B052646431A4800681A4F3F686660A16021460C3185C1B1
:202B0000237617480078607600F0AEFF15490968E061216214480078287014480088E0848B
:202B200013480078287113480078687112480078A8711248006812490968E062216300F04E
:202B4000F7FFA08600F0FAFFE08601B0F0BDC046A00120203801202054012020580120201E
:202B60006A012020300120206B0120205C012020660120206701202068012020480120206F
:202B80004C012020F0B583B0002846D00E460446174623493046019100F061FC0290214DD6
:202BA0003046294600F076FC0028284600D13046029900291A4900D1014602913846184940
:202BC00000F04DFC06463846294600F063FC002800D13D46002E00D10195E66821690298B1
:202BE000FFF70AFF01466769304600F03DF93946FFF707FF6061E66A216B019D2846FFF709
:202C0000FBFE0146676B304600F02EF93946FFF7F8FE029921612563606303B0F0BDC046DC
:202C20000000A0C30000A043002A49D084468B071CD1830722D1102A08D370B4103A78C981
:202C400078C0103AFBD270BC103238D0042A2CD3082A05D30C2A01D308C908C008C908C03C
:202C600008C908C092072AD0920F22E00B780370491C401C521E22D08B07F7D1C30714D163
:202C80008307D8D0121F12D308C903801B0C4380001D121FF8D20AE008C903701B0A437090
:202CA0001B0A83701B0AC370001D121FF4D2121D05D00B780370491C401C521EF9D16046F5
:202CC0007047FEE770B582B01B491C4C204600F0E7FE1B492046FFF71FFC1A4801681A4AF0
:202CE0000A40026000250095204629462A462B4600F0E4FE204629462A4600F0C3FE20468A
:202D000029462A4600F00CFF01260096204629462A462B4600F0D2FE20462946324600F069
:202D2000B1FE20462946324600F0FAFE074886600321016002B070BD6C3D00000000094024
:202D4000243D0000041809407F00FFFF0011094070B582B01B491C4C204600F0A1FE1B495A
:202D60002046FFF7D9FB1A4801681A4A0A40026000250095204629462A462B4600F09EFE4C
:202D8000204629462A4600F07DFE204629462A4600F0C6FE01260096204629462A462B4617
:202DA00000F08CFE20462946324600F06BFE20462946324600F0B4FE07488660032101604A
:202DC00002B070BD6F3D0000000086402C3D0000041886407F00FFFF0011864040B54200CC
:202DE0004B005E08164301D006004E4000D4D01A04D20120C90F06D1404204E003D901209D
:202E0000C90F00D04042FF263606B24200D8B34200D9012040BD40B542004B005E0816432E
:202E200001D006004E4000D4D01A04D20120C90F06D1404204E003D90120C90F00D040423C
:202E4000FF263606B24200D8B34201D90120404240BD42004B000020FF2109068A4200D856
:202E60008B4200D901207047FCB40127FF0706004E4001D4002600E03E00020243001B0ED9
:202E800030D03A43FF2B30D00C024D002D0E29D03C43FF2D29D05B194240504042404C40C4
:202EA00061404C4000B500F0A3FC20BCAE464240504042404C4061404C4025001400002C1F
:202EC00001D46400013B803401D3013364087E3B08DDFF2B09D2BC43200ADB0518433043DB
:202EE000FCBC70470020FCBC7047FF20C0053043FCBC704710B51B491B4C204600F0F5FD36
:202F00001A49204600F094FB194801680322D203914301600169174A0A401132026141690B
:202F200017220A4328218A434261426801210A4043688B439A1842600F4A13688C021C43AE
:202F4000146002684B0413430360C26870231343C360C2680A4306239A43C26002680A43FF
:202F6000026010BD723C000000801040F23C0000009110400000FFFF2890104010B51B4966
:202F80001B4C204600F0B1FD1A49204600F050FB194801680322D203914301600169174AFE
:202FA0000A4011320261416917220A4328218A434261426801210A4043688B439A18426055
:202FC0000F4A13688C021C43146002684B0413430360C26870231343C360C2680A43062374
:202FE0009A43C26002680A43026010BD223D000000201040FC3C0000003110400000FFFF66
:2030000028301040F0B585B000283BD00A9D002D38D004460B98002834D01F46049002917A
:20302000039200211846019100F034FA666C002805D038463146FFF7E4FC064660642746B5
:2030400048371149304600F00AFA002803D038882880B91C13E001986064236C2046029915
:203060003246FFF7D7FB3880236C2034204603993246FFF7CFFBB91C788038882880049A68
:203080000888108005B0F0BD0AD7A33CF0B581B0144605461548057015480160154800275F
:2030A0000760154E3760154800F044FC05202840012810D1134804601348C0570028134DD2
:2030C000294600DA12492046FFF79BFC0C490860356001B0F0BD0A480460022D03D0042DC0
:2030E00001D000F059FA01B0F0BDC046A0012020500120202401202058012020BC002020EC
:2031000054012020280120207501202000002A4300002AC3FCB40127FF0706004E40F60F2A
:20312000F607020243001B0E2DD03A43FF2B2DD00C024D002D0E26D03C43FF2D26D05B1BDE
:203140000020202164085208A2424041A24200D3121B013904D0002A01D05200F4D1884017
:20316000384201D14000013B803001D3013300E040007F3307DDFF2B08D2400ADB05184390
:203180003043FCBC70470020FCBC7047FF20C0053043FCBC70477047F0B50020C443184815
:2031A000184B0127FA067E06103B1D6815400346103B1B68002D08D013480068304200D0BA
:2031C00027461248016879180160B71C334208D00F480068C00200D501240E4801686118FA
:2031E00001603B40002D03D00649086810430860002B03D00249086818430860F0BDC0464A
:2032000048300A4048100A4080130A407801202080330A407C012020F8B5451C0078002351
:20322000082B32D02F78C2070CD16A780F241440E41C122C0BD102242E57F4B2002E08D42E
:20324000EE1C0EE06D1C4A1C0F7011461AE0AE1C08E02E1DED7800957F252C40009DED0125
:203260002C1912343D0112095219094DAA420ED0D243002C05D08D5C4F1C0D70641E3946F7
:20328000F7E7354640085B1CCAE72846C5E7F8BDFF0F0000F0B585B0002830D0044602A892
:2032A0000EC00B9F00253846294600F0D8F80190144E3846314600F0EDF8002800D13E468A
:2032C0000A98019900292946049A00D131462164029B236003996160A260E06025612362E5
:2032E0006162A262E06225632946FFF7BDFD6061A561E5616063A563E5636564A56405B077
:20330000F0BDC04600007A44F0B581B010481149416011484160114B5960114C6160114D88
:203320006960114E7160114F7960114841601149074A1160084A116019602160296031606E
:2033400039600160102000F0FFFB01B0F0BDC04600080A40030000B100280A40000809402C
:20336000000886400008874000280F40008810400028104001000026F0B5164A1068C0B2D3
:203380000B2825D1144801218B029362026852071ED4124A124B134C06E01D7800266655DB
:2033A000117005686D0713D4C5691678002EF8D1EEB20D2EF5D00A2EEFD01E78162E04D8C4
:2033C0001E78771C1F70A555EBE700251D70E8E7F0BDC046209010400891104065012020A6
:2033E0007001202008012020EFF3108072B60D4A002111600C4A11600C4A11600C4A1160FB
:203400000C4A11600C4A11600C4A11600C4A11600C4A11600C4A1170002800D0704762B62B
:203420007047C046780120207C012020880120208C01202090012020940120209801202044
:2034400080012020840120207101202010B5FFF7C5FC002801D0002010BD012010BD10B51F
:20346000FFF7BCFC002801DB002010BD012010BD10B5FFF7B3FC002801DD002010BD012041
:2034800010BD10B5FFF7C7FC002801DA002010BD012010BD10B5FFF7BEFC002801DC002069
:2034A00010BD012010BD000080B51149114800F097FA11480168032252020A430260026894
:2034C00001210B02134303600022426107224262836B93438363836B120293438363826A1E
:2034E000042313438362826A0A43826280BDC046753D000000200F4000320F400E480068AA
:20350000C0B2012816D10D480168491C01600C480178FF2902D00178491C017009480178C5
:20352000491CCAB20170142A04D3002101700648012101707047C04620108740200120209C
:203540006C012020730120207401202080B500F0A5F900F047F8FEF747FC00F055FA0020CC
:20356000FFF7D2F9FDF73AFE084800F0C5F801204105074A1160074B1960C00310601860C2
:203580000220106018601060186080BD253C000080E200E000E100E070B50E480024048075
:2035A0000D4804800D4E0125304621462A4600F0B7FA30462146224600F0B2FA084E304616
:2035C0002146224600F0ACFA304621462A4600F0A7FA70BD9C0120209E0120200000094076
:2035E0000000864070B50E48002404800D4804800D4E0125304621462A4600F091FA30464A
:203600002146224600F08CFA084E30462146224600F086FA304621462A4600F081FA70BD75
:203620009C0120209E012020000009400000864070B511221302C218C4580125AC43C45033
:203640000C888D7825438C882C43C558084E2E40084D25407419C4508879CB790343087A9D
:20366000184351687E23994318400818506070BDE798FDFF1867000010B50C48018800299F
:203680000ED00B4A13785C1C1470DA0703D00122D206084B1A61491E0180080400D010BD62
:2036A0000120C0060349086010BDC046600120206D012020A0320A400D48002101600D4805
:2036C000011F0A680323DB4313400B60416801229143416041681202914341600168302228
:2036E0009143016001680F22914301607047C04608030B4004010B4070B50178002917D0B5
:203700000C4CC51CAE1EC9B2204600F0FBF8317800290DD06E1E204600F0F4F83178002991
:2037200006D0204600F0EEF82978ED1C0029E9D170BDC046008010401CB50A0017D0002302
:203740000124E407A04200D20400944201D95200FBE790425B41904200D3801A914201D26A
:203760005208F6E719000200080011001CBD01000020FFF710FD1CBD70B50A480A4C844275
:203780000CD00A4D0A4EB54208D02A686968501C12789200A25890470835F4E700BF00BF7D
:2037A00070BDC0468C3D0000803D00009C3D0000AC3D000006B49E22002802D404D106BC7F
:2037C0007047414204D400E00100013A4900FCD5803101D3013200E04900490AD205114342
:2037E000002802D50122D2071143080006BC7047FCB4020C0B0CFF242402FF3420402140E7
:203800000C00444315005D4306005E430F005743320C3B0CA818C01832043B040025A118A0
:203820006841C9186841FCBC7047000010B50849084C204600F034F907492046FEF7EEFE62
:20384000064801680122114301600548026010BD693D000000008740903C00002810874025
:203860000811874006B54100090E7F390DD41F22511A0CD9864600020122D2071043C84006
:203880007246002A00D5404206BD002006BD02000120C007002A00D4401E06BD80B5FFF715
:2038A00033FDFEF72BFDFFF707FFFFF70BFAFFF74FFAFFF7BBFFFFF7F7FDFFF71BFBFFF7E9
:2038C0005DFB0248B8210022425480BD0000202006B5002803D57346FFF7C4FF06BD410007
:2038E000090E7F3908D31F22511A07D300020122D2071043C84006BD002006BD0020401E1B
:2039000006BD00000A4A80180268120605D50268120602D502681206F6D481610168C907DC
:2039200005D00168C90702D00168C907F6D1704708110000B0B5002812D0C168026904468A
:203940001046FFF791FA00256061A561E561E16A206BFFF789FA6063A563E5636564A5642A
:20396000B0BD000080B508480078062807D8012181406120014202D0FFF70EFE80BD0348CD
:203980000121017080BDC046A001202072012020084880F3088800BF00BF00F0FAF80028E2
:2039A00001D0FFF7E9FE002000F0A8F8012000F0E9F8C0460080202002B49E21002805D47B
:2039C00001D102BC704701394000FCD5803001D3013100E04000400AC905084302BC7047A7
:2039E00070B50122120383180C785D680C26B54334402C195C60497883580724A3432140D9
:203A00005918815070BD0000044800210180044801700120C0060349086070476001202099
:203A20006D012020A0320A4080B5001D0521FFF783FE0349088003480021017080BDC046D9
:203A4000600120206D012020064802780121062A0B4600D800237F2002401E20D040184327
:203A600008407047A001202003480078002801D103487047014870476E012020C43C0000F8
:203A8000343D000010B592008018044A83580724A404A34321405918815010BD301800002C
:203AA00010B50122120383180C789C604B7883508978014A815010BD0C11000010B5029CEE
:203AC000A400001911431943014A815010BDC0465018000003228058002805D0401E4A1C64
:203AE00000230B701146F7E7704710B50122120383180C789C604978815010BDFFF726FDAC
:203B0000FDF7E6FFFDF7E4FFFDF7E2FFF8E780B50B4603214258C11D184600F02FF880BD6D
:203B200092008018014A81507047C0461018000000200149085E70479C012020002001498C
:203B4000085E70479E012020811E091F00BFFCD2704780B5FFF720FB80BD80B5FFF70CFCA8
:203B600080BD80B5FFF7F5FF80BD80B5FFF7C6FC80BD80B5FFF7F1FF80BD000080B5FFF7FF
:183B800053F880BD00F001F8FEE700BF7047FFE67047012070470000ED
:203B98004E43484431322067726179206C696E652064656D6F206F6E626F61726420554172
:203BB8005254302031313532303020384E310D0A004232312F52554E5049442F52554E31E5
:203BD800353A2067726179206C696E65203330733B2053544F502061626F7274730D0A006A
:203BF8004D5055363035302064697361626C65643B20656E636F646572207370656564200C
:203C1800504944206163746976650D0A004D5055363035303D44495341424C45443B20422D
:203C38003231207374617274732067726179206C696E65203330730D0A00436F6D6D616E45
:203C580064733A2052554E5049442C2052554E31352C2053544F500D0A0008005B3D000059
:203C7800503D0000193D0000503D0000433D0000563D00004A3D000002000000FF700200AF
:203C9800010000000000000000000000303132333435363738394142434445460045525280
:203CB8002042323120627573790D0A004D5055363035302D455252004F4B2052554E504912
:203CD800440D0A0045525220627573790D0A004F4B2052554E31350D0A000000180000004A
:203CF80000300000000018000000003000004F4B2053544F500D0A004F4B204232310D0AA7
:203D1800005354524149474854000800800C000020000100800C0000200101004D5055369A
:203D380030353000284C4F535429004C494E4533300041424F525400435552564500444F28
:203D58004E450049444C4500284F4B2900455252000800000800000800004F4B0008003FCD
:083D7800000000000000000043
:203D8000193200000F3B0000D53A00000200000077010000000100000F16FFF08C3D000027
:103DA00000002020943D0000780120200000000049
:00000001FF
