:2000000000802020BF310000DF210000DF2100000000000000000000000000000000000030
:20002000000000000000000000000000DF2100000000000000000000DF210000DF210000C0
:20004000DF2100008D310000DF210000DF210000DF210000DF210000DF210000DF210000E2
:2000600000000000DF210000DF2100000000000000000000DF210000A53100009D310000DC
:20008000DF210000DF210000DF210000DF210000DF2100009531000000000000000000009A
:2000A000DF210000DF2100000000000000000000DF21000000000000DF210000DF21000040
:2000C000F0B58FB0002800D104E30446B74F6D21384602F01BFF7321384602F017FF3D217C
:2000E000384602F013FF6568002D0B942DD000270A262846314602F0EDFD4643A91B30262D
:2001000031430CAAD1550A2D24D30A2102F0E2FD31430CA8C0194170642D1DD3642128463F
:2001200002F0D8FD0A2102F0D5FD3143FE1C0CA8C01981707D20C100284602F0CBFDE90886
:200140007D2937460546D3D207E03021384602F0DDFE41E07E1C00E0BE1C002E934F3BD079
:20016000701E032102F0B6FD481C0027032800D00746099602D135468C4C16E00CA8801E48
:200180000A908A4C0A9880194178204602F0BEFE012F09D0B51E0A98815D204602F0B6FE7F
:2001A000BF1E2E46EED100E0751E09980328274612D30CA82818C61EB178384602F0A6FE89
:2001C0007178384602F0A2FEED1E3178384602F09DFEF61E002DEFD12021384602F096FE21
:2001E0007321384602F092FE74253846294602F08DFE6121384602F089FE3846294602F010
:2002000085FE6521384602F081FE3D21384602F07DFE0B9E30780F2803D8800064490958AC
:2002200000E064490878002816D0CD1CAC1EC1B2384602F06BFE217800290DD06C1E3846FD
:2002400002F064FE2178002906D0384602F05EFE2878ED1C0028E9D12021384602F056FE56
:200260006721384602F052FE7921384602F04EFE7221384602F04AFE6F21384602F046FE51
:200280003D21384602F042FE707E002804D0307E00280FD148490EE04F21384602F036FE1D
:2002A00046253846294602F031FE3846294602F02DFE1AE041490878002816D0CD1CAC1EF6
:2002C000C1B2384602F022FE217800290DD06C1E384602F01BFE2178002906D0384602F061
:2002E00015FE2878ED1C0028E9D12021384602F00DFE6221384602F009FE6121384602F0B8
:2003000005FE6321384602F001FE6B21384602F0FDFD6521384602F0F9FD6E21384602F006
:20032000F5FD6421384602F0F1FD3D21384602F0EDFDF1690878002816D0CD1CAC1EC1B222
:20034000384602F0E3FD217800290DD06C1E384602F0DCFD2178002906D0384602F0D6FD00
:200360002878ED1C0028E9D12021384602F0CEFD6C21384602F0CAFD6921384602F0C6FDF5
:200380006E21384602F0C2FD6521384602F0BEFD3D21384602F0BAFD306A01F013F924208E
:2003A000305C00280CD1CD490BE0C04600801040C83100008F3300007933000086330000B5
:2003C000C5490878002816D0CD1CAC1EC1B2384602F09CFD217800290DD06C1E384602F0B9
:2003E00095FD2178002906D0384602F08FFD2878ED1C0028E9D120210991384602F086FD7E
:2004000067210891384602F081FD72210791384602F07CFD61210491384602F077FD79261F
:2004200038463146019602F071FD3D210A91384602F06CFD30210391384602F067FD7821AC
:20044000384602F063FD0B98C48C200BA44D295C384602F05BFD2005000F295C384602F047
:2004600055FD2006000F295C384602F04FFD0F202040295C384602F049FD3846099C214660
:2004800002F044FD3846314602F040FD3846049E314602F03BFD77210591384602F036FD73
:2004A00038460A9902F032FD0B98806801F08AF83846214602F02AFD7424384621460294EB
:2004C00002F024FD3846314602F020FD3846079902F01CFD3846089902F018FD6521069199
:2004E000384602F013FD3846214602F00FFD5F210891384602F00AFD3846019D294602F08C
:2005000005FD3846314602F001FD3846059C214602F0FCFC38460A9902F0F8FC0B98C068B2
:2005200001F050F83846099E314602F0EFFC3846294602F0EBFC3846049D294602F0E6FCE1
:200540003846214602F0E2FC3846089902F0DEFC3846079C214602F0D9FC3846294602F0CD
:20056000D5FC3846029D294602F0D0FC3846069902F0CCFC38460A9902F0C8FC0B980069A6
:2005800001F020F83846314602F0C0FC3846294602F0BCFC7521384602F0B8FC3846214679
:2005A00002F0B4FC6E21384602F0B0FC3846089902F0ACFC3846069E314602F0A7FC384689
:2005C000214602F0A3FC3846214602F09FFC38460A9D294602F09AFC0B9C606900F0F2FF44
:2005E0003846099902F092FC7321384602F08EFC70210491384602F089FC3846314602F0CB
:2006000085FC3846314602F081FC6421384602F07DFC3846294602F079FC2546A06A00F0CE
:2006200047FC2F243846214602F070FCE86A00F03FFC3846099902F069FC3846049E314656
:2006400002F064FC3846059902F060FC6D253846294602F05BFC3846089902F057FC384634
:20066000314602F053FC3846069E314602F04EFC3846079902F04AFC3846294602F046FC76
:200680006921384602F042FC6C253846294602F03DFC3846294602F039FC3846314602F07E
:2006A00035FC38460A9902F031FC03980B9D285E00F0FEFB3846214602F028FC3220285E44
:2006C00000F0F6FB0D21384602F020FC0A21384602F01CFC0FB0F0BD703300004833000042
:2006E000DC320000F0B58BB0002800D14AE106900120C407BD4DBE4F049001070A91BD4813
:200700003C612860286828600C3D81262E6038464038079001603960A020089002F01CFD34
:20072000B24806603846303F3C60099404600A9C089802F011FD08952E60354605973C60AB
:20074000AB4F3C60402000F05BF9002800D1EDE00026304600F054F9002800D1E6E0039668
:20076000099C3C61A14A3946A24F176010681060089805600A9F079807600F60A02630461E
:2007800002F0EAFC9948056005990C60984804603046089E0C4602F0DFFC356027609448BA
:2007A0000760412000F02CF9002800D1EDE0049800F074FA0390002000F070FA02908B4F23
:2007C0003D60099F27608A4807602C463546A026304602F0C1FC2C600A9807990860844C36
:2007E0002060304602F0B8FC276182487F49086008680860304602F0AFFC02980007020D40
:2008000003981418601E264686417C480768002C00D1E6E0784804800120214609900140C4
:200820000220204008906006C30F18460B304D1CD20A002A00D0CDE0184600D1CCE00029DD
:2008400000D00B38042222400899002901D00B38801C08212140002A029501D00B38001D07
:20086000102525400795002905930192009101D00B38801D202121408A06D21780230A9450
:200880002340099C2402079D002D039601D00B380830099D6E020A9D2C408018002B00D0B8
:2008A000C01C099A92020A9D2E40002C00D0401D0A9D2A40002E00D0C01D089D6D08089514
:2008C000019DAD080195009DED080095079D2D094909DB090993230A0793740A960A002A4D
:2008E00000D00930029A089BD218019BD218009BD21852195118059A8918099A8918079AC2
:20090000891809198C1902F023FA0546204602F057FB0146284601F08DFE002C00D00746F1
:20092000364807600699039E0A9C5BE02F4E35600A9C3946099F059807600F602E46A02526
:20094000284602F009FC089806600798046028480460284602F000FC25480761254823494B
:20096000086008680860284602F0F6FB224800880699088021480768002630464F600E722A
:200980000BB0F0BD00200BB0F0BD184F3D60099F2760174807602C46A025284602F0DCFB00
:2009A00034600A9807990860114C2060284602F0D3FB27610F480D4908600868086028460B
:2009C00002F0CAFB0C480088069908800B480768039ED2E700D032E70D46002900D030E7F5
:2009E00030E706990C800498C8E7C04618804240D0120A4081000E006E0120203C01202063
:200A0000F0B587B002900120C107A04EA04A0707812535601446303C059121601160A02050
:200A2000069002F099FB0C3E3560994908464038049007600F60069802F08EFB0599069656
:200A40003560276092480760029840280195039405D28E48056021608D48016006E08C4887
:200A600001618A498B48086008680860A025284602F072FB069E019C3460049807608448F8
:200A80000760284602F068FB3460039A1760804807600298800606D47C4804600599116024
:200AA0007B48016007E07A480599016177497948086008680860A025284602F04DFB069E97
:200AC00034600498076072480760284602F044FB3460039A17606E4807600298C00606D4C0
:200AE0006A480460059911606948016007E068480599016165496748086008680860A025C6
:200B0000284602F029FB069E34600498076060480760284602F020FB3460039A17605C4840
:200B200007600298000706D458480460059911605748016007E05648059901615349554802
:200B4000086008680860A025284602F005FB069E3460049807604E480760284602F0FCFAA2
:200B60003460039A17604A4807600298400706D446480460059911604548016007E04448B7
:200B80000599016141494348086008680860A025284602F0E1FA069E3460049807603C4841
:200BA0000760284602F0D8FA3460039A1760384807600298800706D4344804600599116023
:200BC0003348016007E03248059901612F493148086008680860A025284602F0BDFA069E27
:200BE0003460049807602A480760284602F0B4FA346003990F60264807600298C00706D1CB
:200C0000224D2C60059A0A602148026007E02048059A02611D4D1F48286028682860A0247F
:200C2000204602F099FA019E069806600498076017480760204602F08FFA069806600398DD
:200C4000076013480760059901611248286028682860204602F080FA069D2E60049807606B
:200C60000B480760204602F077FA0B48006805902E600398076006480760204602F06CFA9E
:200C80000598C043C00F07B0F0BDC04618804240D0120A4081000E0080130A40F0B58DB0E7
:200CA00008900120C1077E4C7E4A07077E480A911161E060E068E06081262660104640387D
:200CC0000C9007601760A025284602F045FA774800680790266073480446303C27600B945B
:200CE0000760284602F038FA6D4806600C9807606C480760284602F02FFA6C48006806907F
:200D000067480660276067480760284602F024FA634C26600C98076062480760284602F0F2
:200D20001BFA62480068059026600B9C27605D480760284602F010FA594806600C980760BB
:200D400058480760284602F007FA584800680490534806602760534C2760284602F0FCF98C
:200D60004F4806600C9807602760284602F0F4F94E48006803904A4806600B9C276049484F
:200D80000760284602F0E8F9454806600C98076044480760284602F0DFF9444800680290FC
:200DA0003F48066027603F4C2760284602F0D4F93B4806600C9807602760284602F0CCF9E0
:200DC0003A4800680190364806600B9C276035480760284602F0C0F9314806600C9807609F
:200DE00030480760284602F0B7F930480068009009962B48066027602A480760284602F05C
:200E0000ABF90898002807D025480999C1600A9820602449086007E00A98224908612049A2
:200E20002148C860C868C8600798C00F0699C90F8900C00040180599C90F4900401804998F
:200E4000C90F401880000399C90F490040180299C90F401880000199C90F490040180099D6
:200E6000C90F40180890A024204602F075F90C4D099E2E600C9807600A480760204602F076
:200E80006BF92E600B98076006490F600A9808610548E860E868E8600898C0B20DB0F0BDE4
:200EA0000C804240D0120A4081000E0080130A40F0B585B00546002830D464D000277D2043
:200EC000C00001900A262846314601F003FF4643A91B3026314302AAD1550A2D59D30A2142
:200EE00001F0F8FE314302A8C0194170642D54D36421284601F0EEFE0A2101F0EBFE314362
:200F0000FC1C02A8C01981702846019E314601F0E1FEB54227460546D4D23BE061487D213A
:200F2000C90001912D2101F0F1FF6D4200240A272846394601F0CEFE4743E91B3027394318
:200F400002AA11550A2D3AD30A2101F0C3FE394302A800194170642D35D36421284601F0F1
:200F6000B9FE0A2101F0B6FE3943E71C02A8001981702846019C214601F0ACFEA5423C4641
:200F80000546D4D21CE04748302101F0BFFF05B0F0BD7C1C002C03D182E0BC1C002C7FD026
:200FA000601E032101F096FE481C0027032800D007463C49009417D125460C4642E0671CD4
:200FC000002F03D16CE0A71C002F69D0781E032101F080FE481C0025032800D00546009708
:200FE00019D13C462F4E45E002A8801E019026460C46019880194178204601F087FF012F54
:201000001FD0B51E0198815D204601F07FFFBF1E2E46EED116E002A8801E0190214E0198DB
:20102000C0194178304601F071FF012D21D0BC1E0198C15D304601F069FFAD1E2746EED1D1
:2010400018E0751E009803282AD302A82818C61EB178204601F05AFF7178204601F056FF09
:20106000ED1E3178204601F051FFF61E002DEFD116E07C1E0098032812D302A82018C51E17
:20108000A978304601F042FF6978304601F03EFFE41E2978304601F039FFED1E002CEFD1C9
:2010A00005B0F0BD00801040F0B581B0674C6848002505706748057031203821CE4366499D
:2010C0008F19C1B2204601F021FF3A20395C204601F01CFF002E08D03B20395C204601F0D0
:2010E00015FF3C20385CF61CE9E742205B4E7719C1B2204601F00AFF7978204601F006FF4F
:20110000B978204601F002FFF978204601F0FEFE3979204601F0FAFE7979204601F0F6FE44
:20112000B979204601F0F2FEF979204601F0EEFE397A204601F0EAFE797A204601F0E6FE61
:20114000B97A204601F0E2FEF97A204601F0DEFE397B204601F0DAFE797B204601F0D6FE7D
:20116000B97B204601F0D2FEF97B204601F0CEFE397C204601F0CAFE797C204601F0C6FE99
:20118000B97C204601F0C2FEF97C204601F0BEFE397D204601F0BAFE797D204601F0B6FEB5
:2011A000B97D1735204601F0B1FEF87D2E2D9ED1002577202A4E7719C1B2204601F0A6FE36
:2011C0007978204601F0A2FEB978204601F09EFEF978204601F09AFE3979204601F096FE06
:2011E0007979204601F092FEB979204601F08EFEF979204601F08AFE397A204601F086FE22
:20120000797A204601F082FEB97A204601F07EFEF97A204601F07AFE397B204601F076FE3D
:20122000797B204601F072FEB97B204601F06EFEF97B204601F06AFE397C1135204601F077
:2012400065FE787C332DB6D101B0F0BD008010407A012020740120200832000078320000CE
:2012600044320000F0B59BB000F058FA411E022905D3032812D0042827D1594823E0054644
:201280005948046801F04AFF0146204600F004FF00280AD0022D0ED057480DE001F04EFE8F
:2012A000782001F0C5FE4F480DE001F043FF002808D04F4807E04F4801F0ECFCDC2001F050
:2012C000B7FE02E0494801F0E5FC4C4C2068800214D44B4D2878002813D101267705494812
:2012E00001F03AFF206838420BD12E7001F0B0FE002867D001F022FE78206EE040480021AA
:201300000170EFF3108172B63F4A107800231370002900D162B6002834D0099301F050FEF1
:201320003A4901F077F8044617A800901AA919AA18AB204600F0F4FD0AAD2846FFF7D2F9BB
:20134000204600F07FFA2848006806901A9808901998079001F0E2FE074601F0E5FE064680
:2013600001F0E8FE0B992A7A2B880097019602AD0FC506982146089A079B00F04BF801F07D
:2013800049FC099B22480178012915D103701648046801F0C3FE054601F0C6FE064601F045
:2013A000C9FE03460AAF009720462946324601F0C3F93846FEF784FE7D20000201F0CCFE84
:2013C0001BB0F0BD0848046801F0A8FE0146204600F062FE002894D0DC2001F029FE90E72E
:2013E000A73200002E3300003001202004330000F9320000ED3200000F33000080330A4082
:201400002301202000E20400770120200AD7A33B7D012020F0B589B0129C119E139D574FBC
:201420003A60574A1360574A1660574A1470574A1580574B1A78012A06D100201870604806
:201440000F2101705C4892E00691524909680390411A0520484305900020002C07460490D2
:20146000044647D04C480168304600F0EDFC069D294601F0DFF80290484804683046294672
:2014800000F0C8FF214600F0E4FC0546444C214601F0CCFA002800D12C46424F2046394684
:2014A00001F0A9FA002800D127460021384600F0B1FF044641200106304600F0ABFF2146CA
:2014C00000F0C7FC04463849029800F0A3FF214600F0BFFC0446354D294601F0A7FA00285B
:2014E00000D12546324C2846214601F084FA002800D12C4629480760274806602D4D2046F6
:20150000294600F0A6FC06462846214600F09CFC0246294C2046314601F023FE17480068AE
:2015200001F016FC05461648006801F011FC024607AE019608AF009720462946069B01F050
:201540005FFC0499785E715E00F002FA1B480599814210D31A480E21017003980D49086000
:20156000154C002120460A4601F0FBFD204601F0FDFC01F0DFFA09B0F0BDC0465001202033
:201580005401202040012020760120206C0120207B012020580120204C012020440120206A
:2015A0000000A0410000A0C1CDCC4C3D0000C8420000C8C200004843BC002020983A0000DA
:2015C00094012020F0B587B004460026314601F012FA0546002801D14D4900E04B492046C1
:2015E00000F018FF002D4B4F05D02D210446384601F08CFC204601F06FFC0A28029004D25D
:201600003021384601F082FC71E007460A253846294601F05FFB294601F05CFB3024214318
:2016200004A88155642F21D36421384601F052FB0A2101F04FFB214304A880194170F808A0
:201640007D2815D37D20C100384601F043FB05460A2101F03FFB2143F41C04A880198170A7
:201660002D48874226462F46D0D202E0741C00E0B41C002C274F3AD0601E032101F02AFB23
:20168000481C0026032800D00646019402D12546204F16E004A8801E03901E4F0398001943
:2016A0004178384601F032FC012E09D0A51E0398015D384601F02AFCB61E2C46EED100E096
:2016C000651E0198032812D304A82818C41EA178384601F01BFC6178384601F017FCED1E0B
:2016E0002178384601F012FCE41E002DEFD12E21384601F00BFC0A21029801F0EBFA302035
:201700000143384601F002FC07B0F0BD000020C100002041008010401027000070B586B010
:2017200045480178012932D1EFF3108272B61421C943424B03E06D466D18EC75C91C5C1837
:20174000657D002D26D0657D2E46613EF6B21A2E00D2203D6E4676187575A57D002D1BD00A
:20176000A57D2E46613EF6B21A2E00D2203D6E467618B575002911D0E57D002D10D0E47DCF
:201780002546613DEDB21A2DD5D2203CD3E7002006B070BD153104E0163102E0172100E02F
:2017A00017316B4600245C54047025480470002A00D162B66D462A786B78AC78E8782D7992
:2017C00005290CD1522A0AD1552B08D14E2C06D1312804D1352D02D1012006B070BD6E46E2
:2017E00006290FD1522A0DD1552B0BD14E2C09D1502807D1492D05D17579442D02D10220E0
:2018000006B070BD04255326502801D0284600E00320694072404F2C00D028461143542BA2
:2018200003D1002904D106B070BD28460029FAD0284606B070BDC046740120200001202045
:201840007A012020F0B581B00546EFF3108072B633490F6833490E88002800D162B60024D8
:201860002846214601F0D0F8002856D12E4801688F420FD12D4C2168284600F0EAFA206037
:201880003F21090601F0D2F800282ED029480024047042E0076025480024046030B201F09E
:2018A00057FA234900F0B6FD224E317800291FD001242449096800F0C7FA0646E1078843E4
:2018C0003F21090601F097F8002800D000261F4806601D4807683046294600F09BFD39466E
:2018E00000F0B7FA1849086017E01248047814E0114D296800F0ADFA286010490A68521C76
:201900000A60642A09D30E4900F094FE0D490860012030700C4800240460204601B0F0BDFB
:2019200034012020700120202C0120206001202000007A3D79012020280120202401202034
:201940000000C842380120206401202068012020F0B585B00C467D27FD003C4A9042034648
:2019600000DC1346AB4200DB2B469442039400DC14461922AC4200DB2C46334ED1010491F8
:20198000334A1380334A148000280197029512D0DA175340D11A4D19012813DB0122304668
:2019A000049901F0B3FB04984543F900284601F091F9074612E0002701223046394601F076
:2019C000A5FB0BE004984543F900284601F082F901460122304601F099FB049F00253046E2
:2019E00039462A4601F092FB20B2C1174840081A02990F180398184E00280BD010DD049DD2
:201A00006F430198C100384601F064F901460022304602E0304629462A4601F077FB0CE089
:201A200000223046049C214601F070FB67430198C100384601F04EF905460122304629469E
:201A400001F064FB05B0F0BD0000094018FCFFFF900120209201202000008640F0B5394AE7
:201A60008218394BC0183A4D4C790B79002C22D0466F202B02D00524E70100E0354F2E40CD
:201A8000002B00D188273E434667846F2C403C438467446B2D4E34404463846B3440846315
:201AA00000244465846554688F26F643344054609468344094600C688979202B09D0064654
:201AC0007036002B15D1641E4460C46E2C40882715E0641E4460C46E2C401E4E3443C46616
:201AE000046F2C40344304671B4D01246707064607E00527FF0164084460C46E2C403C439E
:201B0000C46634682C403C433460C46A0F4D2C40C462046B2C4004630024C4640465C46F3A
:201B20008F25ED432C40C46714682C401460194302680A4B1340BD220A40D118891C016048
:201B4000F0BDC04684180000041800008888FDFF24493E0001040000FFFFFFCF4000FFCF84
:201B6000B0B53A4A80184A6842600A78222A56D8930001A4E3589F46151C00001F1C0000D0
:201B8000151C00001F1C00001F1C00001F1C00001F1C00001F1C00001F1C00001F1C000077
:201BA0001F1C00001F1C00001F1C00001F1C00001F1C00001F1C0000051C00001F1C000067
:201BC000051C00001F1C00001F1C00001F1C00001F1C00001F1C00001F1C00001F1C000047
:201BE0001F1C00001F1C00001F1C00001F1C00001F1C00001F1C0000051C00001F1C000027
:201C0000051C0000036803242407A343012464071B1903E0036803242407A34303600B69DF
:201C2000C360CB68C46A0A4D25400A4C1C402B19C3620368084C1C400460097A1143026889
:201C40003F239A43194051180160B0BD041800008888FDFF777702007F00FFFF70B5324980
:201C600008463438872202603048022202600A46383A862313600122026085230B61140214
:201C800004604B6153020360294D4D60486848600D60086808604B68500603434B600B684F
:201CA00003430B6082248C61224BCB614C64224C26463C3E3360ED1E6560656865601F4DE2
:201CC0002563266B2663E561E669E6612562266A266225602668266008390D600D680D60BE
:201CE0008121A16216490C68950525430D6015490C6AD20614430C620C6814430C601249FA
:201D00000A600A6311490A68042414430C600A69823B13430B610E490A6A801C02430A622B
:201D20000A6802430A6070BD3C804240D0120A4084000E0082000400C080424081000C0084
:201D4000A0130A4028100A40A0320A4090330A4028300A40F0B585B003931746029104468F
:201D6000066900251046294600F04EFE002861D10120C1073046049188433F21090600F056
:201D80003AFE002856D13046029900F05DF8054620680290A6692846314600F055F801903F
:201DA0006168384600F036FB0146284600F032FB00900298019900F02DFB009900F049F843
:201DC0000090A068394600F035FC074630460196314600F03EF801460295284600F034F86C
:201DE000E16900F036F80146384600F013FB009900F02FF80146606900F02BF80646039DF9
:201E000004996940049100F0F6FD07463046294600F00CFE002800D13546002F049800D1C8
:201E2000284660610299A1610199E16101F004F8054606E0E168304600F0ECFA6061A56180
:201E4000E561284605B0F0BDFCB40127FF07794002E0FCB40127FF070C024D002D0E03D1AB
:201E6000002C52D1FCBC70473C43FF2D50D0A408002900D56442020243001B0E04D1002A1A
:201E800043D10800FCBC70473A43FF2B41D09208002800D552425E1B04D5170022003C000D
:201EA00076422B00192E06D527003741D2191C27F71B7F42BC40002A27D002D552420127CD
:201EC00000E00027013B5200FCD51500802635400FD01500202635402C43803208D21500AD
:201EE000402635402C4304D101263602B24300E05B1C5200023308DDFF2B0BD2500ADB056B
:201F00001843FF073843FCBC70470020FCBC70470800C70FFF07FF20C0053843FCBC704735
:201F2000F0B583B01D4600920F460446EFF3108072B627490E68274909680291002800D148
:201F400062B60021204600F05FFD0028019500D0214C22490868224A15680E60029911605D
:201F6000002F0BD0301A00F0F3FE1E4900F052FA214600F05FFB00F05FFF3860009F002F24
:201F80000CD00298401B00F0E3FE164900F042FA214600F04FFB00F04FFF3860089C019D5B
:201FA000002D08D0304600F0D3FE0E4900F032FA00F042FF2860002C08D0029800F0C8FE65
:201FC000084900F027FA00F037FF206003B0F0BD80012020840120200AD7A33B880120208B
:201FE0008C0120209C9D0F3FF0B525480168490740D42449244A254B254C04E000250D706C
:2020000005686D0736D4C5690E78002E29D00E78771C0F7095550D780B2DF1D3157856789C
:2020200075199678AD19D678AD191679AD195679AD199679AD19D679AD19167AAD19567A30
:20204000AD19EDB2967AB542D8D15578522DD5D1D5792D029679AD191D8025686D1C2560EF
:20206000CCE7EDB2552DCBD10D786E1C0E7055265655C5E70120800206490860F0BDC04684
:20208000083110407501202018012020700120203401202048301040F0B581B00C46054647
:2020A000194F397800200F292BD8012632468A4016490A4225D000F0DBFE154805601548BB
:2020C000002101701448016014480160144801701448018014480160144801601448016013
:2020E0003E701448056014480460144C144920460A4601F036F8204600F038FF00F01AFD8B
:20210000304601B0F0BDC0469401202001C00000480120207B012020400120204401202004
:20212000760120206C0120204C0120205001202054012020580120205C012020BC00202056
:2021400000004843002A49D084468B071CD1830722D1102A08D370B4103A78C978C0103AA5
:20216000FBD270BC103238D0042A2CD3082A05D30C2A01D308C908C008C908C008C908C010
:2021800092072AD0920F22E00B780370491C401C521E22D08B07F7D1C30714D18307D8D0B5
:2021A000121F12D308C903801B0C4380001D121FF8D20AE008C903701B0A43701B0A837095
:2021C0001B0AC370001D121FF4D2121D05D00B780370491C401C521EF9D160467047FEE75C
:2021E00080B582B01348002303701348036013480360134803601348037013480360134866
:202200000360134803701348038013480360134803601348036013487F21C905009101908A
:2022200011483F210906114A00F074FB00F082FC02B080BD940120204801202058012020C8
:202240005C0120207B0120204001202044012020760120206C0120204C012020500120209D
:202260005401202000007A44BC002020CDCC4C3E70B582B01B491C4C204600F007FF1B4909
:202280002046FFF7EBFB1A4801681A4A0A40026000250095204629462A462B4600F004FFBE
:2022A000204629462A4600F0E3FE204629462A4600F02CFF01260096204629462A462B4635
:2022C00000F0F2FE20462946324600F0D1FE20462946324600F01AFF074886600321016002
:2022E00002B070BD803300000000094038330000041809407F00FFFF0011094070B582B005
:202300001B491C4C204600F0C1FE1B492046FFF7A5FB1A4801681A4A0A40026000250095E7
:20232000204629462A462B4600F0BEFE204629462A4600F09DFE204629462A4600F0E6FE52
:2023400001260096204629462A462B4600F0ACFE20462946324600F08BFE2046294632465D
:2023600000F0D4FE074886600321016002B070BD8333000000008640403300000418864031
:202380007F00FFFF0011864040B542004B005E08164301D006004E4000D4D01A04D201208E
:2023A000C90F06D1404204E003D90120C90F00D04042FF263606B24200D8B34200D90120C5
:2023C00040BD40B542004B005E08164301D006004E4000D4D01A04D20120C90F06D1404274
:2023E00004E003D90120C90F00D04042FF263606B24200D8B34201D90120404240BD4200F4
:202400004B000020FF2109068A4200D88B4200D901207047FCB40127FF0706004E4001D4B9
:20242000002600E03E00020243001B0E30D03A43FF2B30D00C024D002D0E29D03C43FF2D07
:2024400029D05B194240504042404C4061404C4000B500F09BFC20BCAE4642405040424022
:202460004C4061404C4025001400002C01D46400013B803401D3013364087E3B08DDFF2BD9
:2024800009D2BC43200ADB0518433043FCBC70470020FCBC7047FF20C0053043FCBC7047C6
:2024A00010B51B491B4C204600F015FE1A49204600F08CFB194801680322D20391430160EA
:2024C0000169174A0A4011320261416917220A4328218A434261426801210A4043688B43C9
:2024E0009A1842600F4A13688C021C43146002684B0413430360C26870231343C360C26881
:202500000A4306239A43C26002680A43026010BD89330000008010401A33000000911040A6
:202520000000FFFF2890104010B51B491B4C204600F0D1FD1A49204600F048FB194801681B
:202540000322D203914301600169174A0A4011320261416917220A4328218A4342614268FE
:2025600001210A4043688B439A1842600F4A13688C021C43146002684B0413430360C26851
:2025800070231343C360C2680A4306239A43C26002680A43026010BD8B330000002010407C
:2025A00024330000003110400000FFFF28301040F0B583B01A48002101801A4801600120DD
:2025C000C207194C2261194B19491960196819601E460C3E8121316001912546403D0707A8
:2025E0002F602760196020463038029202602260A024204600F0B0FD019830602F600A4D30
:202600002F60204600F0A8FD0298286108480749086008680860204600F09EFD03B0F0BDDC
:202620006E0120203C012020D0120A401880424081000E00FCB40127FF0706004E40F60F22
:20264000F607020243001B0E2DD03A43FF2B2DD00C024D002D0E26D03C43FF2D26D05B1BC9
:202660000020202164085208A2424041A24200D3121B013904D0002A01D05200F4D1884002
:20268000384201D14000013B803001D3013300E040007F3307DDFF2B08D2400ADB0518437B
:2026A0003043FCBC70470020FCBC7047FF20C0053043FCBC70477047F0B50020C043184903
:2026C000184B0127FA067E06103B1D6815400B46103B1B68002D09D0134C246834420446F6
:2026E00000D03C46114F396861183960B71C334208D00F490968C90200D501200D490C6801
:20270000001908603B40002D03D00649086810430860002B03D00249086818430860F0BD1A
:2027200048300A4048100A4080130A408001202080330A408401202070B5049C002C2AD0EA
:20274000154D2D782570154D2D68401B052545431348006800266560A16021460C3145C180
:202760002376667600F00EFD0E490968E06121620D480078242160540C480088E0840C4803
:2027800000680C490968A062E16200F0D9FC208600F0DCFC608670BD940120204801202022
:2027A0005C01202040012020760120206C0120205001202054012020F8B5451C00780023C8
:2027C000082B32D02F78C2070CD16A780F241440E41C122C0BD102242E57F4B2002E08D499
:2027E000EE1C0EE06D1C4A1C0F7011461AE0AE1C08E02E1DED7800957F252C40009DED0190
:202800002C1912343D0112095219094DAA420ED0D243002C05D08D5C4F1C0D70641E394661
:20282000F7E7354640085B1CCAE72846C5E7F8BDFF0F0000F0B581B0104811494160114870
:202840004160114B5960114C6160114D6960114E7160114F7960114841601149074A1160FE
:20286000084A1160196021602960316039600160102000F071FC01B0F0BDC04600080A4044
:20288000030000B100280A4000080940000886400008874000280F4000881040002810405D
:2028A00001000026F0B5164A1068C0B20B2825D1144801218B029362026852071ED4124AC8
:2028C000124B134C06E01D7800266655117005686D0713D4C5691678002EF8D1EEB20D2E09
:2028E000F5D00A2EEFD01E78162E04D81E78771C1F70A555EBE700251D70E8E7F0BDC046AE
:202900002090104008911040740120207A01202000012020F0B585B000282ED0044602A829
:202920000EC00B9F00253846294600F064F80190134E3846314600F079F8002800D13E46FC
:202940000A98019900292946049A00D131462164029B236003996160A260E060256123626E
:202960006162A262E06225632946FFF753FD6061A561E5616063A563E56305B0F0BDC04689
:2029800000007A440C49002008700C4908600C4908800C4908700C4908600C4908600C4956
:2029A00008600C4908600C4908600C4908600C49086001207047C0467501202034012020B2
:2029C00070012020790120202C01202024012020280120203801202064012020680120208A
:2029E0006001202010B5FFF7CFFC002801D0002010BD012010BD10B5FFF7C6FC002801DB5B
:202A0000002010BD012010BD10B5FFF7BDFC002801DD002010BD012010BD10B5FFF7D1FCFE
:202A2000002801DA002010BD012010BD10B5FFF7C8FC002801DC002010BD012010BD000059
:202A400080B51149114800F0CFFA11480168032252020A430260026801210B021343036099
:202A60000022426107224262836B93438363836B120293438363826A042313438362826A22
:202A80000A43826280BDC0468D33000000200F4000320F4080B500F005FA00F071F8FFF79F
:202AA00087FD00F0B5FAFFF76DFF00F043FBFFF797FBFEF7F9FA0122530508480360084974
:202AC0000B60D30303600B60920302600A60022202600A6002600A6080BDC04680E200E045
:202AE00000E100E00E480068C0B2012816D10D480168491C01600C480178FF2902D0017811
:202B0000491C017009480178491CCAB20170142A04D3002101700648012101707047C0467E
:202B20002010874030012020770120207C0120207D01202070B50E48002404800D480480FE
:202B40000D4E0125304621462A4600F0DFFA30462146224600F0DAFA084E3046214622463A
:202B600000F0D4FA304621462A4600F0CFFA70BD90012020920120200000094000008640B1
:202B800070B50E48002404800D4804800D4E0125304621462A4600F0B9FA30462146224683
:202BA00000F0B4FA084E30462146224600F0AEFA304621462A4600F0A9FA70BD9001202066
:202BC00092012020000009400000864070B511221302C218C4580125AC43C4500C888D78EE
:202BE00025438C882C43C558084E2E40084D25407419C4508879CB790343087A184351688D
:202C00007E23994318400818506070BDE798FDFF1867000010B50C48018800290ED00B4AEA
:202C200013785C1C1470DA0703D00122D206084B1A61491E0180080400D010BD0120C00618
:202C40000349086010BDC0467201202078012020A0320A400D48002101600D48011F0A68A7
:202C60000323DB4313400B60416801229143416041681202914341600168302291430160EF
:202C800001680F22914301607047C04608030B4004010B4070B50178002917D00C4CC51C1B
:202CA000AE1EC9B2204600F031F9317800290DD06E1E204600F02AF93178002906D020468B
:202CC00000F024F92978ED1C0029E9D170BDC046008010401CB50A0017D000230124E40762
:202CE000A04200D20400944201D95200FBE790425B41904200D3801A914201D25208F6E7AE
:202D000019000200080011001CBD01000020FFF7D2FC1CBD70B50A480A4C84420CD00A4D22
:202D20000A4EB54208D02A686968501C12789200A25890470835F4E700BF00BF70BDC046E7
:202D4000A433000098330000B4330000C433000006B49E22002802D404D106BC70474142AA
:202D600004D400E00100013A4900FCD5803101D3013200E04900490AD2051143002802D5E7
:202D80000122D2071143080006BC7047FCB4020C0B0CFF242402FF34204021400C004443BD
:202DA00015005D4306005E430F005743320C3B0CA818C01832043B040025A1186841C91814
:202DC0006841FCBC7047000010B50849084C204600F05CF907492046FEF7C2FE06480168A4
:202DE0000122114301600548026010BD7D33000000008740C832000028108740081187402F
:202E0000F0B581B0002815D0069D002D12D0079F002F0FD01C46036C064600922246FEF75D
:202E200099FF2880336C2036304600992246FEF791FF388001B0F0BD06B54100090E7F3980
:202E40000DD41F22511A0CD9864600020122D2071043C8407246002A00D5404206BD0020BF
:202E600006BD02000120C007002A00D4401E06BDEFF3108072B6074900220A6006490A6057
:202E800006490A6006490A60002800D0704762B67047C046800120208401202088012020ED
:202EA0008C01202080B5FFF7C5FCFEF7D7FEFFF7D1FEFFF7DDF9FFF721FAFFF785FFFFF77D
:202EC000BFFDFFF7EDFAFFF72FFB0248B8210022425480BD0000202006B5002803D573466D
:202EE000FFF7AAFF06BD4100090E7F3908D31F22511A07D300020122D2071043C84006BDE3
:202F0000002006BD0020401E06BD00000A4A80180268120605D50268120602D5026812066A
:202F2000F6D481610168C90705D00168C90702D00168C907F6D170470811000080B5084877
:202F400000780F2807D8012181400648014202D0FFF7F0FD80BD04480121017080BDC0465B
:202F60009401202001C000007B012020B0B5002810D0C168026904461046FFF74BFA0025FE
:202F80006061A561E561E16A206BFFF743FA6063A563E563B0BD0000084880F3088800BF89
:202FA00000BF00F00EF9002801D0FFF7B3FE002000F09AF8012000F0FDF8C046008020204D
:202FC00002B49E21002805D401D102BC704701394000FCD5803001D3013100E04000400AC9
:202FE000C905084302BC704770B50122120383180C785D680C26B54334402C195C604978A2
:2030000083580724A34321405918815070BD0000044800210180044801700120C006034916
:20302000086070477201202078012020A0320A4080B5001D0521FFF74DFE03490880034811
:203040000021017080BDC04672012020780120200548027801210F2A0B4600D80023034876
:20306000D04018430840704794012020FE3F000010B592008018044A83580724A404A34303
:2030800021405918815010BD3018000010B50122120383180C789C604B7883508978014A7E
:2030A000815010BD0C11000010B5029CA400001911431943014A815010BDC046501800002E
:2030C00003228058002805D0401E4A1C00230B701146F7E7704710B50122120383180C788C
:2030E0009C604978815010BDFFF7D4FCFEF7BAF8FEF7B8F8FEF7B6F8F8E780B50B46032137
:203100004258C11D184600F051F880BD92008018014A81507047C046101800000148006887
:203120007047C04664012020014800687047C04668012020014800787047C04679012020DE
:2031400000200149085E70479001202000200149085E704792012020811E091F00BFFCD269
:203160007047002801D001610263704780B5FFF7A3FA80BD80B5FEF737FF80BD80B5FFF754
:2031800091FB80BD004870474F33000080B5FFF7EDFF80BD80B5FFF7A5FC80BD80B5FFF75D
:2031A000EDFF80BD80B5FFF7E5FF80BD80B5FEF7C9FF80BD00F001F8FEE700BF7047EBE656
:0831C000704701207047000078
:2031C8006B330000753300005533000066330000553300007533000055330000663300002F
:2031E800553300007533000055330000663300005533000075330000613300005B33000024
:20320800313263682067726179206C696E652D666F6C6C6F77202B20656E636F64657220B2
:203228005049442064656D6F2055415254302031313532303020384E310D0A007768656578
:203248006C2074617267657420323030206D6D2F733B206779726F2064697361626C656491
:2032680020696E20746869732064656D6F0D0A004232312F52554E5049442F52554E31356B
:203288003A2067726179206C696E65203135733B2053544F502061626F7274730D0A0043B2
:2032A8006F6D6D616E64733A2052554E5049442C2052554E31352C2053544F500D0A00009B
:2032C80002000000FF700200010000000000000000000000303132333435363738394142E2
:2032E80043444546004F4B2052554E5049440D0A0045525220627573790D0A004552522025
:203308006779726F0D0A004F4B2052554E31350D0A00000018000000003000000000180041
:203328000000003000004F4B2053544F500D0A00800C000020000100800C000020010100E3
:20334800284C4F53542900554152543200434F4153540041424F525400444F4E45005455A3
:20336800524E0049444C4500284F4B290046574400455252000800000800000800004F4B20
:10338800000800080008003F0000000000000000DE
:20339800B9270000FB300000C1300000020000007E010000000100000F02FFF0A4330000C0
:1033B80000002020AC330000800120200000000025
:00000001FF
