:2000000000802020A71A00000F0F00000F0F00000000000000000000000000000000000023
:200020000000000000000000000000000F0F000000000000000000000F0F00000F0F000066
:200040000F0F00008B1A00000F0F00000F0F00000F0F00000F0F00000F0F00000F0F000029
:20006000000000000F0F00000F0F000000000000000000000F0F00000F0F00000F0F0000EA
:200080000F0F00000F0F00000F0F00000F0F00000F0F00000F0F00000000000000000000AC
:2000A0000F0F00000F0F000000000000000000000F0F0000000000000F0F00000F0F0000AA
:2000C000F0B58DB0002800D1B3E10446DA4F6D21384601F0E3FB7321384601F0DFFB3D2128
:2000E000384601F0DBFB6568002D07942DD000270A262846314601F0EBFA4643A91B302674
:2001000031430AAAD1550A2D24D30A2101F0E0FA31430AA8C0194170642D1DD36421284649
:2001200001F0D6FA0A2101F0D3FA3143FE1C0AA8C01981707D20C100284601F0C9FAE9089A
:200140007D2937460546D3D207E03021384601F0A5FB41E07E1C00E0BE1C002EB64F3BD092
:20016000701E032101F0B4FA481C0027032800D00746089602D13546AF4C16E00AA8801E2E
:200180000990AD4C099880194178204601F086FB012F09D0B51E0998815D204601F07EFBD7
:2001A000BF1E2E46EED100E0751E08980328274612D30AA82818C61EB178384601F06EFBC8
:2001C0007178384601F06AFBED1E3178384601F065FBF61E002DEFD120213846099101F094
:2001E0005DFB7321384601F059FB74253846294601F054FB6121384601F050FB3846294661
:2002000001F04CFB6521384601F048FB3D21384601F044FB079806460078032803D8800079
:200220008749095800E085490878002816D0CD1CAC1EC1B2384601F031FB217800290DD0F1
:200240006C1E384601F02AFB2178002906D0384601F024FB2878ED1C0028E9D13846099DAB
:20026000294601F01BFB7421384601F017FB69210391384601F012FB6321384601F00EFB5C
:200280006B21384601F00AFB3C46732720463946009701F003FB3D210891204601F0FEFA91
:2002A000B06800F0CFF82F210491204601F0F6FAF06800F0C7F82046294601F0EFFA204627
:2002C000394601F0EBFA70210691204601F0E6FA652502952046294601F0E0FA20462946D4
:2002E00001F0DCFA6421204601F0D8FA5F2720463946059701F0D2FA6D25019520462946C8
:2003000001F0CCFA2046294601F0C8FA2046394601F0C4FA2046009D294601F0BFFA204688
:20032000089901F0BBFA306900F08CF82046049F394601F0B3FA706900F084F820460999F6
:2003400001F0ACFA2046069901F0A8FA6F21204601F0A4FA2046294601F0A0FA2046059985
:2003600001F09CFA2046019D294601F097FA2046294601F093FA2046089901F08FFAB06914
:2003800000F060F82046394601F088FAF06900F059F82046099E314601F080FA2046069F29
:2003A000394601F07BFA7721204601F077FA2046294601F073FA2046059901F06FFA204601
:2003C000394601F06BFA2046029F394601F066FA7221204601F062FA2046294601F05EFA0D
:2003E0002046039901F05AFA6C252046294601F055FA2046294601F051FA2046394601F029
:200400004DFA2046089901F049FA079DA85F00F019F82046049901F041FA2220285E00F0C7
:2004200011F80D21204601F039FA0A21204601F035FA0DB0F0BDC046008010406E1B000081
:20044000341B0000F0B585B00546002830D464D000277D20C00001900A262846314601F0AD
:2004600037F94643A91B3026314302AAD1550A2D59D30A2101F02CF9314302A8C019417017
:20048000642D54D36421284601F022F90A2101F01FF93143FC1C02A8C01981702846019E64
:2004A000314601F015F9B54227460546D4D23BE061487D21C90001912D2101F0EFF96D42DE
:2004C00000240A272846394601F002F94743E91B3027394302AA11550A2D3AD30A2101F01B
:2004E000F7F8394302A800194170642D35D36421284601F0EDF80A2101F0EAF83943E71C3E
:2005000002A8001981702846019C214601F0E0F8A5423C460546D4D21CE04748302101F0C5
:20052000BDF905B0F0BD7C1C002C03D182E0BC1C002C7FD0601E032101F0CAF8481C002776
:20054000032800D007463C49009417D125460C4642E0671C002F03D16CE0A71C002F69D076
:20056000781E032101F0B4F8481C0025032800D00546009719D13C462F4E45E002A8801E68
:20058000019026460C46019880194178204601F085F9012F1FD0B51E0198815D204601F08C
:2005A0007DF9BF1E2E46EED116E002A8801E0190214E0198C0194178304601F06FF9012D4F
:2005C00021D0BC1E0198C15D304601F067F9AD1E2746EED118E0751E009803282AD302A8E6
:2005E0002818C61EB178204601F058F97178204601F054F9ED1E3178204601F04FF9F61E12
:20060000002DEFD116E07C1E0098032812D302A82018C51EA978304601F040F969783046D8
:2006200001F03CF9E41E2978304601F037F9ED1E002CEFD105B0F0BD00801040F0B581B05B
:200640005F4C6048002505705F4805706F205F4E7719C1B2204601F021F97978204601F099
:200660001DF9B978204601F019F9F978204601F015F93979204601F011F97979204601F098
:200680000DF9B979204601F009F9F979204601F005F9397A204601F001F9797A204601F0B4
:2006A000FDF8B97A204601F0F9F8F97A204601F0F5F8397B204601F0F1F8797B204601F0D4
:2006C000EDF8B97B204601F0E9F8F97B204601F0E5F8397C204601F0E1F8797C204601F0F0
:2006E000DDF8B97C1335204601F0D8F8F87C262DAED100254220364E7719C1B2204601F0D6
:20070000CDF87978204601F0C9F8B978204601F0C5F8F978204601F0C1F83979204601F03C
:20072000BDF87979204601F0B9F8B979204601F0B5F8F979204601F0B1F8397A204601F058
:20074000ADF8797A204601F0A9F8B97A204601F0A5F8F97A204601F0A1F8397B204601F074
:200760009DF8797B204601F099F8B97B204601F095F8F97B204601F091F8397C204601F090
:200780008DF8797C204601F089F8B97C204601F085F8F97C204601F081F8397D204601F0AC
:2007A0007DF8797D204601F079F8B97D1735204601F074F8F87D2E2D9ED101B0F0BDC0461E
:2007C00000801040EF002020ED002020DF1A0000B01A0000F0B585B07D26F7003F4A90425B
:2007E000034600DC1346BB4200DB3B4691420D4600DC15461922BD4200DB3D46364CD201D8
:200800000492374A1380374A0195158000280296039113D0DA175340D11A0097CD19012836
:2008200013DB01222046049F394601F00DF97D43F100284600F04CFF064612E00026012247
:200840002046314601F000F90CE0049F7D43F100284600F03DFF01460122204601F0F4F84A
:200860003E46009F0025204631462A4601F0ECF8039A1D4E002A15D0019800B2C11748404C
:20088000081A3D18012A13DB00223046049C214601F0DAF865430298C100284600F018FFEE
:2008A000054612E0304629462A4601F0CDF80CE0049C65430298C100284600F009FF0146B4
:2008C0000022304601F0C0F8254601223046294601F0BAF805B0F0BD0000094018FCFFFF04
:2008E000040120200601202000008640F0B58DB000F004F903280FD0022809D0012810D1C0
:200900003448006800F05EFD002807D1334806E001F030F82E4802E02C4800E02E4800F01C
:20092000B7FE2F4C2068800213D42E4D2878002812D1012677052C4801F0A2F820683842CC
:200940000AD12E7001F088F800283AD001F012F802E0244800210170EFF3108172B6234A98
:20096000107800241470002900D162B6002814D000F0ECFF1E4900F0E7FB0AA9009101A927
:200980000CAA0BAB00F0BAF91248006801990C9A0B9B0A9D009500F015FA16480178012964
:2009A00009D104700B48006801AC214600F0D6FC2046FFF785FB7D20000201F061F80DB0D6
:2009C000F0BD0448006800F0FDFCC5E7061B0000641B0000D4002020441B00004F1B0000A4
:2009E00080330A40EC00202000E20400EE0020200AD7A33BF1002020F0B5394A8218394B84
:200A0000C0183A4D4C790B79002C22D0466F202B02D00524E70100E0354F2E40002B00D15F
:200A200088273E434667846F2C403C438467446B2D4E34404463846B3440846300244465B4
:200A4000846554688F26F643344054609468344094600C688979202B09D006467036002BC0
:200A600015D1641E4460C46E2C40882715E0641E4460C46E2C401E4E3443C466046F2C4078
:200A8000344304671B4D01246707064607E00527FF0164084460C46E2C403C43C466346827
:200AA0002C403C433460C46A0F4D2C40C462046B2C4004630024C4640465C46F8F25ED438D
:200AC0002C40C46714682C401460194302680A4B1340BD220A40D118891C0160F0BDC046EA
:200AE00084180000041800008888FDFF24493E0001040000FFFFFFCF4000FFCFF0B586B0CD
:200B00003C480178012932D1EFF3108272B61421C943394B03E06D466D18EC75C91C5C1875
:200B2000657D002D26D0657D2E46613EF6B21A2E00D2203D6E4676187575A57D002D1BD036
:200B4000A57D2E46613EF6B21A2E00D2203D6E467618B575002911D0E57D002D10D0E47DFB
:200B60002546613DEDB21A2DD5D2203CD3E7002006B0F0BD153104E0163102E0172100E0DB
:200B800017316B4600245C5404701C480470002A00D162B66D462B786A78AC78E87805293F
:200BA0000DD1522B0BD1552A09D14E2C07D1312805D12D79352D02D1012006B0F0BD04279A
:200BC00053260325502801D0284600E00220794073404F2C00D028461943542A03D10029BF
:200BE00004D106B0F0BD28460029FAD0284606B0F0BDC046ED002020BC002020EF0020202D
:200C0000B0B53A4A80184A6842600A78222A56D8930001A4E3589F46B50C0000BF0C00001F
:200C2000B50C0000BF0C0000BF0C0000BF0C0000BF0C0000BF0C0000BF0C0000BF0C000066
:200C4000BF0C0000BF0C0000BF0C0000BF0C0000BF0C0000BF0C0000A50C0000BF0C000056
:200C6000A50C0000BF0C0000BF0C0000BF0C0000BF0C0000BF0C0000BF0C0000BF0C000036
:200C8000BF0C0000BF0C0000BF0C0000BF0C0000BF0C0000BF0C0000A50C0000BF0C000016
:200CA000A50C0000036803242407A343012464071B1903E0036803242407A34303600B69BF
:200CC000C360CB68C46A0A4D25400A4C1C402B19C3620368084C1C400460097A11430268F9
:200CE0003F239A43194051180160B0BD041800008888FDFF777702007F00FFFFF0B583B0B8
:200D00001D4600920F460446EFF3108072B627490E68274909680291002800D162B6002119
:200D2000204600F093FB0028019500D0214C22490868224A15680E6002991160002F0BD08C
:200D4000301A00F003FD1E4900F0FEF9214600F085FA00F053FD3860009F002F0CD0029819
:200D6000401B00F0F3FC164900F0EEF9214600F075FA00F043FD3860089C019D002D08D02E
:200D8000304600F0E3FC0E4900F0DEF900F036FD2860002C08D0029800F0D8FC084900F0A2
:200DA000D3F900F02BFD206003B0F0BDF4002020F80020200AD7A33BFC00202000012020C7
:200DC0009C9D0F3FF0B581B0069C214D296021490A6021490B6021490C6021490A78012A87
:200DE00011D1214A1378012B03D100201070032008E01C4A1268821A052757431B48874202
:200E000005D30220087000F091FB01B0F0BD192005012C466434164850437D26B10000F008
:200E200057FCF600A74200D33046454307462846314600F04DFC0446BE207843314600F0FA
:200E400047FC01462046FFF7C5FC01B0F0BDC046E0002020E4002020D8002020DC0020200F
:200E600008012020E8002020F0002020983A000088130000002A49D084468B071CD183074E
:200E800022D1102A08D370B4103A78C978C0103AFBD270BC103238D0042A2CD3082A05D39F
:200EA0000C2A01D308C908C008C908C008C908C092072AD0920F22E00B780370491C401C70
:200EC000521E22D08B07F7D1C30714D18307D8D0121F12D308C903801B0C4380001D121FD3
:200EE000F8D20AE008C903701B0A43701B0A83701B0AC370001D121FF4D2121D05D00B7817
:200F00000370491C401C521EF9D160467047FEE710B51C480146283987220A601A490222B6
:200F20000A6002462C3A8623136001220A608523C36114020C60036252020A608221416239
:200F4000124981621249134A0A600A680A601249016002680260416042684260C160C26895
:200F6000C2600161016901610C48016811220A4302600B48016A0522114301620168114329
:200F8000016010BD30804240D0120A4082000400C480424081000E0081000C0090330A4050
:200FA00028300A4070B582B01B491C4C204600F0FFFC1B492046FFF71FFD1A4801681A4A10
:200FC0000A40026000250095204629462A462B4600F0FCFC204629462A4600F0DBFC20469B
:200FE00029462A4600F030FD01260096204629462A462B4600F0EAFC20462946324600F06F
:20100000C9FC20462946324600F01EFD074886600321016002B070BD971B0000000009401F
:20102000701B0000041809407F00FFFF0011094070B582B01B491C4C204600F0B9FC1B4957
:201040002046FFF7D9FC1A4801681A4A0A40026000250095204629462A462B4600F0B6FC72
:20106000204629462A4600F095FC204629462A4600F0EAFC01260096204629462A462B461C
:2010800000F0A4FC20462946324600F083FC20462946324600F0D8FC074886600321016039
:2010A00002B070BD9A1B000000008640781B0000041886407F00FFFF0011864040B54200D6
:2010C0004B005E08164301D006004E4000D4D01A04D20120C90F06D1404204E003D90120DA
:2010E000C90F00D04042FF263606B24200D8B34200D9012040BD40B542004B005E0816436C
:2011000001D006004E4000D4D01A04D20120C90F06D1404204E003D90120C90F00D0404279
:20112000FF263606B24200D8B34201D90120404240BD42004B000020FF2109068A4200D893
:201140008B4200D901207047FCB40127FF0706004E4001D4002600E03E00020243001B0E16
:2011600030D03A43FF2B30D00C024D002D0E29D03C43FF2D29D05B194240504042404C4001
:2011800061404C4000B500F0FFFA20BCAE464240504042404C4061404C4025001400002C02
:2011A00001D46400013B803401D3013364087E3B08DDFF2B09D2BC43200ADB051843304318
:2011C000FCBC70470020FCBC7047FF20C0053043FCBC704710B51B491B4C204600F018FC51
:2011E0001A49204600F0EEF9194801680322D203914301600169174A0A40113202614169F1
:2012000017220A4328218A434261426801210A4043688B439A1842600F4A13688C021C43EB
:20122000146002684B0413430360C26870231343C360C2680A4306239A43C26002680A433C
:20124000026010BD1E1B0000008010405A1B0000009110400000FFFF28901040FCB4012722
:20126000FF0706004E40F60FF607020243001B0E2DD03A43FF2B2DD00C024D002D0E26D035
:201280003C43FF2D26D05B1B0020202164085208A2424041A24200D3121B013904D0002A8F
:2012A00001D05200F4D18840384201D14000013B803001D3013300E040007F3307DDFF2B1E
:2012C00008D2400ADB0518433043FCBC70470020FCBC7047FF20C0053043FCBC70477047C1
:2012E000F8B5451C00780023082B32D02F78C2070CD16A780F241440E41C122C0BD102241A
:201300002E57F4B2002E08D4EE1C0EE06D1C4A1C0F7011461AE0AE1C08E02E1DED780095EA
:201320007F252C40009DED012C1912343D0112095219094DAA420ED0D243002C05D08D5CA4
:201340004F1C0D70641E3946F7E7354640085B1CCAE72846C5E7F8BDFF0F000010B5002910
:2013600022D0124A12780A70114A1268801A052242434A60084608300A460C320C46114699
:2013800000F0A4FA0B4800680B4909680B4A12680B4B1B6820616161A261E36100F064FBBE
:2013A000208400F067FB608410BDC04608012020E8002020E0002020E4002020D8002020B3
:2013C000DC00202070B5114E3578032D15D8012D13D0044600F048FA0D48002101600D48EA
:2013E00001600D4801600D4801600D4804600D4801700120307000F099F8E81E4142414154
:20140000FD222A4050425041084370BD08012020E4002020E0002020DC002020D8002020E7
:20142000E8002020F000202010B5FFF747FE002801D0002010BD012010BD10B5FFF73EFE89
:20144000002801DB002010BD012010BD10B5FFF735FE002801DD002010BD012010BD10B519
:20146000FFF749FE002801DA002010BD012010BD10B5FFF740FE002801DC002010BD012045
:2014800010BD000070B510481049124A104B04E001241D462E68A4192C600C68E4B2012C70
:2014A0000AD0032C02D0002CF7D10BE004682407EED40024E443ECE70468022525406C1E79
:2014C0001546E7E770BDC04680330A4020300A40F8002020F400202070B50C480C4941603E
:2014E0000C4A51600C4B59600C4C61600C4D69600C4E71600C4901601160196021602960C5
:201500003160102000F0BCFA70BDC04600080A40030000B100280A4000080940000886409A
:2015200000088740008810400100002670B50E48002404800D4804800D4E01253046214683
:201540002A4600F081FA30462146224600F07CFA084E30462146224600F076FA304621462D
:201560002A4600F071FA70BD0401202006012020000009400000864070B50E4800240480B5
:201580000D4804800D4E0125304621462A4600F05BFA30462146224600F056FA084E30460E
:2015A0002146224600F050FA304621462A4600F04BFA70BD0401202006012020000009409E
:2015C0000000864070B511221302C218C4580125AC43C4500C888D7825438C882C43C55818
:2015E000084E2E40084D25407419C4508879CB790343087A184351687E23994318400818B6
:20160000506070BDE798FDFF1867000080B5094800210170084801600848017008480160B8
:20162000084801600848016008480160FFF77EFF80BDC04608012020E8002020F000202040
:20164000E4002020E0002020DC002020D80020200D48002101600D48011F0A680323DB4310
:2016600013400B6041680122914341604168120291434160016830229143016001680F22AF
:20168000914301607047C04608030B4004010B4070B50178002917D00C4CC51CAE1EC9B284
:2016A000204600F0FBF8317800290DD06E1E204600F0F4F83178002906D0204600F0EEF880
:2016C0002978ED1C0029E9D170BDC046008010401CB50A0017D000230124E407A04200D2D1
:2016E0000400944201D95200FBE790425B41904200D3801A914201D25208F6E7190002005D
:20170000080011001CBD01000020FFF7E8FD1CBD70B50A480A4C84420CD00A4D0A4EB542ED
:2017200008D02A686968501C12789200A25890470835F4E700BF00BF70BDC046AC1B000085
:20174000A01B0000BC1B0000CC1B000006B49E22002802D404D106BC7047414204D400E00F
:201760000100013A4900FCD5803101D3013200E04900490AD2051143002802D50122D207B9
:201780001143080006BC7047FCB4020C0B0CFF242402FF34204021400C00444315005D431A
:2017A00006005E430F005743320C3B0CA818C01832043B040025A1186841C9186841FCBC7E
:2017C0007047000010B50849084C204600F0F0F807492046FFF714FA0648016801221143C2
:2017E00001600548026010BD941B000000008740201B0000281087400811874006B5410080
:20180000090E7F390DD41F22511A0CD9864600020122D2071043C8407246002A00D5404229
:2018200006BD002006BD02000120C007002A00D4401E06BD80B500F05FF8FFF79DFEFFF7F6
:20184000E5FEFEF7FBFE01204105054A1160054B1960C0031060186002201060186080BDD5
:2018600080E200E000E100E0EFF3108072B6074900220A6006490A6006490A6006490A60C4
:20188000002800D0704762B67047C046F4002020F8002020FC002020000120200A4A8018EF
:2018A0000268120605D50268120602D502681206F6D481610168C90705D00168C90702D02C
:2018C0000168C907F6D1704708110000EFF3108272B6002802D0064B1B680360002902D070
:2018E000044800680860002A00D0704762B67047F4002020F800202080B5FFF7EDFDFFF7D5
:2019000007FBFFF7A5FEFFF74DFBFFF791FBFFF759FFFFF75FFC0248B8210022425480BDB5
:2019200000002020084880F3088800BF00BF00F0BCF8002801D0FFF7EBFE002000F071F8A1
:20194000012000F0ABF8C0460080202002B49E21002805D401D102BC704701394000FCD505
:20196000803001D3013100E04000400AC905084302BC704780B505480078012803D1044876
:201980000121017080BDFFF7D1FD80BD08012020F000202010B592008018044A83580724BA
:2019A000A404A34321405918815010BD3018000010B50122120383180C789C604B78835033
:2019C0008978014A815010BD0C11000010B5029CA400001911431943014A815010BDC04641
:2019E0005018000003228058002805D0401E4A1C00230B701146F7E77047000080B50348B7
:201A00000068022801D1FFF73DFD80BD3011404010B50122120383180C789C60497881508A
:201A200010BDFFF707FFFEF761FFFEF75FFFFEF75DFFF8E780B50B4603214258C11D184685
:201A400000F028F880BD000092008018014A81507047C0461018000002480078411E484263
:201A6000484170470801202000200149085E70470401202000200149085E70470601202043
:201A8000811E091F00BFFCD2704780B5FFF7B6FF80BD000080B5FFF7EDF980BD00F001F8E7
:101AA000FEE700BF70473DE7704701207047000028
:201AB000423231206F722052554E31352073746172747320313520733B20423231206F721A
:201AD0002053544F502061626F7274730D0A006F70656E2D6C6F6F7020736C6F7720646567
:201AF0006D6F2055415254302031313532303020384E310D0A00436F6D6D616E64733A20AB
:201B100052554E31352C2053544F500D0A00080002000000FF700200010000000000000035
:201B300000000000861B0000901B00008B1B0000801B00004F4B2052554E31350D0A004597
:201B5000525220627573790D0A00000018000000003000004F4B2053544F500D0A003F0039
:201B7000800C000020000100800C00002001010041424F52540049444C4500444F4E45003E
:101B900052554E0008000008000008000000000038
:201BA000E1120000351A0000E519000002000000F2000000000100000F02FFF0AC1B000029
:101BC00000002020B41B0000F400202000000000D2
:00000001FF
