:20000000008020200B3700002B2700002B270000000000000000000000000000000000003A
:200020000000000000000000000000002B27000000000000000000002B2700002B270000CA
:200040002B270000DF3600002B2700002B2700002B2700002B2700002B2700002B2700004D
:20006000000000002B2700002B27000000000000000000002B2700002B270000EF36000013
:200080002B2700002B2700002B2700002B2700002B270000E73600000000000000000000A9
:2000A0002B2700002B27000000000000000000002B270000000000002B2700002B270000A6
:2000C000F0B58FB0002800D104E30446B74F6D21384603F0D5F97321384603F0D1F93D2112
:2000E000384603F0CDF96568002D0B942DD000270A262846314603F0DDF84643A91B30268C
:2001000031430CAAD1550A2D24D30A2103F0D2F831430CA8C0194170642D1DD36421284653
:2001200003F0C8F80A2103F0C5F83143FE1C0CA8C01981707D20C100284603F0BBF8E908C2
:200140007D2937460546D3D207E03021384603F097F941E07E1C00E0BE1C002E934F3BD0C3
:20016000701E032103F0A6F8481C0027032800D00746099602D135468C4C16E00CA8801E5C
:200180000A908A4C0A9880194178204603F078F9012F09D0B51E0A98815D204603F070F913
:2001A000BF1E2E46EED100E0751E09980328274612D30CA82818C61EB178384603F060F9D3
:2001C0007178384603F05CF9ED1E3178384603F057F9F61E002DEFD12021384603F050F9FF
:2001E0007321384603F04CF974253846294603F047F96121384603F043F93846294603F0ED
:200200003FF96521384603F03BF93D21384603F037F90B9E3078062803D880006449095894
:2002200000E064490878002816D0CD1CAC1EC1B2384603F025F9217800290DD06C1E384647
:2002400003F01EF92178002906D0384603F018F92878ED1C0028E9D12021384603F010F934
:200260006721384603F00CF97921384603F008F97221384603F004F96F21384603F000F979
:200280003D21384603F0FCF8707E002804D0307E00280FD148490EE04F21384603F0F0F8B3
:2002A00046253846294603F0EBF83846294603F0E7F81AE041490878002816D0CD1CAC1E8C
:2002C000C1B2384603F0DCF8217800290DD06C1E384603F0D5F82178002906D0384603F0F6
:2002E000CFF82878ED1C0028E9D12021384603F0C7F86221384603F0C3F86121384603F099
:20030000BFF86321384603F0BBF86B21384603F0B7F86521384603F0B3F86E21384603F030
:20032000AFF86421384603F0ABF83D21384603F0A7F8F1690878002816D0CD1CAC1EC1B201
:20034000384603F09DF8217800290DD06C1E384603F096F82178002906D0384603F090F8DE
:200360002878ED1C0028E9D12021384603F088F86C21384603F084F86921384603F080F8D3
:200380006E21384603F07CF86521384603F078F83D21384603F074F8306A01F079FB242004
:2003A000305C00280CD1CD490BE0C04600801040EC370000EF380000DD380000EA38000054
:2003C000C5490878002816D0CD1CAC1EC1B2384603F056F8217800290DD06C1E384603F002
:2003E0004FF82178002906D0384603F049F82878ED1C0028E9D120210991384603F040F85D
:2004000067210891384603F03BF872210791384603F036F861210491384603F031F87926FD
:2004200038463146019603F02BF83D210A91384603F026F830210391384603F021F878218A
:20044000384603F01DF80B98C48C200BA44D295C384603F015F82005000F295C384603F0DA
:200460000FF82006000F295C384603F009F80F202040295C384603F003F83846099C21463F
:2004800002F0FEFF3846314602F0FAFF3846049E314602F0F5FF77210591384602F0F0FF83
:2004A00038460A9902F0ECFF0B98806801F0F0FA3846214602F0E4FF74243846214602940B
:2004C00002F0DEFF3846314602F0DAFF3846079902F0D6FF3846089902F0D2FF65210691A9
:2004E000384602F0CDFF3846214602F0C9FF5F210891384602F0C4FF3846019D294602F058
:20050000BFFF3846314602F0BBFF3846059C214602F0B6FF38460A9902F0B2FF0B98C068C0
:2005200001F0B6FA3846099E314602F0A9FF3846294602F0A5FF3846049D294602F0A0FF42
:200540003846214602F09CFF3846089902F098FF3846079C214602F093FF3846294602F096
:200560008FFF3846029D294602F08AFF3846069902F086FF38460A9902F082FF0B980069B2
:2005800001F086FA3846314602F07AFF3846294602F076FF7521384602F072FF38462146DA
:2005A00002F06EFF6E21384602F06AFF3846089902F066FF3846069E314602F061FF384695
:2005C000214602F05DFF3846214602F059FF38460A9D294602F054FF0B9C606901F058FAAB
:2005E0003846099902F04CFF7321384602F048FF70210491384602F043FF3846314602F094
:200600003FFF3846314602F03BFF6421384602F037FF3846294602F033FF2546A06A00F0DA
:20062000B9FF2F243846214602F02AFFE86A00F0B1FF3846099902F023FF3846049E3146F2
:2006400002F01EFF3846059902F01AFF6D253846294602F015FF3846089902F011FF384640
:20066000314602F00DFF3846069E314602F008FF3846079902F004FF3846294602F000FF82
:200680006921384602F0FCFE6C253846294602F0F7FE3846294602F0F3FE3846314602F04A
:2006A000EFFE38460A9902F0EBFE03980B9D285E00F070FF3846214602F0E2FE3220285E9A
:2006C00000F068FF0D21384602F0DAFE0A21384602F0D6FE0FB0F0BDD8380000B438000076
:2006E0001C380000F0B58BB0002800D14AE106900120C407BD4DBE4F049001070A91BD48CD
:200700003C612860286828600C3D81262E6038464038079001603960A020089002F0D2FF7C
:20072000B24806603846303F3C60099404600A9C089802F0C7FF08952E60354605973C60F3
:20074000AB4F3C60402000F05BF9002800D1EDE00026304600F054F9002800D1E6E0039668
:20076000099C3C61A14A3946A24F176010681060089805600A9F079807600F60A02630461E
:2007800002F0A0FF9948056005990C60984804603046089E0C4602F095FF35602760944848
:2007A0000760412000F02CF9002800D1EDE0049800F0DCFC0390002000F0D8FC02908B4F4F
:2007C0003D60099F27608A4807602C463546A026304602F077FF2C600A9807990860844C7D
:2007E0002060304602F06EFF276182487F49086008680860304602F065FF02980007020DCE
:2008000003981418601E264686417C480768002C00D1E6E0784804800120214609900140C4
:200820000220204008906006C30F18460B304D1CD20A002A00D0CDE0184600D1CCE00029DD
:2008400000D00B38042222400899002901D00B38801C08212140002A029501D00B38001D07
:20086000102525400795002905930192009101D00B38801D202121408A06D21780230A9450
:200880002340099C2402079D002D039601D00B380830099D6E020A9D2C408018002B00D0B8
:2008A000C01C099A92020A9D2E40002C00D0401D0A9D2A40002E00D0C01D089D6D08089514
:2008C000019DAD080195009DED080095079D2D094909DB090993230A0793740A960A002A4D
:2008E00000D00930029A089BD218019BD218009BD21852195118059A8918099A8918079AC2
:20090000891809198C1902F013FD0546204602F011FE0146284602F0BBF9002C00D0074617
:20092000364807600699039E0A9C5BE02F4E35600A9C3946099F059807600F602E46A02526
:20094000284602F0BFFE089806600798046028480460284602F0B6FE2548076125482349DB
:20096000086008680860284602F0ACFE224800880699088021480768002630464F600E7271
:200980000BB0F0BD00200BB0F0BD184F3D60099F2760174807602C46A025284602F092FE47
:2009A00034600A9807990860114C2060284602F089FE27610F480D49086008680860284652
:2009C00002F080FE0C480088069908800B480768039ED2E700D032E70D46002900D030E73C
:2009E00030E706990C800498C8E7C04618804240D0120A4081000E005E0120202C01202083
:200A0000F0B587B002900120C107A04EA04A0707812535601446303C059121601160A02050
:200A2000069002F04FFE0C3E3560994908464038049007600F60069802F044FE05990696E4
:200A40003560276092480760029840280195039405D28E48056021608D48016006E08C4887
:200A600001618A498B48086008680860A025284602F028FE069E019C34600498076084483F
:200A80000760284602F01EFE3460039A1760804807600298800606D47C480460059911606B
:200AA0007B48016007E07A480599016177497948086008680860A025284602F003FE069EDE
:200AC00034600498076072480760284602F0FAFD3460039A17606E4807600298C00606D408
:200AE0006A480460059911606948016007E068480599016165496748086008680860A025C6
:200B0000284602F0DFFD069E34600498076060480760284602F0D6FD3460039A17605C48D0
:200B200007600298000706D458480460059911605748016007E05648059901615349554802
:200B4000086008680860A025284602F0BBFD069E3460049807604E480760284602F0B2FD31
:200B60003460039A17604A4807600298400706D446480460059911604548016007E04448B7
:200B80000599016141494348086008680860A025284602F097FD069E3460049807603C4888
:200BA0000760284602F08EFD3460039A1760384807600298800706D434480460059911606A
:200BC0003348016007E03248059901612F493148086008680860A025284602F073FD069E6E
:200BE0003460049807602A480760284602F06AFD346003990F60264807600298C00706D112
:200C0000224D2C60059A0A602148026007E02048059A02611D4D1F48286028682860A0247F
:200C2000204602F04FFD019E069806600498076017480760204602F045FD0698066003986B
:200C4000076013480760059901611248286028682860204602F036FD069D2E6004980760B2
:200C60000B480760204602F02DFD0B48006805902E600398076006480760204602F022FD2C
:200C80000598C043C00F07B0F0BDC04618804240D0120A4081000E0080130A40F0B585B0EF
:200CA0001C46154604910CAF8ECF814E3560814D2C60814C2170814C2260814C2370814C32
:200CC0002780814C2578062D04D80126AE4061273E4219D17D4F3E78002E0ED1002903D161
:200CE0007B490978C90708D17A490968411A052603967143784EB1420AD30020387006207B
:200D00002070784802F0D4FB02F004FA05B0F0BD6D1E032DF8D80B9902910A9E6F490968DD
:200D2000471A03994F43C0467D442D796D00AF4401642F5A019603906B49049800F054FFAC
:200D40006A4807780126F107029D284688434121090602F054F9002877D0002F75D1284669
:200D60000027394602F04BF9002800D1FE435F4806705F480568304602F0DAFA06465D49FE
:200D800001F0EEFD294601F0CAFB5E49086065E0039037465449049800F026FF53480021E4
:200DA0004056C4B202F0C4FA0646514801683D46384601F0AFFB314601F0D2FD0646002CDE
:200DC00000D126464B48314601F0A4FB002C4A4908609BD04749304602F011F9002895D01B
:200DE000052003992CE0049811461A4600F0C8FA3B4887428AD3039882E7354604463F4927
:200E0000049800F0F1FE3948067870B202F090FA0146029801F0A4FDF9087D2943D3002E5C
:200E200041D04121090602F0EAF800283BD034480168491D0160962900D267E70320214614
:200E40002A4601F09FFE05B0F0BD002F00D15DE72748056878B202F06BFA0646019829463D
:200E600001F058FB314601F07BFD0546214E3046294601F04FFB204F38602846314602F096
:200E8000BEF8002800D141E7022020700398134908601B48002101603960124802F008FB9D
:200EA0001848019901E016480021016005B0F0BD480120204C0120206401202030012020E9
:200EC000660120205C0120209C0120206D0120206501202038012020A0BB0D00500120202B
:200EE00030750000BC0020200000DC42700120202801202000002A43580120200000484388
:200F00002401202054012020F0B581B0914C924800250570914805704E20914E7719C1B212
:200F2000204602F0ADFA7978204602F0A9FAB978204602F0A5FAF978204602F0A1FA397988
:200F4000204602F09DFA7979204602F099FAB979204602F095FAF979204602F091FA397AA4
:200F6000204602F08DFA797A204602F089FAB97A204602F085FAF97A204602F081FA397BC0
:200F8000204602F07DFA797B204602F079FAB97B204602F075FAF97B204602F071FA397CDC
:200FA000204602F06DFA797C204602F069FAB97C204602F065FAF97C1435204602F060FA66
:200FC000387D282DAAD100254220664E7719C1B2204602F055FA7978204602F051FAB978E2
:200FE000204602F04DFAF978204602F049FA3979204602F045FA7979204602F041FAB97946
:20100000204602F03DFAF979204602F039FA397A204602F035FA797A204602F031FAB97A61
:20102000204602F02DFAF97A204602F029FA397B204602F025FA797B204602F021FAB97B7D
:20104000204602F01DFAF97B204602F019FA397C204602F015FA797C204602F011FAB97C99
:20106000204602F00DFAF97C204602F009FA397D204602F005FA797D204602F001FAB97DB5
:201080001735204602F0FCF9F87D2E2D9ED100254D20354E7719C1B2204602F0F1F979782D
:2010A000204602F0EDF9B978204602F0E9F9F978204602F0E5F93979204602F0E1F979790A
:2010C000204602F0DDF9B979204602F0D9F9F979204602F0D5F9397A204602F0D1F9797A26
:2010E000204602F0CDF9B97A204602F0C9F9F97A204602F0C5F9397B204602F0C1F9797B42
:20110000204602F0BDF9B97B204602F0B9F9F97B204602F0B5F9397C204602F0B1F9797C5D
:20112000204602F0ADF9B97C204602F0A9F9F97C204602F0A5F9397D204602F0A1F9797D79
:201140001635204602F09CF9B87D2C2DA2D101B0F0BDC046008010406B01202063012020D2
:20116000A13700001837000047370000F0B58DB008900120C1077E4C7E4A07077E480A9166
:201180001161E060E068E06081262660104640380C9007601760A025284602F093FA77482F
:2011A00000680790266073480446303C27600B940760284602F086FA6D4806600C980760A6
:2011C0006C480760284602F07DFA6C480068069067480660276067480760284602F072FAED
:2011E000634C26600C98076062480760284602F069FA62480068059026600B9C27605D48DB
:201200000760284602F05EFA594806600C98076058480760284602F055FA5848006804904B
:20122000534806602760534C2760284602F04AFA4F4806600C9807602760284602F042FA31
:201240004E48006803904A4806600B9C276049480760284602F036FA454806600C98076051
:2012600044480760284602F02DFA4448006802903F48066027603F4C2760284602F022FA6C
:201280003B4806600C9807602760284602F01AFA3A4800680190364806600B9C2760354855
:2012A0000760284602F00EFA314806600C98076030480760284602F005FA304800680090C7
:2012C00009962B48066027602A480760284602F0F9F90898002807D025480999C1600A9873
:2012E00020602449086007E00A982249086120492148C860C868C8600798C00F0699C90F05
:201300008900C00040180599C90F490040180499C90F401880000399C90F49004018029918
:20132000C90F401880000199C90F490040180099C90F40180890A024204602F0C3F90C4D58
:20134000099E2E600C9807600A480760204602F0B9F92E600B98076006490F600A98086129
:201360000548E860E868E8600898C0B20DB0F0BD0C804240D0120A4081000E0080130A401E
:20138000F0B589B00690002A23D00D466E49284601F02CFE00281FD16C49284601F026FED9
:2013A00000281BD16A49284601F020FE002817D10324A107284601F019FE002812D1002663
:2013C0002846314601F009FE002800D190E0FF2609E05C48067806E0F62604E0F92602E0B0
:2013E000FB2600E0FD2670B2039001F0A1FF01465C4F3868049101F092F805465A4C214689
:2014000001F006FE002800D12C46584D2046294601F0E3FD002800D125463D60002149486E
:2014200005914756067052480468524E2046314601F0D3FD002810D04F49069801F090FA06
:20144000214601F06CF80446314601F0E1FD002800D126464648066000E026460398C01B25
:2014600001F066FF07464549284601F079FA04464349049801F074FA214601F050F80446AE
:201480003649384601F06CFA214601F048F8FF21890501F065FA3B4901F062FA04463046D1
:2014A000214601F037F805462046314601F037F80246354C2046294601F098F8334800685B
:2014C00001F036FF05463248006801F031FF024607AE019608AF009720462946069B01F04F
:2014E0000DFB0599785E715E00F036FD09B0F0BD7F20C105284601F079FD002800D072E78D
:201500001449284601F072FD002815D11249284601F06CFD0028264600D064E70F492846FA
:2015200001F064FD002809D10D49284601F05EFD002805D0072656E7012654E7052652E71A
:201540000A2650E76A012020000010C10000C0C0000080C0000040400000A0400000E04068
:20156000000010414401202000004843000048C340012020000020430000C8439A99193E86
:201580000000C842EC51383DBC002020480120204C012020F0B585B00546002830D464D0F8
:2015A00000277D20C00001900A262846314601F081FE4643A91B3026314302AAD1550A2D71
:2015C00059D30A2101F076FE314302A8C0194170642D54D36421284601F06CFE0A2101F085
:2015E00069FE3143FC1C02A8C01981702846019E314601F05FFEB54227460546D4D23BE042
:2016000061487D21C90001912D2101F039FF6D4200240A272846394601F04CFE4743E91BF7
:201620003027394302AA11550A2D3AD30A2101F041FE394302A800194170642D35D3642118
:20164000284601F037FE0A2101F034FE3943E71C02A8001981702846019C214601F02AFEEA
:20166000A5423C460546D4D21CE04748302101F007FF05B0F0BD7C1C002C03D182E0BC1C09
:20168000002C7FD0601E032101F014FE481C0027032800D007463C49009417D125460C4699
:2016A00042E0671C002F03D16CE0A71C002F69D0781E032101F0FEFD481C0025032800D0E1
:2016C0000546009719D13C462F4E45E002A8801E019026460C46019880194178204601F041
:2016E000CFFE012F1FD0B51E0198815D204601F0C7FEBF1E2E46EED116E002A8801E0190B9
:20170000214E0198C0194178304601F0B9FE012D21D0BC1E0198C15D304601F0B1FEAD1E80
:201720002746EED118E0751E009803282AD302A82818C61EB178204601F0A2FE71782046F5
:2017400001F09EFEED1E3178204601F099FEF61E002DEFD116E07C1E0098032812D302A877
:201760002018C51EA978304601F08AFE6978304601F086FEE41E2978304601F081FEED1EDE
:20178000002CEFD105B0F0BD00801040F0B587B01D46039202910446EFF3108072B64F4948
:2017A0000F684F490E68002800D162B600212046019101F01BFC0028069500D0494C4A48B8
:2017C0000168791A494A1368F31A0497076005961660474A10684718176046490868C01829
:2017E00000900860444E3168204600F098FE05463060424901F003FC002843D0384601F0DA
:2018000097FD3F4F394601F0ABF8294601F040FA0446009801F08CFD394601F0A1F8294625
:2018200001F036FA05463748017800291DD036480068364901F094F80646354F2046394697
:2018400001F08EF8314600F06AFE0446314800682E4901F085F806462846394601F080F890
:20186000314600F05CFE054601E001210170264804602848056001981D4908601D4908600C
:201880001D490860029C002C04D01F48006801F0A7FD2060039C002C069D059E049F04D070
:2018A0001C48006801F09CFD20600C9C002D08D0384601F03DFD124901F052F801F090FDE8
:2018C0002860002C08D0304601F032FD0C4901F047F801F085FD206007B0F0BD7401202055
:2018E000780120200AD7A33B84012020880120208C01202090012020940120200AD7A33CAF
:201900009C9D0F3F6C0120207C0120209A99993E3333333F80012020F0B597B000F000FA5D
:20192000411E022905D303280ED004281DD14A4812E004464A48006800F00EFD00280AD05D
:20194000022C0CD049480BE001F0CAFD782001F029FE424800E0434801F08CFC05E04248BC
:2019600001F088FCDC2001F01DFE414C2068800216D4404D2878002815D1012677053E4805
:2019800001F0A0FE206838420DD12E7001F01AFE00284FD001F0A4FD782001F003FE02E0EC
:2019A000344800210170EFF3108172B6354A107800241470002900D162B6002823D001F0B1
:2019C000B9FD314900F0CCFF054613A8009016A915AA14AB2846FFF7D9FE06AE3046FEF7EF
:2019E00081FE1F480068169A159B0799377A36880094019402940391049705962946FFF73C
:201A00004DF901F0F7FB2148017801290CD104701348006806AD009521462246234600F00D
:201A200085FE2846FEF74CFB7D20000201F04AFE17B0F0BD0A48006800F08EFC002804D0FD
:201A4000DC2001F0AFFD0E4802E001F063FB0B4801F010FCA7E7C046CA3700007E380000CB
:201A60002001202054380000483800005F38000080330A406201202000E204002D38000077
:201A800088380000670120200AD7A33B6F012020F0B587B004460026314601F09EFA0546D8
:201AA000002801D14D4900E04B49204600F058FF002D4B4F05D02D210446384601F0E0FCF6
:201AC000204601F0C3FC0A28029004D23021384601F0D6FC71E007460A253846294601F019
:201AE000E9FB294601F0E6FB3024214304A88155642F21D36421384601F0DCFB0A2101F019
:201B0000D9FB214304A880194170F8087D2815D37D20C100384601F0CDFB05460A2101F00E
:201B2000C9FB2143F41C04A8801981702D48874226462F46D0D202E0741C00E0B41C002C28
:201B4000274F3AD0601E032101F0B4FB481C0026032800D00646019402D12546204F16E0BA
:201B600004A8801E03901E4F039800194178384601F086FC012E09D0A51E0398015D38467B
:201B800001F07EFCB61E2C46EED100E0651E0198032812D304A82818C41EA178384601F073
:201BA0006FFC6178384601F06BFCED1E2178384601F066FCE41E002DEFD12E21384601F0E9
:201BC0005FFC0A21029801F075FB30200143384601F056FC07B0F0BD000020C10000204189
:201BE0000080104010270000F0B589B01F461446059100260690314601F0F8F900283546F3
:201C000051D1002F35464ED03B480168204600F081FC2746069C214601F03AF80390374870
:201C2000056804973846214600F09AFE294600F076FC0746324D294601F0EAF9002800D156
:201C40003D46304F2846394601F0C7F9002800D12F462A4807600021384600F081FE054644
:201C60008120C105049C204600F07AFE294600F056FC05462449039800F072FE294600F0CC
:201C80004EFC0546214F394601F0C2F9002800D12F461F4D3846294601F09FF9002800D1CB
:201CA0003D4615480460059C2046294600F037FC07462046294600F02DFC024615483946E8
:201CC00000F094FC1448006801F032FB07461348006801F02DFB024607AC0194354608AEB8
:201CE00000960C483946069B00F008FF705F615F00F032F909B0F0BD3C01202034012020E1
:201D00000000A0410000A0C10AD7A33C00007042000070C2BC002020480120204C012020CB
:201D200070B586B045480178012932D1EFF3108272B61421C943424B03E06D466D18EC752F
:201D4000C91C5C18657D002D26D0657D2E46613EF6B21A2E00D2203D6E4676187575A57DC3
:201D6000002D1BD0A57D2E46613EF6B21A2E00D2203D6E467618B575002911D0E57D002DF2
:201D800010D0E47D2546613DEDB21A2DD5D2203CD3E7002006B070BD153104E0163102E000
:201DA000172100E017316B4600245C54047025480470002A00D162B66D462A786B78AC787A
:201DC000E8782D7905290CD1522A0AD1552B08D14E2C06D1312804D1352D02D1012006B0B7
:201DE00070BD6E4606290FD1522A0DD1552B0BD14E2C09D1502807D1492D05D17579442DEE
:201E000002D1022006B070BD04255326502801D0284600E00320694072404F2C00D028467A
:201E20001143542B03D1002904D106B070BD28460029FAD0284606B070BDC04663012020BE
:201E4000080120206B012020F0B5384908463438872202603648022202600A46383A862333
:201E600013600122026085230B61140204604B61530203602F4CE01C48604B684B60086093
:201E8000086808604B68500603434B600B6803430B6082258D61284BCB614D64274D2E467F
:201EA0003C3E33606C606E686E600E46083E244F3760346834608124AC622F632C6B2C6366
:201EC000EF61EC69EC612F622C6A2C622F602C682C600C46303C174E266025682560243994
:201EE0000E600C680C6017490C68950525430D6015490C6AD20614430C620C6814430C60A9
:201F000012490A600A6312490A68042414430C600A69823B13430B610E490A6A801C024339
:201F20000A620A6802430A60F0BDC0463C804240D0120A4081000E0082000400C080424020
:201F400081000C00A0130A4028100A40A0320A4090330A4028300A40F0B585B00C467D27DA
:201F6000FD003C4A9042034600DC1346AB4200DB2B469442039400DC14461922AC4200DBAE
:201F80002C46334ED1010491334A1380334A148000280197029512D0DA175340D11A4D19B8
:201FA000012813DB01223046049901F077FB04984543F900284601F07DF9074612E0002719
:201FC00001223046394601F069FB0BE004984543F900284601F06EF901460122304601F0F5
:201FE0005DFB049F0025304639462A4601F056FB20B2C1174840081A02990F180398184E03
:2020000000280BD010DD049D6F430198C100384601F050F901460022304602E030462946C5
:202020002A4601F03BFB0CE000223046049C214601F034FB67430198C100384601F03AF9B8
:20204000054601223046294601F028FB05B0F0BD0000094018FCFFFF980120209A012020A8
:2020600000008640F0B5394A8218394BC0183A4D4C790B79002C22D0466F202B02D0052493
:20208000E70100E0354F2E40002B00D188273E434667846F2C403C438467446B2D4E344046
:2020A0004463846B3440846300244465846554688F26F643344054609468344094600C68CF
:2020C0008979202B09D006467036002B15D1641E4460C46E2C40882715E0641E4460C46E17
:2020E0002C401E4E3443C466046F2C40344304671B4D01246707064607E00527FF016408E0
:202100004460C46E2C403C43C46634682C403C433460C46A0F4D2C40C462046B2C4004635B
:202120000024C4640465C46F8F25ED432C40C46714682C401460194302680A4B1340BD2293
:202140000A40D118891C0160F0BDC04684180000041800008888FDFF24493E00010400001F
:20216000FFFFFFCF4000FFCFB0B53A4A80184A6842600A78222A56D8930001A4E3589F465C
:202180001D220000272200001D22000027220000272200002722000027220000272200000B
:2021A0002722000027220000272200002722000027220000272200002722000027220000D7
:2021C0000D220000272200000D2200002722000027220000272200002722000027220000EB
:2021E000272200002722000027220000272200002722000027220000272200002722000097
:202200000D220000272200000D220000036803242407A343012464071B1903E0036803243B
:202220002407A34303600B69C360CB68C46A0A4D25400A4C1C402B19C3620368084C1C4040
:202240000460097A114302683F239A43194051180160B0BD041800008888FDFF77770200F2
:202260007F00FFFFF0B585B00393174602910446066900251046294600F0B8FE002861D1DE
:202280000120C1073046049188433F21090600F0A4FE002856D13046029900F03BF90546AF
:2022A00020680290A6692846314600F033F901906168384600F054FB0146284600F050FBED
:2022C00000900298019900F04BFB009900F027F90090A068394600F0DBFC07463046019623
:2022E000314600F01CF901460295284600F012F9E16900F014F90146384600F031FB00995A
:2023000000F00DF90146606900F009F90646039D04996940049100F060FE0746304629467E
:2023200000F076FE002800D13546002F049800D1284660610299A1610199E16101F050F848
:20234000054606E0E168304600F00AFB6061A561E561284605B0F0BDF0B581B00446214E2C
:202360003178002006293AD801252A468A4061210A4234D000F0F6FD1B48002707601B48EA
:2023800007601B4807701B4807701B4807601B4807601B4807701B4807801B4807601B489D
:2023A00007601B4807701B4807601B4807601B4807601B4804601B4807701B4807700420DF
:2023C00030701A4804601A4807601A4807601A4801F06EF80548076000F09CFE284601B0EF
:2023E000F0BDC0469C0120202801202054012020700120206D01202030012020340120200A
:20240000660120205C0120203C012020440120206A01202040012020480120204C01202034
:20242000380120206501202064012020500120202401202058012020BC00202080B582B0E6
:202440001C4900220A701C490A601C490A601C490A601C490A601C490A601C490A701C492C
:202460000A601C490A701C490A601C490A601C490A701C490A801C490A601C490A601C49A4
:202480000A701C490A601C490A601C490A601C4908701C4908701C487F21C90500910190A7
:2024A0001A481B49134600F0B3FC00F033FE02B080BDC0469C012020380120205001202061
:2024C00028012020540120205801202070012020240120206D0120203001202034012020BB
:2024E000660120205C0120203C012020440120206A01202040012020480120204C01202054
:20250000640120206501202000007A44BC002020CDCC4C3FFCB40127FF07794002E0FCB469
:202520000127FF070C024D002D0E03D1002C52D1FCBC70473C43FF2D50D0A408002900D5D0
:202540006442020243001B0E04D1002A43D10800FCBC70473A43FF2B41D09208002800D58C
:2025600052425E1B04D5170022003C0076422B00192E06D527003741D2191C27F71B7F425B
:20258000BC40002A27D002D55242012700E00027013B5200FCD51500802635400FD0150001
:2025A000202635402C43803208D21500402635402C4304D101263602B24300E05B1C520034
:2025C000023308DDFF2B0BD2500ADB051843FF073843FCBC70470020FCBC70470800C70FE8
:2025E000FF07FF20C0053843FCBC7047F0B583B0002846D00E460446174623493046019182
:2026000000F0EBFC0290214D3046294600F000FD0028284600D13046029900291A4900D13C
:20262000014602913846184900F0D7FC06463846294600F0EDFC002800D13D46002E00D191
:202640000195E66821690298FFF764FF01466769304600F085F93946FFF761FF6061E66A38
:20266000216B019D2846FFF755FF0146676B304600F076F93946FFF752FF0299216125631F
:20268000606303B0F0BDC046000048C300004843002A49D084468B071CD1830722D1102A38
:2026A00008D370B4103A78C978C0103AFBD270BC103238D0042A2CD3082A05D30C2A01D38A
:2026C00008C908C008C908C008C908C092072AD0920F22E00B780370491C401C521E22D0E0
:2026E0008B07F7D1C30714D18307D8D0121F12D308C903801B0C4380001D121FF8D20AE049
:2027000008C903701B0A43701B0A83701B0AC370001D121FF4D2121D05D00B780370491CBA
:20272000401C521EF9D160467047FEE770B5049C002C2DD0174D2D782570174D2D68401BE1
:202740000525454315480068154E36686560A16021460C3145C1237612480078607600F060
:2027600041FF11490968E061216210480078242160540F480088E0840E4800680E490968F8
:20278000A062E16200F092FF208600F095FF608670BDC0469C012020380120205401202045
:2027A000580120206501202030012020660120205C012020480120204C01202070B582B0B8
:2027C0001B491C4C204600F029FF1B492046FFF749FC1A4801681A4A0A4002600025009515
:2027E000204629462A462B4600F026FF204629462A4600F005FF204629462A4600F04EFF53
:2028000001260096204629462A462B4600F014FF20462946324600F0F3FE204629463246C7
:2028200000F03CFF074886600321016002B070BDE4380000000009409C3800000418094036
:202840007F00FFFF0011094070B582B01B491C4C204600F0E3FE1B492046FFF703FC1A4826
:2028600001681A4A0A40026000250095204629462A462B4600F0E0FE204629462A4600F06C
:20288000BFFE204629462A4600F008FF01260096204629462A462B4600F0CEFE204629463B
:2028A000324600F0ADFE20462946324600F0F6FE074886600321016002B070BDE73800001C
:2028C00000008640A4380000041886407F00FFFF0011864040B542004B005E08164301D00E
:2028E00006004E4000D4D01A04D20120C90F06D1404204E003D90120C90F00D04042FF262E
:202900003606B24200D8B34200D9012040BD40B542004B005E08164301D006004E4000D449
:20292000D01A04D20120C90F06D1404204E003D90120C90F00D04042FF263606B24200D84D
:20294000B34201D90120404240BD42004B000020FF2109068A4200D88B4200D9012070470A
:20296000FCB40127FF0706004E4001D4002600E03E00020243001B0E30D03A43FF2B30D0B5
:202980000C024D002D0E29D03C43FF2D29D05B194240504042404C4061404C4000B500F09E
:2029A000E5FC20BCAE464240504042404C4061404C4025001400002C01D46400013B80348B
:2029C00001D3013364087E3B08DDFF2B09D2BC43200ADB0518433043FCBC70470020FCBCC2
:2029E0007047FF20C0053043FCBC704710B51B491B4C204600F037FE1A49204600F0D6FBB5
:202A0000194801680322D203914301600169174A0A4011320261416917220A4328218A43BC
:202A20004261426801210A4043688B439A1842600F4A13688C021C43146002684B041343CC
:202A40000360C26870231343C360C2680A4306239A43C26002680A43026010BDEA37000037
:202A6000008010406A380000009110400000FFFF2890104010B51B491B4C204600F0F3FD27
:202A80001A49204600F092FB194801680322D203914301600169174A0A4011320261416992
:202AA00017220A4328218A434261426801210A4043688B439A1842600F4A13688C021C4333
:202AC000146002684B0413430360C26870231343C360C2680A4306239A43C26002680A4384
:202AE000026010BD9A3800000020104074380000003110400000FFFF28301040F0B585B0B8
:202B000000283BD00A9D002D38D004460B98002834D01F460490029103920021184601915B
:202B200000F076FA666C002805D038463146FFF7F6FC06466064274648371149304600F0CD
:202B40004CFA002803D038882880B91C13E001986064236C204602993246FFF783FB388073
:202B6000236C2034204603993246FFF77BFBB91C788038882880049A0888108005B0F0BD37
:202B80000AD7A33CF0B581B0144605461548057015480160154800270760154E3760154828
:202BA00000F086FC05202840012810D1134804601348C0570028134D294600DA1249204649
:202BC000FFF7ADFC0C490860356001B0F0BD0A480460022D03D0042D01D000F09BFA01B0B6
:202BE000F0BDC0469C012020500120202401202058012020BC0020205401202028012020BC
:202C00007001202000002A4300002AC3F0B583B01A48002101801A4801600120C207194CBB
:202C20002261194B19491960196819601E460C3E8121316001912546403D07072F60276059
:202C4000196020463038029202602260A024204600F038FD019830602F600A4D2F60204662
:202C600000F030FD0298286108480749086008680860204600F026FD03B0F0BD5E012020BC
:202C80002C012020D0120A401880424081000E00FCB40127FF0706004E40F60FF60702027A
:202CA00043001B0E2DD03A43FF2B2DD00C024D002D0E26D03C43FF2D26D05B1B0020202103
:202CC00064085208A2424041A24200D3121B013904D0002A01D05200F4D18840384201D1B1
:202CE0004000013B803001D3013300E040007F3307DDFF2B08D2400ADB0518433043FCBC36
:202D000070470020FCBC7047FF20C0053043FCBC70477047F0B50020C0431849184B01273C
:202D2000FA067E06103B1D6815400B46103B1B68002D09D0134C24683442044600D03C46C8
:202D4000114F396861183960B71C334208D00F490968C90200D501200D490C68001908606B
:202D60003B40002D03D00649086810430860002B03D00249086818430860F0BD48300A4073
:202D800048100A4080130A407401202080330A4078012020F8B5451C00780023082B32D06B
:202DA0002F78C2070CD16A780F241440E41C122C0BD102242E57F4B2002E08D4EE1C0EE0F0
:202DC0006D1C4A1C0F7011461AE0AE1C08E02E1DED7800957F252C40009DED012C19123417
:202DE0003D0112095219094DAA420ED0D243002C05D08D5C4F1C0D70641E3946F7E73546AE
:202E000040085B1CCAE72846C5E7F8BDFF0F0000F0B585B0002830D0044602A80EC00B9FF7
:202E200000253846294600F0D8F80190144E3846314600F0EDF8002800D13E460A9801994A
:202E400000292946049A00D131462164029B236003996160A260E060256123626162A262DE
:202E6000E06225632946FFF77BFD6061A561E5616063A563E5636564A56405B0F0BDC04651
:202E800000007A44F0B581B010481149416011484160114B5960114C6160114D6960114E98
:202EA0007160114F7960114841601149074A1160084A116019602160296031603960016021
:202EC000102000F0FFFB01B0F0BDC04600080A40030000B100280A400008094000088640DD
:202EE0000008874000280F40008810400028104001000026F0B5164A1068C0B20B2825D1FD
:202F0000144801218B029362026852071ED4124A124B134C06E01D7800266655117005689A
:202F20006D0713D4C5691678002EF8D1EEB20D2EF5D00A2EEFD01E78162E04D81E78771C0D
:202F40001F70A555EBE700251D70E8E7F0BDC0462090104008911040630120206B012020A9
:202F600008012020EFF3108072B60D4A002111600C4A11600C4A11600C4A11600C4A116069
:202F80000C4A11600C4A11600C4A11600C4A11600C4A1170002800D0704762B67047C046BA
:202FA000740120207801202084012020880120208C01202090012020940120207C012020E5
:202FC000800120206C01202010B5FFF783FC002801D0002010BD012010BD10B5FFF77AFC44
:202FE000002801DB002010BD012010BD10B5FFF771FC002801DD002010BD012010BD10B524
:20300000FFF785FC002801DA002010BD012010BD10B5FFF77CFC002801DC002010BD012015
:2030200010BD000080B51149114800F097FA11480168032252020A430260026801210B02D7
:20304000134303600022426107224262836B93438363836B120293438363826A0423134354
:203060008362826A0A43826280BDC046ED38000000200F4000320F400E480068C0B201289D
:2030800016D10D480168491C01600C480178FF2902D00178491C017009480178491CCAB204
:2030A0000170142A04D3002101700648012101707047C0462010874020012020670120205A
:2030C0006E0120206F01202080B500F0A5F900F047F8FFF79BFD00F055FA0020FFF7AEF915
:2030E000FDF712FF084800F0C5F801204105074A1160074B1960C00310601860022010609D
:2031000018601060186080BD7437000080E200E000E100E070B50E48002404800D48048068
:203120000D4E0125304621462A4600F0B7FA30462146224600F0B2FA084E304621462246A4
:2031400000F0ACFA304621462A4600F0A7FA70BD980120209A01202000000940000086400B
:2031600070B50E48002404800D4804800D4E0125304621462A4600F091FA304621462246C5
:2031800000F08CFA084E30462146224600F086FA304621462A4600F081FA70BD98012020F0
:2031A0009A012020000009400000864070B511221302C218C4580125AC43C4500C888D7800
:2031C00025438C882C43C558084E2E40084D25407419C4508879CB790343087A18435168A7
:2031E0007E23994318400818506070BDE798FDFF1867000010B50C48018800290ED00B4A05
:2032000013785C1C1470DA0703D00122D206084B1A61491E0180080400D010BD0120C00632
:203220000349086010BDC0466001202068012020A0320A400D48002101600D48011F0A68E3
:203240000323DB4313400B6041680122914341604168120291434160016830229143016009
:2032600001680F22914301607047C04608030B4004010B4070B50178002917D00C4CC51C35
:20328000AE1EC9B2204600F0FBF8317800290DD06E1E204600F0F4F83178002906D0204613
:2032A00000F0EEF82978ED1C0029E9D170BDC046008010401CB50A0017D000230124E407B3
:2032C000A04200D20400944201D95200FBE790425B41904200D3801A914201D25208F6E7C8
:2032E00019000200080011001CBD01000020FFF710FD1CBD70B50A480A4C84420CD00A4DFE
:203300000A4EB54208D02A686968501C12789200A25890470835F4E700BF00BF70BDC04601
:2033200004390000F8380000143900002439000006B49E22002802D404D106BC704741422D
:2033400004D400E00100013A4900FCD5803101D3013200E04900490AD2051143002802D501
:203360000122D2071143080006BC7047FCB4020C0B0CFF242402FF34204021400C004443D7
:2033800015005D4306005E430F005743320C3B0CA818C01832043B040025A1186841C9182E
:2033A0006841FCBC7047000010B50849084C204600F034F907492046FEF7D6FE06480168D2
:2033C0000122114301600548026010BDE1380000000087400838000028108740081187409A
:2033E00006B54100090E7F390DD41F22511A0CD9864600020122D2071043C8407246002A89
:2034000000D5404206BD002006BD02000120C007002A00D4401E06BD80B5FFF733FDFEF756
:2034200013FDFFF707FFFFF7C9F9FFF70DFAFFF7BBFFFFF7F7FDFFF7D9FAFFF71BFB024812
:20344000B8210022425480BD0000202006B5002803D57346FFF7C4FF06BD4100090E7F395E
:2034600008D31F22511A07D300020122D2071043C84006BD002006BD0020401E06BD0000AB
:203480000A4A80180268120605D50268120602D502681206F6D481610168C90705D00168E6
:2034A000C90702D00168C907F6D1704708110000B0B5002812D0C168026904461046FFF701
:2034C0004FFA00256061A561E561E16A206BFFF747FA6063A563E5636564A564B0BD000012
:2034E00080B508480078062807D8012181406120014202D0FFF70EFE80BD0348012101702C
:2035000080BDC0469C0120206D012020084880F3088800BF00BF00F0FAF8002801D0FFF73B
:20352000E9FE002000F0A8F8012000F0E9F8C0460080202002B49E21002805D401D102BC36
:20354000704701394000FCD5803001D3013100E04000400AC905084302BC704770B5012273
:20356000120383180C785D680C26B54334402C195C60497883580724A34321405918815063
:2035800070BD0000044800210180044801700120C0060349086070476001202068012020B7
:2035A000A0320A4080B5001D0521FFF783FE0349088003480021017080BDC046600120206B
:2035C00068012020064802780121062A0B4600D800237F2002401E20D04018430840704753
:2035E0009C01202003480078002801D10348704701487047690120203C380000AC3800002D
:2036000010B592008018044A83580724A404A34321405918815010BD3018000010B5012239
:20362000120383180C789C604B7883508978014A815010BD0C11000010B5029CA40000199D
:2036400011431943014A815010BDC0465018000003228058002805D0401E4A1C00230B7007
:203660001146F7E7704710B50122120383180C789C604978815010BDFFF726FDFEF74CF994
:20368000FEF74AF9FEF748F9F8E780B50B4603214258C11D184600F02FF880BD92008018DF
:2036A000014A81507047C0461018000000200149085E70479801202000200149085E704722
:2036C0009A012020811E091F00BFFCD2704780B5FFF720FB80BD80B5FFF70CFC80BD80B5DC
:2036E000FFF7F5FF80BD80B5FFF7C6FC80BD80B5FFF7F1FF80BD000080B5FEF7C9FF80BDF2
:1837000000F001F8FEE700BF7047FFE6704701207047000000000000F9
:203718004232312F52554E5049442F52554E31353A2067726179206C696E65203330733B5B
:203738002053544F502061626F7274730D0A004D5055363035302064697361626C65643BF9
:2037580020656E636F64657220737065656420504944206163746976650D0A004D50553648
:203778003035303D44495341424C45443B20423231207374617274732067726179206C699E
:203798006E65203330730D0A004E43484431322067726179206C696E652064656D6F2055DC
:2037B800415254312031313532303020384E310D0A00436F6D6D616E64733A2052554E50D1
:2037D80049442C2052554E31352C2053544F500D0A000800D3380000C2380000913800001E
:2037F800C2380000BB380000CE380000C838000002000000FF70020001000000000000004A
:203818000000000030313233343536373839414243444546004552522042323120627573D6
:20383800790D0A004D5055363035302D455252004F4B2052554E5049440D0A004552522061
:20385800627573790D0A004F4B2052554E31350D0A000000180000000030000000001800EA
:203878000000003000004F4B2053544F500D0A004F4B204232310D0A005354524149474861
:2038980054000800800C000020000100800C0000200101004D50553630353000284C4F5386
:2038B8005429004C494E4533300043555256450041424F525400444F4E450049444C4500A7
:2038D800284F4B2900455252000800000800000800004F4B0008003F000000000000000003
:2038F800952D00008B360000513600000200000071010000000100000F16FFF004390000E0
:10391800000020200C390000740120200000000065
:00000001FF
