:2000000000802020AB360000CB260000CB260000000000000000000000000000000000005D
:20002000000000000000000000000000CB2600000000000000000000CB260000CB260000ED
:20004000CB2600007F360000CB260000CB260000CB260000CB260000CB260000CB26000054
:2000600000000000CB260000CB26000000000000000000008F360000CB260000CB260000F7
:20008000CB260000CB260000CB260000CB260000CB260000873600000000000000000000EE
:2000A000CB260000CB2600000000000000000000CB26000000000000CB260000CB2600008B
:2000C000F0B58FB0002800D104E30446B74F6D21384603F0A5F97321384603F0A1F93D2172
:2000E000384603F09DF96568002D0B942DD000270A262846314603F0ADF84643A91B3026EC
:2001000031430CAAD1550A2D24D30A2103F0A2F831430CA8C0194170642D1DD36421284683
:2001200003F098F80A2103F095F83143FE1C0CA8C01981707D20C100284603F08BF8E90852
:200140007D2937460546D3D207E03021384603F067F941E07E1C00E0BE1C002E934F3BD0F3
:20016000701E032103F076F8481C0027032800D00746099602D135468C4C16E00CA8801E8C
:200180000A908A4C0A9880194178204603F048F9012F09D0B51E0A98815D204603F040F973
:2001A000BF1E2E46EED100E0751E09980328274612D30CA82818C61EB178384603F030F903
:2001C0007178384603F02CF9ED1E3178384603F027F9F61E002DEFD12021384603F020F98F
:2001E0007321384603F01CF974253846294603F017F96121384603F013F93846294603F07D
:200200000FF96521384603F00BF93D21384603F007F90B9E3078062803D880006449095824
:2002200000E064490878002816D0CD1CAC1EC1B2384603F0F5F8217800290DD06C1E384678
:2002400003F0EEF82178002906D0384603F0E8F82878ED1C0028E9D12021384603F0E0F8C7
:200260006721384603F0DCF87921384603F0D8F87221384603F0D4F86F21384603F0D0F83D
:200280003D21384603F0CCF8707E002804D0307E00280FD148490EE04F21384603F0C0F813
:2002A00046253846294603F0BBF83846294603F0B7F81AE041490878002816D0CD1CAC1EEC
:2002C000C1B2384603F0ACF8217800290DD06C1E384603F0A5F82178002906D0384603F056
:2002E0009FF82878ED1C0028E9D12021384603F097F86221384603F093F86121384603F029
:200300008FF86321384603F08BF86B21384603F087F86521384603F083F86E21384603F0F0
:200320007FF86421384603F07BF83D21384603F077F8F1690878002816D0CD1CAC1EC1B291
:20034000384603F06DF8217800290DD06C1E384603F066F82178002906D0384603F060F86E
:200360002878ED1C0028E9D12021384603F058F86C21384603F054F86921384603F050F863
:200380006E21384603F04CF86521384603F048F83D21384603F044F8306A01F055FB2420B8
:2003A000305C00280CD1CD490BE0C046000010408C3700008F3800007D3800008A38000054
:2003C000C5490878002816D0CD1CAC1EC1B2384603F026F8217800290DD06C1E384603F032
:2003E0001FF82178002906D0384603F019F82878ED1C0028E9D120210991384603F010F8ED
:2004000067210891384603F00BF872210791384603F006F861210491384603F001F879268D
:2004200038463146019602F0FBFF3D210A91384602F0F6FF30210391384602F0F1FF782108
:20044000384602F0EDFF0B98C48C200BA44D295C384602F0E5FF2005000F295C384602F02F
:20046000DFFF2006000F295C384602F0D9FF0F202040295C384602F0D3FF3846099C2146BC
:2004800002F0CEFF3846314602F0CAFF3846049E314602F0C5FF77210591384602F0C0FF43
:2004A00038460A9902F0BCFF0B98806801F0CCFA3846214602F0B4FF74243846214602948F
:2004C00002F0AEFF3846314602F0AAFF3846079902F0A6FF3846089902F0A2FF6521069169
:2004E000384602F09DFF3846214602F099FF5F210891384602F094FF3846019D294602F0E8
:200500008FFF3846314602F08BFF3846059C214602F086FF38460A9902F082FF0B98C06880
:2005200001F092FA3846099E314602F079FF3846294602F075FF3846049D294602F070FFF6
:200540003846214602F06CFF3846089902F068FF3846079C214602F063FF3846294602F026
:200560005FFF3846029D294602F05AFF3846069902F056FF38460A9902F052FF0B98006972
:2005800001F062FA3846314602F04AFF3846294602F046FF7521384602F042FF384621468E
:2005A00002F03EFF6E21384602F03AFF3846089902F036FF3846069E314602F031FF384655
:2005C000214602F02DFF3846214602F029FF38460A9D294602F024FF0B9C606901F034FA5F
:2005E0003846099902F01CFF7321384602F018FF70210491384602F013FF3846314602F024
:200600000FFF3846314602F00BFF6421384602F007FF3846294602F003FF2546A06A00F09A
:20062000AFFE2F243846214602F0FAFEE86A00F0A7FE3846099902F0F3FE3846049E31466A
:2006400002F0EEFE3846059902F0EAFE6D253846294602F0E5FE3846089902F0E1FE384604
:20066000314602F0DDFE3846069E314602F0D8FE3846079902F0D4FE3846294602F0D0FE46
:200680006921384602F0CCFE6C253846294602F0C7FE3846294602F0C3FE3846314602F0DA
:2006A000BFFE38460A9902F0BBFE03980B9D285E00F066FE3846214602F0B2FE3220285E35
:2006C00000F05EFE0D21384602F0AAFE0A21384602F0A6FE0FB0F0BD7838000054380000A1
:2006E000BC370000F0B58BB0002800D14AE106900120C407BD4DBE4F049001070A91BD482E
:200700003C612860286828600C3D81262E6038464038079001603960A020089002F0A2FFAC
:20072000B24806603846303F3C60099404600A9C089802F097FF08952E60354605973C6023
:20074000AB4F3C60402000F05BF9002800D1EDE00026304600F054F9002800D1E6E0039668
:20076000099C3C61A14A3946A24F176010681060089805600A9F079807600F60A02630461E
:2007800002F070FF9948056005990C60984804603046089E0C4602F065FF356027609448A8
:2007A0000760412000F02CF9002800D1EDE0049800F0DCFC0390002000F0D8FC02908B4F4F
:2007C0003D60099F27608A4807602C463546A026304602F047FF2C600A9807990860844CAD
:2007E0002060304602F03EFF276182487F49086008680860304602F035FF02980007020D2E
:2008000003981418601E264686417C480768002C00D1E6E0784804800120214609900140C4
:200820000220204008906006C30F18460B304D1CD20A002A00D0CDE0184600D1CCE00029DD
:2008400000D00B38042222400899002901D00B38801C08212140002A029501D00B38001D07
:20086000102525400795002905930192009101D00B38801D202121408A06D21780230A9450
:200880002340099C2402079D002D039601D00B380830099D6E020A9D2C408018002B00D0B8
:2008A000C01C099A92020A9D2E40002C00D0401D0A9D2A40002E00D0C01D089D6D08089514
:2008C000019DAD080195009DED080095079D2D094909DB090993230A0793740A960A002A4D
:2008E00000D00930029A089BD218019BD218009BD21852195118059A8918099A8918079AC2
:20090000891809198C1902F0E3FC0546204602F0E1FD0146284602F08BF9002C00D00746A9
:20092000364807600699039E0A9C5BE02F4E35600A9C3946099F059807600F602E46A02526
:20094000284602F08FFE089806600798046028480460284602F086FE25480761254823493B
:20096000086008680860284602F07CFE224800880699088021480768002630464F600E72A1
:200980000BB0F0BD00200BB0F0BD184F3D60099F2760174807602C46A025284602F062FE77
:2009A00034600A9807990860114C2060284602F059FE27610F480D49086008680860284682
:2009C00002F050FE0C480088069908800B480768039ED2E700D032E70D46002900D030E76C
:2009E00030E706990C800498C8E7C04618804240D0120A4081000E005A0120202C01202087
:200A0000F0B587B002900120C107A04EA04A0707812535601446303C059121601160A02050
:200A2000069002F01FFE0C3E3560994908464038049007600F60069802F014FE0599069644
:200A40003560276092480760029840280195039405D28E48056021608D48016006E08C4887
:200A600001618A498B48086008680860A025284602F0F8FD069E019C346004980760844870
:200A80000760284602F0EEFD3460039A1760804807600298800606D47C480460059911609C
:200AA0007B48016007E07A480599016177497948086008680860A025284602F0D3FD069E0F
:200AC00034600498076072480760284602F0CAFD3460039A17606E4807600298C00606D438
:200AE0006A480460059911606948016007E068480599016165496748086008680860A025C6
:200B0000284602F0AFFD069E34600498076060480760284602F0A6FD3460039A17605C4830
:200B200007600298000706D458480460059911605748016007E05648059901615349554802
:200B4000086008680860A025284602F08BFD069E3460049807604E480760284602F082FD91
:200B60003460039A17604A4807600298400706D446480460059911604548016007E04448B7
:200B80000599016141494348086008680860A025284602F067FD069E3460049807603C48B8
:200BA0000760284602F05EFD3460039A1760384807600298800706D434480460059911609A
:200BC0003348016007E03248059901612F493148086008680860A025284602F043FD069E9E
:200BE0003460049807602A480760284602F03AFD346003990F60264807600298C00706D142
:200C0000224D2C60059A0A602148026007E02048059A02611D4D1F48286028682860A0247F
:200C2000204602F01FFD019E069806600498076017480760204602F015FD069806600398CB
:200C4000076013480760059901611248286028682860204602F006FD069D2E6004980760E2
:200C60000B480760204602F0FDFC0B48006805902E600398076006480760204602F0F2FC8E
:200C80000598C043C00F07B0F0BDC04618804240D0120A4081000E0080130A40F0B585B0EF
:200CA0001C46154604910CAF8ECF814E3560814D2C60814C2170814C2260814C2370814C32
:200CC0002780814C2578062D04D80126AE4061273E4219D17D4F3E78002E0ED1002903D161
:200CE0007B490978C90708D17A490968411A052603967143784EB1420AD30020387006207B
:200D00002070784802F0A4FB02F0D4F905B0F0BD6D1E032DF8D80B9902910A9E6F4909683E
:200D2000471A03994F43C0467D442D796D00AF4401642F5A019603906B49049800F030FFD0
:200D40006A4807780126F107029D284688434121090602F024F9002877D0002F75D1284699
:200D60000027394602F01BF9002800D1FE435F4806705F480568304602F0AAFA06465D495E
:200D800001F0BEFD294601F036FB5E49086065E0039037465449049800F002FF53480021CC
:200DA0004056C4B202F094FA0646514801683D46384601F01BFB314601F0A2FD0646002CD2
:200DC00000D126464B48314601F010FB002C4A4908609BD04749304602F0E1F8002895D0E0
:200DE000052003992CE0049811461A4600F0C4FB3B4887428AD3039882E7354604463F492A
:200E0000049800F0CDFE3948067870B202F060FA0146029801F074FDF9087D2943D3002EE0
:200E200041D04121090602F0BAF800283BD034480168491D0160962900D267E70320214644
:200E40002A4601F06FFE05B0F0BD002F00D15DE72748056878B202F03BFA0646019829469D
:200E600001F0C4FA314601F04BFD0546214E3046294601F0BBFA204F38602846314602F0F0
:200E80008EF8002800D141E7022020700398134908601B48002101603960124802F0D8FAFE
:200EA0001848019901E016480021016005B0F0BD44012020480120206001202030012020F5
:200EC000620120205801202098012020690120206101202038012020A0BB0D004C01202043
:200EE00030750000BC0020200000DC426C0120202801202000002A43540120200000484390
:200F00002401202050012020F0B581B0914C924800250570914805704E20914E7719C1B216
:200F2000204602F07DFA7978204602F079FAB978204602F075FAF978204602F071FA397948
:200F4000204602F06DFA7979204602F069FAB979204602F065FAF979204602F061FA397A64
:200F6000204602F05DFA797A204602F059FAB97A204602F055FAF97A204602F051FA397B80
:200F8000204602F04DFA797B204602F049FAB97B204602F045FAF97B204602F041FA397C9C
:200FA000204602F03DFA797C204602F039FAB97C204602F035FAF97C1435204602F030FA26
:200FC000387D282DAAD100254220664E7719C1B2204602F025FA7978204602F021FAB97842
:200FE000204602F01DFAF978204602F019FA3979204602F015FA7979204602F011FAB97906
:20100000204602F00DFAF979204602F009FA397A204602F005FA797A204602F001FAB97A21
:20102000204602F0FDF9F97A204602F0F9F9397B204602F0F5F9797B204602F0F1F9B97B41
:20104000204602F0EDF9F97B204602F0E9F9397C204602F0E5F9797C204602F0E1F9B97C5D
:20106000204602F0DDF9F97C204602F0D9F9397D204602F0D5F9797D204602F0D1F9B97D79
:201080001735204602F0CCF9F87D2E2D9ED100254D20354E7719C1B2204602F0C1F979788D
:2010A000204602F0BDF9B978204602F0B9F9F978204602F0B5F93979204602F0B1F97979CA
:2010C000204602F0ADF9B979204602F0A9F9F979204602F0A5F9397A204602F0A1F9797AE6
:2010E000204602F09DF9B97A204602F099F9F97A204602F095F9397B204602F091F9797B02
:20110000204602F08DF9B97B204602F089F9F97B204602F085F9397C204602F081F9797C1D
:20112000204602F07DF9B97C204602F079F9F97C204602F075F9397D204602F071F9797D39
:201140001635204602F06CF9B87D2C2DA2D101B0F0BDC04600001040670120205F0120208A
:2011600041370000B8360000E7360000F0B58DB008900120C1077E4C7E4A07077E480A9188
:201180001161E060E068E06081262660104640380C9007601760A025284602F063FA77485F
:2011A00000680790266073480446303C27600B940760284602F056FA6D4806600C980760D6
:2011C0006C480760284602F04DFA6C480068069067480660276067480760284602F042FA4D
:2011E000634C26600C98076062480760284602F039FA62480068059026600B9C27605D480B
:201200000760284602F02EFA594806600C98076058480760284602F025FA584800680490AB
:20122000534806602760534C2760284602F01AFA4F4806600C9807602760284602F012FA91
:201240004E48006803904A4806600B9C276049480760284602F006FA454806600C98076081
:2012600044480760284602F0FDF94448006802903F48066027603F4C2760284602F0F2F9CE
:201280003B4806600C9807602760284602F0EAF93A4800680190364806600B9C2760354886
:2012A0000760284602F0DEF9314806600C98076030480760284602F0D5F930480068009029
:2012C00009962B48066027602A480760284602F0C9F90898002807D025480999C1600A98A3
:2012E00020602449086007E00A982249086120492148C860C868C8600798C00F0699C90F05
:201300008900C00040180599C90F490040180499C90F401880000399C90F49004018029918
:20132000C90F401880000199C90F490040180099C90F40180890A024204602F093F90C4D88
:20134000099E2E600C9807600A480760204602F089F92E600B98076006490F600A98086159
:201360000548E860E868E8600898C0B20DB0F0BD0C804240D0120A4081000E0080130A401E
:20138000F0B585B00546002830D464D000277D20C00001900A262846314601F05BFF4643CA
:2013A000A91B3026314302AAD1550A2D59D30A2101F050FF314302A8C0194170642D54D39F
:2013C0006421284601F046FF0A2101F043FF3143FC1C02A8C01981702846019E314601F011
:2013E00039FFB54227460546D4D23BE061487D21C90001912D2102F013F86D4200240A2754
:201400002846394601F026FF4743E91B3027394302AA11550A2D3AD30A2101F01BFF394360
:2014200002A800194170642D35D36421284601F011FF0A2101F00EFF3943E71C02A8001940
:2014400081702846019C214601F004FFA5423C460546D4D21CE04748302101F0E1FF05B079
:20146000F0BD7C1C002C03D182E0BC1C002C7FD0601E032101F0EEFE481C0027032800D06D
:2014800007463C49009417D125460C4642E0671C002F03D16CE0A71C002F69D0781E032168
:2014A00001F0D8FE481C0025032800D00546009719D13C462F4E45E002A8801E01902646AC
:2014C0000C46019880194178204601F0A9FF012F1FD0B51E0198815D204601F0A1FFBF1E93
:2014E0002E46EED116E002A8801E0190214E0198C0194178304601F093FF012D21D0BC1E5E
:201500000198C15D304601F08BFFAD1E2746EED118E0751E009803282AD302A82818C61E13
:20152000B178204601F07CFF7178204601F078FFED1E3178204601F073FFF61E002DEFD17B
:2015400016E07C1E0098032812D302A82018C51EA978304601F064FF6978304601F060FFFC
:20156000E41E2978304601F05BFFED1E002CEFD105B0F0BD00001040F0B587B00490002AC4
:2015800022D00E465E49304601F000FD00281ED15C49304601F0FAFC00281AD15A493046B5
:2015A00001F0F4FC002816D10324A107304601F0EDFC002811D100253046294601F0DDFC3E
:2015C000002873D0FF2509E04C48057806E0F62504E0F92502E0FB2500E0FD2503956EB2C3
:2015E000304601F075FE07464C480068394600F002FF04464A4D294601F0DAFC002800D148
:201600002546484C2846214601F0B7FC002800D12C46424804604449204601F071F9044661
:201620004249384601F06CF9214600F0E4FE04460027324DE857301A01F04AFE354901F0F1
:201640005FF9214600F0D7FE03992970FF21890501F056F9364901F053F90446354D2846ED
:20166000214600F0C3FE06462046294600F0C3FE02463148314600F089FF3048006801F0FF
:2016800027FE04462E48006801F022FE024605AE019606AD009528482146049B01F0FEF9B4
:2016A000E85FF15F00F034FC07B0F0BD7F20C105304601F06BFC002890D11449304601F08F
:2016C00065FC002814D11249304601F05FFC0028254683D10F49304601F058FC002809D183
:2016E0000D49304601F052FC002805D0072575E7012573E7052571E70A256FE7660120202C
:20170000000010C10000C0C0000080C0000040400000A0400000E0400000104140012020E6
:2017200000004843000048C39A99193E0000C842EC51383D00002043BC00202044012020E9
:2017400048012020F0B587B01D46039202910446EFF3108072B64F490F684F490E68002870
:2017600000D162B600212046019101F00FFC0028069500D0494C4A480168791A494A1368A7
:20178000F31A0497076005961660474A10684718176046490868C01800900860444E316850
:2017A000204600F028FE05463060424901F0F7FB002843D0384601F08BFD3F4F394601F034
:2017C0009FF8294601F034FA0446009801F080FD394601F095F8294601F02AFA0546374849
:2017E000017800291DD036480068364901F088F80646354F2046394601F082F8314600F0FD
:20180000FAFD0446314800682E4901F079F806462846394601F074F8314600F0ECFD05469C
:2018200001E001210170264804602848056001981D4908601D4908601D490860029C002CC0
:2018400004D01F48006801F09BFD2060039C002C069D059E049F04D01C48006801F090FD0A
:2018600020600C9C002D08D0384601F031FD124901F046F801F084FD2860002C08D03046A0
:2018800001F026FD0C4901F03BF801F079FD206007B0F0BD70012020740120200AD7A33B4B
:2018A0008001202084012020880120208C012020900120200AD7A33C9C9D0F3F680120204B
:2018C000780120209A99993E3333333F7C012020F0B597B000F000FA411E022905D303284D
:2018E0000ED004281DD14A4812E004464A48006800F00EFD00280AD0022C0CD049480BE0A5
:2019000001F0BEFD782001F01DFE424800E0434801F080FC05E0424801F07CFCDC2001F050
:2019200011FE414C2068800216D4404D2878002815D1012677053E4801F094FE206838422E
:201940000DD12E7001F00EFE00284FD001F098FD782001F0F7FD02E0344800210170EFF3F2
:20196000108172B6354A107800241470002900D162B6002823D001F0ADFD314900F0C0FF0E
:20198000054613A8009016A915AA14AB2846FFF7D9FE06AE3046FEF7A5FE1F480068169AF8
:2019A000159B0799377A36880094019402940391049705962946FFF771F901F0EBFB2148D0
:2019C000017801290CD104701348006806AD009521462246234600F079FE2846FEF770FB9B
:2019E0007D20000201F03EFE17B0F0BD0A48006800F08EFC002804D0DC2001F0A3FD0E4894
:201A000002E001F057FB0B4801F004FCA7E7C0466A3700001E38000020012020F437000046
:201A2000E8370000FF37000080330A405E01202000E20400CD3700002838000063012020C7
:201A40000AD7A33B6B012020F0B587B004460026314601F092FA0546002801D14D4900E020
:201A60004B49204600F04CFF002D4B4F05D02D210446384601F0D4FC204601F0B7FC0A2882
:201A8000029004D23021384601F0CAFC71E007460A253846294601F0DDFB294601F0DAFBA0
:201AA0003024214304A88155642F21D36421384601F0D0FB0A2101F0CDFB214304A8801919
:201AC0004170F8087D2815D37D20C100384601F0C1FB05460A2101F0BDFB2143F41C04A800
:201AE000801981702D48874226462F46D0D202E0741C00E0B41C002C274F3AD0601E03212B
:201B000001F0A8FB481C0026032800D00646019402D12546204F16E004A8801E03901E4FDE
:201B2000039800194178384601F07AFC012E09D0A51E0398015D384601F072FCB61E2C466C
:201B4000EED100E0651E0198032812D304A82818C41EA178384601F063FC6178384601F0BD
:201B60005FFCED1E2178384601F05AFCE41E002DEFD12E21384601F053FC0A21029801F0EF
:201B800069FB30200143384601F04AFC07B0F0BD000020C10000204100001040102700006B
:201BA000F0B589B01F461446059100260690314601F0ECF90028354651D1002F35464ED05C
:201BC0003B480168204600F011FC2746069C214601F02EF80390374805680497384621462A
:201BE00000F08EFE294600F006FC0746324D294601F0DEF9002800D13D46304F284639461D
:201C000001F0BBF9002800D12F462A4807600021384600F075FE05468120C105049C20461E
:201C200000F06EFE294600F0E6FB05462449039800F066FE294600F0DEFB0546214F3946EF
:201C400001F0B6F9002800D12F461F4D3846294601F093F9002800D13D4615480460059CC2
:201C60002046294600F0C7FB07462046294600F0BDFB02461548394600F088FC14480068B7
:201C800001F026FB07461348006801F021FB024607AC0194354608AE00960C483946069B4A
:201CA00000F0FCFE705F615F00F032F909B0F0BD3C012020340120200000A0410000A0C1F6
:201CC0000AD7A33C00007042000070C2BC002020440120204801202070B586B045480178F5
:201CE000012932D1EFF3108272B61421C943424B03E06D466D18EC75C91C5C18657D002D69
:201D000026D0657D2E46613EF6B21A2E00D2203D6E4676187575A57D002D1BD0A57D2E46BD
:201D2000613EF6B21A2E00D2203D6E467618B575002911D0E57D002D10D0E47D2546613D96
:201D4000EDB21A2DD5D2203CD3E7002006B070BD153104E0163102E0172100E017316B4679
:201D600000245C54047025480470002A00D162B66D462A786B78AC78E8782D7905290CD1BA
:201D8000522A0AD1552B08D14E2C06D1312804D1352D02D1012006B070BD6E4606290FD118
:201DA000522A0DD1552B0BD14E2C09D1502807D1492D05D17579442D02D1022006B070BD46
:201DC00004255326502801D0284600E00320694072404F2C00D028461143542B03D10029C3
:201DE00004D106B070BD28460029FAD0284606B070BDC0465F0120200801202067012020E2
:201E0000F0B5384908463438872202603648022202600A46383A86231360012202608523C8
:201E20000B61140204604B61530203602F4CE01C48604B684B600860086808604B68500692
:201E400003434B600B6803430B6082258D60284BCB604D64274D2E463C3E33606C606E68F3
:201E60006E600E46083E244F3760346834608124AC622F632C6B2C63EF61EC69EC612F62D2
:201E80002C6A2C622F602C682C600C46303C174E26602568256024390E600C680C601749A9
:201EA0000C68950525430D6015490C6AD20614430C620C6814430C6012490A600A6312490A
:201EC0000A68042414430C600A69823B13430B610E490A6A801C02430A620A6802430A607A
:201EE000F0BDC0463C804240D0120A4081000E0082000400C080424081000C00A0130A4064
:201F000028100A40A0320A4090330A4028300A40F0B585B00C467D27FD003C4A9042034606
:201F200000DC1346AB4200DB2B469442039400DC14461922AC4200DB2C46334ED101049132
:201F4000334A1380334A148000280197029512D0DA175340D11A4D19012813DB01223046A2
:201F6000049901F06BFB04984543F900284601F071F9074612E0002701223046394601F018
:201F80005DFB0BE004984543F900284601F062F901460122304601F051FB049F00253046CC
:201FA00039462A4601F04AFB20B2C1174840081A02990F180398184E00280BD010DD049D54
:201FC0006F430198C100384601F044F901460022304602E0304629462A4601F02FFB0CE02C
:201FE00000223046049C214601F028FB67430198C100384601F02EF9054601223046294641
:2020000001F01CFB05B0F0BD0000094018FCFFFF940120209601202000008640F0B5394A61
:202020008218394BC0183A4D4C790B79002C22D0466F202B02D00524E70100E0354F2E4007
:20204000002B00D188273E434667846F2C403C438467446B2D4E34404463846B344084634F
:2020600000244465846554688F26F643344054609468344094600C688979202B09D006468E
:202080007036002B15D1641E4460C46E2C40882715E0641E4460C46E2C401E4E3443C46650
:2020A000046F2C40344304671B4D01246707064607E00527FF0164084460C46E2C403C43D8
:2020C000C46634682C403C433460C46A0F4D2C40C462046B2C4004630024C4640465C46F75
:2020E0008F25ED432C40C46714682C401460194302680A4B1340BD220A40D118891C016083
:20210000F0BDC04684180000041800008888FDFF24493E0001040000FFFFFFCF4000FFCFBE
:20212000B0B53A4A80184A6842600A78222A56D8930001A4E3589F46D5210000DF21000080
:20214000D5210000DF210000DF210000DF210000DF210000DF210000DF210000DF21000089
:20216000DF210000DF210000DF210000DF210000DF210000DF210000C5210000DF21000079
:20218000C5210000DF210000DF210000DF210000DF210000DF210000DF210000DF21000059
:2021A000DF210000DF210000DF210000DF210000DF210000DF210000C5210000DF21000039
:2021C000C5210000036803242407A343012464071B1903E0036803242407A34303600B6955
:2021E000C360CB68C46A0A4D25400A4C1C402B19C3620368084C1C400460097A11430268C4
:202200003F239A43194051180160B0BD041800008888FDFF777702007F00FFFFF0B585B080
:202220000393174602910446066900251046294600F0ACFE002861D10120C107304604918D
:2022400088433F21090600F098FE002856D13046029900F0CBF8054620680290A6692846C9
:20226000314600F0C3F801906168384600F048FB0146284600F044FB00900298019900F099
:202280003FFB009900F0B7F80090A068394600F0CFFC074630460196314600F0ACF801464E
:2022A0000295284600F0A2F8E16900F0A4F80146384600F025FB009900F09DF801466069B6
:2022C00000F099F80646039D04996940049100F054FE07463046294600F06AFE002800D1F1
:2022E0003546002F049800D1284660610299A1610199E16101F044F8054606E0E168304602
:2023000000F0FEFA6061A561E561284605B0F0BDF0B581B00446204E31780020062938D862
:2023200001252A468A4061210A4232D000F0EAFD1A48002707601A4807601A4807701A48A2
:2023400007701A4807601A4807601A4807701A4807801A4807601A4807601A4807701A48E5
:2023600007601A4807601A4804601A4807701A480770042030701948046019480760194803
:202380000760194801F064F80548076000F092FE284601B0F0BDC0469801202028012020E0
:2023A000500120206C01202069012020300120203401202062012020580120203C01202096
:2023C000400120206601202044012020480120203801202061012020600120204C0120207E
:2023E0002401202054012020BC002020FCB40127FF07794002E0FCB40127FF070C024D0035
:202400002D0E03D1002C52D1FCBC70473C43FF2D50D0A408002900D56442020243001B0E64
:2024200004D1002A43D10800FCBC70473A43FF2B41D09208002800D552425E1B04D51700C6
:2024400022003C0076422B00192E06D527003741D2191C27F71B7F42BC40002A27D002D585
:202460005242012700E00027013B5200FCD51500802635400FD01500202635402C4380323A
:2024800008D21500402635402C4304D101263602B24300E05B1C5200023308DDFF2B0BD210
:2024A000500ADB051843FF073843FCBC70470020FCBC70470800C70FFF07FF20C0053843C5
:2024C000FCBC704780B582B01A4900220A701A490A601A490A601A490A601A490A601A4990
:2024E0000A601A490A701A490A601A490A701A490A601A490A601A490A701A490A801A4924
:202500000A601A490A601A490A701A490A601A490A601A4908701A4908701A4800920190D2
:202520001948FF218905134600F042FC00F0C2FD02B080BD98012020380120204C01202088
:202540002801202050012020540120206C012020240120206901202030012020340120204A
:2025600062012020580120203C0120204001202066012020440120204801202060012020CB
:202580006101202000007A44BC002020F0B583B0002846D00E46044617462349304601915A
:2025A00000F0EBFC0290214D3046294600F000FD0028284600D13046029900291A4900D19D
:2025C000014602913846184900F0D7FC06463846294600F0EDFC002800D13D46002E00D1F2
:2025E0000195E66821690298FFF700FF01466769304600F085F93946FFF7FDFE6061E66A62
:20260000216B019D2846FFF7F1FE0146676B304600F076F93946FFF7EEFE02992161256349
:20262000606303B0F0BDC046000048C300004843002A49D084468B071CD1830722D1102A98
:2026400008D370B4103A78C978C0103AFBD270BC103238D0042A2CD3082A05D30C2A01D3EA
:2026600008C908C008C908C008C908C092072AD0920F22E00B780370491C401C521E22D040
:202680008B07F7D1C30714D18307D8D0121F12D308C903801B0C4380001D121FF8D20AE0A9
:2026A00008C903701B0A43701B0A83701B0AC370001D121FF4D2121D05D00B780370491C1B
:2026C000401C521EF9D160467047FEE770B5049C002C2DD0174D2D782570174D2D68401B42
:2026E0000525454315480068154E36686560A16021460C3145C1237612480078607600F0C1
:2027000041FF11490968E061216210480078242160540F480088E0840E4800680E49096858
:20272000A062E16200F092FF208600F095FF608670BDC046980120203801202050012020AD
:202740005401202061012020300120206201202058012020440120204801202070B582B030
:202760001B491C4C204600F029FF1B492046FFF755FC1A4801681A4A0A4002600025009569
:20278000204629462A462B4600F026FF204629462A4600F005FF204629462A4600F04EFFB3
:2027A00001260096204629462A462B4600F014FF20462946324600F0F3FE20462946324628
:2027C00000F03CFF074886600321016002B070BD84380000000009403C3800000418094057
:2027E0007F00FFFF0011094070B582B01B491C4C204600F0E3FE1B492046FFF70FFC1A487B
:2028000001681A4A0A40026000250095204629462A462B4600F0E0FE204629462A4600F0CC
:20282000BFFE204629462A4600F008FF01260096204629462A462B4600F0CEFE204629469B
:20284000324600F0ADFE20462946324600F0F6FE074886600321016002B070BD87380000DC
:202860000000864044380000041886407F00FFFF0011864040B542004B005E08164301D0CE
:2028800006004E4000D4D01A04D20120C90F06D1404204E003D90120C90F00D04042FF268E
:2028A0003606B24200D8B34200D9012040BD40B542004B005E08164301D006004E4000D4AA
:2028C000D01A04D20120C90F06D1404204E003D90120C90F00D04042FF263606B24200D8AE
:2028E000B34201D90120404240BD42004B000020FF2109068A4200D88B4200D9012070476B
:20290000FCB40127FF0706004E4001D4002600E03E00020243001B0E30D03A43FF2B30D015
:202920000C024D002D0E29D03C43FF2D29D05B194240504042404C4061404C4000B500F0FE
:20294000E5FC20BCAE464240504042404C4061404C4025001400002C01D46400013B8034EB
:2029600001D3013364087E3B08DDFF2B09D2BC43200ADB0518433043FCBC70470020FCBC22
:202980007047FF20C0053043FCBC704710B51B491B4C204600F037FE1A49204600F0D6FB15
:2029A000194801680322D203914301600169174A0A4011320261416917220A4328218A431D
:2029C0004261426801210A4043688B439A1842600F4A13688C021C43146002684B0413432D
:2029E0000360C26870231343C360C2680A4306239A43C26002680A43026010BD8A370000F8
:202A0000000010400A380000001110400000FFFF2810104010B51B491B4C204600F0F3FD67
:202A20001A49204600F092FB194801680322D203914301600169174A0A40113202614169F2
:202A400017220A4328218A434261426801210A4043688B439A1842600F4A13688C021C4393
:202A6000146002684B0413430360C26870231343C360C2680A4306239A43C26002680A43E4
:202A8000026010BD3A3800000020104014380000003110400000FFFF28301040F0B585B0D8
:202AA00000283BD00A9D002D38D004460B98002834D01F46049002910392002118460191BC
:202AC00000F076FA666C002805D038463146FFF792FC06466064274648371149304600F092
:202AE0004CFA002803D038882880B91C13E001986064236C204602993246FFF78FFB3880C8
:202B0000236C2034204603993246FFF787FBB91C788038882880049A0888108005B0F0BD8B
:202B20000AD7A33CF0B581B0144605461548057015480160154800270760154E3760154888
:202B400000F086FC05202840012810D1134804601348C0570028134D294600DA12492046A9
:202B6000FFF749FC0C490860356001B0F0BD0A480460022D03D0042D01D000F09BFA01B07A
:202B8000F0BDC046980120204C0120202401202054012020BC00202050012020280120202C
:202BA0006C01202000002A4300002AC3F0B583B01A48002101801A4801600120C207194C20
:202BC0002261194B19491960196819601E460C3E8121316001912546403D07072F602760BA
:202BE000196020463038029202602260A024204600F038FD019830602F600A4D2F602046C3
:202C000000F030FD0298286108480749086008680860204600F026FD03B0F0BD5A01202020
:202C20002C012020D0120A401880424081000E00FCB40127FF0706004E40F60FF6070202DA
:202C400043001B0E2DD03A43FF2B2DD00C024D002D0E26D03C43FF2D26D05B1B0020202163
:202C600064085208A2424041A24200D3121B013904D0002A01D05200F4D18840384201D111
:202C80004000013B803001D3013300E040007F3307DDFF2B08D2400ADB0518433043FCBC96
:202CA00070470020FCBC7047FF20C0053043FCBC70477047F0B50020C0431849184B01279D
:202CC000FA067E06103B1D6815400B46103B1B68002D09D0134C24683442044600D03C4629
:202CE000114F396861183960B71C334208D00F490968C90200D501200D490C6800190860CC
:202D00003B40002D03D00649086810430860002B03D00249086818430860F0BD48300A40D3
:202D200048100A4080130A407001202080330A4074012020F8B5451C00780023082B32D0D3
:202D40002F78C2070CD16A780F241440E41C122C0BD102242E57F4B2002E08D4EE1C0EE050
:202D60006D1C4A1C0F7011461AE0AE1C08E02E1DED7800957F252C40009DED012C19123477
:202D80003D0112095219094DAA420ED0D243002C05D08D5C4F1C0D70641E3946F7E735460E
:202DA00040085B1CCAE72846C5E7F8BDFF0F0000F0B585B0002830D0044602A80EC00B9F58
:202DC00000253846294600F0D8F80190144E3846314600F0EDF8002800D13E460A980199AB
:202DE00000292946049A00D131462164029B236003996160A260E060256123626162A2623F
:202E0000E06225632946FFF77BFD6061A561E5616063A563E5636564A56405B0F0BDC046B1
:202E200000007A44F0B581B010481149416011484160114B5960114C6160114D6960114EF8
:202E40007160114F7960114841601149074A1160084A116019602160296031603960016081
:202E6000102000F0FFFB01B0F0BDC04600080A40030000B100280A4000080940000886403D
:202E80000008874000280F40000810400028104001000026F0B5164A1068C0B20B2825D1DD
:202EA000144801218B029362026852071ED4124A124B134C06E01D780026665511700568FB
:202EC0006D0713D4C5691678002EF8D1EEB20D2EF5D00A2EEFD01E78162E04D81E78771C6E
:202EE0001F70A555EBE700251D70E8E7F0BDC04620101040081110405F0120206701202012
:202F000008012020EFF3108072B60D4A002111600C4A11600C4A11600C4A11600C4A1160C9
:202F20000C4A11600C4A11600C4A11600C4A11600C4A1170002800D0704762B67047C0461A
:202F400070012020740120208001202084012020880120208C012020900120207801202065
:202F60007C0120206801202010B5FFF783FC002801D0002010BD012010BD10B5FFF77AFCAC
:202F8000002801DB002010BD012010BD10B5FFF771FC002801DD002010BD012010BD10B584
:202FA000FFF785FC002801DA002010BD012010BD10B5FFF77CFC002801DC002010BD012076
:202FC00010BD000080B51149114800F097FA11480168032252020A430260026801210B0238
:202FE000134303600022426107224262836B93438363836B120293438363826A04231343B5
:203000008362826A0A43826280BDC0468D38000000200F4000320F400E480068C0B201285D
:2030200016D10D480168491C01600C480178FF2902D00178491C017009480178491CCAB264
:203040000170142A04D3002101700648012101707047C046201087402001202063012020BE
:203060006A0120206B01202080B500F0A5F900F047F8FFF79BFD00F055FA0020FFF722FA08
:20308000FDF742FF084800F0C5F801204105074A1160074B1960400310601860022010604D
:2030A00018601060186080BD1437000080E200E000E100E070B50E48002404800D48048029
:2030C0000D4E0125304621462A4600F0B7FA30462146224600F0B2FA084E30462146224605
:2030E00000F0ACFA304621462A4600F0A7FA70BD9401202096012020000009400000864074
:2031000070B50E48002404800D4804800D4E0125304621462A4600F091FA30462146224625
:2031200000F08CFA084E30462146224600F086FA304621462A4600F081FA70BD9401202054
:2031400096012020000009400000864070B511221302C218C4580125AC43C4500C888D7864
:2031600025438C882C43C558084E2E40084D25407419C4508879CB790343087A1843516807
:203180007E23994318400818506070BDE798FDFF1867000010B50C48018800290ED00B4A65
:2031A00013785C1C1470DA0703D00122D206084B1A61491E0180080400D010BD0120C00693
:2031C0000349086010BDC0465C01202064012020A0320A400D48002101600D48011F0A684C
:2031E0000323DB4313400B604168012291434160416812029143416001683022914301606A
:2032000001680F22914301607047C04608030B4004010B4070B50178002917D00C4CC51C95
:20322000AE1EC9B2204600F0FBF8317800290DD06E1E204600F0F4F83178002906D0204673
:2032400000F0EEF82978ED1C0029E9D170BDC046000010401CB50A0017D000230124E40793
:20326000A04200D20400944201D95200FBE790425B41904200D3801A914201D25208F6E728
:2032800019000200080011001CBD01000020FFF710FD1CBD70B50A480A4C84420CD00A4D5E
:2032A0000A4EB54208D02A686968501C12789200A25890470835F4E700BF00BF70BDC04662
:2032C000A438000098380000B4380000C438000006B49E22002802D404D106BC7047414211
:2032E00004D400E00100013A4900FCD5803101D3013200E04900490AD2051143002802D562
:203300000122D2071143080006BC7047FCB4020C0B0CFF242402FF34204021400C00444337
:2033200015005D4306005E430F005743320C3B0CA818C01832043B040025A1186841C9188E
:203340006841FCBC7047000010B50849084C204600F034F907492046FEF7E2FE0648016826
:203360000122114301600548026010BD8138000000008740A83700002810874008118740BB
:2033800006B54100090E7F390DD41F22511A0CD9864600020122D2071043C8407246002AE9
:2033A00000D5404206BD002006BD02000120C007002A00D4401E06BD80B5FFF733FDFEF7B7
:2033C0001FFDFFF707FFFFF7C9F9FFF70DFAFFF7BBFFFFF7F7FDFFF7D9FAFFF71BFB024867
:2033E000B8210022425480BD0000202006B5002803D57346FFF7C4FF06BD4100090E7F39BF
:2034000008D31F22511A07D300020122D2071043C84006BD002006BD0020401E06BD00000B
:203420000A4A80180268120605D50268120602D502681206F6D481610168C90705D0016846
:20344000C90702D00168C907F6D1704708110000B0B5002812D0C168026904461046FFF761
:203460004FFA00256061A561E561E16A206BFFF747FA6063A563E5636564A564B0BD000072
:2034800080B508480078062807D8012181406120014202D0FFF70EFE80BD0348012101708C
:2034A00080BDC0469801202069012020084880F3088800BF00BF00F0FAF8002801D0FFF7A4
:2034C000E9FE002000F0A8F8012000F0E9F8C0460080202002B49E21002805D401D102BC97
:2034E000704701394000FCD5803001D3013100E04000400AC905084302BC704770B50122D4
:20350000120383180C785D680C26B54334402C195C60497883580724A343214059188150C3
:2035200070BD0000044800210180044801700120C0060349086070475C012020640120201F
:20354000A0320A4080B5001D0521FFF783FE0349088003480021017080BDC0465C012020CF
:2035600064012020064802780121062A0B4600D800237F2002401E20D040184308407047B7
:203580009801202003480078002801D1034870470148704765012020DC3700004C38000056
:2035A00010B592008018044A83580724A404A34321405918815010BD3018000010B501229A
:2035C000120383180C789C604B7883508978014A815010BD0C11000010B5029CA4000019FE
:2035E00011431943014A815010BDC0465018000003228058002805D0401E4A1C00230B7068
:203600001146F7E7704710B50122120383180C789C604978815010BDFFF726FDFEF758F9E8
:20362000FEF756F9FEF754F9F8E780B50B4603214258C11D184600F02FF880BD9200801827
:20364000014A81507047C0461018000000200149085E70479401202000200149085E704786
:2036600096012020811E091F00BFFCD2704780B5FFF720FB80BD80B5FFF70CFC80BD80B540
:20368000FFF7F5FF80BD80B5FFF7C6FC80BD80B5FFF7F1FF80BD000080B5FEF7C9FF80BD52
:1836A00000F001F8FEE700BF7047FFE67047012070470000000000005A
:2036B8004232312F52554E5049442F52554E31353A2067726179206C696E65203330733BBC
:2036D8002053544F502061626F7274730D0A004D5055363035302064697361626C65643B5A
:2036F80020656E636F64657220737065656420504944206163746976650D0A004D505536A9
:203718003035303D44495341424C45443B20423231207374617274732067726179206C69FE
:203738006E65203330730D0A004E43484431322067726179206C696E652064656D6F20553C
:20375800415254312031313532303020384E310D0A00436F6D6D616E64733A2052554E5031
:2037780049442C2052554E31352C2053544F500D0A0008007338000062380000313800009E
:20379800623800005B3800006E3800006838000002000000FF70020001000000000000002A
:2037B800000000003031323334353637383941424344454600455252204232312062757337
:2037D800790D0A004D5055363035302D455252004F4B2052554E5049440D0A0045525220C2
:2037F800627573790D0A004F4B2052554E31350D0A0000001800000000300000000018004B
:203818000000003000004F4B2053544F500D0A004F4B204232310D0A0053545241494748C1
:2038380054000800800C000020000100800C0000200101004D50553630353000284C4F53E6
:203858005429004C494E4533300043555256450041424F525400444F4E450049444C450007
:20387800284F4B2900455252000800000800000800004F4B0008003F000000000000000063
:20389800352D00002B360000F1350000020000006D010000000100000F16FFF0A4380000C6
:1038B80000002020AC38000070012020000000002B
:00000001FF
