:20000000008020204B3B00007F2C00007F2C00000000000000000000000000000000000044
:200020000000000000000000000000007F2C000000000000000000007F2C00007F2C0000BF
:200040007F2C00001F3B00007F2C00007F2C00007F2C00007F2C00007F2C00007F2C000099
:20006000000000007F2C00007F2C000000000000000000007F2C00007F2C00002F3B00006A
:200080007F2C00007F2C00007F2C00007F2C00007F2C0000273B00000000000000000000A7
:2000A0007F2C00007F2C000000000000000000007F2C0000000000007F2C00007F2C0000E9
:2000C000F0B58FB0002800D1BEE30446B84F6D21384603F0F5FB7321384603F0F1FB3D2113
:2000E000384603F0EDFB6568002D0B942DD000270A262846314603F0FDFA4643A91B302648
:2001000031430CAAD1550A2D24D30A2103F0F2FA31430CA8C0194170642D1DD36421284631
:2001200003F0E8FA0A2103F0E5FA3143FE1C0CA8C01981707D20C100284603F0DBFAE9085C
:200140007D2937460546D3D207E03021384603F0B7FB41E07E1C00E0BE1C002E944F3BD0A0
:20016000701E032103F0C6FA481C0027032800D00746099602D135468D4C16E00CA8801E39
:200180000A908B4C0A9880194178204603F098FB012F09D0B51E0A98815D204603F090FBCE
:2001A000BF1E2E46EED100E0751E09980328274612D30CA82818C61EB178384603F080FBB1
:2001C0007178384603F07CFBED1E3178384603F077FBF61E002DEFD12021384603F070FB99
:2001E0007321384603F06CFB74253846294603F067FB6121384603F063FB3846294603F087
:200200005FFB6521384603F05BFB3D21384603F057FB0B9E3078062803D88000654909582D
:2002200000E065490878002816D0CD1CAC1EC1B2384603F045FB217800290DD06C1E384624
:2002400003F03EFB2178002906D0384603F038FB2878ED1C0028E9D12021384603F030FBCE
:200260006721384603F02CFB7921384603F028FB7221384603F024FB6F21384603F020FBF1
:200280003D21384603F01CFB707E002804D0307E00280FD149490EE04F21384603F010FB6C
:2002A00046253846294603F00BFB3846294603F007FB1AE042490878002816D0CD1CAC1E45
:2002C000C1B2384603F0FCFA217800290DD06C1E384603F0F5FA2178002906D0384603F0B2
:2002E000EFFA2878ED1C0028E9D13046243007902021384603F0E4FA6221384603F0E0FACB
:200300006121384603F0DCFA6321384603F0D8FA6B21384603F0D4FA6521384603F0D0FAC1
:200320006E21384603F0CCFA6421384603F0C8FA3D21384603F0C4FAF1690878002816D0CA
:20034000CD1CAC1EC1B2384603F0BAFA217800290DD06C1E384603F0B3FA2178002906D073
:20036000384603F0ADFA2878ED1C0028E9D12021384603F0A5FA6C21384603F0A1FA692166
:20038000384603F09DFA6E21384603F099FA6521384603F095FA3D21384603F091FA306A48
:2003A00001F0AEFD0798007800280DD105490CE000801040343C0000373D0000253D000034
:2003C000323D0000FC3C000060490878002816D0CD1CAC1EC1B2384603F072FA217800297A
:2003E0000DD06C1E384603F06BFA2178002906D0384603F065FA2878ED1C0028E9D120218C
:200400000991384603F05CFA67210891384603F057FA72210691384603F052FA61274C4895
:20042000394603F04DFA79254948294603F048FA3D210A91464803F043FA30214448049107
:2004400003F03EFA7821424803F03AFA0B98C48C200B404E315C3E4803F032FA2005000F15
:20046000315C3B4803F02CFA2006000F315C384803F026FA0F2005900440315D344803F0F9
:200480001FFA3348099903F01BFA3148089903F017FA2F48069903F013FA2D4839462C4F7B
:2004A00003F00EFA3846294603F00AFA5F21384603F006FA6221384603F002FA7521384668
:2004C00003F0FEF97321384603F0FAF938460A9903F0F6F9079C2079002805D04F21384610
:2004E00003F0EEF94B2138E04E21384603F0E8F94121384603F0E4F94321384603F0E0F97F
:200500004B21384603F0DCF96679002E24D0012009900A273046394603F0ECF805463946A7
:2005200003F0E8F80A916F43F01B049D28430CAC20706421304603F0DDF8A1780A2E00D355
:2005400084E16278099C25468BE1C046203D000000801040643C00003021384603F0B0F9A2
:2005600020210991384603F0ABF967210391384603F0A6F9722638463146069603F0A0F9AA
:20058000612438462146009403F09AF9792538462946019503F094F95F210891384603F0AC
:2005A0008FF93846214603F08BF9642438462146049403F085F93846214603F081F9384611
:2005C000314603F07DF93D210A91384603F078F93021384603F074F97821384603F070F9BE
:2005E000079884792009C04E315C384603F068F905982040315C384603F062F93846099C50
:20060000214603F05DF93846294603F059F93846009D294603F054F977210791384603F08D
:200620004FF938460A9903F04BF90B98806801F067FC3846214603F043F9742438462146AA
:20064000029403F03DF93846294603F039F93846069903F035F93846039903F031F96521CE
:200660000591384603F02CF93846214603F028F93846089903F024F93846019C214603F0B1
:200680001FF93846294603F01BF93846079E314603F016F938460A9903F012F90B98C068C8
:2006A00001F02EFC3846099903F00AF93846214603F006F93846294603F002F93846314662
:2006C00003F0FEF83846089903F0FAF83846069C214603F0F5F83846294603F0F1F838467F
:2006E000029E314603F0ECF83846059D294603F0E7F838460A9903F0E3F80B98006901F0BF
:20070000FFFB3846099903F0DBF83846314603F0D7F87521384603F0D3F83846214603F098
:20072000CFF86E21384603F0CBF83846089903F0C7F83846294603F0C3F83846214603F0EB
:20074000BFF83846214603F0BBF838460A9903F0B7F80B9C606901F0D3FB3846099903F052
:20076000AFF87321384603F0ABF870263846314603F0A6F83846294603F0A2F838462946A7
:2007800003F09EF83846049903F09AF838460A9903F096F8E06A01F07DF82F21049138467B
:2007A00003F08EF8206B01F075F83846099903F087F83846314603F083F83846079903F0D1
:2007C0007FF86D253846294603F07AF83846089903F076F83846314603F072F83846059ECB
:2007E000314603F06DF83846069903F069F83846294603F065F86921384603F061F86C2597
:200800003846294603F05CF83846294603F058F83846314603F054F838460A9903F050F8E4
:200820003420205E01F036F83846049903F048F83620205E01F02EF80D21384603F040F8B7
:200840000A21384603F03CF80FB0F0BD099C0A9A2A43642E01D2022503E028430325002480
:2008600001460CA842708170681E032102F042FF481C0027032800D00746099402D12E4646
:20088000184C16E00CA8801E0A90164C0A9840194178204603F014F8012F09D0AE1E0A9820
:2008A000415D204603F00CF8BF1E3546EED100E06E1E09980028274600D051E60CA8301881
:2008C000C51EA978384602F0FBFF6978384602F0F7FFF61E2978384602F0F2FFED1E002E14
:2008E000EFD13DE600801040643C0000F0B58BB0002800D126E1E1490978002900D123E11C
:200900000690E24CE2490120870705904607E1480F61206020682060201F0A908125056052
:2009200008464038089006600E60A020049003F0E9F82560D6480446303C27600797076078
:200940000746049803F0DEF80A980560266009963E60D148007800F0A1F9002800D1FFE028
:2009600003940495079D0027384600F097F9002800D125E1C6490D61C44AC64F17601068F0
:2009800010600A9C049F2760099E089806600E60A020029003F0B6F8BC48076003990D6095
:2009A000BB48056002980D4603F0ACF827602E60B7480660B84800780599084300F06EF919
:2009C000002800D134E1AE48042102910170059800F046FD0190002000F042FD0090AB4EB1
:2009E0003760079E2E60AA480660A025284603F089F80A980760099808990860A44C20600B
:200A0000284603F07FF82661A248A049086008680860284603F076F800980007020D01984E
:200A200017189948036800D183E096480780012039460A90014002263E407806C40F2046CA
:200A40000B304D1CD20A002A00D10FE100D110E1002900D00B3802993940002E01D00B38D7
:200A6000801C019608223A402E46002901D00B38001D10253D400995002A0893029107948E
:200A8000039201D00B38801D20223A409106CC17802139400A9B1B02099D002D049601D0C0
:200AA0000B3808300A9D6D023B4000190029019E00D0C01C0A9CA4023D40002B00D0401D7C
:200AC0003C40002D00D0C01D76080196029EB6080296039EF6080396099E36095209C9096A
:200AE00009911B0A0A936B0AA50A002C00D00930049C019964180299641803996418A4199F
:200B0000A218079C1219099951180A9A8918C9184D1902F02DFE0646284602F02BFF01467C
:200B2000304602F0D5FA002D089B00D00346564803600698059C791E3A468A410780436049
:200B4000027236E0002470E04D4A012111704D4A12884D4B1B68028043600024048160E003
:200B600047490598087049480560079F2760484C27602E46A025284602F0C4FF0A9806602E
:200B80000998089908602060284602F0BBFF276140483E49086008680860284602F0B2FF29
:200BA000384801883848026806980180426000240472334909780A1F53425341437230E0D3
:200BC0002F49022008703148049E0660039805602F480560A024204602F094FF0A980660EF
:200BE0000998089908602A490860204602F08AFF2748056127482549086008680860204637
:200C000002F080FF1F4801881F48026806980180426007721A4909780A1F5342534143727D
:200C20003C4681721C490978C17220460BB0F0BD134903200870154E3760079E2E60144DD3
:200C40002E60A024204602F05DFF0A9807600998089908602860204602F054FF2E610D48C4
:200C60000A49086008680860204697E7204600D0EEE60D46002900D0ECE6ECE6630120205F
:200C8000640120205E0120202C01202014804240D0120A4081000E0076012020F0B587B03F
:200CA0000290A34EA3490120840747078120019030600D46303D2C600C60A020039002F00C
:200CC00021FF361F019830609A4908464038059007600F60039802F015FF019803963060FF
:200CE0002F6094490F60029940290694049505D28F4908602C608F48046006E08D480461E4
:200D00008B498D48086008680860A025284602F0F9FE039E019C34600598076085480760C4
:200D2000284602F0EFFE3460049A1760814807600298800606D47E480460069911607D4894
:200D4000016007E07B480699016179497A48086008680860A025284602F0D4FE039E346097
:200D60000598076073480760284602F0CBFE3460049A17606F4807600298C00606D46C486F
:200D80000460069911606B48016007E069480699016167496848086008680860A02528465F
:200DA00002F0B0FE039E34600598076061480760284602F0A7FE3460049A17605D48076090
:200DC0000298000706D45A480460069911605948016007E057480699016155495648086055
:200DE00008680860A025284602F08CFE039E3460059807604F480760284602F083FE3460C0
:200E0000049A17604B4807600298400706D448480460069911604748016007E04548069901
:200E2000016143494448086008680860A025284602F068FE039E3460059807603D48076048
:200E4000284602F05FFE3460049A1760394807600298800706D436480460069911603548DA
:200E6000016007E033480699016131493248086008680860A025284602F044FE039E3460DE
:200E8000059807602B480760284602F03BFE346004990F60274807600298C00706D1244DBC
:200EA0002C60069A0A602348026007E02148069A02611F4D2048286028682860A0240294AE
:200EC000204602F01FFE039E019931600598076018480760204602F015FE019C34600498CE
:200EE000076014480760069901611348286028682860029D284602F005FE34600598076032
:200F00000C48076028462C4602F0FCFD0B4800680699084045424541019830600498076070
:200F200004480760204602F0EDFD284607B0F0BD14804240D0120A4081000E0080130A403C
:200F4000F0B587B00593154601910490109C0F9E0E9F14980690139A12991198864B1D6005
:200F6000864B059D1D60864B05971F70854B02961E60854B03941C70844B18808448017008
:200F800084480270844806990170844C2578062D04D80120A840612108421AD1804A1078A9
:200FA00000280FD10598002803D17E480078C00708D17D4800680499081A052670437B4924
:200FC00088420AD300201070062020707A4802F08FFC02F0BFFA07B0F0BD691E0329F8D843
:200FE0000D9D0C9A72480068049B1F1A7743C0467944097949008F4401642E5B06926F494E
:2010000001AB0DCB01F028F86D4807780126F107284688434121090602F011FA002878D0D1
:20102000002F76D100272846394602F008FA002800D1FE436248067062480568304602F059
:2010400097FB0646604901F0EDFE294601F0B7FC6149086066E0594901981746029A039BF0
:2010600000F0FAFF564800214056C4B202F080FB0646544801683D46384601F09BFC3146FE
:2010800001F0D0FE0646002C00D126464E48314601F090FC002C4D4908609CD04A493046B3
:2010A00002F0CDF9002896D0052004992A462CE001AA07CA00F0E4FA3E4887428BD326701F
:2010C00084E70692424901AB0DCB00F0C5FF3C48067870B202F04CFB0146284601F0A2FEA7
:2010E000F9087D2943D3002E41D04121090602F0A6F900283BD037480168491D0160962951
:2011000000D268E703200499069A01F09DFF07B0F0BD002F00D15EE72A48056878B202F01D
:2011200027FB06460698294601F044FC314601F079FE0546244E3046294601F03BFC234FE8
:2011400038602846314602F07AF9002800D142E7022020700498164908601E48002101608E
:201160003960154802F0C4FB1B48069901E019480021016007B0F0BD480120204C01202088
:2011800069012020300120206B0120205C012020660120206701202068012020A001202012
:2011A000720120206A01202038012020A0BB0D005001202030750000BC0020200000DC42A0
:2011C000750120202801202000002A4358012020000048432401202054012020F0B581B08F
:2011E000994C9A4800250570994805704E20994E7719C1B2204602F063FB7978204602F0E1
:201200005FFBB978204602F05BFBF978204602F057FB3979204602F053FB7979204602F0D8
:201220004FFBB979204602F04BFBF979204602F047FB397A204602F043FB797A204602F0F4
:201240003FFBB97A204602F03BFBF97A204602F037FB397B204602F033FB797B204602F010
:201260002FFBB97B204602F02BFBF97B204602F027FB397C204602F023FB797C204602F02C
:201280001FFBB97C204602F01BFBF97C204602F017FB397D204602F013FB797D204602F048
:2012A0000FFBB97D204602F00BFBF97D1835204602F006FB387E302D9AD100254220664EBB
:2012C0007719C1B2204602F0FBFA7978204602F0F7FAB978204602F0F3FAF978204602F045
:2012E000EFFA3979204602F0EBFA7979204602F0E7FAB979204602F0E3FAF979204602F0BA
:20130000DFFA397A204602F0DBFA797A204602F0D7FAB97A204602F0D3FAF97A204602F0D5
:20132000CFFA397B204602F0CBFA797B204602F0C7FAB97B204602F0C3FAF97B204602F0F1
:20134000BFFA397C204602F0BBFA797C204602F0B7FAB97C204602F0B3FAF97C204602F00D
:20136000AFFA397D204602F0ABFA797D204602F0A7FAB97D1735204602F0A2FAF87D2E2DDC
:201380009ED100254D20354E7719C1B2204602F097FA7978204602F093FAB978204602F07E
:2013A0008FFAF978204602F08BFA3979204602F087FA7979204602F083FAB979204602F07A
:2013C0007FFAF979204602F07BFA397A204602F077FA797A204602F073FAB97A204602F096
:2013E0006FFAF97A204602F06BFA397B204602F067FA797B204602F063FAB97B204602F0B2
:201400005FFAF97B204602F05BFA397C204602F057FA797C204602F053FAB97C204602F0CD
:201420004FFAF97C204602F04BFA397D204602F047FA797D1635204602F042FAB87D2C2D9F
:20144000A2D101B0F0BDC046008010407001202065012020583B0000893B0000B83B000044
:20146000F0B58DB00890824A824C01208107470781480A9121615060506850608126166046
:20148000204640380C9007602760A025284602F039FB7A4800680790754806602046303CD5
:2014A00027600B940760284602F02CFB704806600C9807606F480760284602F023FB6F489C
:2014C000006806906A48066027606A480760284602F018FB664C26600C980760654807608C
:2014E000284602F00FFB65480068059026600B9C276060480760284602F004FB5C480660AC
:201500000C9807605B480760284602F0FBFA5B4800680390564806602760564C27602846A1
:2015200002F0F0FA524806600C9807602760284602F0E8FA5148006804904D4806600B9CC4
:2015400027604C480760284602F0DCFA484806600C98076047480760284602F0D3FA474820
:2015600000680190424806602760424C2760284602F0C8FA3E4806600C98076027602846D8
:2015800002F0C0FA3D4800680290394806600B9C276038480760284602F0B4FA3448066034
:2015A0000C98076033480760284602F0ABFA33480068009009962E48066027602D480760E8
:2015C000284602F09FFA0898002807D02848099941600A9921602748016007E025480A99D5
:2015E00001612349244848604868486000984000C00F01994900C90F039A5200D30F069ADE
:201600005200D40F079A550F022215406419A400059D6D0F154064191B199B00049C640F24
:2016200014401B19C9188900029B5B0F1340C91840180890A024204602F064FA0C4D099E13
:201640002E600C9807600B480760204602F05AFA2E600B98076007490F600A9808610648DB
:201660006860686868600898C0B20DB0F0BDC04610804240D0120A4081000E0080130A40DE
:20168000F0B589B00690002A23D00D466E49284601F0CCFE00281FD16C49284601F0C6FE96
:2016A00000281BD16A49284601F0C0FE002817D10324A107284601F0B9FE002812D1002620
:2016C0002846314601F0A9FE002800D190E0FF2609E05C48067806E0F62604E0F92602E00D
:2016E000FB2600E0FD2670B2039002F041F801465C4F3868049101F062F905465A4C21461B
:2017000001F0A6FE002800D12C46584D2046294601F083FE002800D125463D60002149482A
:2017200005914756067052480468524E2046314601F073FE002810D04F49069801F072FB7F
:20174000214601F03CF90446314601F081FE002800D126464648066000E026460398C01BB0
:2017600002F006F807464549284601F05BFB04464349049801F056FB214601F020F904467A
:201780003649384601F04EFB214601F018F9FF21890501F047FB3B4901F044FB0446304654
:2017A000214601F007F905462046314601F007F90246354C2046294601F0C2F9334800688B
:2017C00001F0D6FF05463248006801F0D1FF024607AE019608AF009720462946069B01F00C
:2017E000EFFB0599785E715E00F0EEFD09B0F0BD7F20C105284601F019FE002800D072E74F
:201800001449284601F012FE002815D11249284601F00CFE0028264600D064E70F492846B5
:2018200001F004FE002809D10D49284601F0FEFD002805D0072656E7012654E7052652E7D6
:201840000A2650E76F012020000010C10000C0C0000080C0000040400000A0400000E04060
:20186000000010414401202000004843000048C340012020000020430000C8439A99193E83
:201880000000C842EC51383DBC002020480120204C012020F0B585B00546002830D464D0F5
:2018A00000277D20C00001900A262846314601F021FF4643A91B3026314302AAD1550A2DCD
:2018C00059D30A2101F016FF314302A8C0194170642D54D36421284601F00CFF0A2101F040
:2018E00009FF3143FC1C02A8C01981702846019E314601F0FFFEB54227460546D4D23BE0FE
:2019000061487D21C90001912D2101F0D9FF6D4200240A272846394601F0ECFE4743E91BB4
:201920003027394302AA11550A2D3AD30A2101F0E1FE394302A800194170642D35D3642175
:20194000284601F0D7FE0A2101F0D4FE3943E71C02A8001981702846019C214601F0CAFE07
:20196000A5423C460546D4D21CE04748302101F0A7FF05B0F0BD7C1C002C03D182E0BC1C66
:20198000002C7FD0601E032101F0B4FE481C0027032800D007463C49009417D125460C46F6
:2019A00042E0671C002F03D16CE0A71C002F69D0781E032101F09EFE481C0025032800D03D
:2019C0000546009719D13C462F4E45E002A8801E019026460C46019880194178204601F03E
:2019E0006FFF012F1FD0B51E0198815D204601F067FFBF1E2E46EED116E002A8801E019074
:201A0000214E0198C0194178304601F059FF012D21D0BC1E0198C15D304601F051FFAD1E3B
:201A20002746EED118E0751E009803282AD302A82818C61EB178204601F042FF7178204651
:201A400001F03EFFED1E3178204601F039FFF61E002DEFD116E07C1E0098032812D302A832
:201A60002018C51EA978304601F02AFF6978304601F026FFE41E2978304601F021FFED1EF8
:201A8000002CEFD105B0F0BD00801040F0B59FB000F07EFB411E022905D303280ED0042834
:201AA0001DD14F4812E004464F48006800F012FE00280AD0022C0CD04E480BE001F030FFB9
:201AC000782001F08FFF474800E0484801F0F2FD05E0474801F0EEFDDC2001F083FF464CBF
:201AE0002068800216D4454D2878002815D101267705434802F006F8206838420DD12E7016
:201B000001F080FF002859D001F00AFF782001F069FF02E0394800210170EFF3108172B689
:201B20003A4A107800241470002900D162B600282DD001F01FFF364901F074F905461BA8C0
:201B400000901EA91DAA1CAB284600F065F80DAE3046FEF7CBFE244800680A901E980C9036
:201B60001D980B900E99377A3088727AB37AF67A0094019402940391049705A94DC10A9830
:201B800029460C9A0B9BFFF7DBF901F053FD2148017801290CD10470134800680DAD009510
:201BA00021462246234600F071FF2846FEF788FA7D20000201F0A6FF1FB0F0BD0A4800683D
:201BC00000F088FD002804D0DC2001F00BFF0E4802E001F0BFFC0B4801F06CFD9DE7C04682
:201BE000123C0000C63C0000200120209C3C0000903C0000A73C000080330A40620120200D
:201C000000E20400753C0000D03C00006C0120200AD7A33B74012020F0B587B01D4603922C
:201C200002910446EFF3108072B64F490F684F490E68002800D162B600212046019101F0F5
:201C4000F5FB0028069500D0494C4A480168791A494A1368F31A0497076005961660474A1F
:201C600010684718176046490868C01800900860444E3168204600F0A2FE054630604249C0
:201C800001F0DDFB002843D0384601F071FD3F4F394601F0C7F8294601F01AFA0446009850
:201CA00001F066FD394601F0BDF8294601F010FA05463748017800291DD036480068364983
:201CC00001F0B0F80646354F2046394601F0AAF8314600F074FE0446314800682E4901F0B7
:201CE000A1F806462846394601F09CF8314600F066FE054601E001210170264804602848C1
:201D0000056001981D4908601D4908601D490860029C002C04D01F48006801F081FD2060FF
:201D2000039C002C069D059E049F04D01C48006801F076FD20600C9C002D08D0384601F04F
:201D400017FD124901F06EF801F06AFD2860002C08D0304601F00CFD0C4901F063F801F0D7
:201D60005FFD206007B0F0BD780120207C0120200AD7A33B880120208C0120209001202087
:201D800094012020980120200AD7A33C9C9D0F3F71012020800120209A99993E3333333FF9
:201DA00084012020F0B58BB04D4A4E4D01208407019046074C4F4D480023079303804C48BE
:201DC00003604C484021009101704B4803704B48037029462C61176010681060101F09907A
:201DE00081270760403D2E600E601760084630380890049404600C60A024204601F082FE93
:201E000002970998076006952E600396354D2E60204601F077FE0498286133483049086002
:201E200008680860204601F06DFE0798049C0790470040372B490C61294E2B483060306881
:201E40003060029D09980560039E069806600E60A0200A9001F056FE2148056008980460C9
:201E6000204804600A9801F04DFE09980560089806601C480660F8B2FEF710FF059018483F
:201E8000056008980460174804600A9801F03AFE09980560069806601248066006460A9D8E
:201EA000284601F02FFE34610D490F48086008680860284601F026FE059A002A05D1079952
:201EC000481CC9B20629B2D9009F0A4807700B48027001985040084908700BB0F0BDC046DC
:201EE00014804240D0120A4081000E005E0120202C01202076012020640120206301202005
:201F0000F0B587B004460026314601F086FA0546002801D14D4900E04B49204600F082FF67
:201F2000002D4B4F05D02D210446384601F0C8FC204601F0ABFC0A28029004D230213846D3
:201F400001F0BEFC71E007460A253846294601F0D1FB294601F0CEFB3024214304A88155FC
:201F6000642F21D36421384601F0C4FB0A2101F0C1FB214304A880194170F8087D2815D368
:201F80007D20C100384601F0B5FB05460A2101F0B1FB2143F41C04A8801981702D488742C9
:201FA00026462F46D0D202E0741C00E0B41C002C274F3AD0601E032101F09CFB481C00261C
:201FC000032800D00646019402D12546204F16E004A8801E03901E4F03980019417838464D
:201FE00001F06EFC012E09D0A51E0398015D384601F066FCB61E2C46EED100E0651E0198F0
:20200000032812D304A82818C41EA178384601F057FC6178384601F053FCED1E217838464E
:2020200001F04EFCE41E002DEFD12E21384601F047FC0A21029801F05DFB30200143384655
:2020400001F03EFC07B0F0BD000020C1000020410080104010270000F0B589B01F4614460B
:20206000059100260690314601F0E0F90028354651D1002F35464ED03B480168204600F0FE
:2020800099FC2746069C214601F022F803903748056804973846214600F0C4FE294600F01A
:2020A0008EFC0746324D294601F0D2F9002800D13D46304F2846394601F0AFF9002800D125
:2020C0002F462A4807600021384600F0ABFE05468120C105049C204600F0A4FE294600F0D1
:2020E0006EFC05462449039800F09CFE294600F066FC0546214F394601F0AAF9002800D111
:202100002F461F4D3846294601F087F9002800D13D4615480460059C2046294600F04FFC92
:2021200007462046294600F045FC02461548394600F006FD1448006801F01AFB07461348C3
:20214000006801F015FB024607AC0194354608AE00960C483946069B00F032FF705F615F9B
:2021600000F032F909B0F0BD3C012020340120200000A0410000A0C10AD7A33C0000704238
:20218000000070C2BC002020480120204C01202070B586B045480178012932D1EFF31082F9
:2021A00072B61421C943424B03E06D466D18EC75C91C5C18657D002D26D0657D2E46613E5A
:2021C000F6B21A2E00D2203D6E4676187575A57D002D1BD0A57D2E46613EF6B21A2E00D283
:2021E000203D6E467618B575002911D0E57D002D10D0E47D2546613DEDB21A2DD5D2203C4A
:20220000D3E7002006B070BD153104E0163102E0172100E017316B4600245C5404702548E8
:202220000470002A00D162B66D462A786B78AC78E8782D7905290CD1522A0AD1552B08D1FA
:202240004E2C06D1312804D1352D02D1012006B070BD6E4606290FD1522A0DD1552B0BD14D
:202260004E2C09D1502807D1492D05D17579442D02D1022006B070BD04255326502801D04C
:20228000284600E00320694072404F2C00D028461143542B03D1002904D106B070BD2846C3
:2022A0000029FAD0284606B070BDC046650120200801202070012020F0B538490846343854
:2022C000872202603648022202600A46383A862313600122026085230B61140204604B6152
:2022E000530203602F4CE01C48604B684B600860086808604B68500603434B600B680343B6
:202300000B6082258D61284BCB614D64274D2E463C3E33606C606E686E600E46083E244FFB
:202320003760346834608124AC622F632C6B2C63EF61EC69EC612F622C6A2C622F602C68A1
:202340002C600C462C3C174E26602568256028390E600C680C6017490C68950525430D6048
:2023600015490C6AD20614430C620C6814430C6012490A600A6312490A68042414430C60CB
:202380000A69823B13430B610E490A6A801C02430A620A6802430A60F0BDC0463C80424021
:2023A000D0120A4081000E0082000400C080424081000C00A0130A4028100A40A0320A40F2
:2023C00090330A4028300A40F0B585B00C467D27FD003C4A9042034600DC1346AB4200DBE3
:2023E0002B469442039400DC14461922AC4200DB2C46334ED1010491334A1380334A14804A
:2024000000280197029512D0DA175340D11A4D19012813DB01223046049901F05FFB04987A
:202420004543F900284601F065F9074612E0002701223046394601F051FB0BE00498454394
:20244000F900284601F056F901460122304601F045FB049F0025304639462A4601F03EFB6D
:2024600020B2C1174840081A02990F180398184E00280BD010DD049D6F430198C10038462A
:2024800001F038F901460022304602E0304629462A4601F023FB0CE000223046049C21466A
:2024A00001F01CFB67430198C100384601F022F9054601223046294601F010FB05B0F0BDD5
:2024C0000000094018FCFFFF9C0120209E01202000008640F0B5394A8218394BC0183A4D7A
:2024E0004C790B79002C22D0466F202B02D00524E70100E0354F2E40002B00D188273E4394
:202500004667846F2C403C438467446B2D4E34404463846B34408463002444658465546844
:202520008F26F643344054609468344094600C688979202B09D006467036002B15D1641E02
:202540004460C46E2C40882715E0641E4460C46E2C401E4E3443C466046F2C403443046703
:202560001B4D01246707064607E00527FF0164084460C46E2C403C43C46634682C403C4323
:202580003460C46A0F4D2C40C462046B2C4004630024C4640465C46F8F25ED432C40C467E6
:2025A00014682C401460194302680A4B1340BD220A40D118891C0160F0BDC04684180000EA
:2025C000041800008888FDFF24493E0001040000FFFFFFCF4000FFCFB0B53A4A80184A6816
:2025E00042600A78222A56D8930001A4E3589F468D260000972600008D2600009726000005
:202600009726000097260000972600009726000097260000972600009726000097260000D2
:20262000972600009726000097260000972600007D260000972600007D26000097260000E6
:20264000972600009726000097260000972600009726000097260000972600009726000092
:20266000972600009726000097260000972600007D260000972600007D26000003680324D1
:202680002407A343012464071B1903E0036803242407A34303600B69C360CB68C46A0A4D2D
:2026A00025400A4C1C402B19C3620368084C1C400460097A114302683F239A4319405118D9
:2026C0000160B0BD041800008888FDFF777702007F00FFFFF0B581B00446244E317800203C
:2026E000062941D801252A468A4061210A423BD000F058FE1E48002707601E4807601E48EC
:2027000007701E4807701E4807601E4807601E4807701E4807801E4807701E4807701E48E1
:20272000402101701D4807601D4807601D4807701D4807601D4807601D4807601D48046026
:202740001D4807701D480770042030701C4804601C4807601C4807601C4801F0C9F805483C
:20276000076000F0F7FE284601B0F0BDA001202028012020540120207501202072012020F9
:2027800030012020340120206B0120205C0120206601202067012020680120203C01202095
:2027A000440120206F01202040012020480120204C012020380120206A012020690120207F
:2027C000500120202401202058012020BC002020F0B585B003931746029104460669002530
:2027E0001046294600F022FE002861D10120C1073046049188433F21090600F00EFE002858
:2028000056D13046029900F0D5F8054620680290A6692846314600F0CDF8019061683846DD
:2028200000F000FB0146284600F0FCFA00900298019900F0F7FA009900F0C1F80090A06893
:20284000394600F045FC074630460196314600F0B6F801460295284600F0ACF8E16900F03F
:20286000AEF80146384600F0DDFA009900F0A7F80146606900F0A3F80646039D0499694031
:20288000049100F0CAFD07463046294600F0E0FD002800D13546002F049800D128466061AE
:2028A0000299A1610199E16100F0BAFF054606E0E168304600F0B6FA6061A561E5612846EB
:2028C00005B0F0BD80B582B01F4900220A701F490A601F490A601F490A601F490A601F497B
:2028E0000A601F490A701F490A601F490A701F490A601F490A601F490A701F490A801F49F8
:202900000A701F490A701F4940230B701E490A601E490A601E490A701E490A601E490A60F0
:202920001E490A601E4908701E4908701E487F21C905009101901D481D49134600F088FC7A
:2029400000F008FE02B080BDA0012020380120205001202028012020540120205801202010
:2029600075012020240120207201202030012020340120206B0120205C01202066012020B3
:2029800067012020680120203C012020440120206F01202040012020480120204C0120209D
:2029A000690120206A01202000007A44BC002020CDCC4C3FFCB40127FF07794002E0FCB4BB
:2029C0000127FF070C024D002D0E03D1002C52D1FCBC70473C43FF2D50D0A408002900D52C
:2029E0006442020243001B0E04D1002A43D10800FCBC70473A43FF2B41D09208002800D5E8
:202A000052425E1B04D5170022003C0076422B00192E06D527003741D2191C27F71B7F42B6
:202A2000BC40002A27D002D55242012700E00027013B5200FCD51500802635400FD015005C
:202A4000202635402C43803208D21500402635402C4304D101263602B24300E05B1C52008F
:202A6000023308DDFF2B0BD2500ADB051843FF073843FCBC70470020FCBC70470800C70F43
:202A8000FF07FF20C0053843FCBC7047F0B581B0069C002C37D0254624351C4E3678267045
:202AA0001B4E3668801B052646431A4800681A4F3F686660A16021460C3185C1237617483D
:202AC0000078607600F0AEFF15490968E061216214480078287014480088E08413480078F1
:202AE000287113480078687112480078A8711248006812490968E062216300F0F7FFA08646
:202B000000F0FAFFE08601B0F0BDC046A00120203801202054012020580120206A012020CF
:202B2000300120206B0120205C012020660120206701202068012020480120204C012020CD
:202B4000F0B583B0002846D00E460446174623493046019100F061FC0290214D30462946BE
:202B600000F076FC0028284600D13046029900291A4900D1014602913846184900F04DFC2C
:202B800006463846294600F063FC002800D13D46002E00D10195E66821690298FFF70AFF2B
:202BA00001466769304600F03DF93946FFF707FF6061E66A216B019D2846FFF7FBFE014608
:202BC000676B304600F02EF93946FFF7F8FE029921612563606303B0F0BDC046000048C352
:202BE00000004843002A49D084468B071CD1830722D1102A08D370B4103A78C978C0103AFB
:202C0000FBD270BC103238D0042A2CD3082A05D30C2A01D308C908C008C908C008C908C065
:202C200092072AD0920F22E00B780370491C401C521E22D08B07F7D1C30714D18307D8D00A
:202C4000121F12D308C903801B0C4380001D121FF8D20AE008C903701B0A43701B0A8370EA
:202C60001B0AC370001D121FF4D2121D05D00B780370491C401C521EF9D160467047FEE7B1
:202C800070B582B01B491C4C204600F0E7FE1B492046FFF71FFC1A4801681A4A0A40026020
:202CA00000250095204629462A462B4600F0E4FE204629462A4600F0C3FE204629462A4697
:202CC00000F00CFF01260096204629462A462B4600F0D2FE20462946324600F0B1FE204674
:202CE0002946324600F0FAFE074886600321016002B070BD2C3D000000000940E43C00009A
:202D0000041809407F00FFFF0011094070B582B01B491C4C204600F0A1FE1B492046FFF79F
:202D2000D9FB1A4801681A4A0A40026000250095204629462A462B4600F09EFE2046294613
:202D40002A4600F07DFE204629462A4600F0C6FE01260096204629462A462B4600F08CFEB2
:202D600020462946324600F06BFE20462946324600F0B4FE074886600321016002B070BD25
:202D80002F3D000000008640EC3C0000041886407F00FFFF0011864040B542004B005E08BB
:202DA000164301D006004E4000D4D01A04D20120C90F06D1404204E003D90120C90F00D0E6
:202DC0004042FF263606B24200D8B34200D9012040BD40B542004B005E08164301D0060040
:202DE0004E4000D4D01A04D20120C90F06D1404204E003D90120C90F00D04042FF263606F3
:202E0000B24200D8B34201D90120404240BD42004B000020FF2109068A4200D88B4200D951
:202E200001207047FCB40127FF0706004E4001D4002600E03E00020243001B0E30D03A4342
:202E4000FF2B30D00C024D002D0E29D03C43FF2D29D05B194240504042404C4061404C4054
:202E600000B500F0A3FC20BCAE464240504042404C4061404C4025001400002C01D4640053
:202E8000013B803401D3013364087E3B08DDFF2B09D2BC43200ADB0518433043FCBC7047E5
:202EA0000020FCBC7047FF20C0053043FCBC704710B51B491B4C204600F0F5FD1A4920461C
:202EC00000F094FB194801680322D203914301600169174A0A4011320261416917220A438F
:202EE00028218A434261426801210A4043688B439A1842600F4A13688C021C431460026897
:202F00004B0413430360C26870231343C360C2680A4306239A43C26002680A43026010BDEE
:202F2000323C000000801040B23C0000009110400000FFFF2890104010B51B491B4C204688
:202F400000F0B1FD1A49204600F050FB194801680322D203914301600169174A0A4011327E
:202F60000261416917220A4328218A434261426801210A4043688B439A1842600F4A13684E
:202F80008C021C43146002684B0413430360C26870231343C360C2680A4306239A43C26089
:202FA00002680A43026010BDE23C000000201040BC3C0000003110400000FFFF283010407E
:202FC000F0B585B000283BD00A9D002D38D004460B98002834D01F460490029103920021AD
:202FE0001846019100F034FA666C002805D038463146FFF7E4FC06466064274648371149D3
:20300000304600F00AFA002803D038882880B91C13E001986064236C204602993246FFF7C0
:20302000D7FB3880236C2034204603993246FFF7CFFBB91C788038882880049A08881080F6
:2030400005B0F0BD0AD7A33CF0B581B0144605461548057015480160154800270760154EF5
:203060003760154800F044FC05202840012810D1134804601348C0570028134D294600DA93
:2030800012492046FFF79BFC0C490860356001B0F0BD0A480460022D03D0042D01D000F088
:2030A00059FA01B0F0BDC046A0012020500120202401202058012020BC0020205401202058
:2030C000280120207501202000002A4300002AC3FCB40127FF0706004E40F60FF6070202FF
:2030E00043001B0E2DD03A43FF2B2DD00C024D002D0E26D03C43FF2D26D05B1B00202021BF
:2031000064085208A2424041A24200D3121B013904D0002A01D05200F4D18840384201D16C
:203120004000013B803001D3013300E040007F3307DDFF2B08D2400ADB0518433043FCBCF1
:2031400070470020FCBC7047FF20C0053043FCBC70477047F0B50020C4431848184B0127F5
:20316000FA067E06103B1D6815400346103B1B68002D08D013480068304200D027461248BE
:20318000016879180160B71C334208D00F480068C00200D501240E480168611801603B4025
:2031A000002D03D00649086810430860002B03D00249086818430860F0BDC04648300A40A4
:2031C00048100A4080130A407801202080330A407C012020F8B5451C00780023082B32D01F
:2031E0002F78C2070CD16A780F241440E41C122C0BD102242E57F4B2002E08D4EE1C0EE0AC
:203200006D1C4A1C0F7011461AE0AE1C08E02E1DED7800957F252C40009DED012C191234D2
:203220003D0112095219094DAA420ED0D243002C05D08D5C4F1C0D70641E3946F7E7354669
:2032400040085B1CCAE72846C5E7F8BDFF0F0000F0B585B0002830D0044602A80EC00B9FB3
:2032600000253846294600F0D8F80190144E3846314600F0EDF8002800D13E460A98019906
:2032800000292946049A00D131462164029B236003996160A260E060256123626162A2629A
:2032A000E06225632946FFF7BDFD6061A561E5616063A563E5636564A56405B0F0BDC046CB
:2032C00000007A44F0B581B010481149416011484160114B5960114C6160114D6960114E54
:2032E0007160114F7960114841601149074A1160084A1160196021602960316039600160DD
:20330000102000F0FFFB01B0F0BDC04600080A40030000B100280A40000809400008864098
:203320000008874000280F40008810400028104001000026F0B5164A1068C0B20B2825D1B8
:20334000144801218B029362026852071ED4124A124B134C06E01D78002666551170056856
:203360006D0713D4C5691678002EF8D1EEB20D2EF5D00A2EEFD01E78162E04D81E78771CC9
:203380001F70A555EBE700251D70E8E7F0BDC046209010400891104065012020700120205E
:2033A00008012020EFF3108072B60D4A002111600C4A11600C4A11600C4A11600C4A116025
:2033C0000C4A11600C4A11600C4A11600C4A11600C4A1170002800D0704762B67047C04676
:2033E000780120207C012020880120208C0120209001202094012020980120208001202081
:20340000840120207101202010B5FFF7C5FC002801D0002010BD012010BD10B5FFF7BCFC72
:20342000002801DB002010BD012010BD10B5FFF7B3FC002801DD002010BD012010BD10B59D
:20344000FFF7C7FC002801DA002010BD012010BD10B5FFF7BEFC002801DC002010BD01204D
:2034600010BD000080B51149114800F097FA11480168032252020A430260026801210B0293
:20348000134303600022426107224262836B93438363836B120293438363826A0423134310
:2034A0008362826A0A43826280BDC046353D000000200F4000320F400E480068C0B201280C
:2034C00016D10D480168491C01600C480178FF2902D00178491C017009480178491CCAB2C0
:2034E0000170142A04D3002101700648012101707047C04620108740200120206C01202011
:20350000730120207401202080B500F0A5F900F047F8FEF747FC00F055FA0020FFF7D2F9F8
:20352000FDF75CFE084800F0C5F801204105074A1160074B1960C00310601860022010600F
:2035400018601060186080BDE53B000080E200E000E100E070B50E48002404800D480480AF
:203560000D4E0125304621462A4600F0B7FA30462146224600F0B2FA084E30462146224660
:2035800000F0ACFA304621462A4600F0A7FA70BD9C0120209E0120200000094000008640BF
:2035A00070B50E48002404800D4804800D4E0125304621462A4600F091FA30462146224681
:2035C00000F08CFA084E30462146224600F086FA304621462A4600F081FA70BD9C012020A8
:2035E0009E012020000009400000864070B511221302C218C4580125AC43C4500C888D78B8
:2036000025438C882C43C558084E2E40084D25407419C4508879CB790343087A1843516862
:203620007E23994318400818506070BDE798FDFF1867000010B50C48018800290ED00B4AC0
:2036400013785C1C1470DA0703D00122D206084B1A61491E0180080400D010BD0120C006EE
:203660000349086010BDC046600120206D012020A0320A400D48002101600D48011F0A689A
:203680000323DB4313400B60416801229143416041681202914341600168302291430160C5
:2036A00001680F22914301607047C04608030B4004010B4070B50178002917D00C4CC51CF1
:2036C000AE1EC9B2204600F0FBF8317800290DD06E1E204600F0F4F83178002906D02046CF
:2036E00000F0EEF82978ED1C0029E9D170BDC046008010401CB50A0017D000230124E4076F
:20370000A04200D20400944201D95200FBE790425B41904200D3801A914201D25208F6E783
:2037200019000200080011001CBD01000020FFF710FD1CBD70B50A480A4C84420CD00A4DB9
:203740000A4EB54208D02A686968501C12789200A25890470835F4E700BF00BF70BDC046BD
:203760004C3D0000403D00005C3D00006C3D000006B49E22002802D404D106BC70474142B8
:2037800004D400E00100013A4900FCD5803101D3013200E04900490AD2051143002802D5BD
:2037A0000122D2071143080006BC7047FCB4020C0B0CFF242402FF34204021400C00444393
:2037C00015005D4306005E430F005743320C3B0CA818C01832043B040025A1186841C918EA
:2037E0006841FCBC7047000010B50849084C204600F034F907492046FEF7EEFE0648016876
:203800000122114301600548026010BD293D000000008740503C00002810874008118740BC
:2038200006B54100090E7F390DD41F22511A0CD9864600020122D2071043C8407246002A44
:2038400000D5404206BD002006BD02000120C007002A00D4401E06BD80B5FFF733FDFEF712
:203860002BFDFFF707FFFFF70BFAFFF74FFAFFF7BBFFFFF7F7FDFFF71BFBFFF75DFB0248AC
:20388000B8210022425480BD0000202006B5002803D57346FFF7C4FF06BD4100090E7F391A
:2038A00008D31F22511A07D300020122D2071043C84006BD002006BD0020401E06BD000067
:2038C0000A4A80180268120605D50268120602D502681206F6D481610168C90705D00168A2
:2038E000C90702D00168C907F6D1704708110000B0B5002812D0C168026904461046FFF7BD
:2039000091FA00256061A561E561E16A206BFFF789FA6063A563E5636564A564B0BD000049
:2039200080B508480078062807D8012181406120014202D0FFF70EFE80BD034801210170E7
:2039400080BDC046A001202072012020084880F3088800BF00BF00F0FAF8002801D0FFF7EE
:20396000E9FE002000F0A8F8012000F0E9F8C0460080202002B49E21002805D401D102BCF2
:20398000704701394000FCD5803001D3013100E04000400AC905084302BC704770B501222F
:2039A000120383180C785D680C26B54334402C195C60497883580724A3432140591881501F
:2039C00070BD0000044800210180044801700120C006034908607047600120206D0120206E
:2039E000A0320A4080B5001D0521FFF783FE0349088003480021017080BDC0466001202027
:203A00006D012020064802780121062A0B4600D800237F2002401E20D04018430840704709
:203A2000A001202003480078002801D103487047014870476E012020843C0000F43C000047
:203A400010B592008018044A83580724A404A34321405918815010BD3018000010B50122F5
:203A6000120383180C789C604B7883508978014A815010BD0C11000010B5029CA400001959
:203A800011431943014A815010BDC0465018000003228058002805D0401E4A1C00230B70C3
:203AA0001146F7E7704710B50122120383180C789C604978815010BDFFF726FDFDF7E6FFB1
:203AC000FDF7E4FFFDF7E2FFF8E780B50B4603214258C11D184600F02FF880BD920080185D
:203AE000014A81507047C0461018000000200149085E70479C01202000200149085E7047DA
:203B00009E012020811E091F00BFFCD2704780B5FFF720FB80BD80B5FFF70CFC80BD80B593
:203B2000FFF7F5FF80BD80B5FFF7C6FC80BD80B5FFF7F1FF80BD000080B5FFF753F880BD29
:183B400000F001F8FEE700BF7047FFE6704701207047000000000000B5
:203B58004E43484431322067726179206C696E652064656D6F206F6E626F617264205541B2
:203B78005254302031313532303020384E310D0A004232312F52554E5049442F52554E3125
:203B9800353A2067726179206C696E65203330733B2053544F502061626F7274730D0A00AA
:203BB8004D5055363035302064697361626C65643B20656E636F646572207370656564204C
:203BD800504944206163746976650D0A004D5055363035303D44495341424C45443B20426E
:203BF8003231207374617274732067726179206C696E65203330730D0A00436F6D6D616E86
:203C180064733A2052554E5049442C2052554E31352C2053544F500D0A0008001B3D0000D9
:203C3800103D0000D93C0000103D0000033D0000163D00000A3D000002000000FF70020070
:203C58000100000000000000000000003031323334353637383941424344454600455252C0
:203C78002042323120627573790D0A004D5055363035302D455252004F4B2052554E504952
:203C9800440D0A0045525220627573790D0A004F4B2052554E31350D0A000000180000008A
:203CB80000300000000018000000003000004F4B2053544F500D0A004F4B204232310D0AE7
:203CD800005354524149474854000800800C000020000100800C0000200101004D505536DB
:203CF80030353000284C4F535429004C494E4533300041424F525400435552564500444F69
:203D18004E450049444C4500284F4B2900455252000800000800000800004F4B0008003F0D
:083D3800000000000000000083
:203D4000D5310000CB3A0000913A00000200000077010000000100000F16FFF04C3D000075
:103D600000002020543D00007801202000000000C9
:00000001FF
