:2000000000802020334400005B3400005B340000000000000000000000000000000000008B
:200020000000000000000000000000005B34000000000000000000005B3400005B34000013
:200040005B340000074400005B3400005B3400005B3400005B3400005B3400005B3400006C
:20006000000000005B3400005B34000000000000000000005B3400005B34000017440000E9
:200080005B3400005B3400005B3400005B3400005B3400000F440000000000000000000042
:2000A0005B3400005B34000000000000000000005B340000000000005B3400005B34000075
:2000C000F0B58FB0002801D100F043FC0446E04F6D21384604F064F87321384604F060F8E0
:2000E0003D21384604F05CF86568002D0B942DD000270A262846314603F052FF4643A91B79
:20010000302631430CAAD1550A2D24D30A2103F047FF31430CA8C0194170642D1DD36421EF
:20012000284603F03DFF0A2103F03AFF3143FE1C0CA8C01981707D20C100284603F030FFD1
:20014000E9087D2937460546D3D207E03021384604F026F841E07E1C00E0BE1C002EBC4F25
:200160003BD0701E032103F01BFF481C0027032800D00746099602D13546B54C16E00CA84A
:20018000801E0A90B24C0A9880194178204604F007F8012F09D0B51E0A98815D204603F027
:2001A000FFFFBF1E2E46EED100E0751E09980328274612D30CA82818C61EB178384603F02E
:2001C000EFFF7178384603F0EBFFED1E3178384603F0E6FFF61E002DEFD12021384603F030
:2001E000DFFF7321384603F0DBFF74253846294603F0D6FF6121384603F0D2FF3846294643
:2002000003F0CEFF6521384603F0CAFF3D21384603F0C6FF0B9E3078072803D880008D4919
:20022000095800E08C490878002816D0CD1CAC1EC1B2384603F0B4FF217800290DD06C1EA7
:20024000384603F0ADFF2178002906D0384603F0A7FF2878ED1C0028E9D12021384603F095
:200260009FFF6721384603F09BFF7921384603F097FF7221384603F093FF6F21384603F015
:200280008FFF3D21384603F08BFF707E002804D0307E00280FD171490EE04F21384603F04E
:2002A0007FFF46253846294603F07AFF3846294603F076FF1AE06A490878002816D0CD1C83
:2002C000AC1EC1B2384603F06BFF217800290DD06C1E384603F064FF2178002906D03846F3
:2002E00003F05EFF2878ED1C0028E9D13046243007902021384603F053FF6221384603F0CA
:200300004FFF6121384603F04BFF6321384603F047FF6B21384603F043FF6521384603F0E1
:200320003FFF6E21384603F03BFF6421384603F037FF3D21384603F033FFF1690878002816
:2003400016D0CD1CAC1EC1B2384603F029FF217800290DD06C1E384603F022FF217800297B
:2003600006D0384603F01CFF2878ED1C0028E9D12021384603F014FF6C21384603F010FFBE
:200380006921384603F00CFF6E21384603F008FF6521384603F004FF3D21384603F000FF88
:2003A000306A01F053FF079E3078002801D12D4900E02D490878002816D0CD1CAC1EC1B299
:2003C000384603F0EDFE217800290DD06C1E384603F0E6FE2178002906D0384603F0E0FE5C
:2003E0002878ED1C0028E9D12021384603F0D8FE6C21384603F0D4FE6921384603F0D0FE51
:200400006E21384603F0CCFE65253846294603F0C7FE5F21384603F0C3FE6D21384603F032
:20042000BFFE6F21384603F0BBFE6421384603F0B7FE3846294603F0B3FE3D21384603F03A
:20044000AFFE7078032813D880000849095810E0008010407C450000DF460000CF46000004
:20046000D64600008F460000C0460000DC45000078490878002816D0CD1CAC1EC1B2384671
:2004800003F08EFE217800290DD06C1E384603F087FE2178002906D0384603F081FE287896
:2004A000ED1C0028E9D120210991384603F078FE67210891384603F073FE722106913846E4
:2004C00003F06EFE61210591634803F069FE79210491614803F064FE3D210A915E4803F0E1
:2004E0005FFE30265C48314603F05AFE78210391594803F055FE0B98C48C200B574F395C76
:20050000554803F04DFE2005000F395C524803F047FE2006000F395C4F4803F041FE0F259E
:200520002C40395D4C4803F03BFE4B48099903F037FE4948089903F033FE4748069903F025
:200540002FFE4548059903F02BFE4348049903F027FE3821404803F023FE3F480A9903F0D5
:200560001FFE3D480296314603F01AFE3A48039903F016FE079E34792009395C364803F019
:200580000FFE03952C40395D334803F009FE3248099903F005FE3048089903F001FE2E48AC
:2005A000069903F0FDFD2C4805992B4F03F0F8FD3846049903F0F4FD5F21384603F0F0FD5E
:2005C0006221384603F0ECFD7521384603F0E8FD7321384603F0E4FD38460A9903F0E0FD7B
:2005E0007079002805D04F21384603F0D9FD4B2137E04E21384603F0D3FD4121384603F058
:20060000CFFD4321384603F0CBFD4B21384603F0C7FDB679002E23D0012009900A2730461F
:20062000394603F0BDFC0546394603F0B9FC0A916F43F01B029D28430CAC20706421304678
:2006400003F0AEFCA1780A2E00D384E16278099C25468BE1DF46000000801040C84500001C
:200660003021384603F09CFD20210991384603F097FD67210491384603F092FD722438460E
:20068000214603F08DFD612538462946019503F087FD79210691384603F082FD5F210891BC
:2006A000384603F07DFD3846294603F079FD642638463146029603F073FD3846314603F097
:2006C0006FFD384621462546059403F069FD3D210A91384603F064FD3021384603F060FD82
:2006E0007821384603F05CFD0798C4792009C14E315C384603F054FD03982040315C38462E
:2007000003F04EFD3846099C214603F049FD3846069903F045FD3846019E314603F040FDC2
:2007200077210791384603F03BFD38460A9903F037FD0B98806801F089FD3846214603F0BE
:200740002FFD742438462146039403F029FD3846314603F025FD3846294603F021FD3846BA
:20076000049903F01DFD65210491384603F018FD3846214603F014FD3846089903F010FD26
:200780003846069C214603F00BFD38463146354603F006FD3846079E314603F001FD384668
:2007A0000A9903F0FDFC0B98C06801F04FFD3846099903F0F5FC3846214603F0F1FC38465B
:2007C000294603F0EDFC3846314603F0E9FC3846089903F0E5FC3846059C214603F0E0FCB9
:2007E0003846294603F0DCFC3846039E314603F0D7FC3846049D294603F0D2FC38460A9975
:2008000003F0CEFC0B98006901F020FD3846099903F0C6FC3846314603F0C2FC7521384672
:2008200003F0BEFC3846214603F0BAFC6E21384603F0B6FC3846089903F0B2FC384629461E
:2008400003F0AEFC3846214603F0AAFC3846214603F0A6FC38460A9903F0A2FC0B9C6069E1
:2008600001F0F4FC3846099903F09AFC7321384603F096FC70263846314603F091FC3846CE
:20088000294603F08DFC3846294603F089FC3846029903F085FC38460A9903F081FCE06AA0
:2008A00001F064FA2F210691384603F079FC206B01F05CFA3846099903F072FC38463146D4
:2008C00003F06EFC3846079903F06AFC6D253846294603F065FC3846089903F061FC384684
:2008E000314603F05DFC3846049E314603F058FC3846059903F054FC3846294603F050FCCC
:200900006921384603F04CFC6C253846294603F047FC3846294603F043FC3846314603F0D9
:200920003FFC38460A9903F03BFC3420205E01F01DFA3846069903F033FC3620205E01F053
:2009400015FA0D21384603F02BFC0A21384603F027FC0FB0F0BD099C0A9A2A43642E01D27C
:20096000022503E028430325002401460CA842708170681E032103F013FB481C00270328B7
:2009800000D00746099402D12E46194C16E00CA8801E0A90164C0A9840194178204603F0A0
:2009A000FFFB012F09D0AE1E0A98415D204603F0F7FBBF1E3546EED100E06E1E0998002891
:2009C000274600D050E60CA83018C51EA978384603F0E6FB6978384603F0E2FBF61E29786E
:2009E000384603F0DDFBED1E002EEFD13CE6C04600801040C8450000F0B587B005931646E0
:200A000001910490119C109B0F9D0E9F14980690139A1299D7480660D748059E0660D74899
:200A200005970770D64802950560D64803930370D54800940480D5480170D5480270D548F3
:200A400006990170D44B1E78072E04D80120B040C12108421AD1D14C207800280FD105983E
:200A6000002803D1CE480078C00708D1CD4800680499081A05225043CB4988420AD300207B
:200A8000207007201870D04803F0A2FB03F096F907B0F0BD711E0429F8D80D9E0C9CC3489F
:200AA0000068049D2F1A57437944097949008F4402A66D9A3000C54901AB0DCB01F0C4FDCC
:200AC000C34805780127F907304688434121090603F00FF9002800D1B8E0002D00D0B5E096
:200AE00000253046294603F004F9002800D1EF43B7480770B7480568384603F08FFA0646A9
:200B0000B54902F0C9FD294602F053FBB6490860A6E005920697009F384602990C46039AA8
:200B200002F0DAF90646384603F0B8F90246A14D2878002800D1BFE0022800D9D0E09C497C
:200B40000B680499C91A059C4C43401E41424141019802F0E7FB782C00D2D0E0002E00D07E
:200B6000CDE03846039903F0E7FA002800D1C6E093490878FF2804D0421C0A70022800D210
:200B8000C0E00020049903F069F8BBE08F4901AB0DCB01F059FD8E4800214056C5B203F06F
:200BA0003DFA06468B4801682746204602F0FCFA314602F071FD0646002D00D12E46864858
:200BC000314602F0F1FA002D8449086000D1C5E08149304603F08DF8002800D1BEE0062074
:200BE00004993A462FE01E4601AA07CA00F0B2FF7448874200D8B1E00620307043E70694D0
:200C0000774901AB0DCB01F01FFD7148047860B203F004FA0146304602F03EFDF9087D29BA
:200C200045D3002C43D04121090603F062F800283DD06C480168491D0160962900D28DE088
:200C400003200499069A02F03BFA87E0002D00D184E06048016868B20D4603F0DFF90646AF
:200C600027462046294602F09FFA314602F014FD0546594E3046294602F096FA574C2060B1
:200C80002846314603F035F8002867D002204249087004984549086052480021016021609C
:200CA000494803F095FA5048076007B0F0BD4D480021016007B0F0BD701E01282DD83E4BFE
:200CC00018788642039A0198214631D13B4C2378FF2B03D05D1C2570022B35D3304618E04D
:200CE000019802F0BBFB002E30D133480178002936D00021017031480121017026E0304845
:200D0000002101702878002820D0E008E1281DD30320049902F0A2FF18E0032E039A0CD1B2
:200D20000320049902F09AFF019802F097FB0DE01E70224B01241C7006E021461E480023DC
:200D400003701E480370019800F004FF1D480699814203D906201049087094E607B0F0BD43
:200D600016490878FF2803D0421C0A700228EDD30020CEE74C012020500120206F01202035
:200D80003001202075012020600120206C0120206D0120206E012020AC0120207D012020D6
:200DA000700120203C012020A0BB0D00540120203801202073012020710120207201202076
:200DC000740120202F750000BC0020200000DC42800120202801202000002A435C0120206C
:200DE000000048432401202058012020F0B58BB0002800D126E1E1490978002900D123E1E1
:200E00000690E24CE2490120870705904607E1480F61206020682060201F0A90812505604D
:200E200008464038089006600E60A020049003F0DDFA2560D6480446303C2760079707607D
:200E40000746049803F0D2FA0A980560266009963E60D148007800F0F3FA002800D1FFE0DA
:200E600003940495079D0027384600F0E9FA002800D125E1C6490D61C44AC64F1760106898
:200E800010600A9C049F2760099E089806600E60A020029003F0AAFABC48076003990D609A
:200EA000BB48056002980D4603F0A0FA27602E60B7480660B84800780599084300F0C0FACB
:200EC000002800D134E1AE48042102910170059800F030FD0190002000F02CFD0090AB4ED8
:200EE0003760079E2E60AA480660A025284603F07DFA0A980760099808990860A44C206010
:200F0000284603F073FA2661A248A049086008680860284603F06AFA00980007020D01985D
:200F200017189948036800D183E096480780012039460A90014002263E407806C40F2046C5
:200F40000B304D1CD20A002A00D10FE100D110E1002900D00B3802993940002E01D00B38D2
:200F6000801C019608223A402E46002901D00B38001D10253D400995002A08930291079489
:200F8000039201D00B38801D20223A409106CC17802139400A9B1B02099D002D049601D0BB
:200FA0000B3808300A9D6D023B4000190029019E00D0C01C0A9CA4023D40002B00D0401D77
:200FC0003C40002D00D0C01D76080196029EB6080296039EF6080396099E36095209C90965
:200FE00009911B0A0A936B0AA50A002C00D00930049C019964180299641803996418A4199A
:20100000A218079C1219099951180A9A8918C9184D1903F003F80646284603F01BF90146BB
:20102000304602F04BFC002D089B00D00346564803600698059C791E3A468A4107804360CC
:20104000027236E0002470E04D4A012111704D4A12884D4B1B68028043600024048160E0FE
:2010600047490598087049480560079F2760484C27602E46A025284603F0B8F90A9806603A
:201080000998089908602060284603F0AFF9276140483E49086008680860284603F0A6F946
:2010A000384801883848026806980180426000240472334909780A1F53425341437230E0CE
:2010C0002F49022008703148049E0660039805602F480560A024204603F088F90A980660FB
:2010E0000998089908602A490860204603F07EF92748056127482549086008680860204643
:2011000003F074F91F4801881F48026806980180426007721A4909780A1F53425341437289
:201120003C4681721C490978C17220460BB0F0BD134903200870154E3760079E2E60144DCE
:201140002E60A024204603F051F90A9807600998089908602860204603F048F92E610D48E1
:201160000A49086008680860204697E7204600D0EEE60D46002900D0ECE6ECE66701202056
:2011800068012020620120202C01202014804240D0120A4081000E0081012020F0B581B02D
:2011A000A14CA24800250570A14805704E20A14E7719C1B2204602F0F3FF7978204602F06D
:2011C000EFFFB978204602F0EBFFF978204602F0E7FF3979204602F0E3FF7979204602F0C9
:2011E000DFFFB979204602F0DBFFF979204602F0D7FF397A204602F0D3FF797A204602F0E5
:20120000CFFFB97A204602F0CBFFF97A204602F0C7FF397B204602F0C3FF797B204602F000
:20122000BFFFB97B204602F0BBFFF97B204602F0B7FF397C204602F0B3FF797C204602F01C
:20124000AFFFB97C204602F0ABFFF97C204602F0A7FF397D204602F0A3FF797D204602F038
:201260009FFFB97D204602F09BFFF97D1835204602F096FF387E302D9AD1002542206E4E37
:201280007719C1B2204602F08BFF7978204602F087FFB978204602F083FFF978204602F0C6
:2012A0007FFF3979204602F07BFF7979204602F077FFB979204602F073FFF979204602F0A6
:2012C0006FFF397A204602F06BFF797A204602F067FFB97A204602F063FFF97A204602F0C2
:2012E0005FFF397B204602F05BFF797B204602F057FFB97B204602F053FFF97B204602F0DE
:201300004FFF397C204602F04BFF797C204602F047FFB97C204602F043FFF97C204602F0F9
:201320003FFF397D204602F03BFF797D204602F037FFB97D204602F033FFF97D204602F015
:201340002FFF397E204602F02BFF797E204602F027FFB97E1B35204602F022FFF87E362DD8
:201360008ED100254D20354E7719C1B2204602F017FF7978204602F013FFB978204602F0A4
:201380000FFFF978204602F00BFF3979204602F007FF7979204602F003FFB979204602F086
:2013A000FFFEF979204602F0FBFE397A204602F0F7FE797A204602F0F3FEB97A204602F0A6
:2013C000EFFEF97A204602F0EBFE397B204602F0E7FE797B204602F0E3FEB97B204602F0C2
:2013E000DFFEF97B204602F0DBFE397C204602F0D7FE797C204602F0D3FEB97C204602F0DE
:20140000CFFEF97C204602F0CBFE397D204602F0C7FE797D1635204602F0C2FEB87D2C2DAF
:20142000A2D101B0F0BDC046008010407B0120206A0120207744000040440000A844000073
:20144000F0B587B00290A34EA3490120840747078120019030600D46303D2C600C60A0200D
:20146000039002F0C3FF361F019830609A4908464038059007600F60039802F0B7FF0198B7
:20148000039630602F6094490F60029940290694049505D28F4908602C608F48046006E04D
:2014A0008D4804618B498D48086008680860A025284602F09BFF039E019C34600598076074
:2014C00085480760284602F091FF3460049A1760814807600298800606D47E48046006994C
:2014E00011607D48016007E07B480699016179497A48086008680860A025284602F076FF4C
:20150000039E34600598076073480760284602F06DFF3460049A17606F4807600298C0067D
:2015200006D46C480460069911606B48016007E0694806990161674968480860086808605C
:20154000A025284602F052FF039E34600598076061480760284602F049FF3460049A17607B
:201560005D4807600298000706D45A480460069911605948016007E05748069901615549A7
:201580005648086008680860A025284602F02EFF039E3460059807604F480760284602F084
:2015A00025FF3460049A17604B4807600298400706D448480460069911604748016007E0CE
:2015C00045480699016143494448086008680860A025284602F00AFF039E346005980760BE
:2015E0003D480760284602F001FF3460049A1760394807600298800706D436480460069992
:2016000011603548016007E033480699016131493248086008680860A025284602F0E6FEDB
:20162000039E3460059807602B480760284602F0DDFE346004990F60274807600298C00785
:2016400006D1244D2C60069A0A602348026007E02148069A02611F4D204828602868286018
:20166000A0240294204602F0C1FE039E019931600598076018480760204602F0B7FE019CB8
:2016800034600498076014480760069901611348286028682860029D284602F0A7FE3460BC
:2016A000059807600C48076028462C4602F09EFE0B48006806990840454245410198306025
:2016C0000498076004480760204602F08FFE284607B0F0BD14804240D0120A4081000E00CC
:2016E00080130A40F0B59FB07D4C20787D4D01280DD1287800280AD102F072FE062806D1DD
:201700000120287000202070774802F029FC774E307801280AD102F063FE062806D102209F
:20172000287000203070724802F01AFC00F0E4FE411E042939D8C0467944097949008F44BF
:2017400002021625140007466C48006801F01AF8002804D02978002901D101212170002857
:2017600012D0022F1BD069481AE0624814E06348006800F017FE002806D02878012801D171
:20178000012030705F480BE05D4805E002F038FD782002F097FD584802F0E2FB05E05A4831
:2017A00002F0DEFBDC2002F08DFD594C2068800217D4584E3078002816D101277D055648A7
:2017C00002F014FE20682842454C0DD1377002F0B3FD002859D002F013FD782002F072FD0F
:2017E00002E04C4800210170EFF3108172B64E4A107800241470002900D162B600282DD047
:2018000002F028FD494901F047FF05461BA800901EA91DAA1CAB284600F0A4FB0DAE3046C7
:20182000FFF7E4FA354800680A901E980C901D980B900E99377A3088727AB37AF67A009486
:20184000019402940391049705A94DC10A9829460C9A0B9BFFF7D0F802F042FB3448017833
:2018600001290CD10470254800680DAD009521462246234601F0B2FA2846FEF721FC7D20D7
:20188000000202F0B3FD1FB0F0BD164D287801280CD000281ED11948006800F073FF0028B6
:2018A00011D0297800290ED127700EE01348006800F078FD00280DD00C480770DC2002F033
:2018C00001FD164809E0002804D0DC2002F0FAFC134802E002F072FA124802F041FB83E756
:2018E0006B012020690120200145000079012020544500002B4500005C4600002001202086
:20190000314600000C460000194600003C46000080330A406601202000E20400FC45000052
:20192000EC4500009C450000760120200AD7A33B7F012020F0B58DB00890824A824C01202A
:201940008107470781480A91216150605068506081261660204640380C9007602760A02569
:20196000284602F043FD7A4800680790754806602046303C27600B940760284602F036FDF1
:20198000704806600C9807606F480760284602F02DFD6F48006806906A48066027606A4870
:2019A0000760284602F022FD664C26600C98076065480760284602F019FD654800680590CA
:2019C00026600B9C276060480760284602F00EFD5C4806600C9807605B480760284602F05A
:2019E00005FD5B4800680390564806602760564C2760284602F0FAFC524806600C98076032
:201A00002760284602F0F2FC5148006804904D4806600B9C27604C480760284602F0E6FCF6
:201A2000484806600C98076047480760284602F0DDFC474800680190424806602760424CE9
:201A40002760284602F0D2FC3E4806600C9807602760284602F0CAFC3D480068029039482D
:201A600006600B9C276038480760284602F0BEFC344806600C98076033480760284602F0A2
:201A8000B5FC33480068009009962E48066027602D480760284602F0A9FC0898002807D0A0
:201AA0002848099941600A9921602748016007E025480A990161234924484860486848604E
:201AC00000984000C00F01994900C90F039A5200D30F069A5200D40F079A550F0222154080
:201AE0006419A400059D6D0F154064191B199B00049C640F14401B19C9188900029B5B0FFA
:201B00001340C91840180890A024204602F06EFC0C4D099E2E600C9807600B480760204662
:201B200002F064FC2E600B98076007490F600A98086106486860686868600898C0B20DB074
:201B4000F0BDC04610804240D0120A4081000E0080130A40F0B589B00690002A23D00D4644
:201B60006E49284602F0BCF800281FD16C49284602F0B6F800281BD16A49284602F0B0F8F0
:201B8000002817D10324A107284602F0A9F8002812D100262846314602F099F8002800D1D3
:201BA0008FE0FF2609E05C48067806E0F62604E0F92602E0FB2600E0FD2670B2039002F0D4
:201BC0002DFA01465C4F3868049101F0F2FA05465A4C214602F096F8002800D12C46584DF2
:201BE0002046294602F073F8002800D125463D600021494805914756067052480468524EB1
:201C00002046314602F063F8002810D04F49069801F042FD214601F0CCFA0446314602F05B
:201C200071F8002800D126464648066000E026460398C01B02F0F2F907464549284601F009
:201C40002BFD04464349049801F026FD214601F0B0FA04464049384601F01EFD214601F01F
:201C6000A8FA014601F0A5FA3C4901F015FD04463046214601F098FA05462046314601F0A0
:201C800098FA0246364C2046294601F0F9FA3548006802F0C3F905463348006802F0BEF9C5
:201CA000024607AE019608AF009720462946069B01F0C0FD0599785E715E00F009FF09B02A
:201CC000F0BD7F20C105284602F00AF8002800D073E71549284602F003F8002815D113491B
:201CE000284601F0FDFF0028264600D065E71049284601F0F5FF002809D10E49284601F075
:201D0000EFFF002805D0072657E7012655E7052653E70A2651E7C0467A012020000010C1AB
:201D20000000C0C0000080C0000040400000A0400000E040000010414801202000004843FE
:201D4000000048C3440120200000964300002F449A99193E0000164300004041EC51383D91
:201D6000BC0020204C01202050012020F0B585B00546002830D464D000277D20C0000190AF
:201D80000A262846314602F00BF94643A91B3026314302AAD1550A2D59D30A2102F000F9D6
:201DA000314302A8C0194170642D54D36421284602F0F6F80A2102F0F3F83143FC1C02A8B2
:201DC000C01981702846019E314602F0E9F8B54227460546D4D23BE061487D21C9000191D0
:201DE0002D2102F0DDF96D4200240A272846394602F0D6F84743E91B3027394302AA1155A9
:201E00000A2D3AD30A2102F0CBF8394302A800194170642D35D36421284602F0C1F80A214C
:201E200002F0BEF83943E71C02A8001981702846019C214602F0B4F8A5423C460546D4D25D
:201E40001CE04748302102F0ABF905B0F0BD7C1C002C03D182E0BC1C002C7FD0601E0321BF
:201E600002F09EF8481C0027032800D007463C49009417D125460C4642E0671C002F03D1A1
:201E80006CE0A71C002F69D0781E032102F088F8481C0025032800D00546009719D13C46CD
:201EA0002F4E45E002A8801E019026460C46019880194178204602F073F9012F1FD0B51E48
:201EC0000198815D204602F06BF9BF1E2E46EED116E002A8801E0190214E0198C019417856
:201EE000304602F05DF9012D21D0BC1E0198C15D304602F055F9AD1E2746EED118E0751E3C
:201F0000009803282AD302A82818C61EB178204602F046F97178204602F042F9ED1E317843
:201F2000204602F03DF9F61E002DEFD116E07C1E0098032812D302A82018C51EA97830467E
:201F400002F02EF96978304602F02AF9E41E2978304602F025F9ED1E002CEFD105B0F0BD7A
:201F600000801040F0B587B01D46039202910446EFF3108072B64F490F684F490E68002801
:201F800000D162B600212046019101F0A9FE0028069500D0494C4A480168791A494A1368E3
:201FA000F31A0497076005961660474A10684718176046490868C01800900860444E316828
:201FC000204601F0F6F805463060424901F091FE002843D0384602F021F83F4F394601F014
:201FE0005BFB294601F06AFC0446009802F016F8394601F051FB294601F060FC05463748A1
:20200000017800291DD036480068364901F044FB0646354F2046394601F03EFB314601F055
:20202000C8F80446314800682E4901F035FB06462846394601F030FB314601F0BAF8054663
:2020400001E001210170264804602848056001981D4908601D4908601D490860029C002C98
:2020600004D01F48006802F031F82060039C002C069D059E049F04D01C48006802F026F8BE
:2020800020600C9C002D08D0384601F0C7FF124901F002FB02F01AF82860002C08D030468F
:2020A00001F0BCFF0C4901F0F7FA02F00FF8206007B0F0BD84012020880120200AD7A33B13
:2020C00094012020980120209C012020A0012020A40120200AD7A33C9C9D0F3F7C012020AB
:2020E0008C0120209A99993E3333333F90012020F0B58BB04D4A4E4D0120840701904607C4
:202100004C4F4D480023079303804C4803604C484021009101704B4803704B4803702946E6
:202120002C61176010681060101F099081270760403D2E600E601760084630380890049406
:2021400004600C60A024204602F050F902970998076006952E600396354D2E60204602F07F
:2021600045F90498286133483049086008680860204602F03BF90798049C079047004037A8
:202180002B490C61294E2B48306030683060029D09980560039E069806600E60A0200A90AA
:2021A00002F024F92148056008980460204804600A9802F01BF909980560089806601C485A
:2021C0000660F8B2FFF73CF905901848056008980460174804600A9802F008F90998056008
:2021E000069806601248066006460A9D284602F0FDF834610D490F480860086808602846E3
:2022000002F0F4F8059A002A05D10799481CC9B20629B2D9009F0A4807700B480270019842
:202220005040084908700BB0F0BDC04614804240D0120A4081000E00620120202C012020F6
:20224000810120206801202067012020F0B587B004460026314601F03AFD0546002801D13B
:202260004D4900E04B49204601F016FA002D4B4F05D02D210446384601F092FF204601F062
:2022800075FF0A28029004D23021384601F088FF71E007460A253846294601F081FE294650
:2022A00001F07EFE3024214304A88155642F21D36421384601F074FE0A2101F071FE21439B
:2022C00004A880194170F8087D2815D37D20C100384601F065FE05460A2101F061FE214321
:2022E000F41C04A8801981702D48874226462F46D0D202E0741C00E0B41C002C274F3AD009
:20230000601E032101F04CFE481C0026032800D00646019402D12546204F16E004A8801E8D
:2023200003901E4F039800194178384601F038FF012E09D0A51E0398015D384601F030FF28
:20234000B61E2C46EED100E0651E0198032812D304A82818C41EA178384601F021FF61781D
:20236000384601F01DFFED1E2178384601F018FFE41E002DEFD12E21384601F011FF0A21C0
:20238000029801F00DFE30200143384601F008FF07B0F0BD000020C1000020410080104027
:2023A00010270000F0B581B00446354D29780020072963D8012632468A40C1210A425DD054
:2023C00001F01AFC2F48002707602F4807602F4807702F4807702F4807602F4807602F4804
:2023E00007702F4807802F4807702F4807702F48402101702E4807702E4807702E4807707C
:202400002E4807702E4807602E4807602E4807602E4807702E4807602E4807602E480760B4
:202420002E4804602E4807702E480770052028702D4804602D4807602D4807602D4D2846B2
:2024400001F0C6FE10480760194807701C4804601848077018480770184807700D48006826
:2024600018490860184807601848077018480760284601F0ADFE01F0A1FC304601B0F0BDC2
:20248000AC0120202801202058012020800120207D01202030012020340120207501202032
:2024A000600120206C0120206D0120206E01202073012020710120207201202074012020A3
:2024C0003801202040012020480120207A012020440120204C012020500120203C0120209E
:2024E000700120206F01202054012020240120205C012020BC002020F0B586B04F480178FD
:20250000012932D1EFF3108272B61421C9434C4B03E06D466D18EC75C91C5C18657D002D36
:2025200026D0657D2E46613EF6B21A2E00D2203D6E4676187575A57D002D1BD0A57D2E4695
:20254000613EF6B21A2E00D2203D6E467618B575002911D0E57D002D10D0E47D2546613D6E
:20256000EDB21A2DD5D2203CD3E7002006B0F0BD153104E0163102E0172100E017316B46D1
:2025800000245C5404702F480470002A00D162B66D462A786B78AC78E8782D7905290CD188
:2025A000522A0AD1552B08D14E2C06D1312804D1352D02D1012006B0F0BD6E467679062961
:2025C0000ED1522A0CD1552B0AD14E2C08D1502806D1492D04D1442E02D1022006B0F0BDB1
:2025E0006F46072911D1522A0FD1552B0DD14E2C0BD1522809D1452D07D1432E05D1BD79E9
:20260000542D02D1032006B0F0BD0427532605255028384600D02846794072404F2C00D028
:2026200028461143542B03D1002904D106B0F0BD28460029FAD0284606B0F0BD6A01202047
:20264000080120207B012020F0B589B01F461446059100260690314601F042FB002835463E
:2026600050D1002F35464DD03B480168204600F09BFD2746069C214601F020F90390374806
:20268000056804973846214601F006F8294600F090FD0746324D294601F034FB002800D11E
:2026A0003D46304F2846394601F011FB002800D12F462A4807600021384600F0EDFF054621
:2026C0002949049C204600F0E7FF294600F071FD05462649039800F0DFFF294600F069FDF7
:2026E0000546234F394601F00DFB002800D12F46204D3846294601F0EAFA002800D13D468C
:2027000015480460059C2046294600F052FD07462046294600F048FD02461748394600F0D6
:20272000AFFD1648006801F079FC07461448006801F074FC024607AC0194354608AE0096F8
:202740000D483946069B01F075F8705F615F00F0BFF909B0F0BDC04640012020340120200D
:202760000000A0410000A0C10000D040EC51B83D0000B4420000B4C2BC0020204C012020E0
:2027800050012020F0B581B00446294E3178002007294BD801252A468A40C1210A4245D052
:2027A00001F02AFA2348002707602348076023480770234807702348076023480760234866
:2027C0000770234807802348077023480770234840210170224807702248077022480770EC
:2027E000224807702248076022480760224807602248077022480760224807602248076031
:2028000022480460224807702248077004203070214804602148076021480760214801F09D
:20282000D7FC0548076001F0C9FA284601B0F0BDAC012020280120205801202080012020E1
:202840007D012020300120203401202075012020600120206C0120206D0120206E01202073
:20286000730120207101202072012020740120203801202040012020480120207A0120204C
:20288000440120204C012020500120203C012020700120206F0120205401202024012020BD
:2028A0005C012020BC00202080B582B0244900220A7024490A6024490A6024490A6024491D
:2028C0000A6024490A6024490A7024490A6024490A7024490A6024490A6024490A70244910
:2028E0000A8024490A7024490A70244940230B7023490A7023490A7023490A7023490A709D
:2029000023490A6023490A6023490A6023490A7023490A6023490A6023490A6023490870E9
:202920002349087023487F21C9050091019022482249134601F082F801F040FA02B080BD05
:20294000AC0120203C0120205401202028012020580120205C0120208001202024012020B3
:202960007D012020300120203401202075012020600120206C0120206D0120206E01202052
:20298000730120207101202072012020740120203801202040012020480120207A0120202B
:2029A000440120204C012020500120206F0120207001202000007A44BC002020CDCCCC3FB5
:2029C000F0B5384908463438872202603648022202600A46383A86231360012202608523FD
:2029E0000B61140204604B61530203602F4CE01C48604B684B600860086808604B685006C7
:202A000003434B600B6803430B6082258D61284BCB614D64274D2E463C3E33606C606E6825
:202A20006E600E46083E244F3760346834608124AC622F632C6B2C63EF61EC69EC612F6206
:202A40002C6A2C622F602C682C600C462C3C174E26602568256028390E600C680C601749DD
:202A60000C68950525430D6015490C6AD20614430C620C6814430C6012490A600A6312493E
:202A80000A68042414430C600A69823B13430B610E490A6A801C02430A620A6802430A60AE
:202AA000F0BDC0463C804240D0120A4081000E0082000400C080424081000C00A0130A4098
:202AC00028100A40A0320A4090330A4028300A40F0B585B00C467D27FD003C4A904203463B
:202AE00000DC1346AB4200DB2B469442039400DC14461922AC4200DB2C46334ED101049167
:202B0000334A1380334A148000280197029512D0DA175340D11A4D19012813DB01223046D6
:202B2000049901F049FC04984543F900284601F037FA074612E0002701223046394601F0A6
:202B40003BFC0BE004984543F900284601F028FA01460122304601F02FFC049F002530467B
:202B600039462A4601F028FC20B2C1174840081A02990F180398184E00280BD010DD049DA9
:202B80006F430198C100384601F00AFA01460022304602E0304629462A4601F00DFC0CE0BA
:202BA00000223046049C214601F006FC67430198C100384601F0F4F90546012230462946D0
:202BC00001F0FAFB05B0F0BD0000094018FCFFFFA8012020AA01202000008640F0B5394A90
:202BE0008218394BC0183A4D4C790B79002C22D0466F202B02D00524E70100E0354F2E403C
:202C0000002B00D188273E434667846F2C403C438467446B2D4E34404463846B3440846383
:202C200000244465846554688F26F643344054609468344094600C688979202B09D00646C2
:202C40007036002B15D1641E4460C46E2C40882715E0641E4460C46E2C401E4E3443C46684
:202C6000046F2C40344304671B4D01246707064607E00527FF0164084460C46E2C403C430C
:202C8000C46634682C403C433460C46A0F4D2C40C462046B2C4004630024C4640465C46FA9
:202CA0008F25ED432C40C46714682C401460194302680A4B1340BD220A40D118891C0160B7
:202CC000F0BDC04684180000041800008888FDFF24493E0001040000FFFFFFCF4000FFCFF3
:202CE000B0B53A4A80184A6842600A78222A56D8930001A4E3589F46952D00009F2D00001D
:202D0000952D00009F2D00009F2D00009F2D00009F2D00009F2D00009F2D00009F2D00005D
:202D20009F2D00009F2D00009F2D00009F2D00009F2D00009F2D0000852D00009F2D00004D
:202D4000852D00009F2D00009F2D00009F2D00009F2D00009F2D00009F2D00009F2D00002D
:202D60009F2D00009F2D00009F2D00009F2D00009F2D00009F2D0000852D00009F2D00000D
:202D8000852D0000036803242407A343012464071B1903E0036803242407A34303600B69BD
:202DA000C360CB68C46A0A4D25400A4C1C402B19C3620368084C1C400460097A11430268F8
:202DC0003F239A43194051180160B0BD041800008888FDFF777702007F00FFFFF0B581B0B9
:202DE000069C002C5AD0254624352D4E367826702C4E3668801B052646432B4800682B4F9C
:202E00003F686660A16021460C3185C1237628480078607601F066FA26490968E06121620E
:202E200025480078287025480078687024480088E084012101404207920F00D0891C4208F4
:202E400004231340C9188206920F00D008310206920F00D01031C30820221A400A43410531
:202E6000890F01D040210A430009802101401143297114480078687113480078A87113486E
:202E80000078E8711248006812490968E062216301F09AFAA08601F09DFAE08601B0F0BD16
:202EA000AC0120203C012020580120205C01202070012020300120207501202073012020E6
:202EC000600120206C0120206D0120206E0120204C01202050012020F0B581B003460124E5
:202EE00020405D07AD0F00D0801C5D0804262E4080199D06AD0F00D008301D06AD0F00D03A
:202F00001030DD0820262E4006435805800F01D0402006430320002B0CD0002A0AD0D80A19
:202F2000C301334307221A400220072A04D15DB2002D01D401B0F0BDDDB2E1232B40E02B34
:202F400041D03440F3B2B707FF0F3C197707FF0F3C193707FF0F3C19F706FF0F3C19B60688
:202F6000F60F34199B091B19EC09E71818242C4011D0002A0FD0C1221206009008460E4674
:202F8000114600F0ADFE314602460098002A02D0FAB2012ACED8601E8441F8B20022012738
:202FA00001283E4600D816460092412002060846114600F09EFE411E88411F2D00D8009F19
:202FC0003E4006403440204601B0F0BDF0B585B003931746029104460669002510462946F2
:202FE00000F07EFE002861D10120C1073046049188433F21090600F06AFE002856D13046C0
:20300000029900F0D1F8054620680290A6692846314600F0C9F801906168384600F03CFB53
:203020000146284600F038FB00900298019900F033FB009900F0BDF80090A068394600F091
:203040003DFC074630460196314600F0B2F801460295284600F0A8F8E16900F0AAF80146CD
:20306000384600F019FB009900F0A3F80146606900F09FF80646039D04996940049100F05C
:2030800026FE07463046294600F03CFE002800D13546002F049800D1284660610299A161D4
:2030A0000199E16101F012F8054606E0E168304600F0F2FA6061A561E561284605B0F0BD90
:2030C000F0B581B014460D460646234806702348016023480027076022480760224801F04F
:2030E00077F805203040012811D12B4804602B48C05700282A4D294600DA2A49204600F0AF
:2031000058F81A4908601748056001B0F0BD17480460022E1ED0042E1CD0052E18D11448FB
:20312000077014480560144807701448077014480770144800681449086014480760144836
:20314000077014480760084801F042F801B0F0BD00F034FE01B0F0BDAC012020540120205A
:20316000240120205C012020BC002020580120207301202038012020710120207201202026
:20318000740120203001202040012020480120207A01202044012020280120208001202095
:2031A00000002A4300002AC3FCB40127FF07794002E0FCB40127FF070C024D002D0E03D1F4
:2031C000002C52D1FCBC70473C43FF2D50D0A408002900D56442020243001B0E04D1002AA7
:2031E00043D10800FCBC70473A43FF2B41D09208002800D552425E1B04D5170022003C009A
:2032000076422B00192E06D527003741D2191C27F71B7F42BC40002A27D002D55242012759
:2032200000E00027013B5200FCD51500802635400FD01500202635402C43803208D2150039
:20324000402635402C4304D101263602B24300E05B1C5200023308DDFF2B0BD2500ADB05F7
:203260001843FF073843FCBC70470020FCBC70470800C70FFF07FF20C0053843FCBC7047C2
:20328000F0B583B0002846D00E460446174623493046019100F01BFD0290214D30462946BC
:2032A00000F030FD0028284600D13046029900291A4900D1014602913846184900F007FD6F
:2032C00006463846294600F01DFD002800D13D46002E00D10195E66821690298FFF764FFCF
:2032E00001466769304600F0D7F93946FFF761FF6061E66A216B019D2846FFF755FF014672
:20330000676B304600F0C8F93946FFF752FF029921612563606303B0F0BDC0460000A0C3BD
:203320000000A043F0B585B00290002907D010070DD450070DD4900707D51C4A0AE0D00675
:2033400005D4900605D45006F7D4194A02E0154A00E0154A0120C00750400029014600D168
:20336000114600D10246134D2846FFF789FF1248006800F053FE06461048006800F04EFE46
:20338000024603AF019704AC009428463146029B00F050FA0021605E795EFFF799FB05B0A6
:2033A000F0BDC0460000F041000058420000A8420000F042BC0020204C0120205001202059
:2033C000002A49D084468B071CD1830722D1102A08D370B4103A78C978C0103AFBD270BCA5
:2033E000103238D0042A2CD3082A05D30C2A01D308C908C008C908C008C908C092072AD0E4
:20340000920F22E00B780370491C401C521E22D08B07F7D1C30714D18307D8D0121F12D39F
:2034200008C903801B0C4380001D121FF8D20AE008C903701B0A43701B0A83701B0AC370C0
:20344000001D121FF4D2121D05D00B780370491C401C521EF9D160467047FEE7F0B585B047
:2034600002901E4806683F200106304600F04AFC0546BF200106304600F029FC0028184A8E
:20348000134600D1034617490E4621D0002D22D000D13246144D2846FFF7F2FE1348006834
:2034A00000F0BCFD06461248006800F0B7FD024603AF019704AC009428463146029B00F069
:2034C000B9F90021605E795EFFF702FB05B0F0BD0646002DDCD11946DBD0DBE730012020CC
:2034E00000008C4200008CC2BC0020204C0120205001202070B582B01B491C4C204600F01D
:203500000DFF1B492046FFF769FB1A4801681A4A0A40026000250095204629462A462B4630
:2035200000F018FF204629462A4600F0E9FE204629462A4600F040FF012600962046294662
:203540002A462B4600F006FF20462946324600F0D7FE20462946324600F02EFF07488660E4
:203560000321016002B070BDD94500000000094070460000041809407F00FFFF001109408E
:2035800070B582B01B491C4C204600F0C7FE1B492046FFF723FB1A4801681A4A0A40026034
:2035A00000250095204629462A462B4600F0D2FE204629462A4600F0A3FE204629462A46C0
:2035C00000F0FAFE01260096204629462A462B4600F0C0FE20462946324600F091FE2046B0
:2035E0002946324600F0E8FE074886600321016002B070BDD34600000000864078460000D8
:20360000041886407F00FFFF0011864040B542004B005E08164301D006004E4000D4D01A10
:2036200004D20120C90F06D1404204E003D90120C90F00D04042FF263606B24200D8B34235
:2036400000D9012040BD40B542004B005E08164301D006004E4000D4D01A04D20120C90F40
:2036600006D1404204E003D90120C90F00D04042FF263606B24200D8B34201D90120404247
:2036800040BD42004B000020FF2109068A4200D88B4200D901207047FCB40127FF0706004B
:2036A0004E4001D4002600E03E00020243001B0E30D03A43FF2B30D00C024D002D0E29D0BD
:2036C0003C43FF2D29D05B194240504042404C4061404C4000B500F0BFFC20BCAE464240D3
:2036E000504042404C4061404C4025001400002C01D46400013B803401D3013364087E3B44
:2037000008DDFF2B09D2BC43200ADB0518433043FCBC70470020FCBC7047FF20C005304393
:20372000FCBC704710B51B491B4C204600F029FE1A49204600F08EFB194801680322D20307
:20374000914301600169174A0A4011320261416917220A4328218A434261426801210A407A
:2037600043688B439A1842600F4A13688C021C43146002684B0413430360C26870231343C2
:20378000C360C2680A4306239A43C26002680A43026010BDD9460000008010404846000004
:2037A000009110400000FFFF2890104010B51B491B4C204600F0E5FD1A49204600F04AFB5C
:2037C000194801680322D203914301600169174A0A4011320261416917220A4328218A43EF
:2037E0004261426801210A4043688B439A1842600F4A13688C021C43146002684B041343FF
:203800000360C26870231343C360C2680A4306239A43C26002680A43026010BDDB46000069
:203820000020104052460000003110400000FFFF28301040F0B585B000283BD00A9D002D78
:2038400038D004460B98002834D01F4604900291039200211846019100F054FA666C0028DD
:2038600005D038463146FFF7A4FC06466064274648371149304600F02AFA002803D038884D
:203880002880B91C13E001986064236C204602993246FFF79BFB3880236C2034204603992A
:2038A0003246FFF793FBB91C788038882880049A0888108005B0F0BD0AD7A33CFCB401271F
:2038C000FF0706004E40F60FF607020243001B0E2DD03A43FF2B2DD00C024D002D0E26D0AF
:2038E0003C43FF2D26D05B1B0020202164085208A2424041A24200D3121B013904D0002A09
:2039000001D05200F4D18840384201D14000013B803001D3013300E040007F3307DDFF2B97
:2039200008D2400ADB0518433043FCBC70470020FCBC7047FF20C0053043FCBC704770473A
:20394000F0B50020C4431848184B0127FA067E06103B1D6815400346103B1B68002D08D0EB
:2039600013480068304200D027461248016879180160B71C334208D00F480068C00200D5AA
:2039800001240E480168611801603B40002D03D00649086810430860002B03D002490868BB
:2039A00018430860F0BDC04648300A4048100A4080130A408401202080330A4088012020C5
:2039C000F8B5451C00780023082B32D02F78C2070CD16A780F241440E41C122C0BD1022413
:2039E0002E57F4B2002E08D4EE1C0EE06D1C4A1C0F7011461AE0AE1C08E02E1DED780095E4
:203A00007F252C40009DED012C1912343D0112095219094DAA420ED0D243002C05D08D5C9D
:203A20004F1C0D70641E3946F7E7354640085B1CCAE72846C5E7F8BDFF0F0000F0B585B01D
:203A4000002830D0044602A80EC00B9F00253846294600F03CF90190144E3846314600F0C3
:203A600051F9002800D13E460A98019900292946049A00D131462164029B236003996160C3
:203A8000A260E060256123626162A262E06225632946FFF701FE6061A561E5616063A5630C
:203AA000E5636564A56405B0F0BDC04600007A44F0B581B010481149416011484160114B47
:203AC0005960114C6160114D6960114E7160114F7960114841601149074A1160084A1160A6
:203AE000196021602960316039600160102000F07DFC01B0F0BDC04600080A40030000B1B5
:203B000000280A4000080940000886400008874000280F4000881040002810400100002657
:203B2000F0B5164A1068C0B20B2825D1144801218B029362026852071ED4124A124B134CA0
:203B400006E01D7800266655117005686D0713D4C5691678002EF8D1EEB20D2EF5D00A2E35
:203B6000EFD01E78162E04D81E78771C1F70A555EBE700251D70E8E7F0BDC0462090104018
:203B8000089110406A0120207B0120200801202010B500F0B7FA00F037F9FEF7A9FA00F07E
:203BA00081FB00242046FEF77FFEFDF7F7FA0C4804700C4804700C4804700C4800F0D0F943
:203BC000012041050A4A11600A4B1960C003106018600220106018601060186010BDC0467B
:203BE000690120206B01202079012020D544000080E200E000E100E0EFF3108072B60D4AA8
:203C0000002111600C4A11600C4A11600C4A11600C4A11600C4A11600C4A11600C4A1160A1
:203C20000C4A11600C4A1170002800D0704762B67047C046840120208801202094012020FF
:203C4000980120209C012020A0012020A40120208C012020900120207C01202080B50C4A02
:203C600010700C4801600C48002101700B4801700B4801700B4800680B4A10600B4801606D
:203C80000B4801700B4801600B4800F0A1FA80BD73012020380120207101202072012020FF
:203CA000740120203001202040012020480120207A01202044012020BC00202010B5FFF7DD
:203CC000A5FC002801D0002010BD012010BD10B5FFF79CFC002801DB002010BD012010BD3D
:203CE00010B5FFF793FC002801DD002010BD012010BD10B5FFF7A7FC002801DA002010BD4B
:203D0000012010BD10B5FFF79EFC002801DC002010BD012010BD000080B51149114800F0A8
:203D2000ADFA11480168032252020A430260026801210B021343036000224261072242620E
:203D4000836B93438363836B120293438363826A042313438362826A0A43826280BDC0464D
:203D6000DD46000000200F4000320F400E480068C0B2012816D10D480168491C01600C4818
:203D80000178FF2902D00178491C017009480178491CCAB20170142A04D300210170064850
:203DA000012101707047C0462010874020012020760120207E0120207F01202070B50E48AA
:203DC000002404800D4804800D4E0125304621462A4600F0F1FA30462146224600F0ECFA9E
:203DE000084E30462146224600F0E6FA304621462A4600F0E1FA70BDA8012020AA0120203F
:203E0000000009400000864070B50E48002404800D4804800D4E0125304621462A4600F0D9
:203E2000CBFA30462146224600F0C6FA084E30462146224600F0C0FA304621462A4600F046
:203E4000BBFA70BDA8012020AA012020000009400000864070B511221302C218C458012514
:203E6000AC43C4500C888D7825438C882C43C558084E2E40084D25407419C4508879CB793A
:203E80000343087A184351687E23994318400818506070BDE798FDFF186700000121014017
:203EA0004207920F00D0891C420804231340C9188206920F00D008310206920F00D0103112
:203EC000C30820221A400A434105890F01D040210A430009802101401143C8B27047000061
:203EE00010B50C48018800290ED00B4A13785C1C1470DA0703D00122D206084B1A61491E59
:203F00000180080400D010BD0120C0060349086010BDC0466401202077012020A0320A4090
:203F20000D48002101600D48011F0A680323DB4313400B60416801229143416041681202C3
:203F400091434160016830229143016001680F22914301607047C04608030B4004010B40CA
:203F600070B50178002917D00C4CC51CAE1EC9B2204600F015F9317800290DD06E1E20460E
:203F800000F00EF93178002906D0204600F008F92978ED1C0029E9D170BDC046008010409B
:203FA0001CB50A0017D000230124E407A04200D20400944201D95200FBE790425B41904230
:203FC00000D3801A914201D25208F6E719000200080011001CBD01000020FFF7B0FC1CBDEE
:203FE00070B50A480A4C84420CD00A4D0A4EB54208D02A686968501C12789200A258904718
:204000000835F4E700BF00BF70BDC046F4460000E8460000044700001447000006B49E224F
:20402000002802D404D106BC7047414204D400E00100013A4900FCD5803101D3013200E00B
:204040004900490AD2051143002802D50122D2071143080006BC7047FCB4020C0B0CFF24D1
:204060002402FF34204021400C00444315005D4306005E430F005743320C3B0CA818C01871
:2040800032043B040025A1186841C9186841FCBC7047000010B50849084C204600F03EF934
:2040A00007492046FEF71CFE064801680122114301600548026010BD7945000000008740AB
:2040C000B4450000281087400811874006B54100090E7F390DD41F22511A0CD986460002FD
:2040E0000122D2071043C8407246002A00D5404206BD002006BD02000120C007002A00D4A2
:20410000401E06BD80B5FFF7D3FCFEF759FCFFF707FFFFF7EFF9FFF733FAFFF7BBFFFFF797
:20412000FBFDFFF7FFFAFFF741FB0248B8210022425480BD0000202002460020002914D099
:204140000121114093069B0F00D0083113069B0F00D01031120980231340C918CA06920F69
:2041600003D08120014048424841704706B5002803D57346FFF7AAFF06BD4100090E7F39DA
:2041800008D31F22511A07D300020122D2071043C84006BD002006BD0020401E06BD00007E
:2041A0000A4A80180268120605D50268120602D502681206F6D481610168C90705D00168B9
:2041C000C90702D00168C907F6D1704708110000B0B5002812D0C168026904461046FFF7D4
:2041E0005BFA00256061A561E561E16A206BFFF753FA6063A563E5636564A564B0BD0000CD
:2042000080B508480078072807D801218140C120014202D0FFF7D2FD80BD034801210170DA
:2042200080BDC046AC0120207D012020084880F3088800BF00BF00F0FEF8002801D0FFF7EA
:20424000CFFE002000F0A6F8012000F0EDF8C0460080202002B49E21002805D401D102BC21
:20426000704701394000FCD5803001D3013100E04000400AC905084302BC704770B5012246
:20428000120383180C785D680C26B54334402C195C60497883580724A34321405918815036
:2042A00070BD0000044800210180044801700120C006034908607047640120207701202077
:2042C000A0320A4080B5001D0521FFF769FE0349088003480021017080BDC0466401202054
:2042E0007701202003480078002801D103487047014870477801202025460000804600005D
:2043000010B592008018044A83580724A404A34321405918815010BD3018000010B501222C
:20432000120383180C789C604B7883508978014A815010BD0C110000054802780121072A96
:204340000B4600D800233E20D040184308407047AC01202010B5029CA4000019114319438C
:20436000014A815010BDC0465018000003228058002805D0401E4A1C00230B701146F7E755
:20438000704710B50122120383180C789C604978815010BDFFF7FCFBFDF7A4F9FDF7A2F9E2
:2043A000FDF7A0F9F8E780B50B4603214258C11D184600F035F880BD92008018014A815071
:2043C0007047C0461018000000200149085E7047A801202000200149085E7047AA01202016
:2043E000014800787047C046AC012020811E091F00BFFCD2704780B5FFF7A2FA80BD80B50E
:20440000FFF78EFB80BD80B5FFF7F5FF80BD80B5FFF7ACFC80BD80B5FFF7F1FF80BD00001C
:2044200080B5FEF7CDFF80BD00F001F8FEE700BF7047FBE670470120704700000000000095
:204440004232313A204C494E453330207468656E205245435433303B2052554E5049442FF6
:2044600052554E524543543B2053544F502061626F7274730D0A004E43484431322067723D
:204480006179206C696E652064656D6F206F6E626F6172642055415254302031313532300B
:2044A0003020384E310D0A004D5055363035302064697361626C65643B20656E636F646500
:2044C0007220737065656420504944206163746976650D0A004D5055363035303D444953AF
:2044E00041424C45443B204232313A204C494E453330207468656E205245435433300D0AE8
:20450000005245414459205245435433303B20423231207374617274732072656374616E17
:20452000676C652064656D6F0D0A00436F6D6D616E64733A2052554E5049442C2052554EC8
:2045400031352C2052554E524543542C2053544F500D0A0052454354333020636F6D706C11
:204560006574653B204232312064656D6F2066696E69736865640D0A00080000C5460000A4
:20458000A346000066460000A34600008846000096460000CA460000B546000045525220DF
:2045A0004232312064656D6F20636F6D706C6574650D0A0002000000FF700200010000008D
:2045C00000000000000000003031323334353637383941424344454600080000AF4600003C
:2045E000A94600009D460000BB4600004F4B20423231204C494E4533300D0A004F4B2042CB
:204600003231205245435433300D0A004F4B2052554E524543540D0A004F4B2052554E507C
:2046200049440D0A004D5055363035302D4552520045525220627573790D0A004F4B205214
:20464000554E31350D0A000000001800000000300000000018000000003000004F4B20539D
:20466000544F500D0A0053545241494748540000800C000020000100800C0000200101006F
:204680004D505536303530004C494E45333000284C4F5354290052454354333000545552B3
:2046A0004E52004355525645005455524E4C00545241434B0041424F5254004C4F53540011
:2046C000284F4B290049444C4500444F4E4500455252000800004F4B000800080008003FC9
:0846E0000000000000000000D2
:2046E800C1390000A74300006D4300000200000082010000000100000F16FFF0F44600004A
:1047080000002020FC46000084012020000000005A
:00000001FF
