:2000000000802020AD010000B5010000B50100000000000000000000000000000000000006
:20002000000000000000000000000000B50100000000000000000000B5010000B50100009E
:20004000B5010000B5010000B5010000B5010000B5010000B5010000B5010000B5010000F0
:2000600000000000B5010000B50100000000000000000000B5010000B5010000B5010000F2
:20008000B5010000B5010000B5010000B5010000B5010000B501000000000000000000001C
:2000A000B5010000B50100000000000000000000B501000000000000B5010000B5010000B2
:2000C0000D48002101600D48011F0A680323DB4313400B6041680122914341604168120262
:2000E00091434160016830229143016001680F22914301607047C04608030B4004010B4069
:2001000080B5064806494160064A5160064901601160102000F040F880BDC04600080A405D
:20012000030000B100280A4001000026064881214160064901600168016001208005044974
:20014000086008637047C046C480424081000E00A0320A40064880F3088800BF00BF00F0DF
:2001600027F8002000F006F8012000F01AF8C0460080202000F008F8012080050149086021
:20018000FEE7C04690320A4080B5FFF7B9FFFFF7CDFFFFF795FF80BD811E091F00BFFCD2A8
:1801A000704700F001F8FEE700BF7047D2E7704701207047FEE700001F
:00000001FF
