:2000000000802020AF360000CF260000CF2600000000000000000000000000000000000051
:20002000000000000000000000000000CF2600000000000000000000CF260000CF260000E1
:20004000CF26000083360000CF260000CF260000CF260000CF260000CF260000CF26000034
:2000600000000000CF260000CF260000000000000000000093360000CF260000CF260000E3
:20008000CF260000CF260000CF260000CF260000CF2600008B3600000000000000000000D6
:2000A000CF260000CF2600000000000000000000CF26000000000000CF260000CF26000077
:2000C000F0B58FB0002800D104E30446B74F6D21384603F0A7F97321384603F0A3F93D216E
:2000E000384603F09FF96568002D0B942DD000270A262846314603F0AFF84643A91B3026E8
:2001000031430CAAD1550A2D24D30A2103F0A4F831430CA8C0194170642D1DD36421284681
:2001200003F09AF80A2103F097F83143FE1C0CA8C01981707D20C100284603F08DF8E9084C
:200140007D2937460546D3D207E03021384603F069F941E07E1C00E0BE1C002E934F3BD0F1
:20016000701E032103F078F8481C0027032800D00746099602D135468C4C16E00CA8801E8A
:200180000A908A4C0A9880194178204603F04AF9012F09D0B51E0A98815D204603F042F96F
:2001A000BF1E2E46EED100E0751E09980328274612D30CA82818C61EB178384603F032F901
:2001C0007178384603F02EF9ED1E3178384603F029F9F61E002DEFD12021384603F022F989
:2001E0007321384603F01EF974253846294603F019F96121384603F015F93846294603F077
:2002000011F96521384603F00DF93D21384603F009F90B9E3078062803D88000644909581E
:2002200000E064490878002816D0CD1CAC1EC1B2384603F0F7F8217800290DD06C1E384676
:2002400003F0F0F82178002906D0384603F0EAF82878ED1C0028E9D12021384603F0E2F8C1
:200260006721384603F0DEF87921384603F0DAF87221384603F0D6F86F21384603F0D2F835
:200280003D21384603F0CEF8707E002804D0307E00280FD148490EE04F21384603F0C2F80F
:2002A00046253846294603F0BDF83846294603F0B9F81AE041490878002816D0CD1CAC1EE8
:2002C000C1B2384603F0AEF8217800290DD06C1E384603F0A7F82178002906D0384603F052
:2002E000A1F82878ED1C0028E9D12021384603F099F86221384603F095F86121384603F023
:2003000091F86321384603F08DF86B21384603F089F86521384603F085F86E21384603F0E8
:2003200081F86421384603F07DF83D21384603F079F8F1690878002816D0CD1CAC1EC1B28B
:20034000384603F06FF8217800290DD06C1E384603F068F82178002906D0384603F062F868
:200360002878ED1C0028E9D12021384603F05AF86C21384603F056F86921384603F052F85D
:200380006E21384603F04EF86521384603F04AF83D21384603F046F8306A01F055FB2420B2
:2003A000305C00280CD1CD490BE0C046000010408C3700008F3800007D3800008A38000054
:2003C000C5490878002816D0CD1CAC1EC1B2384603F028F8217800290DD06C1E384603F030
:2003E00021F82178002906D0384603F01BF82878ED1C0028E9D120210991384603F012F8E7
:2004000067210891384603F00DF872210791384603F008F861210491384603F003F8792687
:2004200038463146019602F0FDFF3D210A91384602F0F8FF30210391384602F0F3FF782102
:20044000384602F0EFFF0B98C48C200BA44D295C384602F0E7FF2005000F295C384602F02B
:20046000E1FF2006000F295C384602F0DBFF0F202040295C384602F0D5FF3846099C2146B6
:2004800002F0D0FF3846314602F0CCFF3846049E314602F0C7FF77210591384602F0C2FF3B
:2004A00038460A9902F0BEFF0B98806801F0CCFA3846214602F0B6FF74243846214602948B
:2004C00002F0B0FF3846314602F0ACFF3846079902F0A8FF3846089902F0A4FF6521069161
:2004E000384602F09FFF3846214602F09BFF5F210891384602F096FF3846019D294602F0E2
:2005000091FF3846314602F08DFF3846059C214602F088FF38460A9902F084FF0B98C06878
:2005200001F092FA3846099E314602F07BFF3846294602F077FF3846049D294602F072FFF0
:200540003846214602F06EFF3846089902F06AFF3846079C214602F065FF3846294602F020
:2005600061FF3846029D294602F05CFF3846069902F058FF38460A9902F054FF0B9800696A
:2005800001F062FA3846314602F04CFF3846294602F048FF7521384602F044FF3846214688
:2005A00002F040FF6E21384602F03CFF3846089902F038FF3846069E314602F033FF38464D
:2005C000214602F02FFF3846214602F02BFF38460A9D294602F026FF0B9C606901F034FA59
:2005E0003846099902F01EFF7321384602F01AFF70210491384602F015FF3846314602F01E
:2006000011FF3846314602F00DFF6421384602F009FF3846294602F005FF2546A06A00F092
:20062000AFFE2F243846214602F0FCFEE86A00F0A7FE3846099902F0F5FE3846049E314666
:2006400002F0F0FE3846059902F0ECFE6D253846294602F0E7FE3846089902F0E3FE3846FC
:20066000314602F0DFFE3846069E314602F0DAFE3846079902F0D6FE3846294602F0D2FE3E
:200680006921384602F0CEFE6C253846294602F0C9FE3846294602F0C5FE3846314602F0D4
:2006A000C1FE38460A9902F0BDFE03980B9D285E00F066FE3846214602F0B4FE3220285E2F
:2006C00000F05EFE0D21384602F0ACFE0A21384602F0A8FE0FB0F0BD78380000543800009D
:2006E000BC370000F0B58BB0002800D14AE106900120C407BD4DBE4F049001070A91BD482E
:200700003C612860286828600C3D81262E6038464038079001603960A020089002F0A4FFAA
:20072000B24806603846303F3C60099404600A9C089802F099FF08952E60354605973C6021
:20074000AB4F3C60402000F05BF9002800D1EDE00026304600F054F9002800D1E6E0039668
:20076000099C3C61A14A3946A24F176010681060089805600A9F079807600F60A02630461E
:2007800002F072FF9948056005990C60984804603046089E0C4602F067FF356027609448A4
:2007A0000760412000F02CF9002800D1EDE0049800F0DCFC0390002000F0D8FC02908B4F4F
:2007C0003D60099F27608A4807602C463546A026304602F049FF2C600A9807990860844CAB
:2007E0002060304602F040FF276182487F49086008680860304602F037FF02980007020D2A
:2008000003981418601E264686417C480768002C00D1E6E0784804800120214609900140C4
:200820000220204008906006C30F18460B304D1CD20A002A00D0CDE0184600D1CCE00029DD
:2008400000D00B38042222400899002901D00B38801C08212140002A029501D00B38001D07
:20086000102525400795002905930192009101D00B38801D202121408A06D21780230A9450
:200880002340099C2402079D002D039601D00B380830099D6E020A9D2C408018002B00D0B8
:2008A000C01C099A92020A9D2E40002C00D0401D0A9D2A40002E00D0C01D089D6D08089514
:2008C000019DAD080195009DED080095079D2D094909DB090993230A0793740A960A002A4D
:2008E00000D00930029A089BD218019BD218009BD21852195118059A8918099A8918079AC2
:20090000891809198C1902F0E5FC0546204602F0E3FD0146284602F08DF9002C00D00746A3
:20092000364807600699039E0A9C5BE02F4E35600A9C3946099F059807600F602E46A02526
:20094000284602F091FE089806600798046028480460284602F088FE254807612548234937
:20096000086008680860284602F07EFE224800880699088021480768002630464F600E729F
:200980000BB0F0BD00200BB0F0BD184F3D60099F2760174807602C46A025284602F064FE75
:2009A00034600A9807990860114C2060284602F05BFE27610F480D49086008680860284680
:2009C00002F052FE0C480088069908800B480768039ED2E700D032E70D46002900D030E76A
:2009E00030E706990C800498C8E7C04618804240D0120A4081000E00520120202401202097
:200A0000F0B587B002900120C107A04EA04A0707812535601446303C059121601160A02050
:200A2000069002F021FE0C3E3560994908464038049007600F60069802F016FE0599069640
:200A40003560276092480760029840280195039405D28E48056021608D48016006E08C4887
:200A600001618A498B48086008680860A025284602F0FAFD069E019C34600498076084486E
:200A80000760284602F0F0FD3460039A1760804807600298800606D47C480460059911609A
:200AA0007B48016007E07A480599016177497948086008680860A025284602F0D5FD069E0D
:200AC00034600498076072480760284602F0CCFD3460039A17606E4807600298C00606D436
:200AE0006A480460059911606948016007E068480599016165496748086008680860A025C6
:200B0000284602F0B1FD069E34600498076060480760284602F0A8FD3460039A17605C482C
:200B200007600298000706D458480460059911605748016007E05648059901615349554802
:200B4000086008680860A025284602F08DFD069E3460049807604E480760284602F084FD8D
:200B60003460039A17604A4807600298400706D446480460059911604548016007E04448B7
:200B80000599016141494348086008680860A025284602F069FD069E3460049807603C48B6
:200BA0000760284602F060FD3460039A1760384807600298800706D4344804600599116098
:200BC0003348016007E03248059901612F493148086008680860A025284602F045FD069E9C
:200BE0003460049807602A480760284602F03CFD346003990F60264807600298C00706D140
:200C0000224D2C60059A0A602148026007E02048059A02611D4D1F48286028682860A0247F
:200C2000204602F021FD019E069806600498076017480760204602F017FD069806600398C7
:200C4000076013480760059901611248286028682860204602F008FD069D2E6004980760E0
:200C60000B480760204602F0FFFC0B48006805902E600398076006480760204602F0F4FC8A
:200C80000598C043C00F07B0F0BDC04618804240D0120A4081000E0080130A40F0B585B0EF
:200CA0001C46154604910CAF8ECF814E3560814D2C60814C2170814C2260814C2370814C32
:200CC0002780814C2578062D04D80126AE4061273E4219D17D4F3E78002E0ED1002903D161
:200CE0007B490978C90708D17A490968411A052603967143784EB1420AD30020387006207B
:200D00002070784802F0A6FB02F0D6F905B0F0BD6D1E032DF8D80B9902910A9E6F4909683A
:200D2000471A03994F43C0467D442D796D00AF4401632F5A019603906B49049800F030FFD1
:200D40006A4807780126F107029D284688434121090602F026F9002876D0002F74D1284699
:200D60000027394602F01DF9002800D1FE435F4806705F480568304602F0ACFA06465D495A
:200D800001F0C0FD294601F036FB5E49086064E0039037465449049800F002FF53480021CB
:200DA0004056C4B202F096FA0646514801683D46384601F01BFB314601F0A4FD0646002CCE
:200DC00000D126464B48314601F010FB002C4A4908609BD04749304602F0E3F8002895D0DE
:200DE000052003992BE01046194600F0C5FB3C4887428BD3039883E7354604463F49049829
:200E000000F0CEFE3948067870B202F063FA0146029801F077FDF9087D2943D3002E41D064
:200E20004121090602F0BDF800283BD034480168491D0160962900D268E7032021462A46E1
:200E400001F072FE05B0F0BD002F00D15EE72848056878B202F03EFA06460198294601F014
:200E6000C5FA314601F04EFD0546224E3046294601F0BCFA204F38602846314602F091F852
:200E8000002800D142E7022020700398134908601B48002101603960124802F0DBFA19481F
:200EA000019901E016480021016005B0F0BDC0463C0120204001202058012020280120206F
:200EC0005A0120205001202090012020610120205901202030012020A0BB0D00440120207B
:200EE00030750000BC0020200000DC42640120202001202000002A434C01202000004843A8
:200F00001C01202048012020F0B581B0914C924800250570914805704E20914E7719C1B226
:200F2000204602F07FFA7978204602F07BFAB978204602F077FAF978204602F073FA397940
:200F4000204602F06FFA7979204602F06BFAB979204602F067FAF979204602F063FA397A5C
:200F6000204602F05FFA797A204602F05BFAB97A204602F057FAF97A204602F053FA397B78
:200F8000204602F04FFA797B204602F04BFAB97B204602F047FAF97B204602F043FA397C94
:200FA000204602F03FFA797C204602F03BFAB97C204602F037FAF97C1435204602F032FA1E
:200FC000387D282DAAD100254220664E7719C1B2204602F027FA7978204602F023FAB9783E
:200FE000204602F01FFAF978204602F01BFA3979204602F017FA7979204602F013FAB979FE
:20100000204602F00FFAF979204602F00BFA397A204602F007FA797A204602F003FAB97A19
:20102000204602F0FFF9F97A204602F0FBF9397B204602F0F7F9797B204602F0F3F9B97B39
:20104000204602F0EFF9F97B204602F0EBF9397C204602F0E7F9797C204602F0E3F9B97C55
:20106000204602F0DFF9F97C204602F0DBF9397D204602F0D7F9797D204602F0D3F9B97D71
:201080001735204602F0CEF9F87D2E2D9ED100254D20354E7719C1B2204602F0C3F9797889
:2010A000204602F0BFF9B978204602F0BBF9F978204602F0B7F93979204602F0B3F97979C2
:2010C000204602F0AFF9B979204602F0ABF9F979204602F0A7F9397A204602F0A3F9797ADE
:2010E000204602F09FF9B97A204602F09BF9F97A204602F097F9397B204602F093F9797BFA
:20110000204602F08FF9B97B204602F08BF9F97B204602F087F9397C204602F083F9797C15
:20112000204602F07FF9B97C204602F07BF9F97C204602F077F9397D204602F073F9797D31
:201140001635204602F06EF9B87D2C2DA2D101B0F0BDC046000010405F0120205701202098
:2011600041370000B8360000E7360000F0B58DB008900120C1077E4C7E4A07077E480A9188
:201180001161E060E068E06081262660104640380C9007601760A025284602F065FA77485D
:2011A00000680790266073480446303C27600B940760284602F058FA6D4806600C980760D4
:2011C0006C480760284602F04FFA6C480068069067480660276067480760284602F044FA49
:2011E000634C26600C98076062480760284602F03BFA62480068059026600B9C27605D4809
:201200000760284602F030FA594806600C98076058480760284602F027FA584800680490A7
:20122000534806602760534C2760284602F01CFA4F4806600C9807602760284602F014FA8D
:201240004E48006803904A4806600B9C276049480760284602F008FA454806600C9807607F
:2012600044480760284602F0FFF94448006802903F48066027603F4C2760284602F0F4F9CA
:201280003B4806600C9807602760284602F0ECF93A4800680190364806600B9C2760354884
:2012A0000760284602F0E0F9314806600C98076030480760284602F0D7F930480068009025
:2012C00009962B48066027602A480760284602F0CBF90898002807D025480999C1600A98A1
:2012E00020602449086007E00A982249086120492148C860C868C8600798C00F0699C90F05
:201300008900C00040180599C90F490040180499C90F401880000399C90F49004018029918
:20132000C90F401880000199C90F490040180099C90F40180890A024204602F095F90C4D86
:20134000099E2E600C9807600A480760204602F08BF92E600B98076006490F600A98086157
:201360000548E860E868E8600898C0B20DB0F0BD0C804240D0120A4081000E0080130A401E
:20138000F0B585B00546002830D464D000277D20C00001900A262846314601F05DFF4643C8
:2013A000A91B3026314302AAD1550A2D59D30A2101F052FF314302A8C0194170642D54D39D
:2013C0006421284601F048FF0A2101F045FF3143FC1C02A8C01981702846019E314601F00D
:2013E0003BFFB54227460546D4D23BE061487D21C90001912D2102F015F86D4200240A2750
:201400002846394601F028FF4743E91B3027394302AA11550A2D3AD30A2101F01DFF39435C
:2014200002A800194170642D35D36421284601F013FF0A2101F010FF3943E71C02A800193C
:2014400081702846019C214601F006FFA5423C460546D4D21CE04748302101F0E3FF05B075
:20146000F0BD7C1C002C03D182E0BC1C002C7FD0601E032101F0F0FE481C0027032800D06B
:2014800007463C49009417D125460C4642E0671C002F03D16CE0A71C002F69D0781E032168
:2014A00001F0DAFE481C0025032800D00546009719D13C462F4E45E002A8801E01902646AA
:2014C0000C46019880194178204601F0ABFF012F1FD0B51E0198815D204601F0A3FFBF1E8F
:2014E0002E46EED116E002A8801E0190214E0198C0194178304601F095FF012D21D0BC1E5C
:201500000198C15D304601F08DFFAD1E2746EED118E0751E009803282AD302A82818C61E11
:20152000B178204601F07EFF7178204601F07AFFED1E3178204601F075FFF61E002DEFD175
:2015400016E07C1E0098032812D302A82018C51EA978304601F066FF6978304601F062FFF8
:20156000E41E2978304601F05DFFED1E002CEFD105B0F0BD00001040F0B585B0002921D068
:2015800005465E4901F004FD00281ED15C49284601F0FEFC00281AD15A49284601F0F8FC49
:2015A000002816D10324A107284601F0F1FC002811D100262846314601F0E1FC002873D0B3
:2015C000FF2609E04C48067806E0F62604E0F92602E0FB2600E0FD26029675B2284601F0C2
:2015E00079FE06464C480068314600F004FF07464A4C214601F0DEFC002800D13C46484F9B
:201600002046394601F0BBFC002800D12746424807604449384601F075F904464249304631
:2016200001F070F9214600F0E6FE06460027324CE057281A01F04EFE354901F063F931462C
:2016400000F0D9FE02992170FF21890501F05AF9364901F057F90446354D2846214600F054
:20166000C5FE06462046294600F0C5FE02463148314600F08DFF3048006801F02BFE0546DA
:201680002E48006801F026FE024603AE019604AC00942B4B2748294601F002FAE05FF15FB3
:2016A00000F036FC05B0F0BD7F20C105284601F06FFC002890D11449284601F069FC0028A5
:2016C00014D11249284601F063FC0028264683D10F49284601F05CFC002809D10D4928464F
:2016E00001F056FC002805D0072675E7012673E7052671E70A266FE75E012020000010C127
:201700000000C0C0000080C0000040400000A0400000E04000001041380120200000484334
:20172000000048C39A99193E0000C842EC51383D00002043BC0020203C01202040012020FB
:201740000AD7A33BF0B587B01D46039202910446EFF3108072B64F490F684F490E6800283A
:2017600000D162B600212046019101F011FC0028069500D0494C4A480168791A494A1368A5
:20178000F31A0497076005961660474A10684718176046490868C01800900860444E316850
:2017A000204600F028FE05463060424901F0F9FB002843D0384601F08DFD3F4F394601F030
:2017C000A1F8294601F036FA0446009801F082FD394601F097F8294601F02CFA054637483F
:2017E000017800291DD036480068364901F08AF80646354F2046394601F084F8314600F0F9
:20180000FAFD0446314800682E4901F07BF806462846394601F076F8314600F0ECFD054698
:2018200001E001210170264804602848056001981D4908601D4908601D490860029C002CC0
:2018400004D01F48006801F09DFD2060039C002C069D059E049F04D01C48006801F092FD06
:2018600020600C9C002D08D0384601F033FD124901F048F801F086FD2860002C08D030469A
:2018800001F028FD0C4901F03DF801F07BFD206007B0F0BD680120206C0120200AD7A33B55
:2018A000780120207C0120208001202084012020880120200AD7A33C9C9D0F3F600120207B
:2018C000700120209A99993E3333333F74012020F0B597B000F000FA411E022905D303285D
:2018E0000ED004281DD14A4812E004464A48006800F00EFD00280AD0022C0CD049480BE0A5
:2019000001F0C0FD782001F01FFE424800E0434801F082FC05E0424801F07EFCDC2001F048
:2019200013FE414C2068800216D4404D2878002815D1012677053E4801F096FE206838422A
:201940000DD12E7001F010FE00284FD001F09AFD782001F0F9FD02E0344800210170EFF3EC
:20196000108172B6354A107800241470002900D162B6002823D001F0AFFD314900F0C2FF0A
:20198000054613A8009016A915AA14AB2846FFF7D9FE06AE3046FEF7A5FE1F480068169AF8
:2019A000159B0799377A36880094019402940391049705962946FFF771F901F0EDFB2148CE
:2019C000017801290CD104701348006806AD009521462246234600F07BFE2846FEF770FB99
:2019E0007D20000201F040FE17B0F0BD0A48006800F08EFC002804D0DC2001F0A5FD0E4890
:201A000002E001F059FB0B4801F006FCA7E7C0466A3700001E38000018012020F43700004A
:201A2000E8370000FF37000080330A405601202000E20400CD370000283800005B012020D7
:201A40000AD7A33B63012020F0B587B004460026314601F094FA0546002801D14D4900E026
:201A60004B49204600F04EFF002D4B4F05D02D210446384601F0D6FC204601F0B9FC0A287C
:201A8000029004D23021384601F0CCFC71E007460A253846294601F0DFFB294601F0DCFB9A
:201AA0003024214304A88155642F21D36421384601F0D2FB0A2101F0CFFB214304A8801915
:201AC0004170F8087D2815D37D20C100384601F0C3FB05460A2101F0BFFB2143F41C04A8FC
:201AE000801981702D48874226462F46D0D202E0741C00E0B41C002C274F3AD0601E03212B
:201B000001F0AAFB481C0026032800D00646019402D12546204F16E004A8801E03901E4FDC
:201B2000039800194178384601F07CFC012E09D0A51E0398015D384601F074FCB61E2C4668
:201B4000EED100E0651E0198032812D304A82818C41EA178384601F065FC6178384601F0BB
:201B600061FCED1E2178384601F05CFCE41E002DEFD12E21384601F055FC0A21029801F0E9
:201B80006BFB30200143384601F04CFC07B0F0BD000020C100002041000010401027000067
:201BA000F0B589B01F461446059100260690314601F0EEF90028354651D1002F35464ED05A
:201BC0003B480168204600F011FC2746069C214601F030F803903748056804973846214628
:201BE00000F090FE294600F006FC0746324D294601F0E0F9002800D13D46304F2846394619
:201C000001F0BDF9002800D12F462A4807600021384600F077FE05468120C105049C20461A
:201C200000F070FE294600F0E6FB05462449039800F068FE294600F0DEFB0546214F3946EB
:201C400001F0B8F9002800D12F461F4D3846294601F095F9002800D13D4615480460059CBE
:201C60002046294600F0C7FB07462046294600F0BDFB02461548394600F08AFC14480068B5
:201C800001F028FB07461348006801F023FB024607AC0194354608AE00960C483946069B46
:201CA00000F0FEFE705F615F00F032F909B0F0BD340120202C0120200000A0410000A0C104
:201CC0000AD7A33C00007042000070C2BC0020203C0120204001202070B586B04548017805
:201CE000012932D1EFF3108272B61421C943424B03E06D466D18EC75C91C5C18657D002D69
:201D000026D0657D2E46613EF6B21A2E00D2203D6E4676187575A57D002D1BD0A57D2E46BD
:201D2000613EF6B21A2E00D2203D6E467618B575002911D0E57D002D10D0E47D2546613D96
:201D4000EDB21A2DD5D2203CD3E7002006B070BD153104E0163102E0172100E017316B4679
:201D600000245C54047025480470002A00D162B66D462A786B78AC78E8782D7905290CD1BA
:201D8000522A0AD1552B08D14E2C06D1312804D1352D02D1012006B070BD6E4606290FD118
:201DA000522A0DD1552B0BD14E2C09D1502807D1492D05D17579442D02D1022006B070BD46
:201DC00004255326502801D0284600E00320694072404F2C00D028461143542B03D10029C3
:201DE00004D106B070BD28460029FAD0284606B070BDC04657012020000120205F012020FA
:201E0000F0B5384908463438872202603648022202600A46383A86231360012202608523C8
:201E20000B61140204604B61530203602F4CE01C48604B684B600860086808604B68500692
:201E400003434B600B6803430B6082258D60284BCB604D64274D2E463C3E33606C606E68F3
:201E60006E600E46083E244F3760346834608124AC622F632C6B2C63EF61EC69EC612F62D2
:201E80002C6A2C622F602C682C600C46303C174E26602568256024390E600C680C601749A9
:201EA0000C68950525430D6015490C6AD20614430C620C6814430C6012490A600A6312490A
:201EC0000A68042414430C600A69823B13430B610E490A6A801C02430A620A6802430A607A
:201EE000F0BDC0463C804240D0120A4081000E0082000400C080424081000C00A0130A4064
:201F000028100A40A0320A4090330A4028300A40F0B585B00C467D27FD003C4A9042034606
:201F200000DC1346AB4200DB2B469442039400DC14461922AC4200DB2C46334ED101049132
:201F4000334A1380334A148000280197029512D0DA175340D11A4D19012813DB01223046A2
:201F6000049901F06DFB04984543F900284601F073F9074612E0002701223046394601F014
:201F80005FFB0BE004984543F900284601F064F901460122304601F053FB049F00253046C6
:201FA00039462A4601F04CFB20B2C1174840081A02990F180398184E00280BD010DD049D52
:201FC0006F430198C100384601F046F901460022304602E0304629462A4601F031FB0CE028
:201FE00000223046049C214601F02AFB67430198C100384601F030F905460122304629463D
:2020000001F01EFB05B0F0BD0000094018FCFFFF8C0120208E01202000008640F0B5394A6F
:202020008218394BC0183A4D4C790B79002C22D0466F202B02D00524E70100E0354F2E4007
:20204000002B00D188273E434667846F2C403C438467446B2D4E34404463846B344084634F
:2020600000244465846554688F26F643344054609468344094600C688979202B09D006468E
:202080007036002B15D1641E4460C46E2C40882715E0641E4460C46E2C401E4E3443C46650
:2020A000046F2C40344304671B4D01246707064607E00527FF0164084460C46E2C403C43D8
:2020C000C46634682C403C433460C46A0F4D2C40C462046B2C4004630024C4640465C46F75
:2020E0008F25ED432C40C46714682C401460194302680A4B1340BD220A40D118891C016083
:20210000F0BDC04684180000041800008888FDFF24493E0001040000FFFFFFCF4000FFCFBE
:20212000B0B53A4A80184A6842600A78222A56D8930001A4E3589F46D5210000DF21000080
:20214000D5210000DF210000DF210000DF210000DF210000DF210000DF210000DF21000089
:20216000DF210000DF210000DF210000DF210000DF210000DF210000C5210000DF21000079
:20218000C5210000DF210000DF210000DF210000DF210000DF210000DF210000DF21000059
:2021A000DF210000DF210000DF210000DF210000DF210000DF210000C5210000DF21000039
:2021C000C5210000036803242407A343012464071B1903E0036803242407A34303600B6955
:2021E000C360CB68C46A0A4D25400A4C1C402B19C3620368084C1C400460097A11430268C4
:202200003F239A43194051180160B0BD041800008888FDFF777702007F00FFFFF0B585B080
:202220000393174602910446066900251046294600F0AEFE002861D10120C107304604918B
:2022400088433F21090600F09AFE002856D13046029900F0CBF8054620680290A6692846C7
:20226000314600F0C3F801906168384600F04AFB0146284600F046FB00900298019900F095
:2022800041FB009900F0B7F80090A068394600F0D1FC074630460196314600F0ACF801464A
:2022A0000295284600F0A2F8E16900F0A4F80146384600F027FB009900F09DF801466069B4
:2022C00000F099F80646039D04996940049100F056FE07463046294600F06CFE002800D1ED
:2022E0003546002F049800D1284660610299A1610199E16101F046F8054606E0E168304600
:2023000000F000FB6061A561E561284605B0F0BDF0B581B00446204E31780020062938D85F
:2023200001252A468A4061210A4232D000F0ECFD1A48002707601A4807601A4807701A48A0
:2023400007701A4807601A4807601A4807701A4807801A4807601A4807601A4807701A48E5
:2023600007601A4807601A4804601A4807701A480770042030701948046019480760194803
:202380000760194801F066F80548076000F094FE284601B0F0BDC0469001202020012020EC
:2023A000480120206401202061012020280120202C0120205A0120205001202034012020D6
:2023C000380120205E0120203C0120204001202030012020590120205801202044012020BE
:2023E0001C0120204C012020BC002020FCB40127FF07794002E0FCB40127FF070C024D0045
:202400002D0E03D1002C52D1FCBC70473C43FF2D50D0A408002900D56442020243001B0E64
:2024200004D1002A43D10800FCBC70473A43FF2B41D09208002800D552425E1B04D51700C6
:2024400022003C0076422B00192E06D527003741D2191C27F71B7F42BC40002A27D002D585
:202460005242012700E00027013B5200FCD51500802635400FD01500202635402C4380323A
:2024800008D21500402635402C4304D101263602B24300E05B1C5200023308DDFF2B0BD210
:2024A000500ADB051843FF073843FCBC70470020FCBC70470800C70FFF07FF20C0053843C5
:2024C000FCBC704780B582B01A4900220A701A490A601A490A601A490A601A490A601A4990
:2024E0000A601A490A701A490A601A490A701A490A601A490A601A490A701A490A801A4924
:202500000A601A490A601A490A701A490A601A490A601A4908701A4908701A4800920190D2
:202520001948FF218905194B00F044FC00F0C4FD02B080BD90012020300120204401202091
:2025400020012020480120204C012020640120201C01202061012020280120202C0120208A
:202560005A0120205001202034012020380120205E0120203C01202040012020580120200B
:202580005901202000007A44BC0020200AD7233CF0B583B0002846D00E460446174623492A
:2025A0003046019100F0EBFC0290214D3046294600F000FD0028284600D1304602990029C9
:2025C0001A4900D1014602913846184900F0D7FC06463846294600F0EDFC002800D13D46BD
:2025E000002E00D10195E66821690298FFF7FEFE01466769304600F085F93946FFF7FBFE79
:202600006061E66A216B019D2846FFF7EFFE0146676B304600F076F93946FFF7ECFE029946
:2026200021612563606303B0F0BDC046000048C300004843002A49D084468B071CD18307BB
:2026400022D1102A08D370B4103A78C978C0103AFBD270BC103238D0042A2CD3082A05D3C7
:202660000C2A01D308C908C008C908C008C908C092072AD0920F22E00B780370491C401C98
:20268000521E22D08B07F7D1C30714D18307D8D0121F12D308C903801B0C4380001D121FFB
:2026A000F8D20AE008C903701B0A43701B0A83701B0AC370001D121FF4D2121D05D00B783F
:2026C0000370491C401C521EF9D160467047FEE770B5049C002C2DD0174D2D782570174D5A
:2026E0002D68401B0525454315480068154E36686560A16021460C3145C123761248007897
:20270000607600F041FF11490968E061216210480078242160540F480088E0840E4800685A
:202720000E490968A062E16200F092FF208600F095FF608670BDC046900120203001202086
:20274000480120204C01202059012020280120205A012020500120203C0120204001202036
:2027600070B582B01B491C4C204600F029FF1B492046FFF753FC1A4801681A4A0A400260CE
:2027800000250095204629462A462B4600F026FF204629462A4600F005FF204629462A4636
:2027A00000F04EFF01260096204629462A462B4600F014FF20462946324600F0F3FE2046D2
:2027C0002946324600F03CFF074886600321016002B070BD84380000000009403C380000D5
:2027E000041809407F00FFFF0011094070B582B01B491C4C204600F0E3FE1B492046FFF783
:202800000DFC1A4801681A4A0A40026000250095204629462A462B4600F0E0FE20462946C1
:202820002A4600F0BFFE204629462A4600F008FF01260096204629462A462B4600F0CEFE10
:2028400020462946324600F0ADFE20462946324600F0F6FE074886600321016002B070BDC6
:20286000873800000000864044380000041886407F00FFFF0011864040B542004B005E0839
:20288000164301D006004E4000D4D01A04D20120C90F06D1404204E003D90120C90F00D00B
:2028A0004042FF263606B24200D8B34200D9012040BD40B542004B005E08164301D0060065
:2028C0004E4000D4D01A04D20120C90F06D1404204E003D90120C90F00D04042FF26360618
:2028E000B24200D8B34201D90120404240BD42004B000020FF2109068A4200D88B4200D977
:2029000001207047FCB40127FF0706004E4001D4002600E03E00020243001B0E30D03A4367
:20292000FF2B30D00C024D002D0E29D03C43FF2D29D05B194240504042404C4061404C4079
:2029400000B500F0E5FC20BCAE464240504042404C4061404C4025001400002C01D4640036
:20296000013B803401D3013364087E3B08DDFF2B09D2BC43200ADB0518433043FCBC70470A
:202980000020FCBC7047FF20C0053043FCBC704710B51B491B4C204600F037FE1A492046FE
:2029A00000F0D6FB194801680322D203914301600169174A0A4011320261416917220A4372
:2029C00028218A434261426801210A4043688B439A1842600F4A13688C021C4314600268BC
:2029E0004B0413430360C26870231343C360C2680A4306239A43C26002680A43026010BD14
:202A00008A370000000010400A380000001110400000FFFF2810104010B51B491B4C204686
:202A200000F0F3FD1A49204600F092FB194801680322D203914301600169174A0A4011321F
:202A40000261416917220A4328218A434261426801210A4043688B439A1842600F4A136873
:202A60008C021C43146002684B0413430360C26870231343C360C2680A4306239A43C260AE
:202A800002680A43026010BD3A3800000020104014380000003110400000FFFF28301040FB
:202AA000F0B585B000283BD00A9D002D38D004460B98002834D01F460490029103920021D2
:202AC0001846019100F076FA666C002805D038463146FFF790FC064660642746483711490A
:202AE000304600F04CFA002803D038882880B91C13E001986064236C204602993246FFF7A4
:202B00008DFB3880236C2034204603993246FFF785FBB91C788038882880049A08881080AF
:202B200005B0F0BD0AD7A33CF0B581B0144605461548057015480160154800270760154E1A
:202B40003760154800F086FC05202840012810D1134804601348C0570028134D294600DA76
:202B600012492046FFF747FC0C490860356001B0F0BD0A480460022D03D0042D01D000F001
:202B80009BFA01B0F0BDC04690012020440120201C0120204C012020BC0020204801202077
:202BA000200120206401202000002A4300002AC3F0B583B01A48002101801A4801600120F5
:202BC000C207194C2261194B19491960196819601E460C3E8121316001912546403D0707A2
:202BE0002F602760196020463038029202602260A024204600F038FD019830602F600A4DA2
:202C00002F60204600F030FD0298286108480749086008680860204600F026FD03B0F0BDC6
:202C20005201202024012020D0120A401880424081000E00FCB40127FF0706004E40F60F50
:202C4000F607020243001B0E2DD03A43FF2B2DD00C024D002D0E26D03C43FF2D26D05B1BC3
:202C60000020202164085208A2424041A24200D3121B013904D0002A01D05200F4D18840FC
:202C8000384201D14000013B803001D3013300E040007F3307DDFF2B08D2400ADB05184375
:202CA0003043FCBC70470020FCBC7047FF20C0053043FCBC70477047F0B50020C0431849FD
:202CC000184B0127FA067E06103B1D6815400B46103B1B68002D09D0134C246834420446F0
:202CE00000D03C46114F396861183960B71C334208D00F490968C90200D501200D490C68FB
:202D0000001908603B40002D03D00649086810430860002B03D00249086818430860F0BD14
:202D200048300A4048100A4080130A406801202080330A406C012020F8B5451C0078002356
:202D4000082B32D02F78C2070CD16A780F241440E41C122C0BD102242E57F4B2002E08D413
:202D6000EE1C0EE06D1C4A1C0F7011461AE0AE1C08E02E1DED7800957F252C40009DED010A
:202D80002C1912343D0112095219094DAA420ED0D243002C05D08D5C4F1C0D70641E3946DC
:202DA000F7E7354640085B1CCAE72846C5E7F8BDFF0F0000F0B585B0002830D0044602A877
:202DC0000EC00B9F00253846294600F0D8F80190144E3846314600F0EDF8002800D13E466F
:202DE0000A98019900292946049A00D131462164029B236003996160A260E06025612362CA
:202E00006162A262E06225632946FFF77BFD6061A561E5616063A563E5636564A56405B09D
:202E2000F0BDC04600007A44F0B581B010481149416011484160114B5960114C6160114D6D
:202E40006960114E7160114F7960114841601149074A1160084A1160196021602960316053
:202E600039600160102000F0FFFB01B0F0BDC04600080A40030000B100280A400008094011
:202E8000000886400008874000280F40000810400028104001000026F0B5164A1068C0B238
:202EA0000B2825D1144801218B029362026852071ED4124A124B134C06E01D7800266655C0
:202EC000117005686D0713D4C5691678002EF8D1EEB20D2EF5D00A2EEFD01E78162E04D8A9
:202EE0001E78771C1F70A555EBE700251D70E8E7F0BDC04620101040081110405701202099
:202F00005F01202000012020EFF3108072B60D4A002111600C4A11600C4A11600C4A1160F8
:202F20000C4A11600C4A11600C4A11600C4A11600C4A11600C4A1170002800D0704762B610
:202F40007047C046680120206C012020780120207C01202080012020840120208801202099
:202F600070012020740120206001202010B5FFF783FC002801D0002010BD012010BD10B577
:202F8000FFF77AFC002801DB002010BD012010BD10B5FFF771FC002801DD002010BD0120AA
:202FA00010BD10B5FFF785FC002801DA002010BD012010BD10B5FFF77CFC002801DC0020D2
:202FC00010BD012010BD000080B51149114800F097FA11480168032252020A430260026879
:202FE00001210B02134303600022426107224262836B93438363836B120293438363826A03
:20300000042313438362826A0A43826280BDC0468D38000000200F4000320F400E4800687B
:20302000C0B2012816D10D480168491C01600C480178FF2902D00178491C017009480178AA
:20304000491CCAB20170142A04D3002101700648012101707047C046201087401801202089
:203060005B012020620120206301202080B500F0A5F900F047F8FFF79BFD00F055FA00208E
:20308000FFF720FAFDF740FF084800F0C5F801204105074A1160074B1960400310601860D1
:2030A0000220106018601060186080BD1437000080E200E000E100E070B50E480024048070
:2030C0000D4804800D4E0125304621462A4600F0B7FA30462146224600F0B2FA084E3046FB
:2030E0002146224600F0ACFA304621462A4600F0A7FA70BD8C0120208E012020000009407B
:203100000000864070B50E48002404800D4804800D4E0125304621462A4600F091FA30462E
:203120002146224600F08CFA084E30462146224600F086FA304621462A4600F081FA70BD5A
:203140008C0120208E012020000009400000864070B511221302C218C4580125AC43C45038
:203160000C888D7825438C882C43C558084E2E40084D25407419C4508879CB790343087A82
:20318000184351687E23994318400818506070BDE798FDFF1867000010B50C480188002984
:2031A0000ED00B4A13785C1C1470DA0703D00122D206084B1A61491E0180080400D010BD47
:2031C0000120C0060349086010BDC046540120205C012020A0320A400D48002101600D4807
:2031E000011F0A680323DB4313400B6041680122914341604168120291434160016830220D
:203200009143016001680F22914301607047C04608030B4004010B4070B50178002917D099
:203220000C4CC51CAE1EC9B2204600F0FBF8317800290DD06E1E204600F0F4F83178002976
:2032400006D0204600F0EEF82978ED1C0029E9D170BDC046000010401CB50A0017D0002367
:203260000124E407A04200D20400944201D95200FBE790425B41904200D3801A914201D24F
:203280005208F6E719000200080011001CBD01000020FFF710FD1CBD70B50A480A4C84425A
:2032A0000CD00A4D0A4EB54208D02A686968501C12789200A25890470835F4E700BF00BF62
:2032C00070BDC046A438000098380000B4380000C438000006B49E22002802D404D106BC18
:2032E0007047414204D400E00100013A4900FCD5803101D3013200E04900490AD205114327
:20330000002802D50122D2071143080006BC7047FCB4020C0B0CFF242402FF3420402140CB
:203320000C00444315005D4306005E430F005743320C3B0CA818C01832043B040025A11885
:203340006841C9186841FCBC7047000010B50849084C204600F034F907492046FEF7E0FE55
:20336000064801680122114301600548026010BD8138000000008740A837000028108740E4
:203380000811874006B54100090E7F390DD41F22511A0CD9864600020122D2071043C840EB
:2033A0007246002A00D5404206BD002006BD02000120C007002A00D4401E06BD80B5FFF7FA
:2033C00033FDFEF71DFDFFF707FFFFF7C9F9FFF70DFAFFF7BBFFFFF7F7FDFFF7D9FAFFF7A4
:2033E0001BFB0248B8210022425480BD0000202006B5002803D57346FFF7C4FF06BD41002E
:20340000090E7F3908D31F22511A07D300020122D2071043C84006BD002006BD0020401EFF
:2034200006BD00000A4A80180268120605D50268120602D502681206F6D481610168C907C1
:2034400005D00168C90702D00168C907F6D1704708110000B0B5002812D0C168026904466F
:203460001046FFF74FFA00256061A561E561E16A206BFFF747FA6063A563E5636564A56493
:20348000B0BD000080B508480078062807D8012181406120014202D0FFF70EFE80BD0348B2
:2034A0000121017080BDC0469001202061012020084880F3088800BF00BF00F0FAF80028E8
:2034C00001D0FFF7E9FE002000F0A8F8012000F0E9F8C0460080202002B49E21002805D460
:2034E00001D102BC704701394000FCD5803001D3013100E04000400AC905084302BC70478C
:2035000070B50122120383180C785D680C26B54334402C195C60497883580724A3432140BD
:203520005918815070BD0000044800210180044801700120C006034908607047540120208A
:203540005C012020A0320A4080B5001D0521FFF783FE0349088003480021017080BDC046CF
:20356000540120205C012020064802780121062A0B4600D800237F2002401E20D040184329
:20358000084070479001202003480078002801D103487047014870475D012020DC370000EB
:2035A0004C38000010B592008018044A83580724A404A34321405918815010BD30180000FE
:2035C00010B50122120383180C789C604B7883508978014A815010BD0C11000010B5029CD3
:2035E000A400001911431943014A815010BDC0465018000003228058002805D0401E4A1C49
:2036000000230B701146F7E7704710B50122120383180C789C604978815010BDFFF726FD90
:20362000FEF756F9FEF754F9FEF752F9F8E780B50B4603214258C11D184600F02FF880BD11
:2036400092008018014A81507047C0461018000000200149085E70478C0120200020014981
:20366000085E70478E012020811E091F00BFFCD2704780B5FFF720FB80BD80B5FFF70CFC9D
:2036800080BD80B5FFF7F5FF80BD80B5FFF7C6FC80BD80B5FFF7F1FF80BD000080B5FEF7E5
:1836A000C9FF80BD00F001F8FEE700BF7047FFE6704701207047000055
:2036B8004232312F52554E5049442F52554E31353A2067726179206C696E65203330733BBC
:2036D8002053544F502061626F7274730D0A004D5055363035302064697361626C65643B5A
:2036F80020656E636F64657220737065656420504944206163746976650D0A004D505536A9
:203718003035303D44495341424C45443B20423231207374617274732067726179206C69FE
:203738006E65203330730D0A004E43484431322067726179206C696E652064656D6F20553C
:20375800415254312031313532303020384E310D0A00436F6D6D616E64733A2052554E5031
:2037780049442C2052554E31352C2053544F500D0A0008007338000062380000313800009E
:20379800623800005B3800006E3800006838000002000000FF70020001000000000000002A
:2037B800000000003031323334353637383941424344454600455252204232312062757337
:2037D800790D0A004D5055363035302D455252004F4B2052554E5049440D0A0045525220C2
:2037F800627573790D0A004F4B2052554E31350D0A0000001800000000300000000018004B
:203818000000003000004F4B2053544F500D0A004F4B204232310D0A0053545241494748C1
:2038380054000800800C000020000100800C0000200101004D50553630353000284C4F53E6
:203858005429004C494E4533300043555256450041424F525400444F4E450049444C450007
:20387800284F4B2900455252000800000800000800004F4B0008003F000000000000000063
:20389800392D00002F360000F53500000200000065010000000100000F16FFF0A4380000C2
:1038B80000002020AC380000680120200000000033
:00000001FF
