:2000000000802020433B0000772C0000772C0000000000000000000000000000000000005C
:20002000000000000000000000000000772C00000000000000000000772C0000772C0000D7
:20004000772C0000173B0000772C0000772C0000772C0000772C0000772C0000772C0000D9
:2000600000000000772C0000772C00000000000000000000772C0000772C0000273B000092
:20008000772C0000772C0000772C0000772C0000772C00001F3B00000000000000000000D7
:2000A000772C0000772C00000000000000000000772C000000000000772C0000772C000011
:2000C000F0B58FB0002800D1BEE30446B84F6D21384603F0F1FB7321384603F0EDFB3D211B
:2000E000384603F0E9FB6568002D0B942DD000270A262846314603F0F9FA4643A91B302650
:2001000031430CAAD1550A2D24D30A2103F0EEFA31430CA8C0194170642D1DD36421284635
:2001200003F0E4FA0A2103F0E1FA3143FE1C0CA8C01981707D20C100284603F0D7FAE90868
:200140007D2937460546D3D207E03021384603F0B3FB41E07E1C00E0BE1C002E944F3BD0A4
:20016000701E032103F0C2FA481C0027032800D00746099602D135468D4C16E00CA8801E3D
:200180000A908B4C0A9880194178204603F094FB012F09D0B51E0A98815D204603F08CFBD6
:2001A000BF1E2E46EED100E0751E09980328274612D30CA82818C61EB178384603F07CFBB5
:2001C0007178384603F078FBED1E3178384603F073FBF61E002DEFD12021384603F06CFBA5
:2001E0007321384603F068FB74253846294603F063FB6121384603F05FFB3846294603F093
:200200005BFB6521384603F057FB3D21384603F053FB0B9E3078062803D880006549095839
:2002200000E065490878002816D0CD1CAC1EC1B2384603F041FB217800290DD06C1E384628
:2002400003F03AFB2178002906D0384603F034FB2878ED1C0028E9D12021384603F02CFBDA
:200260006721384603F028FB7921384603F024FB7221384603F020FB6F21384603F01CFB01
:200280003D21384603F018FB707E002804D0307E00280FD149490EE04F21384603F00CFB74
:2002A00046253846294603F007FB3846294603F003FB1AE042490878002816D0CD1CAC1E4D
:2002C000C1B2384603F0F8FA217800290DD06C1E384603F0F1FA2178002906D0384603F0BA
:2002E000EBFA2878ED1C0028E9D13046243007902021384603F0E0FA6221384603F0DCFAD7
:200300006121384603F0D8FA6321384603F0D4FA6B21384603F0D0FA6521384603F0CCFAD1
:200320006E21384603F0C8FA6421384603F0C4FA3D21384603F0C0FAF1690878002816D0D6
:20034000CD1CAC1EC1B2384603F0B6FA217800290DD06C1E384603F0AFFA2178002906D07B
:20036000384603F0A9FA2878ED1C0028E9D12021384603F0A1FA6C21384603F09DFA692172
:20038000384603F099FA6E21384603F095FA6521384603F091FA3D21384603F08DFA306A58
:2003A00001F0A4FD0798007800280DD105490CE0008010402C3C00002F3D00001D3D000056
:2003C0002A3D0000F43C000060490878002816D0CD1CAC1EC1B2384603F06EFA217800298E
:2003E0000DD06C1E384603F067FA2178002906D0384603F061FA2878ED1C0028E9D1202194
:200400000991384603F058FA67210891384603F053FA72210691384603F04EFA61274C48A1
:20042000394603F049FA79254948294603F044FA3D210A91464803F03FFA30214448049113
:2004400003F03AFA7821424803F036FA0B98C48C200B404E315C3E4803F02EFA2005000F21
:20046000315C3B4803F028FA2006000F315C384803F022FA0F2005900440315D344803F001
:200480001BFA3348099903F017FA3148089903F013FA2F48069903F00FFA2D4839462C4F8B
:2004A00003F00AFA3846294603F006FA5F21384603F002FA6221384603F0FEF97521384679
:2004C00003F0FAF97321384603F0F6F938460A9903F0F2F9079C2079002805D04F2138461C
:2004E00003F0EAF94B2138E04E21384603F0E4F94121384603F0E0F94321384603F0DCF98F
:200500004B21384603F0D8F96679002E24D0012009900A273046394603F0E8F805463946AF
:2005200003F0E4F80A916F43F01B049D28430CAC20706421304603F0D9F8A1780A2E00D35D
:2005400084E16278099C25468BE1C046183D0000008010405C3C00003021384603F0ACF9B6
:2005600020210991384603F0A7F967210391384603F0A2F9722638463146069603F09CF9B6
:20058000612438462146009403F096F9792538462946019503F090F95F210891384603F0B4
:2005A0008BF93846214603F087F9642438462146049403F081F93846214603F07DF9384621
:2005C000314603F079F93D210A91384603F074F93021384603F070F97821384603F06CF9CE
:2005E000079884792009C04E315C384603F064F905982040315C384603F05EF93846099C58
:20060000214603F059F93846294603F055F93846009D294603F050F977210791384603F099
:200620004BF938460A9903F047F90B98806801F05DFC3846214603F03FF9742438462146C0
:20064000029403F039F93846294603F035F93846069903F031F93846039903F02DF96521DE
:200660000591384603F028F93846214603F024F93846089903F020F93846019C214603F0BD
:200680001BF93846294603F017F93846079E314603F012F938460A9903F00EF90B98C068D8
:2006A00001F024FC3846099903F006F93846214603F002F93846294603F0FEF83846314679
:2006C00003F0FAF83846089903F0F6F83846069C214603F0F1F83846294603F0EDF838468F
:2006E000029E314603F0E8F83846059D294603F0E3F838460A9903F0DFF80B98006901F0CB
:20070000F5FB3846099903F0D7F83846314603F0D3F87521384603F0CFF83846214603F0AE
:20072000CBF86E21384603F0C7F83846089903F0C3F83846294603F0BFF83846214603F0FB
:20074000BBF83846214603F0B7F838460A9903F0B3F80B9C606901F0C9FB3846099903F068
:20076000ABF87321384603F0A7F870263846314603F0A2F83846294603F09EF838462946B7
:2007800003F09AF83846049903F096F838460A9903F092F8E06A01F071F82F210491384693
:2007A00003F08AF8206B01F069F83846099903F083F83846314603F07FF83846079903F0E9
:2007C0007BF86D253846294603F076F83846089903F072F83846314603F06EF83846059EDB
:2007E000314603F069F83846069903F065F83846294603F061F86921384603F05DF86C25A7
:200800003846294603F058F83846294603F054F83846314603F050F838460A9903F04CF8F4
:200820003420205E01F02AF83846049903F044F83620205E01F022F80D21384603F03CF8D7
:200840000A21384603F038F80FB0F0BD099C0A9A2A43642E01D2022503E028430325002484
:2008600001460CA842708170681E032102F03EFF481C0027032800D00746099402D12E464A
:20088000184C16E00CA8801E0A90164C0A9840194178204603F010F8012F09D0AE1E0A9824
:2008A000415D204603F008F8BF1E3546EED100E06E1E09980028274600D051E60CA8301885
:2008C000C51EA978384602F0F7FF6978384602F0F3FFF61E2978384602F0EEFFED1E002E20
:2008E000EFD13DE6008010405C3C0000F0B58BB0002800D12AE1E0490978002900D127E11D
:2009000007900120C707E04DE04906900407E0480F612860286828600C3D81262E60084656
:200920004038099004600C60A0200A9003F0E6F8D5480660D548014630390F6008970760E6
:200940000A980F4603F0DAF80A952E603C600594CE480460CF48007800F0ECFA002800D1A1
:2009600002E104973546089E0024204600F0E2FA002800D123E13446C4490E61C24AC44E71
:2009800016601068106016460A980560059F099807600F60A020039003F0B0F83560049E56
:2009A0003460BA490C6003980C4603F0A7F80A98056037602760B74800780699084300F03F
:2009C000B9FA002800D131E1AC48042103910170069800F03FFD0290002000F03BFD019006
:2009E000A94805602146089C049804600C602E46A025284603F082F80A9806600998076006
:200A0000A2480760284603F079F8A0480461A0489D49086008680860284603F06FF80198F7
:200A20000007020D029817189648036800D184E093480780012039460A90014002263E40D6
:200A40007806C40F20460B304D1CD20A002A00D00BE1204600D10AE1002900D00B3803997F
:200A60003940002E01D00B38801C019608223A402E46002901D00B38001D10253D400995C6
:200A8000002A089303910594029201D00B38801D20223A409106CC17802139400A9B1B020D
:200AA000099D002D049601D00B3808300A9D6D023B4000190029019E00D0C01C0A9CA40213
:200AC0003D40002B00D0401D3C40002D00D0C01D76080196039EB6080396029EF6080296A8
:200AE000099E36095209C90909911B0A0A936B0AA50A002C00D00930049C019964180399DC
:200B0000641802996418A419A218059C1219099951180A9A8918C9184D1902F025FE064607
:200B2000284602F023FF0146304602F0CDFA002D089B00D00346534803600798069C791EFE
:200B40003A468A4107804360027262E000246AE04A4A012111704A4A12884A4B1B680280FD
:200B60004360002404815AE0444906980870464806603446089E3E6044480660A025284675
:200B800002F0BCFF0A980460059F099807603F480760284602F0B2FF3C4806613C483A4905
:200BA000086008680860284602F0A8FF3448018834480268079801804260002428E02F499D
:200BC00002200870304F3D60049806602F4806600694A024204602F091FF0A980560059896
:200BE0000999086029490860204602F087FF274806612748386038683860204602F07EFF49
:200C00001F4801881F480268079801804260069C04721A4909780A1F53425341437281725B
:200C20001C490978C17220460BB0F0BD13490320087015482E460560089D04980560256075
:200C4000A024204602F05AFF0A980660099807600E4E3760204602F051FF35610C480A4937
:200C600008600868086020469EE700D0F4E60D46002900D0F2E6F2E663012020640120205A
:200C80005E0120202C01202018804240D0120A4081000E0076012020F0B587B005931546ED
:200CA00001910490109C0F9E0E9F14980690139A12991198864B1D60864B059D1D60864BB6
:200CC00005971F70854B02961E60854B03941C70844B1880844801708448027084480699C3
:200CE0000170844C2578062D04D80120A840612108421AD1804A107800280FD10598002828
:200D000003D17E480078C00708D17D4800680499081A052670437B4988420AD3002010704C
:200D2000062020707A4802F0DFFD02F00FFC07B0F0BD691E0329F8D80D9D0C9A7248006817
:200D4000049B1F1A7743C0467944097949008F4401642E5B06926F4901AB0DCB01F072F982
:200D60006D4807780126F107284688434121090602F061FB002878D0002F76D100272846AD
:200D8000394602F058FB002800D1FE436248067062480568304602F0E7FC0646604902F0EC
:200DA0003DF8294601F007FE6149086066E0594901981746029A039B01F044F95648002182
:200DC0004056C4B202F0D0FC0646544801683D46384601F0EBFD314602F020F80646002C25
:200DE00000D126464E48314601F0E0FD002C4D4908609CD04A49304602F01DFB002896D0A4
:200E0000052004992A462CE001AA07CA00F02CFC3E4887428BD3267084E70692424901AB83
:200E20000DCB01F00FF93C48067870B202F09CFC0146284601F0F2FFF9087D2943D3002EB1
:200E400041D04121090602F0F6FA00283BD037480168491D0160962900D268E703200499AC
:200E6000069A02F0EDF807B0F0BD002F00D15EE72A48056878B202F077FC0646069829468B
:200E800001F094FD314601F0C9FF0546244E3046294601F08BFD234F38602846314602F0A4
:200EA000CAFA002800D142E7022020700498164908601E48002101603960154802F014FD56
:200EC0001B48069901E019480021016007B0F0BD480120204C0120206901202030012020B7
:200EE0006B0120205C012020660120206701202068012020A0012020720120206A01202072
:200F000038012020A0BB0D005001202030750000BC0020200000DC42750120202801202081
:200F200000002A4358012020000048432401202054012020F0B587B002900120C107A04EE1
:200F4000A04A0707812535601446303C059121601160A020069002F0D1FD0C3E3560994939
:200F600008464038049007600F60069802F0C6FD0599069635602760924807600298402855
:200F80000195039405D28E48056021608D48016006E08C4801618A498B4808600868086059
:200FA000A025284602F0AAFD069E019C34600498076084480760284602F0A0FD3460039A2C
:200FC0001760804807600298800606D47C480460059911607B48016007E07A48059901616D
:200FE00077497948086008680860A025284602F085FD069E346004980760724807602846BF
:2010000002F07CFD3460039A17606E4807600298C00606D46A48046005991160694801602F
:2010200007E068480599016165496748086008680860A025284602F061FD069E3460049825
:20104000076060480760284602F058FD3460039A17605C4807600298000706D45848046033
:20106000059911605748016007E056480599016153495548086008680860A025284602F03E
:201080003DFD069E3460049807604E480760284602F034FD3460039A17604A480760029812
:2010A000400706D446480460059911604548016007E04448059901614149434808600868C0
:2010C0000860A025284602F019FD069E3460049807603C480760284602F010FD3460039AA9
:2010E0001760384807600298800706D434480460059911603348016007E03248059901616B
:201100002F493148086008680860A025284602F0F5FC069E3460049807602A480760284606
:2011200002F0ECFC346003990F60264807600298C00706D1224D2C60059A0A60214802605A
:2011400007E02048059A02611D4D1F48286028682860A024204602F0D1FC019E0698066041
:201160000498076017480760204602F0C7FC06980660039807601348076005990161124869
:20118000286028682860204602F0B8FC069D2E60049807600B480760204602F0AFFC0B485F
:2011A000006805902E600398076006480760204602F0A4FC0598C043C00F07B0F0BDC0461C
:2011C00018804240D0120A4081000E0080130A40F0B581B0994C9A480025057099480570D0
:2011E0004E20994E7719C1B2204602F065FB7978204602F061FBB978204602F05DFBF978E8
:20120000204602F059FB3979204602F055FB7979204602F051FBB979204602F04DFBF979EE
:20122000204602F049FB397A204602F045FB797A204602F041FBB97A204602F03DFBF97A0A
:20124000204602F039FB397B204602F035FB797B204602F031FBB97B204602F02DFBF97B26
:20126000204602F029FB397C204602F025FB797C204602F021FBB97C204602F01DFBF97C42
:20128000204602F019FB397D204602F015FB797D204602F011FBB97D204602F00DFBF97D5E
:2012A0001835204602F008FB387E302D9AD100254220664E7719C1B2204602F0FDFA79788A
:2012C000204602F0F9FAB978204602F0F5FAF978204602F0F1FA3979204602F0EDFA7979B4
:2012E000204602F0E9FAB979204602F0E5FAF979204602F0E1FA397A204602F0DDFA797AD0
:20130000204602F0D9FAB97A204602F0D5FAF97A204602F0D1FA397B204602F0CDFA797BEB
:20132000204602F0C9FAB97B204602F0C5FAF97B204602F0C1FA397C204602F0BDFA797C07
:20134000204602F0B9FAB97C204602F0B5FAF97C204602F0B1FA397D204602F0ADFA797D23
:20136000204602F0A9FAB97D1735204602F0A4FAF87D2E2D9ED100254D20354E7719C1B2A3
:20138000204602F099FA7978204602F095FAB978204602F091FAF978204602F08DFA397974
:2013A000204602F089FA7979204602F085FAB979204602F081FAF979204602F07DFA397A90
:2013C000204602F079FA797A204602F075FAB97A204602F071FAF97A204602F06DFA397BAC
:2013E000204602F069FA797B204602F065FAB97B204602F061FAF97B204602F05DFA397CC8
:20140000204602F059FA797C204602F055FAB97C204602F051FAF97C204602F04DFA397DE3
:20142000204602F049FA797D1635204602F044FAB87D2C2DA2D101B0F0BDC0460080104005
:201440007001202065012020503B0000813B0000B03B0000F0B58DB008900120C1077E4CD6
:201460007E4A07077E480A911161E060E068E06081262660104640380C9007601760A025C1
:20148000284602F03BFB774800680790266073480446303C27600B940760284602F02EFBEB
:2014A0006D4806600C9807606C480760284602F025FB6C480068069067480660276067486E
:2014C0000760284602F01AFB634C26600C98076062480760284602F011FB624800680590CC
:2014E00026600B9C27605D480760284602F006FB594806600C98076058480760284602F052
:20150000FDFA584800680490534806602760534C2760284602F0F2FA4F4806600C98076036
:201520002760284602F0EAFA4E48006803904A4806600B9C276049480760284602F0DEFAF9
:20154000454806600C98076044480760284602F0D5FA4448006802903F48066027603F4CE6
:201560002760284602F0CAFA3B4806600C9807602760284602F0C2FA3A4800680190364830
:2015800006600B9C276035480760284602F0B6FA314806600C98076030480760284602F09A
:2015A000ADFA30480068009009962B48066027602A480760284602F0A1FA0898002807D0A2
:2015C00025480999C1600A9820602449086007E00A982249086120492148C860C868C86035
:2015E0000798C00F0699C90F8900C00040180599C90F490040180499C90F40188000039965
:20160000C90F490040180299C90F401880000199C90F490040180099C90F40180890A024CE
:20162000204602F06BFA0C4D099E2E600C9807600A480760204602F061FA2E600B98076050
:2016400006490F600A9808610548E860E868E8600898C0B20DB0F0BD0C804240D0120A40DE
:2016600081000E0080130A40F0B589B00690002A23D00D466E49284601F0D4FE00281FD11A
:201680006C49284601F0CEFE00281BD16A49284601F0C8FE002817D10324A107284601F040
:2016A000C1FE002812D100262846314601F0B1FE002800D190E0FF2609E05C48067806E036
:2016C000F62604E0F92602E0FB2600E0FD2670B2039002F049F801465C4F3868049101F0E5
:2016E0006AF905465A4C214601F0AEFE002800D12C46584D2046294601F08BFE002800D13A
:2017000025463D600021494805914756067052480468524E2046314601F07BFE002810D071
:201720004F49069801F07AFB214601F044F90446314601F089FE002800D1264646480660E6
:2017400000E026460398C01B02F00EF807464549284601F063FB04464349049801F05EFB7B
:20176000214601F028F904463649384601F056FB214601F020F9FF21890501F04FFB3B4989
:2017800001F04CFB04463046214601F00FF905462046314601F00FF90246354C2046294632
:2017A00001F0CAF93348006801F0DEFF05463248006801F0D9FF024607AE019608AF0097EC
:2017C00020462946069B01F0F7FB0599785E715E00F068FD09B0F0BD7F20C105284601F0EE
:2017E00021FE002800D072E71449284601F01AFE002815D11249284601F014FE0028264637
:2018000000D064E70F49284601F00CFE002809D10D49284601F006FE002805D0072656E7CA
:20182000012654E7052652E70A2650E76F012020000010C10000C0C0000080C000004040BA
:201840000000A0400000E040000010414401202000004843000048C3400120200000204338
:201860000000C8439A99193E0000C842EC51383DBC002020480120204C012020F0B585B02B
:201880000546002830D464D000277D20C00001900A262846314601F029FF4643A91B3026B7
:2018A000314302AAD1550A2D59D30A2101F01EFF314302A8C0194170642D54D364212846F3
:2018C00001F014FF0A2101F011FF3143FC1C02A8C01981702846019E314601F007FFB54266
:2018E00027460546D4D23BE061487D21C90001912D2101F0E1FF6D4200240A2728463946BD
:2019000001F0F4FE4743E91B3027394302AA11550A2D3AD30A2101F0E9FE394302A80019EB
:201920004170642D35D36421284601F0DFFE0A2101F0DCFE3943E71C02A800198170284605
:20194000019C214601F0D2FEA5423C460546D4D21CE04748302101F0AFFF05B0F0BD7C1CF3
:20196000002C03D182E0BC1C002C7FD0601E032101F0BCFE481C0027032800D007463C490D
:20198000009417D125460C4642E0671C002F03D16CE0A71C002F69D0781E032101F0A6FEA0
:2019A000481C0025032800D00546009719D13C462F4E45E002A8801E019026460C46019883
:2019C00080194178204601F077FF012F1FD0B51E0198815D204601F06FFFBF1E2E46EED1AA
:2019E00016E002A8801E0190214E0198C0194178304601F061FF012D21D0BC1E0198C15D07
:201A0000304601F059FFAD1E2746EED118E0751E009803282AD302A82818C61EB178204668
:201A200001F04AFF7178204601F046FFED1E3178204601F041FFF61E002DEFD116E07C1E0B
:201A40000098032812D302A82018C51EA978304601F032FF6978304601F02EFFE41E297848
:201A6000304601F029FFED1E002CEFD105B0F0BD00801040F0B59FB000F080FB411E0229C5
:201A800005D303280ED004281DD14F4812E004464F48006800F01AFE00280AD0022C0CD065
:201AA0004E480BE001F038FF782001F097FF474800E0484801F0FAFD05E0474801F0F6FD1F
:201AC000DC2001F08BFF464C2068800216D4454D2878002815D101267705434802F00EF8A3
:201AE000206838420DD12E7001F088FF002859D001F012FF782001F071FF02E03948002120
:201B00000170EFF3108172B63A4A107800241470002900D162B600282DD001F027FF364938
:201B200001F07CF905461BA800901EA91DAA1CAB284600F065F80DAE3046FEF7D7FE24482A
:201B400000680A901E980C901D980B900E99377A3088727AB37AF67A0094019402940391F5
:201B6000049705A94DC10A9829460C9A0B9BFFF793F801F05BFD2148017801290CD104708A
:201B8000134800680DAD009521462246234600F079FF2846FEF794FA7D20000201F0AEFF65
:201BA0001FB0F0BD0A48006800F090FD002804D0DC2001F013FF0E4802E001F0C7FC0B4838
:201BC00001F074FD9DE7C0460A3C0000BE3C000020012020943C0000883C00009F3C000009
:201BE00080330A406201202000E204006D3C0000C83C00006C0120200AD7A33B7401202091
:201C0000F0B587B01D46039202910446EFF3108072B64F490F684F490E68002800D162B64B
:201C200000212046019101F0FDFB0028069500D0494C4A480168791A494A1368F31A049736
:201C4000076005961660474A10684718176046490868C01800900860444E3168204600F0DD
:201C6000AAFE05463060424901F0E5FB002843D0384601F079FD3F4F394601F0CFF8294631
:201C800001F022FA0446009801F06EFD394601F0C5F8294601F018FA0546374801780029EE
:201CA0001DD036480068364901F0B8F80646354F2046394601F0B2F8314600F07CFE0446B6
:201CC000314800682E4901F0A9F806462846394601F0A4F8314600F06EFE054601E0012133
:201CE0000170264804602848056001981D4908601D4908601D490860029C002C04D01F48C4
:201D0000006801F089FD2060039C002C069D059E049F04D01C48006801F07EFD20600C9C7C
:201D2000002D08D0384601F01FFD124901F076F801F072FD2860002C08D0304601F014FDF5
:201D40000C4901F06BF801F067FD206007B0F0BD780120207C0120200AD7A33B88012020A3
:201D60008C0120209001202094012020980120200AD7A33C9C9D0F3F71012020800120205D
:201D80009A99993E3333333F84012020F0B58BB00120C4074D4F4E4D019002074D4E4E48CE
:201DA0000023079303804D4803604D484021009101704C4803704C4803702B462C61394668
:201DC0003E60386838603E460C3E812535601F46403F03923A601A600D60184630380890CC
:201DE000049404601C60A024204601F087FE099602953560069703983860354D28602046C0
:201E000001F07CFE0498286132483049086008680860204601F072FE0798049F0790460019
:201E200040362B490F61294C2A48206020682060029D09980560039C069804600C60A02067
:201E40000A9001F05BFE2148056008980760204807600A9801F052FE09980560089804600D
:201E60001B480460F0B2FFF765F805901748056008980760164807600A9801F03FFE099810
:201E8000056006980460124D2C600A9C204601F035FE2F610D490F480860086808602046DD
:201EA00001F02CFE059A002A05D10799481CC9B20629B3D9009E0A4806700B48027001986A
:201EC0005040084908700BB0F0BDC04618804240D0120A4081000E005E0120202C0120205A
:201EE000760120206401202063012020F0B587B004460026314601F08CFA0546002801D163
:201F00004D4900E04B49204600F088FF002D4B4F05D02D210446384601F0CEFC204601F016
:201F2000B1FC0A28029004D23021384601F0C4FC71E007460A253846294601F0D7FB2946EE
:201F400001F0D4FB3024214304A88155642F21D36421384601F0CAFB0A2101F0C7FB214305
:201F600004A880194170F8087D2815D37D20C100384601F0BBFB05460A2101F0B7FB2143DE
:201F8000F41C04A8801981702D48874226462F46D0D202E0741C00E0B41C002C274F3AD06C
:201FA000601E032101F0A2FB481C0026032800D00646019402D12546204F16E004A8801E9E
:201FC00003901E4F039800194178384601F074FC012E09D0A51E0398015D384601F06CFC1A
:201FE000B61E2C46EED100E0651E0198032812D304A82818C41EA178384601F05DFC617848
:20200000384601F059FCED1E2178384601F054FCE41E002DEFD12E21384601F04DFC0A2178
:20202000029801F063FB30200143384601F044FC07B0F0BD000020C10000204100801040FE
:2020400010270000F0B589B01F461446059100260690314601F0E6F90028354651D1002F1F
:2020600035464ED03B480168204600F09FFC2746069C214601F028F8039037480568049749
:202080003846214600F0CAFE294600F094FC0746324D294601F0D8F9002800D13D46304FBC
:2020A0002846394601F0B5F9002800D12F462A4807600021384600F0B1FE05468120C1055D
:2020C000049C204600F0AAFE294600F074FC05462449039800F0A2FE294600F06CFC05469E
:2020E000214F394601F0B0F9002800D12F461F4D3846294601F08DF9002800D13D46154840
:202100000460059C2046294600F055FC07462046294600F04BFC02461548394600F00CFD2E
:202120001448006801F020FB07461348006801F01BFB024607AC0194354608AE00960C480D
:202140003946069B00F038FF705F615F00F0AAF809B0F0BD3C012020340120200000A041DE
:202160000000A0C10AD7A33C00007042000070C2BC002020480120204C01202070B586B0ED
:2021800045480178012932D1EFF3108272B61421C943424B03E06D466D18EC75C91C5C18CD
:2021A000657D002D26D0657D2E46613EF6B21A2E00D2203D6E4676187575A57D002D1BD0A0
:2021C000A57D2E46613EF6B21A2E00D2203D6E467618B575002911D0E57D002D10D0E47D65
:2021E0002546613DEDB21A2DD5D2203CD3E7002006B070BD153104E0163102E0172100E0C5
:2022000017316B4600245C54047025480470002A00D162B66D462A786B78AC78E8782D7927
:2022200005290CD1522A0AD1552B08D14E2C06D1312804D1352D02D1012006B070BD6E4677
:2022400006290FD1522A0DD1552B0BD14E2C09D1502807D1492D05D17579442D02D1022075
:2022600006B070BD04255326502801D0284600E00320694072404F2C00D028461143542B38
:2022800003D1002904D106B070BD28460029FAD0284606B070BDC0466501202008012020E2
:2022A00070012020F0B585B07D26F7003F4A9042034600DC1346BB4200DB3B4691420D46A1
:2022C00000DC15461922BD4200DB3D46364CD2010492374A1380374A0195158000280296C4
:2022E000039113D0DA175340D11A0097CD19012813DB01222046049F394601F0EBFB7D4322
:20230000F100284601F0F2F9064612E0002601222046314601F0DEFB0CE0049F7D43F10014
:20232000284601F0E3F901460122204601F0D2FB3E46009F0025204631462A4601F0CAFB89
:20234000039A1D4E002A15D0019800B2C1174840081A3D18012A13DB00223046049C21468C
:2023600001F0B8FB65430298C100284601F0BEF9054612E0304629462A4601F0ABFB0CE08B
:20238000049C65430298C100284601F0AFF901460022304601F09EFB2546012230462946B7
:2023A00001F098FB05B0F0BD0000094018FCFFFF9C0120209E01202000008640F0B5384934
:2023C00008463438872202603648022202600A46383A862313600122026085230B611402A7
:2023E00004604B61530203602F4CE01C48604B684B600860086808604B68500603434B605E
:202400000B6803430B6082258D61284BCB614D64274D2E463C3E33606C606E686E600E46FA
:20242000083E244F3760346834608124AC622F632C6B2C63EF61EC69EC612F622C6A2C620A
:202440002F602C682C600C46303C174E26602568256024390E600C680C6017490C689505F9
:2024600025430D6015490C6AD20614430C620C6814430C6012490A600A6312490A680424B8
:2024800014430C600A69823B13430B610E490A6A801C02430A620A6802430A60F0BDC0469B
:2024A0003C804240D0120A4081000E0082000400C080424081000C00A0130A4028100A40CF
:2024C000A0320A4090330A4028300A40F0B5394A8218394BC0183A4D4C790B79002C22D025
:2024E000466F202B02D00524E70100E0354F2E40002B00D188273E434667846F2C403C4370
:202500008467446B2D4E34404463846B3440846300244465846554688F26F64334405460B9
:202520009468344094600C688979202B09D006467036002B15D1641E4460C46E2C40882727
:2025400015E0641E4460C46E2C401E4E3443C466046F2C40344304671B4D012467070646AD
:2025600007E00527FF0164084460C46E2C403C43C46634682C403C433460C46A0F4D2C40E0
:20258000C462046B2C4004630024C4640465C46F8F25ED432C40C46714682C4014601943B8
:2025A00002680A4B1340BD220A40D118891C0160F0BDC04684180000041800008888FDFF7A
:2025C00024493E0001040000FFFFFFCF4000FFCFB0B53A4A80184A6842600A78222A56D8A0
:2025E000930001A4E3589F46852600008F260000852600008F2600008F2600008F26000059
:202600008F2600008F2600008F2600008F2600008F2600008F2600008F2600008F26000012
:202620008F2600008F260000752600008F260000752600008F2600008F2600008F26000026
:202640008F2600008F2600008F2600008F2600008F2600008F2600008F2600008F260000D2
:202660008F2600008F260000752600008F26000075260000036803242407A34301246407D2
:202680001B1903E0036803242407A34303600B69C360CB68C46A0A4D25400A4C1C402B1973
:2026A000C3620368084C1C400460097A114302683F239A43194051180160B0BD041800004A
:2026C0008888FDFF777702007F00FFFFF0B581B00446244E31780020062941D801252A4648
:2026E0008A4061210A423BD000F058FE1E48002707601E4807601E4807701E4807701E4810
:2027000007601E4807601E4807701E4807801E4807701E4807701E48402101701D480760FD
:202720001D4807601D4807701D4807601D4807601D4807601D4804601D4807701D4807700C
:20274000042030701C4804601C4807601C4807601C4801F0C9F80548076000F0F7FE28463A
:2027600001B0F0BDA0012020280120205401202075012020720120203001202034012020CD
:202780006B0120205C0120206601202067012020680120203C012020440120206F01202046
:2027A00040012020480120204C012020380120206A012020690120205001202024012020BE
:2027C00058012020BC002020F0B585B00393174602910446066900251046294600F022FE51
:2027E000002861D10120C1073046049188433F21090600F00EFE002856D13046029900F005
:20280000D5F8054620680290A6692846314600F0CDF801906168384600F000FB0146284665
:2028200000F0FCFA00900298019900F0F7FA009900F0C1F80090A068394600F045FC074636
:2028400030460196314600F0B6F801460295284600F0ACF8E16900F0AEF80146384600F0E1
:20286000DDFA009900F0A7F80146606900F0A3F80646039D04996940049100F0CAFD0746F3
:202880003046294600F0E0FD002800D13546002F049800D1284660610299A1610199E161CE
:2028A00000F0BAFF054606E0E168304600F0B6FA6061A561E561284605B0F0BD80B582B09B
:2028C0001F4900220A701F490A601F490A601F490A601F490A601F490A601F490A701F4990
:2028E0000A601F490A701F490A601F490A601F490A701F490A801F490A701F490A701F49E8
:2029000040230B701E490A601E490A601E490A701E490A601E490A601E490A601E49087004
:202920001E4908701E487F21C905009101901D481D49134600F088FC00F008FE02B080BD45
:20294000A001202038012020500120202801202054012020580120207501202024012020DA
:202960007201202030012020340120206B0120205C0120206601202067012020680120207D
:202980003C012020440120206F01202040012020480120204C012020690120206A01202099
:2029A00000007A44BC002020CDCC4C3FFCB40127FF07794002E0FCB40127FF070C024D0087
:2029C0002D0E03D1002C52D1FCBC70473C43FF2D50D0A408002900D56442020243001B0E9F
:2029E00004D1002A43D10800FCBC70473A43FF2B41D09208002800D552425E1B04D5170001
:202A000022003C0076422B00192E06D527003741D2191C27F71B7F42BC40002A27D002D5BF
:202A20005242012700E00027013B5200FCD51500802635400FD01500202635402C43803274
:202A400008D21500402635402C4304D101263602B24300E05B1C5200023308DDFF2B0BD24A
:202A6000500ADB051843FF073843FCBC70470020FCBC70470800C70FFF07FF20C0053843FF
:202A8000FCBC7047F0B581B0069C002C37D0254624351C4E367826701B4E3668801B0526DD
:202AA00046431A4800681A4F3F686660A16021460C3185C1237617480078607600F0AEFF1F
:202AC00015490968E061216214480078287014480088E08413480078287113480078687197
:202AE00012480078A8711248006812490968E062216300F0F7FFA08600F0FAFFE08601B08B
:202B0000F0BDC046A00120203801202054012020580120206A012020300120206B012020B2
:202B20005C012020660120206701202068012020480120204C012020F0B583B0002846D0D4
:202B40000E460446174623493046019100F061FC0290214D3046294600F076FC00282846DC
:202B600000D13046029900291A4900D1014602913846184900F04DFC06463846294600F0FB
:202B800063FC002800D13D46002E00D10195E66821690298FFF70AFF01466769304600F0D7
:202BA0003DF93946FFF707FF6061E66A216B019D2846FFF7FBFE0146676B304600F02EF926
:202BC0003946FFF7F8FE029921612563606303B0F0BDC046000048C300004843002A49D0E3
:202BE00084468B071CD1830722D1102A08D370B4103A78C978C0103AFBD270BC103238D086
:202C0000042A2CD3082A05D30C2A01D308C908C008C908C008C908C092072AD0920F22E072
:202C20000B780370491C401C521E22D08B07F7D1C30714D18307D8D0121F12D308C90380D6
:202C40001B0C4380001D121FF8D20AE008C903701B0A43701B0A83701B0AC370001D121FAE
:202C6000F4D2121D05D00B780370491C401C521EF9D160467047FEE770B582B01B491C4C34
:202C8000204600F0E7FE1B492046FFF71FFC1A4801681A4A0A4002600025009520462946B4
:202CA0002A462B4600F0E4FE204629462A4600F0C3FE204629462A4600F00CFF012600966E
:202CC000204629462A462B4600F0D2FE20462946324600F0B1FE20462946324600F0FAFE5D
:202CE000074886600321016002B070BD243D000000000940DC3C0000041809407F00FFFF97
:202D00000011094070B582B01B491C4C204600F0A1FE1B492046FFF7D9FB1A4801681A4A7E
:202D20000A40026000250095204629462A462B4600F09EFE204629462A4600F07DFE2046D5
:202D400029462A4600F0C6FE01260096204629462A462B4600F08CFE20462946324600F0B6
:202D60006BFE20462946324600F0B4FE074886600321016002B070BD273D00000000864038
:202D8000E43C0000041886407F00FFFF0011864040B542004B005E08164301D006004E4037
:202DA00000D4D01A04D20120C90F06D1404204E003D90120C90F00D04042FF263606B242CD
:202DC00000D8B34200D9012040BD40B542004B005E08164301D006004E4000D4D01A04D2F5
:202DE0000120C90F06D1404204E003D90120C90F00D04042FF263606B24200D8B34201D97A
:202E00000120404240BD42004B000020FF2109068A4200D88B4200D901207047FCB401273C
:202E2000FF0706004E4001D4002600E03E00020243001B0E30D03A43FF2B30D00C024D006D
:202E40002D0E29D03C43FF2D29D05B194240504042404C4061404C4000B500F0A3FC20BCB9
:202E6000AE464240504042404C4061404C4025001400002C01D46400013B803401D301337B
:202E800064087E3B08DDFF2B09D2BC43200ADB0518433043FCBC70470020FCBC7047FF202F
:202EA000C0053043FCBC704710B51B491B4C204600F0F5FD1A49204600F094FB1948016881
:202EC0000322D203914301600169174A0A4011320261416917220A4328218A434261426875
:202EE00001210A4043688B439A1842600F4A13688C021C43146002684B0413430360C268C8
:202F000070231343C360C2680A4306239A43C26002680A43026010BD2A3C000000801040EA
:202F2000AA3C0000009110400000FFFF2890104010B51B491B4C204600F0B1FD1A49204667
:202F400000F050FB194801680322D203914301600169174A0A4011320261416917220A4352
:202F600028218A434261426801210A4043688B439A1842600F4A13688C021C431460026816
:202F80004B0413430360C26870231343C360C2680A4306239A43C26002680A43026010BD6E
:202FA000DA3C000000201040B43C0000003110400000FFFF28301040F0B585B000283BD067
:202FC0000A9D002D38D004460B98002834D01F4604900291039200211846019100F034FAAC
:202FE000666C002805D038463146FFF7E4FC06466064274648371149304600F00AFA00284F
:2030000003D038882880B91C13E001986064236C204602993246FFF7D7FB3880236C2034E5
:20302000204603993246FFF7CFFBB91C788038882880049A0888108005B0F0BD0AD7A33C41
:20304000F0B581B0144605461548057015480160154800270760154E3760154800F044FCF3
:2030600005202840012810D1134804601348C0570028134D294600DA12492046FFF79BFC69
:203080000C490860356001B0F0BD0A480460022D03D0042D01D000F059FA01B0F0BDC0461F
:2030A000A0012020500120202401202058012020BC002020540120202801202075012020F0
:2030C00000002A4300002AC3FCB40127FF0706004E40F60FF607020243001B0E2DD03A4338
:2030E000FF2B2DD00C024D002D0E26D03C43FF2D26D05B1B0020202164085208A24240417A
:20310000A24200D3121B013904D0002A01D05200F4D18840384201D14000013B803001D397
:20312000013300E040007F3307DDFF2B08D2400ADB0518433043FCBC70470020FCBC7047AB
:20314000FF20C0053043FCBC70477047F0B50020C4431848184B0127FA067E06103B1D68E7
:2031600015400346103B1B68002D08D013480068304200D027461248016879180160B71CE4
:20318000334208D00F480068C00200D401240E480168611801603B40002D03D00649086895
:2031A00010430860002B03D00249086818430860F0BDC04648300A4048100A4080130A40E4
:2031C0007801202080330A407C012020F8B5451C00780023082B32D02F78C2070CD16A786F
:2031E0000F241440E41C122C0BD102242E57F4B2002E08D4EE1C0EE06D1C4A1C0F70114616
:203200001AE0AE1C08E02E1DED7800957F252C40009DED012C1912343D0112095219094D7D
:20322000AA420ED0D243002C05D08D5C4F1C0D70641E3946F7E7354640085B1CCAE72846A5
:20324000C5E7F8BDFF0F0000F0B585B0002830D0044602A80EC00B9F00253846294600F08F
:20326000D8F80190144E3846314600F0EDF8002800D13E460A98019900292946049A00D101
:2032800031462164029B236003996160A260E060256123626162A262E06225632946FFF772
:2032A000BDFD6061A561E5616063A563E5636564A56405B0F0BDC04600007A44F0B581B066
:2032C00010481149416011484160114B5960114C6160114D6960114E7160114F7960114885
:2032E00041601149074A1160084A1160196021602960316039600160102000F0FFFB01B075
:20330000F0BDC04600080A40030000B100280A4000080940000886400008874000280F401D
:20332000008810400028104001000026F0B5164A1068C0B20B2825D1144801218B029362FE
:20334000026852071ED4124A124B134C06E01D7800266655117005686D0713D4C56916783F
:20336000002EF8D1EEB20D2EF5D00A2EEFD01E78162E04D81E78771C1F70A555EBE7002560
:203380001D70E8E7F0BDC0462090104008911040650120207001202008012020EFF3108023
:2033A00072B60D4A002111600C4A11600C4A11600C4A11600C4A11600C4A11600C4A116052
:2033C0000C4A11600C4A11600C4A1170002800D0704762B67047C046780120207C0120208E
:2033E000880120208C01202090012020940120209801202080012020840120207101202080
:2034000010B5FFF7C5FC002801D0002010BD012010BD10B5FFF7BCFC002801DB002010BDF8
:20342000012010BD10B5FFF7B3FC002801DD002010BD012010BD10B5FFF7C7FC002801DAD2
:20344000002010BD012010BD10B5FFF7BEFC002801DC002010BD012010BD000080B51149AD
:20346000114800F097FA11480168032252020A430260026801210B02134303600022426171
:2034800007224262836B93438363836B120293438363826A042313438362826A0A4382628C
:2034A00080BDC0462D3D000000200F4000320F400E480068C0B2012816D10D480168491C0C
:2034C00001600C480178FF2902D00178491C017009480178491CCAB20170142A04D3002123
:2034E00001700648012101707047C04620108740200120206C01202073012020740120204F
:2035000080B500F0A5F900F047F8FEF73FFC00F055FA0020FFF7D2F9FDF75AFE084800F0DD
:20352000C5F801204105074A1160074B1960C003106018600220106018601060186080BD00
:20354000DD3B000080E200E000E100E070B50E48002404800D4804800D4E012530462146F6
:203560002A4600F0B7FA30462146224600F0B2FA084E30462146224600F0ACFA304621464B
:203580002A4600F0A7FA70BD9C0120209E012020000009400000864070B50E48002404800F
:2035A0000D4804800D4E0125304621462A4600F091FA30462146224600F08CFA084E304662
:2035C0002146224600F086FA304621462A4600F081FA70BD9C0120209E01202000000940C2
:2035E0000000864070B511221302C218C4580125AC43C4500C888D7825438C882C43C558D8
:20360000084E2E40084D25407419C4508879CB790343087A184351687E2399431840081875
:20362000506070BDE798FDFF1867000010B50C48018800290ED00B4A13785C1C1470DA074D
:2036400003D00122D206084B1A61491E0180080400D010BD0120C0060349086010BDC046CF
:20366000600120206D012020A0320A400D48002101600D48011F0A680323DB4313400B601F
:2036800041680122914341604168120291434160016830229143016001680F2291430160F8
:2036A0007047C04608030B4004010B4070B50178002917D00C4CC51CAE1EC9B2204600F023
:2036C000FBF8317800290DD06E1E204600F0F4F83178002906D0204600F0EEF82978ED1CEC
:2036E0000029E9D170BDC046008010401CB50A0017D000230124E407A04200D20400944261
:2037000001D95200FBE790425B41904200D3801A914201D25208F6E71900020008001100DD
:203720001CBD01000020FFF710FD1CBD70B50A480A4C84420CD00A4D0A4EB54208D02A6834
:203740006968501C12789200A25890470835F4E700BF00BF70BDC046443D0000383D000080
:20376000543D0000643D000006B49E22002802D404D106BC7047414204D400E00100013ADA
:203780004900FCD5803101D3013200E04900490AD2051143002802D50122D2071143080059
:2037A00006BC7047FCB4020C0B0CFF242402FF34204021400C00444315005D4306005E438F
:2037C0000F005743320C3B0CA818C01832043B040025A1186841C9186841FCBC704700002E
:2037E00010B50849084C204600F034F907492046FEF7EEFE06480168012211430160054869
:20380000026010BD213D000000008740483C0000281087400811874006B54100090E7F3926
:203820000DD41F22511A0CD9864600020122D2071043C8407246002A00D5404206BD0020D5
:2038400006BD02000120C007002A00D4401E06BD80B5FFF733FDFEF7B1FDFFF707FFFFF7AC
:203860000BFAFFF74FFAFFF7BBFFFFF7F7FDFFF71BFBFFF75DFB0248B8210022425480BDF8
:203880000000202006B5002803D57346FFF7C4FF06BD4100090E7F3908D31F22511A07D387
:2038A00000020122D2071043C84006BD002006BD0020401E06BD00000A4A8018026812065A
:2038C00005D50268120602D502681206F6D481610168C90705D00168C90702D00168C90735
:2038E000F6D1704708110000B0B5002812D0C168026904461046FFF791FA00256061A56121
:20390000E561E16A206BFFF789FA6063A563E5636564A564B0BD000080B508480078062895
:2039200007D8012181406120014202D0FFF70EFE80BD03480121017080BDC046A0012020EE
:2039400072012020084880F3088800BF00BF00F0FAF8002801D0FFF7E9FE002000F0A8F87B
:20396000012000F0E9F8C0460080202002B49E21002805D401D102BC704701394000FCD587
:20398000803001D3013100E04000400AC905084302BC704770B50122120383180C785D6838
:2039A0000C26B54334402C195C60497883580724A34321405918815070BD0000044800217E
:2039C0000180044801700120C006034908607047600120206D012020A0320A4080B5001D9A
:2039E0000521FFF783FE0349088003480021017080BDC046600120206D012020064802781F
:203A00000121062A0B4600D800237F2002401E20D040184308407047A001202003480078DB
:203A2000002801D103487047014870476E0120207C3C0000EC3C000010B592008018044ABE
:203A400083580724A404A34321405918815010BD3018000010B50122120383180C789C6002
:203A60004B7883508978014A815010BD0C11000010B5029CA400001911431943014A8150BD
:203A800010BDC0465018000003228058002805D0401E4A1C00230B701146F7E7704710B5DE
:203AA0000122120383180C789C604978815010BDFFF726FDFDF7DEFFFDF7DCFFFDF7DAFFCE
:203AC000F8E780B50B4603214258C11D184600F02FF880BD92008018014A81507047C04630
:203AE0001018000000200149085E70479C01202000200149085E70479E012020811E091F0D
:203B000000BFFCD2704780B5FFF720FB80BD80B5FFF70CFC80BD80B5FFF7F5FF80BD80B5DD
:203B2000FFF7C6FC80BD80B5FFF7F1FF80BD000080B5FFF753F880BD00F001F8FEE700BFF8
:103B40007047FFE67047012070470000000000004A
:203B50004E43484431322067726179206C696E652064656D6F206F6E626F617264205541BA
:203B70005254302031313532303020384E310D0A004232312F52554E5049442F52554E312D
:203B9000353A2067726179206C696E65203330733B2053544F502061626F7274730D0A00B2
:203BB0004D5055363035302064697361626C65643B20656E636F6465722073706565642054
:203BD000504944206163746976650D0A004D5055363035303D44495341424C45443B204276
:203BF0003231207374617274732067726179206C696E65203330730D0A00436F6D6D616E8E
:203C100064733A2052554E5049442C2052554E31352C2053544F500D0A000800133D0000E9
:203C3000083D0000D13C0000083D0000FB3C00000E3D0000023D000002000000FF700200A9
:203C50000100000000000000000000003031323334353637383941424344454600455252C8
:203C70002042323120627573790D0A004D5055363035302D455252004F4B2052554E50495A
:203C9000440D0A0045525220627573790D0A004F4B2052554E31350D0A0000001800000092
:203CB00000300000000018000000003000004F4B2053544F500D0A004F4B204232310D0AEF
:203CD000005354524149474854000800800C000020000100800C0000200101004D505536E3
:203CF00030353000284C4F535429004C494E4533300041424F525400435552564500444F71
:203D10004E450049444C4500284F4B2900455252000800000800000800004F4B0008003F15
:083D300000000000000000008B
:203D3800CD310000C33A0000893A00000200000077010000000100000F16FFF0443D00009D
:103D5800000020204C3D00007801202000000000D9
:00000001FF
