:2000000000802020773300001F2400001F24000000000000000000000000000000000000F0
:200020000000000000000000000000001F24000000000000000000001F2400001F240000F7
:200040001F2400004B3300001F2400001F2400001F2400001F2400001F2400001F2400004D
:20006000000000001F2400001F24000000000000000000005B3300001F2400001F240000E6
:200080001F2400001F2400001F2400001F2400001F2400005333000000000000000000008B
:2000A0001F2400001F24000000000000000000001F240000000000001F2400001F240000F1
:2000C000F0B58FB0002800D104E30446B74F6D21384603F00DF87321384603F009F83D21A4
:2000E000384603F005F86568002D0B942DD000270A262846314602F0DFFE4643A91B30264E
:2001000031430CAAD1550A2D24D30A2102F0D4FE31430CA8C0194170642D1DD3642128464C
:2001200002F0CAFE0A2102F0C7FE3143FE1C0CA8C01981707D20C100284602F0BDFEE908AD
:200140007D2937460546D3D207E03021384602F0CFFF41E07E1C00E0BE1C002E934F3BD086
:20016000701E032102F0A8FE481C0027032800D00746099602D135468C4C16E00CA8801E55
:200180000A908A4C0A9880194178204602F0B0FF012F09D0B51E0A98815D204602F0A8FF99
:2001A000BF1E2E46EED100E0751E09980328274612D30CA82818C61EB178384602F098FF96
:2001C0007178384602F094FFED1E3178384602F08FFFF61E002DEFD12021384602F088FF48
:2001E0007321384602F084FF74253846294602F07FFF6121384602F07BFF3846294602F037
:2002000077FF6521384602F073FF3D21384602F06FFF0B9E3078062803D8800064490958DC
:2002200000E064490878002816D0CD1CAC1EC1B2384602F05DFF217800290DD06C1E38460A
:2002400002F056FF2178002906D0384602F050FF2878ED1C0028E9D12021384602F048FF7D
:200260006721384602F044FF7921384602F040FF7221384602F03CFF6F21384602F038FF85
:200280003D21384602F034FF707E002804D0307E00280FD148490EE04F21384602F028FF37
:2002A00046253846294602F023FF3846294602F01FFF1AE041490878002816D0CD1CAC1E10
:2002C000C1B2384602F014FF217800290DD06C1E384602F00DFF2178002906D0384602F07B
:2002E00007FF2878ED1C0028E9D12021384602F0FFFE6221384602F0FBFE6121384602F0E1
:20030000F7FE6321384602F0F3FE6B21384602F0EFFE6521384602F0EBFE6E21384602F03C
:20032000E7FE6421384602F0E3FE3D21384602F0DFFEF1690878002816D0CD1CAC1EC1B249
:20034000384602F0D5FE217800290DD06C1E384602F0CEFE2178002906D0384602F0C8FE27
:200360002878ED1C0028E9D12021384602F0C0FE6C21384602F0BCFE6921384602F0B8FE1C
:200380006E21384602F0B4FE6521384602F0B0FE3D21384602F0ACFE306A01F0A9F924201F
:2003A000305C00280CD1CD490BE0C046000010405434000057350000453500005235000040
:2003C000C5490878002816D0CD1CAC1EC1B2384602F08EFE217800290DD06C1E384602F0C6
:2003E00087FE2178002906D0384602F081FE2878ED1C0028E9D120210991384602F078FEA5
:2004000067210891384602F073FE72210791384602F06EFE61210491384602F069FE792646
:2004200038463146019602F063FE3D210A91384602F05EFE30210391384602F059FE7821D3
:20044000384602F055FE0B98C48C200BA44D295C384602F04DFE2005000F295C384602F061
:2004600047FE2006000F295C384602F041FE0F202040295C384602F03BFE3846099C214687
:2004800002F036FE3846314602F032FE3846049E314602F02DFE77210591384602F028FEA7
:2004A00038460A9902F024FE0B98806801F020F93846214602F01CFE74243846214602946E
:2004C00002F016FE3846314602F012FE3846079902F00EFE3846089902F00AFE65210691CD
:2004E000384602F005FE3846214602F001FE5F210891384602F0FCFD3846019D294602F0B4
:20050000F7FD3846314602F0F3FD3846059C214602F0EEFD38460A9902F0EAFD0B98C068E8
:2005200001F0E6F83846099E314602F0E1FD3846294602F0DDFD3846049D294602F0D8FD72
:200540003846214602F0D4FD3846089902F0D0FD3846079C214602F0CBFD3846294602F0F4
:20056000C7FD3846029D294602F0C2FD3846069902F0BEFD38460A9902F0BAFD0B980069DA
:2005800001F0B6F83846314602F0B2FD3846294602F0AEFD7521384602F0AAFD384621460A
:2005A00002F0A6FD6E21384602F0A2FD3846089902F09EFD3846069E314602F099FD3846BD
:2005C000214602F095FD3846214602F091FD38460A9D294602F08CFD0B9C606901F088F8DB
:2005E0003846099902F084FD7321384602F080FD70210491384602F07BFD3846314602F0F2
:2006000077FD3846314602F073FD6421384602F06FFD3846294602F06BFD2546A06A00F002
:20062000AFFE2F243846214602F062FDE86A00F0A7FE3846099902F05BFD3846049E31469C
:2006400002F056FD3846059902F052FD6D253846294602F04DFD3846089902F049FD384668
:20066000314602F045FD3846069E314602F040FD3846079902F03CFD3846294602F038FDAA
:200680006921384602F034FD6C253846294602F02FFD3846294602F02BFD3846314602F0A5
:2006A00027FD38460A9902F023FD03980B9D285E00F066FE3846214602F01AFD3220285E00
:2006C00000F05EFE0D21384602F012FD0A21384602F00EFD0FB0F0BD403500001C35000049
:2006E00084340000F0B58BB0002800D14AE106900120C407BD4DBE4F049001070A91BD4869
:200700003C612860286828600C3D81262E6038464038079001603960A020089002F008FE47
:20072000B24806603846303F3C60099404600A9C089802F0FDFD08952E60354605973C60BF
:20074000AB4F3C60402000F05BF9002800D1EDE00026304600F054F9002800D1E6E0039668
:20076000099C3C61A14A3946A24F176010681060089805600A9F079807600F60A02630461E
:2007800002F0D6FD9948056005990C60984804603046089E0C4602F0CBFD356027609448E0
:2007A0000760412000F02CF9002800D1EDE0049800F0DCFC0390002000F0D8FC02908B4F4F
:2007C0003D60099F27608A4807602C463546A026304602F0ADFD2C600A9807990860844C49
:2007E0002060304602F0A4FD276182487F49086008680860304602F09BFD02980007020D66
:2008000003981418601E264686417C480768002C00D1E6E0784804800120214609900140C4
:200820000220204008906006C30F18460B304D1CD20A002A00D0CDE0184600D1CCE00029DD
:2008400000D00B38042222400899002901D00B38801C08212140002A029501D00B38001D07
:20086000102525400795002905930192009101D00B38801D202121408A06D21780230A9450
:200880002340099C2402079D002D039601D00B380830099D6E020A9D2C408018002B00D0B8
:2008A000C01C099A92020A9D2E40002C00D0401D0A9D2A40002E00D0C01D089D6D08089514
:2008C000019DAD080195009DED080095079D2D094909DB090993230A0793740A960A002A4D
:2008E00000D00930029A089BD218019BD218009BD21852195118059A8918099A8918079AC2
:20090000891809198C1902F015FB0546204602F047FC0146284601F0F1FF002C00D00746A8
:20092000364807600699039E0A9C5BE02F4E35600A9C3946099F059807600F602E46A02526
:20094000284602F0F5FC089806600798046028480460284602F0ECFC254807612548234973
:20096000086008680860284602F0E2FC224800880699088021480768002630464F600E723D
:200980000BB0F0BD00200BB0F0BD184F3D60099F2760174807602C46A025284602F0C8FC13
:2009A00034600A9807990860114C2060284602F0BFFC27610F480D4908600868086028461E
:2009C00002F0B6FC0C480088069908800B480768039ED2E700D032E70D46002900D030E708
:2009E00030E706990C800498C8E7C04618804240D0120A4081000E004E012020240120209B
:200A0000F0B587B002900120C107A04EA04A0707812535601446303C059121601160A02050
:200A2000069002F085FC0C3E3560994908464038049007600F60069802F07AFC059906967C
:200A40003560276092480760029840280195039405D28E48056021608D48016006E08C4887
:200A600001618A498B48086008680860A025284602F05EFC069E019C34600498076084480B
:200A80000760284602F054FC3460039A1760804807600298800606D47C4804600599116037
:200AA0007B48016007E07A480599016177497948086008680860A025284602F039FC069EAA
:200AC00034600498076072480760284602F030FC3460039A17606E4807600298C00606D4D3
:200AE0006A480460059911606948016007E068480599016165496748086008680860A025C6
:200B0000284602F015FC069E34600498076060480760284602F00CFC3460039A17605C4866
:200B200007600298000706D458480460059911605748016007E05648059901615349554802
:200B4000086008680860A025284602F0F1FB069E3460049807604E480760284602F0E8FBC9
:200B60003460039A17604A4807600298400706D446480460059911604548016007E04448B7
:200B80000599016141494348086008680860A025284602F0CDFB069E3460049807603C4854
:200BA0000760284602F0C4FB3460039A1760384807600298800706D4344804600599116036
:200BC0003348016007E03248059901612F493148086008680860A025284602F0A9FB069E3A
:200BE0003460049807602A480760284602F0A0FB346003990F60264807600298C00706D1DE
:200C0000224D2C60059A0A602148026007E02048059A02611D4D1F48286028682860A0247F
:200C2000204602F085FB019E069806600498076017480760204602F07BFB06980660039803
:200C4000076013480760059901611248286028682860204602F06CFB069D2E60049807607E
:200C60000B480760204602F063FB0B48006805902E600398076006480760204602F058FBC4
:200C80000598C043C00F07B0F0BDC04618804240D0120A4081000E0080130A40F0B585B0EF
:200CA0001C46154604910CAF8ECF814E3560814D2C60814C2170814C2260814C2370814C32
:200CC0002780814F3C78062C04D80125A5406126354219D17D4D2E78002E0ED1002903D16E
:200CE0007B490978C90708D17A490968411A052603967143784EB1420AD30020287006208B
:200D00003870794802F022FA02F006F805B0F0BD641E032CF8D80B9902910A9E6F49096881
:200D2000451A03994D43C0467C4424796400A74401642F5B019603906C49049800F084FD9B
:200D40006B4805780126F107029C204688434121090601F056FF002877D0002D75D1204676
:200D60000025294601F04DFF002800D1EE436048067060480468304602F0DCF806465E4917
:200D800001F068FC214601F01CF95E49086065E0039037465549049800F056FD54480021F3
:200DA0004056C4B202F0C6F80646524801683D46384601F001F9314601F04CFC0646002C14
:200DC00000D126464C48314601F0F6F8002C4B4908609BD04849304601F013FF002895D0C2
:200DE000052003992A462CE03D49049800F02CFD3C4885428AD3039882E734460646384988
:200E0000049800F021FD3A48077878B202F092F80146029801F01EFCE9087D2943D3002FB9
:200E200041D04121090601F0ECFE00283BD034480168491D0160962900D267E703203146FD
:200E4000224601F0D5FC05B0F0BD002D00D15DE72848046868B202F06DF80646019821462B
:200E600001F0AAF8314601F0F5FB0546224E3046294601F0A1F8214C20602846314601F09A
:200E8000C0FE002800D141E7022038700398134908601B48002101602160134802F056F948
:200EA0001848019901E016480021016005B0F0BD380120203C012020540120202801202021
:200EC000560120204C012020740120205B0120205501202030012020A0BB0D0040012020AD
:200EE0000000484330750000BC0020200000DC425E0120202001202000002A4348012020B2
:200F00001C01202044012020F0B581B0914C924800250570914805704E20914E7719C1B22A
:200F2000204602F0E5F87978204602F0E1F8B978204602F0DDF8F978204602F0D9F83979B0
:200F4000204602F0D5F87979204602F0D1F8B979204602F0CDF8F979204602F0C9F8397ACC
:200F6000204602F0C5F8797A204602F0C1F8B97A204602F0BDF8F97A204602F0B9F8397BE8
:200F8000204602F0B5F8797B204602F0B1F8B97B204602F0ADF8F97B204602F0A9F8397C04
:200FA000204602F0A5F8797C204602F0A1F8B97C204602F09DF8F97C1435204602F098F88E
:200FC000387D282DAAD100254220664E7719C1B2204602F08DF87978204602F089F8B97876
:200FE000204602F085F8F978204602F081F83979204602F07DF87979204602F079F8B9796E
:20100000204602F075F8F979204602F071F8397A204602F06DF8797A204602F069F8B97A89
:20102000204602F065F8F97A204602F061F8397B204602F05DF8797B204602F059F8B97BA5
:20104000204602F055F8F97B204602F051F8397C204602F04DF8797C204602F049F8B97CC1
:20106000204602F045F8F97C204602F041F8397D204602F03DF8797D204602F039F8B97DDD
:201080001735204602F034F8F87D2E2D9ED100254D20354E7719C1B2204602F029F87978BF
:2010A000204602F025F8B978204602F021F8F978204602F01DF83979204602F019F879792E
:2010C000204602F015F8B979204602F011F8F979204602F00DF8397A204602F009F8797A4A
:2010E000204602F005F8B97A204602F001F8F97A204601F0FDFF397B204601F0F9FF797B5A
:20110000204601F0F5FFB97B204601F0F1FFF97B204601F0EDFF397C204601F0E9FF797C69
:20112000204601F0E5FFB97C204601F0E1FFF97C204601F0DDFF397D204601F0D9FF797D85
:201140001635204601F0D4FFB87D2C2DA2D101B0F0BDC046000010405A0120205301202036
:201160000934000080330000AF330000F0B58DB008900120C1077E4C7E4A07077E480A9139
:201180001161E060E068E06081262660104640380C9007601760A025284602F0C9F87748FB
:2011A00000680790266073480446303C27600B940760284602F0BCF86D4806600C98076072
:2011C0006C480760284602F0B3F86C480068069067480660276067480760284602F0A8F885
:2011E000634C26600C98076062480760284602F09FF862480068059026600B9C27605D48A7
:201200000760284602F094F8594806600C98076058480760284602F08BF8584800680490E3
:20122000534806602760534C2760284602F080F84F4806600C9807602760284602F078F8C9
:201240004E48006803904A4806600B9C276049480760284602F06CF8454806600C9807601D
:2012600044480760284602F063F84448006802903F48066027603F4C2760284602F058F804
:201280003B4806600C9807602760284602F050F83A4800680190364806600B9C2760354821
:2012A0000760284602F044F8314806600C98076030480760284602F03BF83048006800905F
:2012C00009962B48066027602A480760284602F02FF80898002807D025480999C1600A983E
:2012E00020602449086007E00A982249086120492148C860C868C8600798C00F0699C90F05
:201300008900C00040180599C90F490040180499C90F401880000399C90F49004018029918
:20132000C90F401880000199C90F490040180099C90F40180890A024204601F0F9FF0C4D1D
:20134000099E2E600C9807600A480760204601F0EFFF2E600B98076006490F600A980861EE
:201360000548E860E868E8600898C0B20DB0F0BD0C804240D0120A4081000E0080130A401E
:20138000F0B585B00546002830D464D000277D20C00001900A262846314601F08DFD46439A
:2013A000A91B3026314302AAD1550A2D59D30A2101F082FD314302A8C0194170642D54D36F
:2013C0006421284601F078FD0A2101F075FD3143FC1C02A8C01981702846019E314601F0B1
:2013E0006BFDB54227460546D4D23BE061487D21C90001912D2101F07BFE6D4200240A27B7
:201400002846394601F058FD4743E91B3027394302AA11550A2D3AD30A2101F04DFD394300
:2014200002A800194170642D35D36421284601F043FD0A2101F040FD3943E71C02A80019E0
:2014400081702846019C214601F036FDA5423C460546D4D21CE04748302101F049FE05B0E2
:20146000F0BD7C1C002C03D182E0BC1C002C7FD0601E032101F020FD481C0027032800D03C
:2014800007463C49009417D125460C4642E0671C002F03D16CE0A71C002F69D0781E032168
:2014A00001F00AFD481C0025032800D00546009719D13C462F4E45E002A8801E019026467B
:2014C0000C46019880194178204601F011FE012F1FD0B51E0198815D204601F009FEBF1EC5
:2014E0002E46EED116E002A8801E0190214E0198C0194178304601F0FBFD012D21D0BC1EF8
:201500000198C15D304601F0F3FDAD1E2746EED118E0751E009803282AD302A82818C61EAD
:20152000B178204601F0E4FD7178204601F0E0FDED1E3178204601F0DBFDF61E002DEFD149
:2015400016E07C1E0098032812D302A82018C51EA978304601F0CCFD6978304601F0C8FD30
:20156000E41E2978304601F0C3FDED1E002CEFD105B0F0BD00001040F0B597B000F000FA22
:20158000411E022905D303280ED004281DD14A4812E004464A48006800F07AFD00280AD095
:2015A000022C0CD049480BE001F0BAFD782001F02FFE424800E0434801F05EFC05E0424898
:2015C00001F05AFCDC2001F023FE414C2068800216D4404D2878002815D1012677053E48D1
:2015E00001F0A6FE206838420DD12E7001F020FE00284FD001F094FD782001F009FE02E08E
:20160000344800210170EFF3108172B6354A107800241470002900D162B6002823D001F054
:20162000BFFD314901F016F8054613A8009016A915AA14AB284600F091FD06AE3046FFF796
:2016400051F81F480068169A159B0799377A36880094019402940391049705962946FFF715
:201660001DFB01F0C9FB2148017801290CD104701348006806AD009521462246234600F00D
:20168000CFFE2846FEF71CFD7D20000201F050FE17B0F0BD0A48006800F0FAFC002804D013
:2016A000DC2001F0B5FD0E4802E001F035FB0B4801F0E2FBA7E7C04632340000E6340000FD
:2016C00018012020BC340000B0340000C734000080330A405201202000E2040095340000A3
:2016E000F0340000570120200AD7A33B5D012020F0B587B004460026314601F070FA054668
:20170000002801D14D4900E04B49204600F0A2FF002D4B4F05D02D210446384601F0E8FC47
:20172000204601F0CBFC0A28029004D23021384601F0DEFC71E007460A253846294601F0AC
:20174000BBFB294601F0B8FB3024214304A88155642F21D36421384601F0AEFB0A2101F046
:20176000ABFB214304A880194170F8087D2815D37D20C100384601F09FFB05460A2101F00E
:201780009BFB2143F41C04A8801981702D48874226462F46D0D202E0741C00E0B41C002CFA
:2017A000274F3AD0601E032101F086FB481C0026032800D00646019402D12546204F16E08C
:2017C00004A8801E03901E4F039800194178384601F08EFC012E09D0A51E0398015D384617
:2017E00001F086FCB61E2C46EED100E0651E0198032812D304A82818C41EA178384601F00F
:2018000077FC6178384601F073FCED1E2178384601F06EFCE41E002DEFD12E21384601F074
:2018200067FC0A21029801F047FB30200143384601F05EFC07B0F0BD000020C1000020414A
:201840000000104010270000F0B589B01F461446059100260690314601F0CAF90028354644
:2018600051D1002F35464ED03B480168204600F0A3FB2746069C214601F040F803903748ED
:20188000056804973846214600F0E4FE294600F098FB0746324D294601F0BCF9002800D1BD
:2018A0003D46304F2846394601F099F9002800D12F462A4807600021384600F0CBFE0546CC
:2018C0008120C105049C204600F0C4FE294600F078FB05462449039800F0BCFE294600F0BB
:2018E00070FB0546214F394601F094F9002800D12F461F4D3846294601F071F9002800D1AA
:201900003D4615480460059C2046294600F059FB07462046294600F04FFB02461548394649
:2019200000F0DEFC1448006801F004FB07461348006801F0FFFA024607AC0194354608AE6E
:2019400000960C483946069B01F04CFB705F615F00F032F909B0F0BD340120202C01202053
:201960000000A0410000A0C10AD7A33C00007042000070C2BC002020380120203C0120208F
:2019800070B586B045480178012932D1EFF3108272B61421C943424B03E06D466D18EC75D3
:2019A000C91C5C18657D002D26D0657D2E46613EF6B21A2E00D2203D6E4676187575A57D67
:2019C000002D1BD0A57D2E46613EF6B21A2E00D2203D6E467618B575002911D0E57D002D96
:2019E00010D0E47D2546613DEDB21A2DD5D2203CD3E7002006B070BD153104E0163102E0A4
:201A0000172100E017316B4600245C54047025480470002A00D162B66D462A786B78AC781D
:201A2000E8782D7905290CD1522A0AD1552B08D14E2C06D1312804D1352D02D1012006B05A
:201A400070BD6E4606290FD1522A0DD1552B0BD14E2C09D1502807D1492D05D17579442D91
:201A600002D1022006B070BD04255326502801D0284600E00320694072404F2C00D028461E
:201A80001143542B03D1002904D106B070BD28460029FAD0284606B070BDC0465301202072
:201AA000000120205A012020F0B5384908463438872202603648022202600A46383A8623F0
:201AC00013600122026085230B61140204604B61530203602F4CE01C48604B684B60086037
:201AE000086808604B68500603434B600B6803430B6082258D60284BCB604D64274D2E4625
:201B00003C3E33606C606E686E600E46083E244F3760346834608124AC622F632C6B2C6309
:201B2000EF61EC69EC612F622C6A2C622F602C682C600C46303C174E266025682560243937
:201B40000E600C680C6017490C68950525430D6015490C6AD20614430C620C6814430C604C
:201B600012490A600A6312490A68042414430C600A69823B13430B610E490A6A801C0243DD
:201B80000A620A6802430A60F0BDC0463C804240D0120A4081000E0082000400C0804240C4
:201BA00081000C00A0130A4028100A40A0320A4090330A4028300A40F0B585B00C467D277E
:201BC000FD003C4A9042034600DC1346AB4200DB2B469442039400DC14461922AC4200DB52
:201BE0002C46334ED1010491334A1380334A148000280197029512D0DA175340D11A4D195C
:201C0000012813DB01223046049901F07DFB04984543F900284601F04FF9074612E00027E4
:201C200001223046394601F06FFB0BE004984543F900284601F040F901460122304601F0C0
:201C400063FB049F0025304639462A4601F05CFB20B2C1174840081A02990F180398184E9A
:201C600000280BD010DD049D6F430198C100384601F022F901460022304602E03046294697
:201C80002A4601F041FB0CE000223046049C214601F03AFB67430198C100384601F00CF97E
:201CA000054601223046294601F02EFB05B0F0BD0000094018FCFFFF700120207201202096
:201CC00000008640F0B5394A8218394BC0183A4D4C790B79002C22D0466F202B02D0052437
:201CE000E70100E0354F2E40002B00D188273E434667846F2C403C438467446B2D4E3440EA
:201D00004463846B3440846300244465846554688F26F643344054609468344094600C6872
:201D20008979202B09D006467036002B15D1641E4460C46E2C40882715E0641E4460C46EBA
:201D40002C401E4E3443C466046F2C40344304671B4D01246707064607E00527FF01640883
:201D60004460C46E2C403C43C46634682C403C433460C46A0F4D2C40C462046B2C400463FF
:201D80000024C4640465C46F8F25ED432C40C46714682C401460194302680A4B1340BD2237
:201DA0000A40D118891C0160F0BDC04684180000041800008888FDFF24493E0001040000C3
:201DC000FFFFFFCF4000FFCFB0B53A4A80184A6842600A78222A56D8930001A4E3589F4600
:201DE0007D1E0000871E00007D1E0000871E0000871E0000871E0000871E0000871E0000CF
:201E0000871E0000871E0000871E0000871E0000871E0000871E0000871E0000871E00009A
:201E20006D1E0000871E00006D1E0000871E0000871E0000871E0000871E0000871E0000AE
:201E4000871E0000871E0000871E0000871E0000871E0000871E0000871E0000871E00005A
:201E60006D1E0000871E00006D1E0000036803242407A343012464071B1903E003680324CB
:201E80002407A34303600B69C360CB68C46A0A4D25400A4C1C402B19C3620368084C1C40E4
:201EA0000460097A114302683F239A43194051180160B0BD041800008888FDFF7777020096
:201EC0007F00FFFFF0B585B00393174602910446066900251046294600F08AFE002861D1B0
:201EE0000120C1073046049188433F21090600F076FE002856D13046029900F05DF8054660
:201F000020680290A6692846314600F055F801906168384600F09EFB0146284600F09AFBDB
:201F200000900298019900F095FB009900F049F80090A068394600F0E1FC07463046019655
:201F4000314600F03EF801460295284600F034F8E16900F036F80146384600F07BFB009950
:201F600000F02FF80146606900F02BF80646039D04996940049100F032FE0746304629460E
:201F800000F048FE002800D13546002F049800D1284660610299A1610199E16101F03EF82C
:201FA000054606E0E168304600F054FB6061A561E561284605B0F0BDFCB40127FF0779407E
:201FC00002E0FCB40127FF070C024D002D0E03D1002C52D1FCBC70473C43FF2D50D0A408A2
:201FE000002900D56442020243001B0E04D1002A43D10800FCBC70473A43FF2B41D09208F1
:20200000002800D552425E1B04D5170022003C0076422B00192E06D527003741D2191C2796
:20202000F71B7F42BC40002A27D002D55242012700E00027013B5200FCD515008026354087
:202040000FD01500202635402C43803208D21500402635402C4304D101263602B24300E06E
:202060005B1C5200023308DDFF2B0BD2500ADB051843FF073843FCBC70470020FCBC704762
:202080000800C70FFF07FF20C0053843FCBC7047F0B581B004461E4E31780020062934D8FE
:2020A00001252A468A4061210A422ED000F0D2FF1848002707601848076018480770184847
:2020C000077018480760184807601848077018480780184807601848076018480760184888
:2020E0000460184807701848077004203070174804601748076017480760174801F026F84D
:202100000548076000F008FE284601B0F0BDC0467401202020012020440120205E01202009
:202120005B012020280120202C012020560120204C01202034012020380120203C0120209E
:20214000300120205501202054012020400120201C01202048012020BC002020F0B583B0A8
:202160001D4600920F460446EFF3108072B627490E68274909680291002800D162B60021A5
:20218000204600F035FD0028019500D0214C22490868224A15680E6002991160002F0BD074
:2021A000301A00F0C7FE1E4900F054FA214600F0A5FB00F033FF3860009F002F0CD0029886
:2021C000401B00F0B7FE164900F044FA214600F095FB00F023FF3860089C019D002D08D09A
:2021E000304600F0A7FE0E4900F034FA00F016FF2860002C08D0029800F09CFE084900F069
:2022000029FA00F00BFF206003B0F0BD60012020640120200AD7A33B680120206C01202066
:202220009C9D0F3F80B582B0184900220A7018490A6018490A6018490A6018490A60184926
:202240000A6018490A7018490A6018490A7018490A6018490A6018490A7018490A801849D6
:202260000A6018490A6018490A6018490870184908701848009201901748FF218905174BBA
:2022800000F06CFC00F048FD02B080BD740120203001202040012020200120204401202035
:2022A000480120205E0120201C0120205B012020280120202C012020560120204C01202003
:2022C00034012020380120203C012020540120205501202000007A44BC0020200AD7233C6E
:2022E000F0B583B0002846D00E460446174623493046019100F073FC0290214D3046294615
:2023000000F088FC0028284600D13046029900291A4900D1014602913846184900F05FFC70
:2023200006463846294600F075FC002800D13D46002E00D10195E66821690298FFF73CFE50
:2023400001466769304600F085F93946FFF739FE6061E66A216B019D2846FFF72DFE0146C5
:20236000676B304600F076F93946FFF72AFE029921612563606303B0F0BDC046000048C340
:2023800000004843002A49D084468B071CD1830722D1102A08D370B4103A78C978C0103A63
:2023A000FBD270BC103238D0042A2CD3082A05D30C2A01D308C908C008C908C008C908C0CE
:2023C00092072AD0920F22E00B780370491C401C521E22D08B07F7D1C30714D18307D8D073
:2023E000121F12D308C903801B0C4380001D121FF8D20AE008C903701B0A43701B0A837053
:202400001B0AC370001D121FF4D2121D05D00B780370491C401C521EF9D160467047FEE719
:2024200070B5049C002C2DD0174D2D782570174D2D68401B0525454315480068154E366844
:202440006560A16021460C3145C1237612480078607600F0FDFE11490968E06121621048F9
:202460000078242160540F480088E0840E4800680E490968A062E16200F04EFF208600F00A
:2024800051FF608670BDC046740120203001202044012020480120205501202028012020A0
:2024A000560120204C012020380120203C01202070B582B01B491C4C204600F0E5FE1B4942
:2024C0002046FFF7FFFB1A4801681A4A0A40026000250095204629462A462B4600F0E2FE8B
:2024E000204629462A4600F0C1FE204629462A4600F00AFF01260096204629462A462B4637
:2025000000F0D0FE20462946324600F0AFFE20462946324600F0F8FE074886600321016026
:2025200002B070BD4C3500000000094004350000041809407F00FFFF0011094070B582B026
:202540001B491C4C204600F09FFE1B492046FFF7B9FB1A4801681A4A0A40026000250095B3
:20256000204629462A462B4600F09CFE204629462A4600F07BFE204629462A4600F0C4FE76
:2025800001260096204629462A462B4600F08AFE20462946324600F069FE2046294632465F
:2025A00000F0B2FE074886600321016002B070BD4F350000000086400C3500000418864075
:2025C0007F00FFFF0011864040B542004B005E08164301D006004E4000D4D01A04D201204C
:2025E000C90F06D1404204E003D90120C90F00D04042FF263606B24200D8B34200D9012083
:2026000040BD40B542004B005E08164301D006004E4000D4D01A04D20120C90F06D1404231
:2026200004E003D90120C90F00D04042FF263606B24200D8B34201D90120404240BD4200B1
:202640004B000020FF2109068A4200D88B4200D901207047FCB40127FF0706004E4001D477
:20266000002600E03E00020243001B0E30D03A43FF2B30D00C024D002D0E29D03C43FF2DC5
:2026800029D05B194240504042404C4061404C4000B500F06DFC20BCAE464240504042400E
:2026A0004C4061404C4025001400002C01D46400013B803401D3013364087E3B08DDFF2B97
:2026C00009D2BC43200ADB0518433043FCBC70470020FCBC7047FF20C0053043FCBC704784
:2026E00010B51B491B4C204600F0F3FD1A49204600F05EFB194801680322D20391430160F9
:202700000169174A0A4011320261416917220A4328218A434261426801210A4043688B4386
:202720009A1842600F4A13688C021C43146002684B0413430360C26870231343C360C2683E
:202740000A4306239A43C26002680A43026010BD5234000000001040D234000000111040E1
:202760000000FFFF2810104010B51B491B4C204600F0AFFD1A49204600F01AFB19480168A9
:202780000322D203914301600169174A0A4011320261416917220A4328218A4342614268BC
:2027A00001210A4043688B439A1842600F4A13688C021C43146002684B0413430360C2680F
:2027C00070231343C360C2680A4306239A43C26002680A43026010BD0235000000201040C1
:2027E000DC340000003110400000FFFF28301040F0B581B014460546154805701548016097
:20280000154800270760154E3760154800F09EFC05202840012810D1134804601348C05724
:202820000028134D294600DA12492046FFF7C9FB0C490860356001B0F0BD0A480460022DB7
:2028400003D0042D01D000F067FA01B0F0BDC04674012020400120201C01202048012020D2
:20286000BC00202044012020200120205E01202000002A4300002AC3F0B583B01A48002122
:2028800001801A4801600120C207194C2261194B19491960196819601E460C3E8121316008
:2028A00001912546403D07072F602760196020463038029202602260A024204600F038FD6C
:2028C000019830602F600A4D2F60204600F030FD029828610848074908600868086020466E
:2028E00000F026FD03B0F0BD4E01202024012020D0120A401880424081000E00FCB40127C4
:20290000FF0706004E40F60FF607020243001B0E2DD03A43FF2B2DD00C024D002D0E26D07E
:202920003C43FF2D26D05B1B0020202164085208A2424041A24200D3121B013904D0002AD8
:2029400001D05200F4D18840384201D14000013B803001D3013300E040007F3307DDFF2B67
:2029600008D2400ADB0518433043FCBC70470020FCBC7047FF20C0053043FCBC704770470A
:20298000F0B50020C0431849184B0127FA067E06103B1D6815400B46103B1B68002D09D0B5
:2029A000134C24683442044600D03C46114F396861183960B71C334208D00F490968C90253
:2029C00000D501200D490C68001908603B40002D03D00649086810430860002B03D0024978
:2029E000086818430860F0BD48300A4048100A4080130A406001202080330A406401202073
:202A0000F8B5451C00780023082B32D02F78C2070CD16A780F241440E41C122C0BD10224E2
:202A20002E57F4B2002E08D4EE1C0EE06D1C4A1C0F7011461AE0AE1C08E02E1DED780095B3
:202A40007F252C40009DED012C1912343D0112095219094DAA420ED0D243002C05D08D5C6D
:202A60004F1C0D70641E3946F7E7354640085B1CCAE72846C5E7F8BDFF0F0000F0B581B0F1
:202A800010481149416011484160114B5960114C6160114D6960114E7160114F79601148CD
:202AA00041601149074A1160084A1160196021602960316039600160102000F039FC01B082
:202AC000F0BDC04600080A40030000B100280A4000080940000886400008874000280F4066
:202AE000000810400028104001000026F0B5164A1068C0B20B2825D1144801218B029362C7
:202B0000026852071ED4124A124B134C06E01D7800266655117005686D0713D4C569167887
:202B2000002EF8D1EEB20D2EF5D00A2EEFD01E78162E04D81E78771C1F70A555EBE70025A8
:202B40001D70E8E7F0BDC0462010104008111040530120205A01202000012020F0B585B033
:202B600000282ED0044602A80EC00B9F00253846294600F034F80190134E3846314600F0BE
:202B800049F8002800D13E460A98019900292946049A00D131462164029B236003996160BB
:202BA000A260E060256123626162A262E06225632946FFF74FFD6061A561E5616063A563AE
:202BC000E56305B0F0BDC04600007A4410B5FFF7FBFC002801D0002010BD012010BD10B53C
:202BE000FFF7F2FC002801DB002010BD012010BD10B5FFF7E9FC002801DD002010BD01205E
:202C000010BD10B5FFF7FDFC002801DA002010BD012010BD10B5FFF7F4FC002801DC002085
:202C200010BD012010BD000080B51149114800F0CBFA11480168032252020A4302600268E8
:202C400001210B02134303600022426107224262836B93438363836B120293438363826AA6
:202C6000042313438362826A0A43826280BDC0465535000000200F4000320F400E4800685A
:202C8000C0B2012816D10D480168491C01600C480178FF2902D00178491C0170094801784E
:202CA000491CCAB20170142A04D3002101700648012101707047C04620108740180120202D
:202CC000570120205C0120205D01202080B500F0DBF900F047F8FFF7CFFD00F089FA0020A4
:202CE000FFF7A0FAFEF710F9084800F0C5F801204105074A1160074B19604003106018602A
:202D00000220106018601060186080BDDC33000080E200E000E100E070B50E48002404804F
:202D20000D4804800D4E0125304621462A4600F0EBFA30462146224600F0E6FA084E304636
:202D40002146224600F0E0FA304621462A4600F0DBFA70BD700120207201202000000940EE
:202D60000000864070B50E48002404800D4804800D4E0125304621462A4600F0C5FA30469E
:202D80002146224600F0C0FA084E30462146224600F0BAFA304621462A4600F0B5FA70BD62
:202DA0007001202072012020000009400000864070B511221302C218C4580125AC43C45014
:202DC0000C888D7825438C882C43C558084E2E40084D25407419C4508879CB790343087A26
:202DE000184351687E23994318400818506070BDE798FDFF1867000010B50C480188002928
:202E00000ED00B4A13785C1C1470DA0703D00122D206084B1A61491E0180080400D010BDEA
:202E20000120C0060349086010BDC0465001202058012020A0320A400D48002101600D48B2
:202E4000011F0A680323DB4313400B604168012291434160416812029143416001683022B0
:202E60009143016001680F22914301607047C04608030B4004010B4070B50178002917D03D
:202E80000C4CC51CAE1EC9B2204600F031F9317800290DD06E1E204600F02AF931780029AC
:202EA00006D0204600F024F92978ED1C0029E9D170BDC046000010401CB50A0017D00023D4
:202EC0000124E407A04200D20400944201D95200FBE790425B41904200D3801A914201D2F3
:202EE0005208F6E719000200080011001CBD01000020FFF744FD1CBD70B50A480A4C8442CA
:202F00000CD00A4D0A4EB54208D02A686968501C12789200A25890470835F4E700BF00BF05
:202F200070BDC0466C350000603500007C3500008C35000006B49E22002802D404D106BCA7
:202F40007047414204D400E00100013A4900FCD5803101D3013200E04900490AD2051143CA
:202F6000002802D50122D2071143080006BC7047FCB4020C0B0CFF242402FF34204021406F
:202F80000C00444315005D4306005E430F005743320C3B0CA818C01832043B040025A11829
:202FA0006841C9186841FCBC7047000010B50849084C204600F068F907492046FEF704FFA0
:202FC000064801680122114301600548026010BD49350000000087407034000028108740FE
:202FE00008118740F0B581B0002815D0069D002D12D0079F002F0FD01C46036C06460092F9
:203000002246FEF75FFF2880336C2036304600992246FEF757FF388001B0F0BD06B5410084
:20302000090E7F390DD41F22511A0CD9864600020122D2071043C8407246002A00D54042F1
:2030400006BD002006BD02000120C007002A00D4401E06BDEFF3108072B6074900220A604B
:2030600006490A6006490A6006490A60002800D0704762B67047C04660012020640120205B
:20308000680120206C01202080B5FFF7F7FCFEF70BFDFFF7D1FEFFF70BFAFFF74FFAFFF7CA
:2030A00085FFFFF7C1FDFFF71BFBFFF75DFB0248B8210022425480BD0000202006B5002843
:2030C00003D57346FFF7AAFF06BD4100090E7F3908D31F22511A07D300020122D20710433B
:2030E000C84006BD002006BD0020401E06BD00000A4A80180268120605D50268120602D540
:2031000002681206F6D481610168C90705D00168C90702D00168C907F6D170470811000098
:2031200080B508480078062807D8012181406120014202D0FFF7F0FD80BD0348012101700E
:2031400080BDC046740120205B012020B0B5002810D0C168026904461046FFF77BFA0025AA
:203160006061A561E561E16A206BFFF773FA6063A563E563B0BD0000084880F3088800BF77
:2031800000BF00F0FAF8002801D0FFF7B5FE002000F0A8F8012000F0E9F8C0460080202084
:2031A00002B49E21002805D401D102BC704701394000FCD5803001D3013100E04000400AE7
:2031C000C905084302BC704770B50122120383180C785D680C26B54334402C195C604978C0
:2031E00083580724A34321405918815070BD0000044800210180044801700120C006034935
:20320000086070475001202058012020A0320A4080B5001D0521FFF74FFE0349088003486F
:203220000021017080BDC0465001202058012020064802780121062A0B4600D800237F208A
:2032400002401E20D0401843084070477401202003480078002801D1034870470148704710
:2032600059012020A43400001435000010B592008018044A83580724A404A34321405918F0
:20328000815010BD3018000010B50122120383180C789C604B7883508978014A815010BDB0
:2032A0000C11000010B5029CA400001911431943014A815010BDC0465018000003228058CD
:2032C000002805D0401E4A1C00230B701146F7E7704710B50122120383180C789C604978CA
:2032E000815010BDFFF7F2FCFEF746F9FEF744F9FEF742F9F8E780B50B4603214258C11DB5
:20330000184600F02FF880BD92008018014A81507047C0461018000000200149085E704749
:203320007001202000200149085E704772012020811E091F00BFFCD2704780B5FFF720FB51
:2033400080BD80B5FFF7D2FB80BD80B5FFF7F5FF80BD80B5FFF792FC80BD80B5FFF7F1FF8E
:2033600080BD000080B5FFF70DF880BD00F001F8FEE700BF7047FFE67047012070470000EB
:203380004232312F52554E5049442F52554E31353A2067726179206C696E65203330733BF7
:2033A0002053544F502061626F7274730D0A004D5055363035302064697361626C65643B95
:2033C00020656E636F64657220737065656420504944206163746976650D0A004D505536E4
:2033E0003035303D44495341424C45443B20423231207374617274732067726179206C693A
:203400006E65203330730D0A004E43484431322067726179206C696E652064656D6F205577
:20342000415254312031313532303020384E310D0A00436F6D6D616E64733A2052554E506C
:2034400049442C2052554E31352C2053544F500D0A0008003B3500002A350000F93400008B
:203460002A35000023350000363500003035000002000000FF700200010000000000000051
:20348000000000003031323334353637383941424344454600455252204232312062757372
:2034A000790D0A004D5055363035302D455252004F4B2052554E5049440D0A0045525220FD
:2034C000627573790D0A004F4B2052554E31350D0A00000018000000003000000000180086
:2034E0000000003000004F4B2053544F500D0A004F4B204232310D0A0053545241494748FD
:2035000054000800800C000020000100800C0000200101004D50553630353000284C4F5321
:203520005429004C494E4533300043555256450041424F525400444F4E450049444C450042
:20354000284F4B2900455252000800000800000800004F4B0008003F00000000000000009E
:20356000012A0000F7320000BD320000020000005F010000000100000F02FFF06C35000004
:1035800000002020743500006001202000000000B1
:00000001FF
