:2000000000802020633500000B2600000B2600000000000000000000000000000000000026
:200020000000000000000000000000000B26000000000000000000000B2600000B2600002D
:200040000B260000373500000B2600000B2600000B2600000B2600000B2600000B260000DD
:20006000000000000B2600000B2600000000000000000000473500000B2600000B26000040
:200080000B2600000B2600000B2600000B2600000B2600003F3500000000000000000000F7
:2000A0000B2600000B26000000000000000000000B260000000000000B2600000B2600004B
:2000C000F0B58FB0002800D104E30446B74F6D21384603F003F97321384603F0FFF83D21B7
:2000E000384603F0FBF86568002D0B942DD000270A262846314602F0D5FF4643A91B302661
:2001000031430CAAD1550A2D24D30A2102F0CAFF31430CA8C0194170642D1DD36421284655
:2001200002F0C0FF0A2102F0BDFF3143FE1C0CA8C01981707D20C100284602F0B3FFE908C8
:200140007D2937460546D3D207E03021384603F0C5F841E07E1C00E0BE1C002E934F3BD096
:20016000701E032102F09EFF481C0027032800D00746099602D135468C4C16E00CA8801E5E
:200180000A908A4C0A9880194178204603F0A6F8012F09D0B51E0A98815D204603F09EF8B9
:2001A000BF1E2E46EED100E0751E09980328274612D30CA82818C61EB178384603F08EF8A6
:2001C0007178384603F08AF8ED1E3178384603F085F8F61E002DEFD12021384603F07EF878
:2001E0007321384603F07AF874253846294603F075F86121384603F071F83846294603F066
:200200006DF86521384603F069F83D21384603F065F80B9E3078062803D88000644909580D
:2002200000E064490878002816D0CD1CAC1EC1B2384603F053F8217800290DD06C1E38461A
:2002400003F04CF82178002906D0384603F046F82878ED1C0028E9D12021384603F03EF8AD
:200260006721384603F03AF87921384603F036F87221384603F032F86F21384603F02EF8C5
:200280003D21384603F02AF8707E002804D0307E00280FD148490EE04F21384603F01EF857
:2002A00046253846294603F019F83846294603F015F81AE041490878002816D0CD1CAC1E30
:2002C000C1B2384603F00AF8217800290DD06C1E384603F003F82178002906D0384602F09B
:2002E000FDFF2878ED1C0028E9D12021384602F0F5FF6221384602F0F1FF6121384602F0FD
:20030000EDFF6321384602F0E9FF6B21384602F0E5FF6521384602F0E1FF6E21384602F060
:20032000DDFF6421384602F0D9FF3D21384602F0D5FFF1690878002816D0CD1CAC1EC1B264
:20034000384602F0CBFF217800290DD06C1E384602F0C4FF2178002906D0384602F0BEFF42
:200360002878ED1C0028E9D12021384602F0B6FF6C21384602F0B2FF6921384602F0AEFF37
:200380006E21384602F0AAFF6521384602F0A6FF3D21384602F0A2FF306A01F08FFA242053
:2003A000305C00280CD1CD490BE0C046000010404436000047370000353700004237000078
:2003C000C5490878002816D0CD1CAC1EC1B2384602F084FF217800290DD06C1E384602F0CF
:2003E0007DFF2178002906D0384602F077FF2878ED1C0028E9D120210991384602F06EFFC0
:2004000067210891384602F069FF72210791384602F064FF61210491384602F05FFF792661
:2004200038463146019602F059FF3D210A91384602F054FF30210391384602F04FFF7821EE
:20044000384602F04BFF0B98C48C200BA44D295C384602F043FF2005000F295C384602F073
:200460003DFF2006000F295C384602F037FF0F202040295C384602F031FF3846099C2146A2
:2004800002F02CFF3846314602F028FF3846049E314602F023FF77210591384602F01EFFCB
:2004A00038460A9902F01AFF0B98806801F006FA3846214602F012FF742438462146029499
:2004C00002F00CFF3846314602F008FF3846079902F004FF3846089902F000FF65210691F1
:2004E000384602F0FBFE3846214602F0F7FE5F210891384602F0F2FE3846019D294602F0D1
:20050000EDFE3846314602F0E9FE3846059C214602F0E4FE38460A9902F0E0FE0B98C0680C
:2005200001F0CCF93846099E314602F0D7FE3846294602F0D3FE3846049D294602F0CEFEA6
:200540003846214602F0CAFE3846089902F0C6FE3846079C214602F0C1FE3846294602F00F
:20056000BDFE3846029D294602F0B8FE3846069902F0B4FE38460A9902F0B0FE0B980069FE
:2005800001F09CF93846314602F0A8FE3846294602F0A4FE7521384602F0A0FE384621463E
:2005A00002F09CFE6E21384602F098FE3846089902F094FE3846069E314602F08FFE3846E1
:2005C000214602F08BFE3846214602F087FE38460A9D294602F082FE0B9C606901F06EF90F
:2005E0003846099902F07AFE7321384602F076FE70210491384602F071FE3846314602F00D
:200600006DFE3846314602F069FE6421384602F065FE3846294602F061FE2546A06A00F026
:20062000AFFE2F243846214602F058FEE86A00F0A7FE3846099902F051FE3846049E3146AE
:2006400002F04CFE3846059902F048FE6D253846294602F043FE3846089902F03FFE38468C
:20066000314602F03BFE3846069E314602F036FE3846079902F032FE3846294602F02EFECE
:200680006921384602F02AFE6C253846294602F025FE3846294602F021FE3846314602F0C0
:2006A0001DFE38460A9902F019FE03980B9D285E00F066FE3846214602F010FE3220285E1B
:2006C00000F05EFE0D21384602F008FE0A21384602F004FE0FB0F0BD303700000C37000077
:2006E00074360000F0B58BB0002800D14AE106900120C407BD4DBE4F049001070A91BD4877
:200700003C612860286828600C3D81262E6038464038079001603960A020089002F0FEFE51
:20072000B24806603846303F3C60099404600A9C089802F0F3FE08952E60354605973C60C8
:20074000AB4F3C60402000F05BF9002800D1EDE00026304600F054F9002800D1E6E0039668
:20076000099C3C61A14A3946A24F176010681060089805600A9F079807600F60A02630461E
:2007800002F0CCFE9948056005990C60984804603046089E0C4602F0C1FE356027609448F2
:2007A0000760412000F02CF9002800D1EDE0049800F0DCFC0390002000F0D8FC02908B4F4F
:2007C0003D60099F27608A4807602C463546A026304602F0A3FE2C600A9807990860844C52
:2007E0002060304602F09AFE276182487F49086008680860304602F091FE02980007020D78
:2008000003981418601E264686417C480768002C00D1E6E0784804800120214609900140C4
:200820000220204008906006C30F18460B304D1CD20A002A00D0CDE0184600D1CCE00029DD
:2008400000D00B38042222400899002901D00B38801C08212140002A029501D00B38001D07
:20086000102525400795002905930192009101D00B38801D202121408A06D21780230A9450
:200880002340099C2402079D002D039601D00B380830099D6E020A9D2C408018002B00D0B8
:2008A000C01C099A92020A9D2E40002C00D0401D0A9D2A40002E00D0C01D089D6D08089514
:2008C000019DAD080195009DED080095079D2D094909DB090993230A0793740A960A002A4D
:2008E00000D00930029A089BD218019BD218009BD21852195118059A8918099A8918079AC2
:20090000891809198C1902F00BFC0546204602F03DFD0146284602F0E7F8002C00D00746CA
:20092000364807600699039E0A9C5BE02F4E35600A9C3946099F059807600F602E46A02526
:20094000284602F0EBFD089806600798046028480460284602F0E2FD254807612548234985
:20096000086008680860284602F0D8FD224800880699088021480768002630464F600E7246
:200980000BB0F0BD00200BB0F0BD184F3D60099F2760174807602C46A025284602F0BEFD1C
:2009A00034600A9807990860114C2060284602F0B5FD27610F480D49086008680860284627
:2009C00002F0ACFD0C480088069908800B480768039ED2E700D032E70D46002900D030E711
:2009E00030E706990C800498C8E7C04618804240D0120A4081000E00520120202401202097
:200A0000F0B587B002900120C107A04EA04A0707812535601446303C059121601160A02050
:200A2000069002F07BFD0C3E3560994908464038049007600F60069802F070FD059906968E
:200A40003560276092480760029840280195039405D28E48056021608D48016006E08C4887
:200A600001618A498B48086008680860A025284602F054FD069E019C346004980760844814
:200A80000760284602F04AFD3460039A1760804807600298800606D47C4804600599116040
:200AA0007B48016007E07A480599016177497948086008680860A025284602F02FFD069EB3
:200AC00034600498076072480760284602F026FD3460039A17606E4807600298C00606D4DC
:200AE0006A480460059911606948016007E068480599016165496748086008680860A025C6
:200B0000284602F00BFD069E34600498076060480760284602F002FD3460039A17605C4878
:200B200007600298000706D458480460059911605748016007E05648059901615349554802
:200B4000086008680860A025284602F0E7FC069E3460049807604E480760284602F0DEFCDB
:200B60003460039A17604A4807600298400706D446480460059911604548016007E04448B7
:200B80000599016141494348086008680860A025284602F0C3FC069E3460049807603C485D
:200BA0000760284602F0BAFC3460039A1760384807600298800706D434480460059911603F
:200BC0003348016007E03248059901612F493148086008680860A025284602F09FFC069E43
:200BE0003460049807602A480760284602F096FC346003990F60264807600298C00706D1E7
:200C0000224D2C60059A0A602148026007E02048059A02611D4D1F48286028682860A0247F
:200C2000204602F07BFC019E069806600498076017480760204602F071FC06980660039815
:200C4000076013480760059901611248286028682860204602F062FC069D2E600498076087
:200C60000B480760204602F059FC0B48006805902E600398076006480760204602F04EFCD6
:200C80000598C043C00F07B0F0BDC04618804240D0120A4081000E0080130A40F0B585B0EF
:200CA0001C46154604910CAF8ECF814E3560814D2C60814C2170814C2260814C2370814C32
:200CC0002780814C2578062D04D80126AE4061273E4219D17D4F3E78002E0ED1002903D161
:200CE0007B490978C90708D17A490968411A052603967143784EB1420AD30020387006207B
:200D00002070784802F018FB02F0FCF805B0F0BD6D1E032DF8D80B9902910A9E6F490968A3
:200D2000471A03994F43C0467D442D796D00AF4401632F5A019603906B49049800F06AFE98
:200D40006A4807780126F107029D284688434121090602F04CF8002876D0002F74D1284674
:200D60000027394602F043F8002800D1FE435F4806705F480568304602F0D2F906465D4910
:200D800001F05EFD294601F070FA5E49086064E0039037465449049800F03CFE53480021BB
:200DA0004056C4B202F0BCF90646514801683D46384601F055FA314601F042FD0646002CD2
:200DC00000D126464B48314601F04AFA002C4A4908609BD04749304602F009F8002895D07F
:200DE000052003992BE01046194600F0C5FB3C4887428BD3039883E7354604463F49049829
:200E000000F008FE3948067870B202F089F90146029801F015FDF9087D2943D3002E41D067
:200E20004121090601F0E3FF00283BD034480168491D0160962900D268E7032021462A46B5
:200E400001F0CCFD05B0F0BD002F00D15EE72848056878B202F064F906460198294601F096
:200E6000FFF9314601F0ECFC0546224E3046294601F0F6F9204F38602846314601F0B7FF17
:200E8000002800D142E7022020700398134908601B48002101603960124802F04DFA1948AD
:200EA000019901E016480021016005B0F0BDC0463C0120204001202058012020280120206F
:200EC0005A0120205001202078012020600120205901202030012020A0BB0D004401202094
:200EE00030750000BC0020200000DC42630120202001202000002A434C01202000004843A9
:200F00001C01202048012020F0B581B0914C924800250570914805704E20914E7719C1B226
:200F2000204602F0DBF97978204602F0D7F9B978204602F0D3F9F978204602F0CFF93979D4
:200F4000204602F0CBF97979204602F0C7F9B979204602F0C3F9F979204602F0BFF9397AF0
:200F6000204602F0BBF9797A204602F0B7F9B97A204602F0B3F9F97A204602F0AFF9397B0C
:200F8000204602F0ABF9797B204602F0A7F9B97B204602F0A3F9F97B204602F09FF9397C28
:200FA000204602F09BF9797C204602F097F9B97C204602F093F9F97C1435204602F08EF9B2
:200FC000387D282DAAD100254220664E7719C1B2204602F083F97978204602F07FF9B97888
:200FE000204602F07BF9F978204602F077F93979204602F073F97979204602F06FF9B97992
:20100000204602F06BF9F979204602F067F9397A204602F063F9797A204602F05FF9B97AAD
:20102000204602F05BF9F97A204602F057F9397B204602F053F9797B204602F04FF9B97BC9
:20104000204602F04BF9F97B204602F047F9397C204602F043F9797C204602F03FF9B97CE5
:20106000204602F03BF9F97C204602F037F9397D204602F033F9797D204602F02FF9B97D01
:201080001735204602F02AF9F87D2E2D9ED100254D20354E7719C1B2204602F01FF97978D1
:2010A000204602F01BF9B978204602F017F9F978204602F013F93979204602F00FF9797952
:2010C000204602F00BF9B979204602F007F9F979204602F003F9397A204602F0FFF8797A6F
:2010E000204602F0FBF8B97A204602F0F7F8F97A204602F0F3F8397B204602F0EFF8797B8E
:20110000204602F0EBF8B97B204602F0E7F8F97B204602F0E3F8397C204602F0DFF8797CA9
:20112000204602F0DBF8B97C204602F0D7F8F97C204602F0D3F8397D204602F0CFF8797DC5
:201140001635204602F0CAF8B87D2C2DA2D101B0F0BDC046000010405F012020570120203D
:20116000F9350000703500009F350000F0B58DB008900120C1077E4C7E4A07077E480A9164
:201180001161E060E068E06081262660104640380C9007601760A025284602F0BFF9774804
:2011A00000680790266073480446303C27600B940760284602F0B2F96D4806600C9807607B
:2011C0006C480760284602F0A9F96C480068069067480660276067480760284602F09EF997
:2011E000634C26600C98076062480760284602F095F962480068059026600B9C27605D48B0
:201200000760284602F08AF9594806600C98076058480760284602F081F9584800680490F5
:20122000534806602760534C2760284602F076F94F4806600C9807602760284602F06EF9DB
:201240004E48006803904A4806600B9C276049480760284602F062F9454806600C98076026
:2012600044480760284602F059F94448006802903F48066027603F4C2760284602F04EF916
:201280003B4806600C9807602760284602F046F93A4800680190364806600B9C276035482A
:2012A0000760284602F03AF9314806600C98076030480760284602F031F930480068009071
:2012C00009962B48066027602A480760284602F025F90898002807D025480999C1600A9847
:2012E00020602449086007E00A982249086120492148C860C868C8600798C00F0699C90F05
:201300008900C00040180599C90F490040180499C90F401880000399C90F49004018029918
:20132000C90F401880000199C90F490040180099C90F40180890A024204602F0EFF80C4D2D
:20134000099E2E600C9807600A480760204602F0E5F82E600B98076006490F600A980861FE
:201360000548E860E868E8600898C0B20DB0F0BD0C804240D0120A4081000E0080130A401E
:20138000F0B585B00546002830D464D000277D20C00001900A262846314601F083FE4643A3
:2013A000A91B3026314302AAD1550A2D59D30A2101F078FE314302A8C0194170642D54D378
:2013C0006421284601F06EFE0A2101F06BFE3143FC1C02A8C01981702846019E314601F0C3
:2013E00061FEB54227460546D4D23BE061487D21C90001912D2101F071FF6D4200240A27C9
:201400002846394601F04EFE4743E91B3027394302AA11550A2D3AD30A2101F043FE394312
:2014200002A800194170642D35D36421284601F039FE0A2101F036FE3943E71C02A80019F2
:2014400081702846019C214601F02CFEA5423C460546D4D21CE04748302101F03FFF05B0F4
:20146000F0BD7C1C002C03D182E0BC1C002C7FD0601E032101F016FE481C0027032800D045
:2014800007463C49009417D125460C4642E0671C002F03D16CE0A71C002F69D0781E032168
:2014A00001F000FE481C0025032800D00546009719D13C462F4E45E002A8801E0190264684
:2014C0000C46019880194178204601F007FF012F1FD0B51E0198815D204601F0FFFEBF1ED8
:2014E0002E46EED116E002A8801E0190214E0198C0194178304601F0F1FE012D21D0BC1E01
:201500000198C15D304601F0E9FEAD1E2746EED118E0751E009803282AD302A82818C61EB6
:20152000B178204601F0DAFE7178204601F0D6FEED1E3178204601F0D1FEF61E002DEFD164
:2015400016E07C1E0098032812D302A82018C51EA978304601F0C2FE6978304601F0BEFE42
:20156000E41E2978304601F0B9FEED1E002CEFD105B0F0BD00001040F0B585B0002921D00D
:2015800005465E4901F02AFC00281ED15C49284601F024FC00281AD15A49284601F01EFCD8
:2015A000002816D10324A107284601F017FC002811D100262846314601F007FC002873D067
:2015C000FF2609E04C48067806E0F62604E0F92602E0FB2600E0FD26029675B2284601F0C2
:2015E0009FFD06464C480068314600F03EFE07464A4C214601F004FC002800D13C46484F17
:201600002046394601F0E1FB002800D12746424807604449384601F013F90446424930466E
:2016200001F00EF9214600F020FE06460027324CE057281A01F074FD354901F001F9314691
:2016400000F013FE02992170FF21890501F0F8F8364901F0F5F80446354D2846214600F0E0
:20166000FFFD06462046294600F0FFFD02463148314600F02BFF3048006801F051FD0546A5
:201680002E48006801F04CFD024603AE019604AC00942B4B2748294601F09AFDE05FF15FF3
:2016A00000F070FB05B0F0BD7F20C105284601F095FB002890D11449284601F08FFB002822
:2016C00014D11249284601F089FB0028264683D10F49284601F082FB002809D10D49284605
:2016E00001F07CFB002805D0072675E7012673E7052671E70A266FE75E012020000010C102
:201700000000C0C0000080C0000040400000A0400000E04000001041380120200000484334
:20172000000048C39A99193E0000C842EC51383D00002043BC0020203C01202040012020FB
:201740000AD7A33BF0B597B000F000FA411E022905D303280ED004281DD14A4812E00446A1
:201760004A48006800F00EFD00280AD0022C0CD049480BE001F0CAFD782001F03FFE4248E4
:2017800000E0434801F06EFC05E0424801F06AFCDC2001F033FE414C2068800216D4404D91
:2017A0002878002815D1012677053E4801F0B6FE206838420DD12E7001F030FE00284FD0C9
:2017C00001F0A4FD782001F019FE02E0344800210170EFF3108172B6354A1078002414709D
:2017E000002900D162B6002823D001F0CFFD314901F026F8054613A8009016A915AA14ABA3
:20180000284600F0FFFD06AE3046FEF76BFF1F480068169A159B0799377A3688009401947E
:2018200002940391049705962946FFF737FA01F0D9FB2148017801290CD1047013480068CD
:2018400006AD009521462246234600F0DFFE2846FEF736FC7D20000201F060FE17B0F0BD44
:201860000A48006800F08EFC002804D0DC2001F0C5FD0E4802E001F045FB0B4801F0F2FBEF
:20188000A7E7C04622360000D636000018012020AC360000A0360000B736000080330A4055
:2018A0005601202000E2040085360000E03600005B0120200AD7A33B62012020F0B587B000
:2018C00004460026314601F080FA0546002801D14D4900E04B49204600F0B2FF002D4B4F99
:2018E00005D02D210446384601F0F8FC204601F0DBFC0A28029004D23021384601F0EEFCA6
:2019000071E007460A253846294601F0CBFB294601F0C8FB3024214304A88155642F21D372
:201920006421384601F0BEFB0A2101F0BBFB214304A880194170F8087D2815D37D20C100E3
:20194000384601F0AFFB05460A2101F0ABFB2143F41C04A8801981702D48874226462F4698
:20196000D0D202E0741C00E0B41C002C274F3AD0601E032101F096FB481C0026032800D04E
:201980000646019402D12546204F16E004A8801E03901E4F039800194178384601F09EFC03
:2019A000012E09D0A51E0398015D384601F096FCB61E2C46EED100E0651E0198032812D351
:2019C00004A82818C41EA178384601F087FC6178384601F083FCED1E2178384601F07EFCDA
:2019E000E41E002DEFD12E21384601F077FC0A21029801F057FB30200143384601F06EFC52
:201A000007B0F0BD000020C1000020410000104010270000F0B589B01F4614460591002640
:201A20000690314601F0DAF90028354651D1002F35464ED03B480168204600F011FC27468C
:201A4000069C214601F050F803903748056804973846214600F0F4FE294600F006FC0746B5
:201A6000324D294601F0CCF9002800D13D46304F2846394601F0A9F9002800D12F462A4867
:201A800007600021384600F0DBFE05468120C105049C204600F0D4FE294600F0E6FB054672
:201AA0002449039800F0CCFE294600F0DEFB0546214F394601F0A4F9002800D12F461F4D8A
:201AC0003846294601F081F9002800D13D4615480460059C2046294600F0C7FB0746204696
:201AE000294600F0BDFB02461548394600F0EEFC1448006801F014FB07461348006801F00C
:201B00000FFB024607AC0194354608AE00960C483946069B01F05CFB705F615F00F032F9FE
:201B200009B0F0BD340120202C0120200000A0410000A0C10AD7A33C00007042000070C277
:201B4000BC0020203C0120204001202070B586B045480178012932D1EFF3108272B614212C
:201B6000C943424B03E06D466D18EC75C91C5C18657D002D26D0657D2E46613EF6B21A2E0D
:201B800000D2203D6E4676187575A57D002D1BD0A57D2E46613EF6B21A2E00D2203D6E46A8
:201BA0007618B575002911D0E57D002D10D0E47D2546613DEDB21A2DD5D2203CD3E70020C7
:201BC00006B070BD153104E0163102E0172100E017316B4600245C54047025480470002A6B
:201BE00000D162B66D462A786B78AC78E8782D7905290CD1522A0AD1552B08D14E2C06D18E
:201C0000312804D1352D02D1012006B070BD6E4606290FD1522A0DD1552B0BD14E2C09D190
:201C2000502807D1492D05D17579442D02D1022006B070BD04255326502801D0284600E098
:201C40000320694072404F2C00D028461143542B03D1002904D106B070BD28460029FAD064
:201C6000284606B070BDC04657012020000120205F012020F0B538490846343887220260A9
:201C80003648022202600A46383A862313600122026085230B61140204604B6153020360EB
:201CA0002F4CE01C48604B684B600860086808604B68500603434B600B6803430B608225A2
:201CC0008D60284BCB604D64274D2E463C3E33606C606E686E600E46083E244F3760346823
:201CE00034608124AC622F632C6B2C63EF61EC69EC612F622C6A2C622F602C682C600C463D
:201D0000303C174E26602568256024390E600C680C6017490C68950525430D6015490C6A98
:201D2000D20614430C620C6814430C6012490A600A6312490A68042414430C600A69823BB5
:201D400013430B610E490A6A801C02430A620A6802430A60F0BDC0463C804240D0120A406B
:201D600081000E0082000400C080424081000C00A0130A4028100A40A0320A4090330A4057
:201D800028300A40F0B585B00C467D27FD003C4A9042034600DC1346AB4200DB2B469442EF
:201DA000039400DC14461922AC4200DB2C46334ED1010491334A1380334A14800028019717
:201DC000029512D0DA175340D11A4D19012813DB01223046049901F08DFB04984543F900D2
:201DE000284601F05FF9074612E0002701223046394601F07FFB0BE004984543F9002846CD
:201E000001F050F901460122304601F073FB049F0025304639462A4601F06CFB20B2C1171A
:201E20004840081A02990F180398184E00280BD010DD049D6F430198C100384601F032F9FE
:201E400001460022304602E0304629462A4601F051FB0CE000223046049C214601F04AFB6E
:201E600067430198C100384601F01CF9054601223046294601F03EFB05B0F0BD00000940B2
:201E800018FCFFFF740120207601202000008640F0B5394A8218394BC0183A4D4C790B7910
:201EA000002C22D0466F202B02D00524E70100E0354F2E40002B00D188273E434667846F83
:201EC0002C403C438467446B2D4E34404463846B3440846300244465846554688F26F6433D
:201EE000344054609468344094600C688979202B09D006467036002B15D1641E4460C46E61
:201F00002C40882715E0641E4460C46E2C401E4E3443C466046F2C40344304671B4D012492
:201F20006707064607E00527FF0164084460C46E2C403C43C46634682C403C433460C46A34
:201F40000F4D2C40C462046B2C4004630024C4640465C46F8F25ED432C40C46714682C4006
:201F60001460194302680A4B1340BD220A40D118891C0160F0BDC0468418000004180000FC
:201F80008888FDFF24493E0001040000FFFFFFCF4000FFCFB0B53A4A80184A6842600A7854
:201FA000222A56D8930001A4E3589F46492000005320000049200000532000005320000024
:201FC000532000005320000053200000532000005320000053200000532000005320000069
:201FE00053200000532000005320000039200000532000003920000053200000532000007D
:20200000532000005320000053200000532000005320000053200000532000005320000028
:20202000532000005320000053200000392000005320000039200000036803242407A3437F
:20204000012464071B1903E0036803242407A34303600B69C360CB68C46A0A4D25400A4CC9
:202060001C402B19C3620368084C1C400460097A114302683F239A43194051180160B0BD0C
:20208000041800008888FDFF777702007F00FFFFF0B585B00393174602910446066900256D
:2020A0001046294600F09AFE002861D10120C1073046049188433F21090600F086FE0028AF
:2020C00056D13046029900F0CBF8054620680290A6692846314600F0C3F801906168384639
:2020E00000F0AEFB0146284600F0AAFB00900298019900F0A5FB009900F0B7F80090A068D9
:20210000394600F0F1FC074630460196314600F0ACF801460295284600F0A2F8E16900F0EE
:20212000A4F80146384600F08BFB009900F09DF80146606900F099F80646039D04996940E7
:20214000049100F042FE07463046294600F058FE002800D13546002F049800D12846606103
:202160000299A1610199E16101F04EF8054606E0E168304600F064FB6061A561E5612846F5
:2021800005B0F0BDF0B581B00446204E31780020062938D801252A468A4061210A4232D017
:2021A00001F04EF81A48002707601A4807601A4807701A4807701A4807601A4807601A4889
:2021C00007701A4807801A4807601A4807601A4807701A4807601A4807601A4804601A487A
:2021E00007701A48077004203070194804601948076019480760194801F09EF805480760DA
:2022000000F080FE284601B0F0BDC046780120202001202048012020630120206001202096
:20222000280120202C0120205A0120205001202034012020380120205E0120203C01202092
:2022400040012020300120205901202058012020440120201C0120204C012020BC002020EE
:20226000FCB40127FF07794002E0FCB40127FF070C024D002D0E03D1002C52D1FCBC7047DF
:202280003C43FF2D50D0A408002900D56442020243001B0E04D1002A43D10800FCBC704729
:2022A0003A43FF2B41D09208002800D552425E1B04D5170022003C0076422B00192E06D56F
:2022C00027003741D2191C27F71B7F42BC40002A27D002D55242012700E00027013B520019
:2022E000FCD51500802635400FD01500202635402C43803208D21500402635402C4304D1FF
:2023000001263602B24300E05B1C5200023308DDFF2B0BD2500ADB051843FF073843FCBCD1
:2023200070470020FCBC70470800C70FFF07FF20C0053843FCBC704780B582B01A490022B9
:202340000A701A490A601A490A601A490A601A490A601A490A601A490A701A490A601A49F5
:202360000A701A490A601A490A601A490A701A490A801A490A601A490A601A490A701A49A5
:202380000A601A490A601A4908701A4908701A48009201901948FF218905194B00F0D4FC98
:2023A00000F0B0FD02B080BD78012020300120204401202020012020480120204C0120206B
:2023C000630120201C01202060012020280120202C0120205A0120205001202034012020E4
:2023E000380120205E0120203C01202040012020580120205901202000007A44BC002020DA
:202400000AD7233CF0B583B01D4600920F460446EFF3108072B627490E682749096802911C
:20242000002800D162B60021204600F0D7FC0028019500D0214C22490868224A15680E6014
:2024400002991160002F0BD0301A00F069FE1E4900F0F6F9214600F047FB00F0D5FE38608B
:20246000009F002F0CD00298401B00F059FE164900F0E6F9214600F037FB00F0C5FE386074
:20248000089C019D002D08D0304600F049FE0E4900F0D6F900F0B8FE2860002C08D0029866
:2024A00000F03EFE084900F0CBF900F0ADFE206003B0F0BD64012020680120200AD7A33B63
:2024C0006C012020700120209C9D0F3FF0B583B0002846D00E460446174623493046019192
:2024E00000F073FC0290214D3046294600F088FC0028284600D13046029900291A4900D14F
:20250000014602913846184900F05FFC06463846294600F075FC002800D13D46002E00D1A2
:202520000195E66821690298FFF79AFE01466769304600F085F93946FFF797FE6061E66AEF
:20254000216B019D2846FFF78BFE0146676B304600F076F93946FFF788FE029921612563D6
:20256000606303B0F0BDC046000048C300004843002A49D084468B071CD1830722D1102A59
:2025800008D370B4103A78C978C0103AFBD270BC103238D0042A2CD3082A05D30C2A01D3AB
:2025A00008C908C008C908C008C908C092072AD0920F22E00B780370491C401C521E22D001
:2025C0008B07F7D1C30714D18307D8D0121F12D308C903801B0C4380001D121FF8D20AE06A
:2025E00008C903701B0A43701B0A83701B0AC370001D121FF4D2121D05D00B780370491CDC
:20260000401C521EF9D160467047FEE770B5049C002C2DD0174D2D782570174D2D68401B02
:202620000525454315480068154E36686560A16021460C3145C1237612480078607600F081
:20264000FDFE11490968E061216210480078242160540F480088E0840E4800680E4909685E
:20266000A062E16200F04EFF208600F051FF608670BDC04678012020300120204801202026
:202680004C01202059012020280120205A012020500120203C0120204001202070B582B029
:2026A0001B491C4C204600F0E5FE1B492046FFF7EFFB1A4801681A4A0A40026000250095D6
:2026C000204629462A462B4600F0E2FE204629462A4600F0C1FE204629462A4600F00AFF42
:2026E00001260096204629462A462B4600F0D0FE20462946324600F0AFFE20462946324672
:2027000000F0F8FE074886600321016002B070BD3C37000000000940F436000004180940EF
:202720007F00FFFF0011094070B582B01B491C4C204600F09FFE1B492046FFF7A9FB1A48E6
:2027400001681A4A0A40026000250095204629462A462B4600F09CFE204629462A4600F0D1
:202760007BFE204629462A4600F0C4FE01260096204629462A462B4600F08AFE2046294629
:20278000324600F069FE20462946324600F0B2FE074886600321016002B070BD3F3700006E
:2027A00000008640FC360000041886407F00FFFF0011864040B542004B005E08164301D0D9
:2027C00006004E4000D4D01A04D20120C90F06D1404204E003D90120C90F00D04042FF264F
:2027E0003606B24200D8B34200D9012040BD40B542004B005E08164301D006004E4000D46B
:20280000D01A04D20120C90F06D1404204E003D90120C90F00D04042FF263606B24200D86E
:20282000B34201D90120404240BD42004B000020FF2109068A4200D88B4200D9012070472B
:20284000FCB40127FF0706004E4001D4002600E03E00020243001B0E30D03A43FF2B30D0D6
:202860000C024D002D0E29D03C43FF2D29D05B194240504042404C4061404C4000B500F0BF
:202880006DFC20BCAE464240504042404C4061404C4025001400002C01D46400013B803424
:2028A00001D3013364087E3B08DDFF2B09D2BC43200ADB0518433043FCBC70470020FCBCE3
:2028C0007047FF20C0053043FCBC704710B51B491B4C204600F0F3FD1A49204600F05EFB93
:2028E000194801680322D203914301600169174A0A4011320261416917220A4328218A43DE
:202900004261426801210A4043688B439A1842600F4A13688C021C43146002684B041343ED
:202920000360C26870231343C360C2680A4306239A43C26002680A43026010BD4236000001
:2029400000001040C2360000001110400000FFFF2810104010B51B491B4C204600F0AFFDB6
:202960001A49204600F01AFB194801680322D203914301600169174A0A401132026141692B
:2029800017220A4328218A434261426801210A4043688B439A1842600F4A13688C021C4354
:2029A000146002684B0413430360C26870231343C360C2680A4306239A43C26002680A43A5
:2029C000026010BDF236000000201040CC360000003110400000FFFF28301040F0B581B031
:2029E000144605461548057015480160154800270760154E3760154800F09EFC0520284049
:202A0000012810D1134804601348C0570028134D294600DA12492046FFF727FC0C49086013
:202A2000356001B0F0BD0A480460022D03D0042D01D000F067FA01B0F0BDC046780120207B
:202A4000440120201C0120204C012020BC00202048012020200120206301202000002A4310
:202A600000002AC3F0B583B01A48002101801A4801600120C207194C2261194B19491960B9
:202A8000196819601E460C3E8121316001912546403D07072F6027601960204630380292E2
:202AA00002602260A024204600F038FD019830602F600A4D2F60204600F030FD029828619F
:202AC00008480749086008680860204600F026FD03B0F0BD5201202024012020D0120A4019
:202AE0001880424081000E00FCB40127FF0706004E40F60FF607020243001B0E2DD03A43CF
:202B0000FF2B2DD00C024D002D0E26D03C43FF2D26D05B1B0020202164085208A24240415F
:202B2000A24200D3121B013904D0002A01D05200F4D18840384201D14000013B803001D37D
:202B4000013300E040007F3307DDFF2B08D2400ADB0518433043FCBC70470020FCBC704791
:202B6000FF20C0053043FCBC70477047F0B50020C0431849184B0127FA067E06103B1D68D0
:202B800015400B46103B1B68002D09D0134C24683442044600D03C46114F396861183960AB
:202BA000B71C334208D00F490968C90200D501200D490C68001908603B40002D03D0064956
:202BC000086810430860002B03D00249086818430860F0BD48300A4048100A4080130A4060
:202BE0006401202080330A4068012020F8B5451C00780023082B32D02F78C2070CD16A787D
:202C00000F241440E41C122C0BD102242E57F4B2002E08D4EE1C0EE06D1C4A1C0F701146FB
:202C20001AE0AE1C08E02E1DED7800957F252C40009DED012C1912343D0112095219094D63
:202C4000AA420ED0D243002C05D08D5C4F1C0D70641E3946F7E7354640085B1CCAE728468B
:202C6000C5E7F8BDFF0F0000F0B581B010481149416011484160114B5960114C6160114D31
:202C80006960114E7160114F7960114841601149074A1160084A1160196021602960316015
:202CA00039600160102000F039FC01B0F0BDC04600080A40030000B100280A400008094098
:202CC000000886400008874000280F40000810400028104001000026F0B5164A1068C0B2FA
:202CE0000B2825D1144801218B029362026852071ED4124A124B134C06E01D780026665582
:202D0000117005686D0713D4C5691678002EF8D1EEB20D2EF5D00A2EEFD01E78162E04D86A
:202D20001E78771C1F70A555EBE700251D70E8E7F0BDC0462010104008111040570120205A
:202D40005F01202000012020F0B585B000282ED0044602A80EC00B9F00253846294600F024
:202D600034F80190134E3846314600F049F8002800D13E460A98019900292946049A00D14F
:202D800031462164029B236003996160A260E060256123626162A262E06225632946FFF777
:202DA0004FFD6061A561E5616063A563E56305B0F0BDC04600007A4410B5FFF7FBFC0028A7
:202DC00001D0002010BD012010BD10B5FFF7F2FC002801DB002010BD012010BD10B5FFF704
:202DE000E9FC002801DD002010BD012010BD10B5FFF7FDFC002801DA002010BD012010BD7B
:202E000010B5FFF7F4FC002801DC002010BD012010BD000080B51149114800F0CBFA114831
:202E20000168032252020A430260026801210B02134303600022426107224262836B934359
:202E40008363836B120293438363826A042313438362826A0A43826280BDC04645370000A4
:202E600000200F4000320F400E480068C0B2012816D10D480168491C01600C480178FF29A9
:202E800002D00178491C017009480178491CCAB20170142A04D3002101700648012101706D
:202EA0007047C04620108740180120205B012020610120206201202080B500F0DBF900F03B
:202EC00047F8FFF7CFFD00F089FA0020FFF734FAFEF71AF8084800F0C5F801204105074A7E
:202EE0001160074B19604003106018600220106018601060186080BDCC35000080E200E0F9
:202F000000E100E070B50E48002404800D4804800D4E0125304621462A4600F0EBFA3046DB
:202F20002146224600F0E6FA084E30462146224600F0E0FA304621462A4600F0DBFA70BD4E
:202F40007401202076012020000009400000864070B50E48002404800D4804800D4E012579
:202F6000304621462A4600F0C5FA30462146224600F0C0FA084E30462146224600F0BAFA27
:202F8000304621462A4600F0B5FA70BD7401202076012020000009400000864070B5112245
:202FA0001302C218C4580125AC43C4500C888D7825438C882C43C558084E2E40084D2540BE
:202FC0007419C4508879CB790343087A184351687E23994318400818506070BDE798FDFFE2
:202FE0001867000010B50C48018800290ED00B4A13785C1C1470DA0703D00122D206084BCB
:203000001A61491E0180080400D010BD0120C0060349086010BDC046540120205C01202004
:20302000A0320A400D48002101600D48011F0A680323DB4313400B60416801229143416073
:203040004168120291434160016830229143016001680F22914301607047C04608030B406C
:2030600004010B4070B50178002917D00C4CC51CAE1EC9B2204600F031F9317800290DD0A3
:203080006E1E204600F02AF93178002906D0204600F024F92978ED1C0029E9D170BDC04650
:2030A000000010401CB50A0017D000230124E407A04200D20400944201D95200FBE790425D
:2030C0005B41904200D3801A914201D25208F6E719000200080011001CBD01000020FFF714
:2030E00044FD1CBD70B50A480A4C84420CD00A4D0A4EB54208D02A686968501C12789200DE
:20310000A25890470835F4E700BF00BF70BDC0465C370000503700006C3700007C370000A5
:2031200006B49E22002802D404D106BC7047414204D400E00100013A4900FCD5803101D3B3
:20314000013200E04900490AD2051143002802D50122D2071143080006BC7047FCB4020C07
:203160000B0CFF242402FF34204021400C00444315005D4306005E430F005743320C3B0CDE
:20318000A818C01832043B040025A1186841C9186841FCBC7047000010B50849084C2046D2
:2031A00000F068F907492046FEF7F4FE064801680122114301600548026010BD39370000A6
:2031C00000008740603600002810874008118740F0B581B0002815D0069D002D12D0079F78
:2031E000002F0FD01C46036C064600922246FEF74FFF2880336C2036304600992246FEF75E
:2032000047FF388001B0F0BD06B54100090E7F390DD41F22511A0CD9864600020122D2074B
:203220001043C8407246002A00D5404206BD002006BD02000120C007002A00D4401E06BD4B
:20324000EFF3108072B6074900220A6006490A6006490A6006490A60002800D0704762B606
:203260007047C04664012020680120206C0120207001202080B5FFF7F7FCFEF7FBFCFFF7E5
:20328000D1FEFFF70BFAFFF74FFAFFF785FFFFF7C1FDFFF71BFBFFF75DFB0248B821002258
:2032A000425480BD0000202006B5002803D57346FFF7AAFF06BD4100090E7F3908D31F22F9
:2032C000511A07D300020122D2071043C84006BD002006BD0020401E06BD00000A4A80187D
:2032E0000268120605D50268120602D502681206F6D481610168C90705D00168C90702D0D2
:203300000168C907F6D170470811000080B508480078062807D8012181406120014202D05A
:20332000FFF7F0FD80BD03480121017080BDC0467801202060012020B0B5002810D0C1685C
:20334000026904461046FFF77BFA00256061A561E561E16A206BFFF773FA6063A563E56379
:20336000B0BD0000084880F3088800BF00BF00F0FAF8002801D0FFF7B5FE002000F0A8F8DB
:20338000012000F0E9F8C0460080202002B49E21002805D401D102BC704701394000FCD56D
:2033A000803001D3013100E04000400AC905084302BC704770B50122120383180C785D681E
:2033C0000C26B54334402C195C60497883580724A34321405918815070BD00000448002164
:2033E0000180044801700120C006034908607047540120205C012020A0320A4080B5001D9D
:203400000521FFF74FFE0349088003480021017080BDC046540120205C0120200648027855
:203420000121062A0B4600D800237F2002401E20D0401843084070477801202003480078E9
:20344000002801D103487047014870475D012020943600000437000010B592008018044A90
:2034600083580724A404A34321405918815010BD3018000010B50122120383180C789C60E8
:203480004B7883508978014A815010BD0C11000010B5029CA400001911431943014A8150A3
:2034A00010BDC0465018000003228058002805D0401E4A1C00230B701146F7E7704710B5C4
:2034C0000122120383180C789C604978815010BDFFF7F2FCFEF736F9FEF734F9FEF732F9F0
:2034E000F8E780B50B4603214258C11D184600F02FF880BD92008018014A81507047C04616
:203500001018000000200149085E70477401202000200149085E704776012020811E091F42
:2035200000BFFCD2704780B5FFF720FB80BD80B5FFF7D2FB80BD80B5FFF7F5FF80BD80B5FE
:20354000FFF792FC80BD80B5FFF7F1FF80BD000080B5FFF70DF880BD00F001F8FEE700BF58
:103560007047FFE670470120704700000000000030
:203570004232312F52554E5049442F52554E31353A2067726179206C696E65203330733B05
:203590002053544F502061626F7274730D0A004D5055363035302064697361626C65643BA3
:2035B00020656E636F64657220737065656420504944206163746976650D0A004D505536F2
:2035D0003035303D44495341424C45443B20423231207374617274732067726179206C6948
:2035F0006E65203330730D0A004E43484431322067726179206C696E652064656D6F205586
:20361000415254312031313532303020384E310D0A00436F6D6D616E64733A2052554E507A
:2036300049442C2052554E31352C2053544F500D0A0008002B3700001A370000E9360000C3
:203650001A37000013370000263700002037000002000000FF700200010000000000000097
:20367000000000003031323334353637383941424344454600455252204232312062757380
:20369000790D0A004D5055363035302D455252004F4B2052554E5049440D0A00455252200B
:2036B000627573790D0A004F4B2052554E31350D0A00000018000000003000000000180094
:2036D0000000003000004F4B2053544F500D0A004F4B204232310D0A00535452414947480B
:2036F00054000800800C000020000100800C0000200101004D50553630353000284C4F5330
:203710005429004C494E4533300043555256450041424F525400444F4E450049444C450050
:20373000284F4B2900455252000800000800000800004F4B0008003F0000000000000000AC
:20375000ED2B0000E3340000A93400000200000064010000000100000F02FFF05C37000052
:1037700000002020643700006401202000000000C9
:00000001FF
