:2000000000802020F73F0000F7300000F7300000000000000000000000000000000000009C
:20002000000000000000000000000000F73000000000000000000000F7300000F73000004B
:20004000F7300000CB3F0000F7300000F7300000F7300000F7300000F7300000F730000085
:2000600000000000F7300000F73000000000000000000000F7300000F7300000DB3F0000CA
:20008000F7300000F7300000F7300000F7300000F7300000D33F000000000000000000008B
:2000A000F7300000F73000000000000000000000F730000000000000F7300000F73000007D
:2000C000F0B58FB0002801D100F012FC0446E04F6D21384603F04AFE7321384603F046FE3B
:2000E0003D21384603F042FE6568002D0B942DD000270A262846314603F052FD4643A91B90
:20010000302631430CAAD1550A2D24D30A2103F047FD31430CA8C0194170642D1DD36421F1
:20012000284603F03DFD0A2103F03AFD3143FE1C0CA8C01981707D20C100284603F030FDD7
:20014000E9087D2937460546D3D207E03021384603F00CFE41E07E1C00E0BE1C002EBC4F3A
:200160003BD0701E032103F01BFD481C0027032800D00746099602D13546B54C16E00CA84C
:20018000801E0A90B24C0A9880194178204603F0EDFD012F09D0B51E0A98815D204603F03D
:2001A000E5FDBF1E2E46EED100E0751E09980328274612D30CA82818C61EB178384603F04A
:2001C000D5FD7178384603F0D1FDED1E3178384603F0CCFDF61E002DEFD12021384603F084
:2001E000C5FD7321384603F0C1FD74253846294603F0BCFD6121384603F0B8FD38462946B3
:2002000003F0B4FD6521384603F0B0FD3D21384603F0ACFD0B9E3078062803D880008D496E
:20022000095800E08C490878002816D0CD1CAC1EC1B2384603F09AFD217800290DD06C1EC3
:20024000384603F093FD2178002906D0384603F08DFD2878ED1C0028E9D12021384603F0CD
:2002600085FD6721384603F081FD7921384603F07DFD7221384603F079FD6F21384603F085
:2002800075FD3D21384603F071FD707E002804D0307E00280FD171490EE04F21384603F086
:2002A00065FD46253846294603F060FD3846294603F05CFD1AE06A490878002816D0CD1CD7
:2002C000AC1EC1B2384603F051FD217800290DD06C1E384603F04AFD2178002906D038462B
:2002E00003F044FD2878ED1C0028E9D13046243007902021384603F039FD6221384603F002
:2003000035FD6121384603F031FD6321384603F02DFD6B21384603F029FD6521384603F051
:2003200025FD6E21384603F021FD6421384603F01DFD3D21384603F019FDF1690878002886
:2003400016D0CD1CAC1EC1B2384603F00FFD217800290DD06C1E384603F008FD21780029B3
:2003600006D0384603F002FD2878ED1C0028E9D12021384603F0FAFC6C21384603F0F6FC14
:200380006921384603F0F2FC6E21384603F0EEFC6521384603F0EAFC3D21384603F0E6FCFC
:2003A000306A01F0F5FE079E3078002801D12D4900E02D490878002816D0CD1CAC1EC1B2F8
:2003C000384603F0D3FC217800290DD06C1E384603F0CCFC2178002906D0384603F0C6FCB0
:2003E0002878ED1C0028E9D12021384603F0BEFC6C21384603F0BAFC6921384603F0B6FCA5
:200400006E21384603F0B2FC65253846294603F0ADFC5F21384603F0A9FC6D21384603F086
:20042000A5FC6F21384603F0A1FC6421384603F09DFC3846294603F099FC3D21384603F0AA
:2004400095FC7078042813D880000849095810E000801040DC400000124200000042000068
:200460000D420000B8410000FB410000F840000060490878002816D0CD1CAC1EC1B23846E5
:2004800003F074FC217800290DD06C1E384603F06DFC2178002906D0384603F067FC2878EA
:2004A000ED1C0028E9D120210991384603F05EFC67210891384603F059FC7221069138461C
:2004C00003F054FC61274C48394603F04FFC79254948294603F04AFC3D210A91464803F0AF
:2004E00045FC30214448049103F040FC7821424803F03CFC0B98C48C200B404E315C3E480D
:2005000003F034FC2005000F315C3B4803F02EFC2006000F315C384803F028FC0F2005903A
:200520000440315D344803F021FC3348099903F01DFC3148089903F019FC2F48069903F009
:2005400015FC2D4839462C4F03F010FC3846294603F00CFC5F21384603F008FC622138463E
:2005600003F004FC7521384603F000FC7321384603F0FCFB38460A9903F0F8FB079C207946
:20058000002805D04F21384603F0F0FB4B2138E04E21384603F0EAFB4121384603F0E6FB95
:2005A0004321384603F0E2FB4B21384603F0DEFB6679002E24D0012009900A2730463946F2
:2005C00003F0EEFA0546394603F0EAFA0A916F43F01B049D28430CAC20706421304603F005
:2005E000DFFAA1780A2E00D384E16278099C25468BE1C046124200000080104020410000B8
:200600003021384603F0B2FB20210991384603F0ADFB67210391384603F0A8FB7226384631
:200620003146069603F0A2FB612438462146009403F09CFB792538462946019503F096FBEA
:200640005F210891384603F091FB3846214603F08DFB642438462146049403F087FB38462C
:20066000214603F083FB3846314603F07FFB3D210A91384603F07AFB3021384603F076FB2E
:200680007821384603F072FB079884792009C04E315C384603F06AFB05982040315C3846A5
:2006A00003F064FB3846099C214603F05FFB3846294603F05BFB3846009D294603F056FB0D
:2006C00077210791384603F051FB38460A9903F04DFB0B98806801F05BFD3846214603F025
:2006E00045FB742438462146029403F03FFB3846294603F03BFB3846069903F037FB3846A4
:20070000039903F033FB65210591384603F02EFB3846214603F02AFB3846089903F026FB36
:200720003846019C214603F021FB3846294603F01DFB3846079E314603F018FB38460A996F
:2007400003F014FB0B98C06801F022FD3846099903F00CFB3846214603F008FB38462946DA
:2007600003F004FB3846314603F000FB3846089903F0FCFA3846069C214603F0F7FA3846B3
:20078000294603F0F3FA3846029E314603F0EEFA3846059D294603F0E9FA38460A9903F021
:2007A000E5FA0B98006901F0F3FC3846099903F0DDFA3846314603F0D9FA7521384603F0C2
:2007C000D5FA3846214603F0D1FA6E21384603F0CDFA3846089903F0C9FA3846294603F02B
:2007E000C5FA3846214603F0C1FA3846214603F0BDFA38460A9903F0B9FA0B9C606901F0F0
:20080000C7FC3846099903F0B1FA7321384603F0ADFA70263846314603F0A8FA384629469E
:2008200003F0A4FA3846294603F0A0FA3846049903F09CFA38460A9903F098FAE06A01F028
:2008400071F92F210491384603F090FA206B01F069F93846099903F089FA3846314603F0F2
:2008600085FA3846079903F081FA6D253846294603F07CFA3846089903F078FA384631460C
:2008800003F074FA3846059E314603F06FFA3846069903F06BFA3846294603F067FA6921C3
:2008A000384603F063FA6C253846294603F05EFA3846294603F05AFA3846314603F056FA35
:2008C00038460A9903F052FA3420205E01F02AF93846049903F04AFA3620205E01F022F9A0
:2008E0000D21384603F042FA0A21384603F03EFA0FB0F0BD099C0A9A2A43642E01D202259B
:2009000003E028430325002401460CA842708170681E032103F044F9481C0027032800D03F
:200920000746099402D12E46184C16E00CA8801E0A90164C0A9840194178204603F016FAC1
:20094000012F09D0AE1E0A98415D204603F00EFABF1E3546EED100E06E1E09980028274668
:2009600000D051E60CA83018C51EA978384603F0FDF96978384603F0F9F9F61E2978384692
:2009800003F0F4F9ED1E002EEFD13DE60080104020410000F0B587B01F4614460291049068
:2009A000119B109D0F9A0E9E14980690139805901299F94804601446F8480760F8483246FE
:2009C0000670F84826460460F74803950570F74801930380F6480170F64805990170F648B5
:2009E00006990170F54D2C78062C04D80120A0406121084219D1F24F387800280ED1002A1A
:200A000003D1F0480078C00708D1EF4800680499081A05235843ED4988420AD300203870EC
:200A200006202870F14803F0B9F902F0E9FF07B0F0BD611E0329F8D80D9F0C9CE448006879
:200A4000049D2D1A5D43C0467944097949008F4401A3305F0694E84902983246039B01F00E
:200A6000E3FCE64D2E780124E107384688434121090602F010FF002800D1B5E0002E00D06A
:200A8000B2E000263846314602F005FF002800D1F4432C70DA480768204603F0BFF80446FC
:200AA000D84902F0FBFB394602F007F9D9490860A3E02746D04902983246039B01F0B4FCD8
:200AC000CE4800214056C5B203F0A8F80446CC4801683E46384602F0EBF8214602F0DEFB6F
:200AE0000446002D00D12C46C648214602F0E0F8002DC549086000D14BE1C249204602F0FA
:200B0000CAFE002800D144E105200499324668E00693029F019805963146039A02F0F0F910
:200B2000AC4CAD4B1A78FB210A4200D190E023680499CC1A06994C43531E012B00D9A4E054
:200B400059425941384602F025FE0398002800D1C7E001980006000F00D1C2E09F480199F0
:200B6000014000D0BDE09E480178FF29264604D04A1C0270022900D2B7E0002296490A7019
:200B80000499944B196097490A7097490A700270964803F003F9A8E006949C490298324654
:200BA000039B01F041FC9548047860B203F036F80146384602F072FBE9087D2943D3002CE0
:200BC00041D04121090602F066FE00283BD090480168491D0160962900D2DAE003200499F7
:200BE000069A02F02FF9D4E0002E00D1D1E08448076870B203F012F804460698394602F024
:200C000057F8214602F04AFB04467E4E3046214602F04EF87C4D28602046314602F03BFE63
:200C2000002800D1B5E002206449087004986849086077480021016029606C4803F0AEF813
:200C40007448069901E072480021016007B0F0BD411E0229049953D8624A1378984279D10B
:200C6000614B1C78FF2C06D02F46651C1D703D46022C00D286E0584C207056480160002074
:200C8000107018705649087060E0032A7AD10646384602F03DFE0398002845D0782C43D3F4
:200CA000032E41D001980006000F3DD04B480199014039D14A480178FF2903D04A1C0270E1
:200CC000022934D3002244490A700499414B196044490A7044490A700270444803F05EF8C2
:200CE00025E03F480021017026463A4C4048C8308642049846D90021374A117020601FE03F
:200D000000282CD0042A0CD00420187021603548002101703448017031480170334803F024
:200D20003DF802F06DFE2DE02D4800210170E0087D28049826D30021274A1170254A1060F9
:200D4000284801702848017025480170274803F025F817E0107024480121017012E0002AE2
:200D60000BD00020187021601E4908701E4908701B4908701D4803F011F838460599039ABB
:200D800000F0C6FD1B48854203D306980B49087048E607B0F0BDC0464C0120205001202080
:200DA0006D0120203001202073012020600120206A0120206B0120206C012020A8012020D2
:200DC0007A0120206E0120203C012020A0BB0D00540120203801202071012020030C0000F5
:200DE000720120206F01202070012020BC002020E7030000307500000000DC427D01202078
:200E00002801202000002A435C012020000048432401202058012020F0B58BB0002800D1FD
:200E200026E1E1490978002900D123E10690E24CE2490120870705904607E1480F61206069
:200E400020682060201F0A908125056008464038089006600E60A020049003F0A9F8256007
:200E6000D6480446303C2760079707600746049803F09EF80A980560266009963E60D148BD
:200E8000007800F0A1F9002800D1FFE003940495079D0027384600F097F9002800D125E180
:200EA000C6490D61C44AC64F1760106810600A9C049F2760099E089806600E60A0200290F6
:200EC00003F076F8BC48076003990D60BB48056002980D4603F06CF827602E60B748066017
:200EE000B84800780599084300F06EF9002800D134E1AE48042102910170059800F0F8FB8D
:200F00000190002000F0F4FB0090AB4E3760079E2E60AA480660A025284603F049F80A988D
:200F20000760099808990860A44C2060284603F03FF82661A248A049086008680860284690
:200F400003F036F800980007020D019817189948036800D183E096480780012039460A90DB
:200F6000014002263E407806C40F20460B304D1CD20A002A00D10FE100D110E1002900D0AD
:200F80000B3802993940002E01D00B38801C019608223A402E46002901D00B38001D1025DE
:200FA0003D400995002A089302910794039201D00B38801D20223A409106CC17802139408D
:200FC0000A9B1B02099D002D049601D00B3808300A9D6D023B4000190029019E00D0C01C78
:200FE0000A9CA4023D40002B00D0401D3C40002D00D0C01D76080196029EB6080296039ECE
:20100000F6080396099E36095209C90909911B0A0A936B0AA50A002C00D00930049C019937
:2010200064180299641803996418A419A218079C1219099951180A9A8918C9184D1902F037
:20104000EDFD0646284602F0EBFE0146304602F037FA002D089B00D00346564803600698A9
:20106000059C791E3A468A4107804360027236E0002470E04D4A012111704D4A12884D4BC2
:201080001B68028043600024048160E047490598087049480560079F2760484C27602E4668
:2010A000A025284602F084FF0A9806600998089908602060284602F07BFF276140483E49E5
:2010C000086008680860284602F072FF384801883848026806980180426000240472334935
:2010E00009780A1F53425341437230E02F49022008703148049E0660039805602F480560E9
:20110000A024204602F054FF0A9806600998089908602A490860204602F04AFF274805615D
:2011200027482549086008680860204602F040FF1F4801881F480268069801804260077200
:201140001A4909780A1F5342534143723C4681721C490978C17220460BB0F0BD13490320C9
:201160000870154E3760079E2E60144D2E60A024204602F01DFF0A980760099808990860F0
:201180002860204602F014FF2E610D480A49086008680860204697E7204600D0EEE60D46A4
:2011A000002900D0ECE6ECE66701202068012020620120202C01202014804240D0120A40EF
:2011C00081000E007E012020F0B587B00290A34EA3490120840747078120019030600D4667
:2011E000303D2C600C60A020039002F0E1FE361F019830609A4908464038059007600F60D4
:20120000039802F0D5FE0198039630602F6094490F60029940290694049505D28F49086083
:201220002C608F48046006E08D4804618B498D48086008680860A025284602F0B9FE039E61
:20124000019C34600598076085480760284602F0AFFE3460049A176081480760029880061F
:2012600006D47E480460069911607D48016007E07B480699016179497A48086008680860C5
:20128000A025284602F094FE039E34600598076073480760284602F08BFE3460049A1760AA
:2012A0006F4807600298C00606D46C480460069911606B48016007E0694806990161674951
:2012C0006848086008680860A025284602F070FE039E34600598076061480760284602F0E2
:2012E00067FE3460049A17605D4807600298000706D45A480460069911605948016007E05A
:2013000057480699016155495648086008680860A025284602F04CFE039E34600598076009
:201320004F480760284602F043FE3460049A17604B4807600298400706D44848046006991D
:2013400011604748016007E045480699016143494448086008680860A025284602F028FE14
:20136000039E3460059807603D480760284602F01FFE3460049A1760394807600298800719
:2013800006D436480460069911603548016007E0334806990161314932480860086808600C
:2013A000A025284602F004FE039E3460059807602B480760284602F0FBFD346004990F60FB
:2013C000274807600298C00706D1244D2C60069A0A602348026007E02148069A02611F4D6C
:2013E0002048286028682860A0240294204602F0DFFD039E019931600598076018480760C0
:20140000204602F0D5FD019C34600498076014480760069901611348286028682860029D10
:20142000284602F0C5FD3460059807600C48076028462C4602F0BCFD0B480068069908400A
:2014400045424541019830600498076004480760204602F0ADFD284607B0F0BD14804240B6
:20146000D0120A4081000E0080130A40F0B581B0994C9A4800250570994805704E20994EF2
:201480007719C1B2204602F071FC7978204602F06DFCB978204602F069FCF978204602F01B
:2014A00065FC3979204602F061FC7979204602F05DFCB979204602F059FCF979204602F018
:2014C00055FC397A204602F051FC797A204602F04DFCB97A204602F049FCF97A204602F034
:2014E00045FC397B204602F041FC797B204602F03DFCB97B204602F039FCF97B204602F050
:2015000035FC397C204602F031FC797C204602F02DFCB97C204602F029FCF97C204602F06B
:2015200025FC397D204602F021FC797D204602F01DFCB97D204602F019FCF97D183520462C
:2015400002F014FC387E302D9AD100254220664E7719C1B2204602F009FC7978204602F027
:2015600005FCB978204602F001FCF978204602F0FDFB3979204602F0F9FB7979204602F0DB
:20158000F5FBB979204602F0F1FBF979204602F0EDFB397A204602F0E9FB797A204602F0F9
:2015A000E5FBB97A204602F0E1FBF97A204602F0DDFB397B204602F0D9FB797B204602F015
:2015C000D5FBB97B204602F0D1FBF97B204602F0CDFB397C204602F0C9FB797C204602F031
:2015E000C5FBB97C204602F0C1FBF97C204602F0BDFB397D204602F0B9FB797D204602F04D
:20160000B5FBB97D1735204602F0B0FBF87D2E2D9ED100254D20354E7719C1B2204602F0E6
:20162000A5FB7978204602F0A1FBB978204602F09DFBF978204602F099FB3979204602F09D
:2016400095FB7979204602F091FBB979204602F08DFBF979204602F089FB397A204602F0B9
:2016600085FB797A204602F081FBB97A204602F07DFBF97A204602F079FB397B204602F0D5
:2016800075FB797B204602F071FBB97B204602F06DFBF97B204602F069FB397C204602F0F1
:2016A00065FB797C204602F061FBB97C204602F05DFBF97C204602F059FB397D204602F00D
:2016C00055FB797D1635204602F050FBB87D2C2DA2D101B0F0BDC0460080104078012020E8
:2016E00069012020004000003140000060400000F0B58DB00890824A824C012081074707E4
:2017000081480A91216150605068506081261660204640380C9007602760A025284602F021
:2017200047FC7A4800680790754806602046303C27600B940760284602F03AFC704806606F
:201740000C9807606F480760284602F031FC6F48006806906A48066027606A4807602846F8
:2017600002F026FC664C26600C98076065480760284602F01DFC65480068059026600B9CAE
:20178000276060480760284602F012FC5C4806600C9807605B480760284602F009FC5B481E
:2017A00000680390564806602760564C2760284602F0FEFB524806600C9807602760284621
:2017C00002F0F6FB5148006804904D4806600B9C27604C480760284602F0EAFB4848066032
:2017E0000C98076047480760284602F0E1FB474800680190424806602760424C276028462A
:2018000002F0D6FB3E4806600C9807602760284602F0CEFB3D4800680290394806600B9C51
:20182000276038480760284602F0C2FB344806600C98076033480760284602F0B9FB3348BF
:201840000068009009962E48066027602D480760284602F0ADFB0898002807D028480999F9
:2018600041600A9921602748016007E025480A9901612349244848604868486000984000CA
:20188000C00F01994900C90F039A5200D30F069A5200D40F079A550F022215406419A40079
:2018A000059D6D0F154064191B199B00049C640F14401B19C9188900029B5B0F1340C91829
:2018C00040180890A024204602F072FB0C4D099E2E600C9807600B480760204602F068FB81
:2018E0002E600B98076007490F600A98086106486860686868600898C0B20DB0F0BDC04656
:2019000010804240D0120A4081000E0080130A40F0B589B00690002A23D00D466E49284614
:2019200001F0B0FF00281FD16C49284601F0AAFF00281BD16A49284601F0A4FF002817D159
:201940000324A107284601F09DFF002812D100262846314601F08DFF002800D190E0FF269C
:2019600009E05C48067806E0F62604E0F92602E0FB2600E0FD2670B2039002F04FF901461B
:201980005C4F3868049101F098F905465A4C214601F08AFF002800D12C46584D204629462E
:2019A00001F067FF002800D125463D600021494805914756067052480468524E20463146F1
:2019C00001F057FF002810D04F49069801F066FC214601F072F90446314601F065FF00282E
:2019E00000D126464648066000E026460398C01B02F014F907464549284601F04FFC044626
:201A00004349049801F04AFC214601F056F904463649384601F042FC214601F04EF9FF218B
:201A2000890501F03BFC3B4901F038FC04463046214601F03DF905462046314601F03DF9AA
:201A40000246354C2046294601F0B6FA3348006802F0E4F805463248006802F0DFF8024658
:201A600007AE019608AF009720462946069B01F0E3FC0599785E715E00F01AFF09B0F0BDD4
:201A80007F20C105284601F0FDFE002800D072E71449284601F0F6FE002815D112492846AF
:201AA00001F0F0FE0028264600D064E70F49284601F0E8FE002809D10D49284601F0E2FE64
:201AC000002805D0072656E7012654E7052652E70A2650E777012020000010C10000C0C069
:201AE000000080C0000040400000A0400000E040000010414801202000004843000048C3B6
:201B000044012020000020430000C8439A99193E0000C842EC51383DBC0020204C01202003
:201B200050012020F0B585B00546002830D464D000277D20C00001900A262846314602F073
:201B40002FF84643A91B3026314302AAD1550A2D59D30A2102F024F8314302A8C019417031
:201B6000642D54D36421284602F01AF80A2102F017F83143FC1C02A8C01981702846019E7D
:201B8000314602F00DF8B54227460546D4D23BE061487D21C90001912D2102F0E7F86D42F7
:201BA00000240A272846394601F0FAFF4743E91B3027394302AA11550A2D3AD30A2101F026
:201BC000EFFF394302A800194170642D35D36421284601F0E5FF0A2101F0E2FF3943E71C4A
:201BE00002A8001981702846019C214601F0D8FFA5423C460546D4D21CE04748302102F0CF
:201C0000B5F805B0F0BD7C1C002C03D182E0BC1C002C7FD0601E032101F0C2FF481C002789
:201C2000032800D007463C49009417D125460C4642E0671C002F03D16CE0A71C002F69D07F
:201C4000781E032101F0ACFF481C0025032800D00546009719D13C462F4E45E002A8801E72
:201C6000019026460C46019880194178204602F07DF8012F1FD0B51E0198815D204602F09C
:201C800075F8BF1E2E46EED116E002A8801E0190214E0198C0194178304602F067F8012D69
:201CA00021D0BC1E0198C15D304602F05FF8AD1E2746EED118E0751E009803282AD302A8F7
:201CC0002818C61EB178204602F050F87178204602F04CF8ED1E3178204602F047F8F61E33
:201CE000002DEFD116E07C1E0098032812D302A82018C51EA978304602F038F869783046EA
:201D000002F034F8E41E2978304602F02FF8ED1E002CEFD105B0F0BD00801040F0B59FB056
:201D200000F01EFC411E022905D303280ED004281DD14F4812E004464F48006800F0D4FA84
:201D400000280AD0022C0CD04E480BE002F03EF8782002F09DF8474800E0484801F000FFC0
:201D600005E0474801F0FCFEDC2002F091F8464C2068800216D4454D2878002815D10126A0
:201D80007705434802F014F9206838420DD12E7002F08EF8002859D002F018F8782002F06A
:201DA00077F802E0394800210170EFF3108172B63A4A107800241470002900D162B6002836
:201DC0002DD002F02DF8364901F068FA05461BA800901EA91DAA1CAB284600F065F80DAEB4
:201DE0003046FFF719F8244800680A901E980C901D980B900E99377A3088727AB37AF67ABD
:201E00000094019402940391049705A94DC10A9829460C9A0B9BFEF7BDFD01F061FE214853
:201E2000017801290CD10470134800680DAD009521462246234600F0A7FF2846FEF740F932
:201E40007D20000202F0B4F81FB0F0BD0A48006800F04AFA002804D0DC2002F019F80E488A
:201E600002E001F0CDFD0B4801F07AFE9DE7C046BA400000824100002001202058410000C8
:201E80004C4100006341000080330A406601202000E20400314100008C4100007401202093
:201EA0000AD7A33B7C012020F0B587B01D46039202910446EFF3108072B64F490F684F49B4
:201EC0000E68002800D162B600212046019101F0D9FC0028069500D0494C4A480168791AE6
:201EE000494A1368F31A0497076005961660474A10684718176046490868C0180090086006
:201F0000444E3168204600F0D8FE05463060424901F0C1FC002843D0384601F07FFE3F4FA1
:201F2000394601F0BBF9294601F0CAFA0446009801F074FE394601F0B1F9294601F0C0FAE0
:201F400005463748017800291DD036480068364901F0A4F90646354F2046394601F09EF9F8
:201F6000314600F0AAFE0446314800682E4901F095F906462846394601F090F9314600F017
:201F80009CFE054601E001210170264804602848056001981D4908601D4908601D4908603E
:201FA000029C002C04D01F48006801F08FFE2060039C002C069D059E049F04D01C48006862
:201FC00001F084FE20600C9C002D08D0384601F025FE124901F062F901F078FE2860002C0D
:201FE00008D0304601F01AFE0C4901F057F901F06DFE206007B0F0BD80012020840120202E
:202000000AD7A33B9001202094012020980120209C012020A00120200AD7A33C9C9D0F3F7D
:2020200079012020880120209A99993E3333333F8C012020F0B58BB04D4A4E4D01208407B0
:20204000019046074C4F4D480023079303804C4803604C484021009101704B4803704B48AB
:20206000037029462C61176010681060101F099081270760403D2E600E6017600846303815
:202080000890049404600C60A024204601F090FF02970998076006952E600396354D2E6023
:2020A000204601F085FF0498286133483049086008680860204601F07BFF0798049C079045
:2020C000470040372B490C61294E2B48306030683060029D09980560039E069806600E6007
:2020E000A0200A9001F064FF2148056008980460204804600A9801F05BFF09980560089801
:2021000006601C480660F8B2FFF75EF805901848056008980460174804600A9801F048FF9E
:2021200009980560069806601248066006460A9D284601F03DFF34610D490F48086008682D
:202140000860284601F034FF059A002A05D10799481CC9B20629B2D9009F0A4807700B48F2
:20216000027001985040084908700BB0F0BDC04614804240D0120A4081000E006201202019
:202180002C0120207E0120206801202067012020F0B587B004460026314601F06AFB05465E
:2021A000002801D14D4900E04B49204601F076F8002D4B4F05D02D210446384601F0D6FDE0
:2021C000204601F0B9FD0A28029004D23021384601F0CCFD71E007460A253846294601F024
:2021E000DFFC294601F0DCFC3024214304A88155642F21D36421384601F0D2FC0A2101F02D
:20220000CFFC214304A880194170F8087D2815D37D20C100384601F0C3FC05460A2101F019
:20222000BFFC2143F41C04A8801981702D48874226462F46D0D202E0741C00E0B41C002C2A
:20224000274F3AD0601E032101F0AAFC481C0026032800D00646019402D12546204F16E0BC
:2022600004A8801E03901E4F039800194178384601F07CFD012E09D0A51E0398015D38467D
:2022800001F074FDB61E2C46EED100E0651E0198032812D304A82818C41EA178384601F075
:2022A00065FD6178384601F061FDED1E2178384601F05CFDE41E002DEFD12E21384601F0FD
:2022C00055FD0A21029801F06BFC30200143384601F04CFD07B0F0BD000020C1000020419D
:2022E0000080104010270000F0B581B00446304D29780020062959D8012632468A4061212E
:202300000A4253D001F07AFA2A48002707602A4807602A4807702A4807702A4807602A48F3
:2023200007602A4807702A4807802A4807702A4807702A484021017029480770294807706E
:2023400029480770294807702948076029480760294807602948077029480760294807608D
:202360002948076029480460294807702948077004202870284804602848076028480760A2
:20238000284D284601F00AFD0B48076014480770174804601348077013480770134807709C
:2023A000284601F0FBFC01F02BFB304601B0F0BDA801202028012020580120207D01202033
:2023C0007A012020300120203401202073012020600120206A0120206B0120206C01202003
:2023E000710120206F012020700120207201202038012020400120204801202077012020DC
:20240000440120204C012020500120203C0120206E0120206D012020540120202401202045
:202420005C012020BC002020F0B589B01F461446059100260690314601F024FA00283546EB
:2024400051D1002F35464ED03B480168204600F02FFC2746069C214601F032F80390374882
:20246000056804973846214600F018FF294600F024FC0746324D294601F016FA002800D1B4
:202480003D46304F2846394601F0F3F9002800D12F462A4807600021384600F0FFFE054652
:2024A0008120C105049C204600F0F8FE294600F004FC05462449039800F0F0FE294600F0DA
:2024C000FCFB0546214F394601F0EEF9002800D12F461F4D3846294601F0CBF9002800D17E
:2024E0003D4615480460059C2046294600F0E5FB07462046294600F0DBFB02461548394646
:2025000000F05AFD1448006801F088FB07461348006801F083FB024607AC0194354608AEFC
:2025200000960C483946069B00F086FF705F615F00F0BEF909B0F0BD40012020340120208A
:202540000000A0410000A0C10AD7A33C00007042000070C2BC0020204C012020500120207B
:2025600070B586B045480178012932D1EFF3108272B61421C943424B03E06D466D18EC75E7
:20258000C91C5C18657D002D26D0657D2E46613EF6B21A2E00D2203D6E4676187575A57D7B
:2025A000002D1BD0A57D2E46613EF6B21A2E00D2203D6E467618B575002911D0E57D002DAA
:2025C00010D0E47D2546613DEDB21A2DD5D2203CD3E7002006B070BD153104E0163102E0B8
:2025E000172100E017316B4600245C54047025480470002A00D162B66D462A786B78AC7832
:20260000E8782D7905290CD1522A0AD1552B08D14E2C06D1312804D1352D02D1012006B06E
:2026200070BD6E4606290FD1522A0DD1552B0BD14E2C09D1502807D1492D05D17579442DA5
:2026400002D1022006B070BD04255326502801D0284600E00320694072404F2C00D0284632
:202660001143542B03D1002904D106B070BD28460029FAD0284606B070BDC0466901202070
:20268000080120207801202080B582B0244900220A7024490A6024490A6024490A602449D6
:2026A0000A6024490A6024490A7024490A6024490A7024490A6024490A6024490A70244932
:2026C0000A8024490A7024490A70244940230B7023490A7023490A7023490A7023490A70BF
:2026E00023490A6023490A6023490A6023490A7023490A6023490A6023490A60234908700C
:202700002349087023487F21C9050091019022482249134600F094FF01F072F902B080BDDE
:20272000A80120203C0120205401202028012020580120205C0120207D01202024012020DC
:202740007A012020300120203401202073012020600120206A0120206B0120206C0120207F
:20276000710120206F01202070012020720120203801202040012020480120207701202058
:20278000440120204C012020500120206D0120206E01202000007A44BC002020CDCC4C3F5B
:2027A000F0B5384908463438872202603648022202600A46383A862313600122026085231F
:2027C0000B61140204604B61530203602F4CE01C48604B684B600860086808604B685006E9
:2027E00003434B600B6803430B6082258D61284BCB614D64274D2E463C3E33606C606E6848
:202800006E600E46083E244F3760346834608124AC622F632C6B2C63EF61EC69EC612F6228
:202820002C6A2C622F602C682C600C462C3C174E26602568256028390E600C680C601749FF
:202840000C68950525430D6015490C6AD20614430C620C6814430C6012490A600A63124960
:202860000A68042414430C600A69823B13430B610E490A6A801C02430A620A6802430A60D0
:20288000F0BDC0463C804240D0120A4081000E0082000400C080424081000C00A0130A40BA
:2028A00028100A40A0320A4090330A4028300A40F0B585B00C467D27FD003C4A904203465D
:2028C00000DC1346AB4200DB2B469442039400DC14461922AC4200DB2C46334ED101049189
:2028E000334A1380334A148000280197029512D0DA175340D11A4D19012813DB01223046F9
:20290000049901F041FB04984543F900284601F047F9074612E0002701223046394601F0C2
:2029200033FB0BE004984543F900284601F038F901460122304601F027FB049F00253046A0
:2029400039462A4601F020FB20B2C1174840081A02990F180398184E00280BD010DD049DD4
:202960006F430198C100384601F01AF901460022304602E0304629462A4601F005FB0CE0D6
:2029800000223046049C214601F0FEFA67430198C100384601F004F90546012230462946EC
:2029A00001F0F2FA05B0F0BD0000094018FCFFFFA4012020A601202000008640F0B5394AC3
:2029C0008218394BC0183A4D4C790B79002C22D0466F202B02D00524E70100E0354F2E405E
:2029E000002B00D188273E434667846F2C403C438467446B2D4E34404463846B34408463A6
:202A000000244465846554688F26F643344054609468344094600C688979202B09D00646E4
:202A20007036002B15D1641E4460C46E2C40882715E0641E4460C46E2C401E4E3443C466A6
:202A4000046F2C40344304671B4D01246707064607E00527FF0164084460C46E2C403C432E
:202A6000C46634682C403C433460C46A0F4D2C40C462046B2C4004630024C4640465C46FCB
:202A80008F25ED432C40C46714682C401460194302680A4B1340BD220A40D118891C0160D9
:202AA000F0BDC04684180000041800008888FDFF24493E0001040000FFFFFFCF4000FFCF15
:202AC000B0B53A4A80184A6842600A78222A56D8930001A4E3589F46752B00007F2B000083
:202AE000752B00007F2B00007F2B00007F2B00007F2B00007F2B00007F2B00007F2B000090
:202B00007F2B00007F2B00007F2B00007F2B00007F2B00007F2B0000652B00007F2B00007F
:202B2000652B00007F2B00007F2B00007F2B00007F2B00007F2B00007F2B00007F2B00005F
:202B40007F2B00007F2B00007F2B00007F2B00007F2B00007F2B0000652B00007F2B00003F
:202B6000652B0000036803242407A343012464071B1903E0036803242407A34303600B6901
:202B8000C360CB68C46A0A4D25400A4C1C402B19C3620368084C1C400460097A114302681A
:202BA0003F239A43194051180160B0BD041800008888FDFF777702007F00FFFFF0B585B0D7
:202BC0000393174602910446066900251046294600F058FE002861D10120C1073046049138
:202BE00088433F21090600F044FE002856D13046029900F05DF8054620680290A6692846E2
:202C0000314600F055F801906168384600F046FB0146284600F042FB00900298019900F061
:202C20003DFB009900F049F80090A068394600F047FC074630460196314600F03EF801460A
:202C40000295284600F034F8E16900F036F80146384600F023FB009900F02FF80146606958
:202C600000F02BF80646039D04996940049100F000FE07463046294600F016FE002800D15D
:202C80003546002F049800D1284660610299A1610199E16101F01AF8054606E0E168304682
:202CA00000F0FCFA6061A561E561284605B0F0BDFCB40127FF07794002E0FCB40127FF07FA
:202CC0000C024D002D0E03D1002C52D1FCBC70473C43FF2D50D0A408002900D564420202AD
:202CE00043001B0E04D1002A43D10800FCBC70473A43FF2B41D09208002800D552425E1B82
:202D000004D5170022003C0076422B00192E06D527003741D2191C27F71B7F42BC40002A9A
:202D200027D002D55242012700E00027013B5200FCD51500802635400FD0150020263540C4
:202D40002C43803208D21500402635402C4304D101263602B24300E05B1C5200023308DD2D
:202D6000FF2B0BD2500ADB051843FF073843FCBC70470020FCBC70470800C70FFF07FF2035
:202D8000C0053843FCBC7047F0B581B0069C002C3AD0254624351D4E367826701C4E36685B
:202DA000801B052646431B4800681B4F3F686660A16021460C3185C12376184800786076F0
:202DC00001F086F816490968E061216215480078287015480078687014480088E084144832
:202DE0000078287113480078687113480078A8711248006812490968E062216301F0CCF821
:202E0000A08601F0CFF8E08601B0F0BDA80120203C012020580120205C0120206E012020C5
:202E2000300120207301202071012020600120206A0120206B0120206C0120204C01202089
:202E400050012020F0B581B014460D4606461D4806701D4801601D48002707601C480760B3
:202E60001C4800F09BFF05203040012811D1204804602048C05700281F4D294600DA1F4934
:202E80002046FFF71AFF144908601148056001B0F0BD11480460022E12D0042E0ED10F48A5
:202EA00007700F4805600F4807700F4807700F480770084800F072FF01B0F0BD00F0A0FDD9
:202EC00001B0F0BDA801202054012020240120205C012020BC0020205801202071012020CD
:202EE000380120206F0120207001202072012020280120207D01202000002A4300002AC3C4
:202F0000F0B581B00423002853D00025074601243E0427407D19770C07D027407D19B70C79
:202F200003D027407D19F70CF2D1002A41D00F2206461640F023034012020240002B08D03E
:202F4000002A06D0002E04D0EDB2052D01D903232FE00327BD020540002B05D0002E03D15F
:202F6000002D01D0234624E03840002B05D0002A03D1002801D002231BE041221206064690
:202F800008460F46114600F086FC3A463146002802D0002D23460CD1481E81410C46C12006
:202FA0000106104600F06EFC002801D1034600E06300D8B201B0F0BDF0B583B0002846D0D6
:202FC0000E460446174623493046019100F051FC0290214D3046294600F066FC0028284678
:202FE00000D13046029900291A4900D1014602913846184900F03DFC06463846294600F087
:2030000053FC002800D13D46002E00D10195E66821690298FFF74CFE01466769304600F021
:203020003DF93946FFF749FE6061E66A216B019D2846FFF73DFE0146676B304600F02EF91E
:203040003946FFF73AFE029921612563606303B0F0BDC046000048C300004843002A49D01C
:2030600084468B071CD1830722D1102A08D370B4103A78C978C0103AFBD270BC103238D001
:20308000042A2CD3082A05D30C2A01D308C908C008C908C008C908C092072AD0920F22E0EE
:2030A0000B780370491C401C521E22D08B07F7D1C30714D18307D8D0121F12D308C9038052
:2030C0001B0C4380001D121FF8D20AE008C903701B0A43701B0A83701B0AC370001D121F2A
:2030E000F4D2121D05D00B780370491C401C521EF9D160467047FEE770B582B01B491C4CB0
:20310000204600F001FF1B492046FFF757FC1A4801681A4A0A4002600025009520462946DC
:203120002A462B4600F0FEFE204629462A4600F0DDFE204629462A4600F026FF012600969B
:20314000204629462A462B4600F0ECFE20462946324600F0CBFE20462946324600F014FF89
:20316000074886600321016002B070BD0742000000000940A0410000041809407F00FFFF61
:203180000011094070B582B01B491C4C204600F0BBFE1B492046FFF711FC1A4801681A4AA7
:2031A0000A40026000250095204629462A462B4600F0B8FE204629462A4600F097FE20461D
:2031C00029462A4600F0E0FE01260096204629462A462B4600F0A6FE20462946324600F0FE
:2031E00085FE20462946324600F0CEFE074886600321016002B070BD0A4200000000864098
:20320000A8410000041886407F00FFFF0011864040B542004B005E08164301D006004E40E9
:2032200000D4D01A04D20120C90F06D1404204E003D90120C90F00D04042FF263606B24248
:2032400000D8B34200D9012040BD40B542004B005E08164301D006004E4000D4D01A04D270
:203260000120C90F06D1404204E003D90120C90F00D04042FF263606B24200D8B34201D9F5
:203280000120404240BD42004B000020FF2109068A4200D88B4200D901207047FCB40127B8
:2032A000FF0706004E4001D4002600E03E00020243001B0E30D03A43FF2B30D00C024D00E9
:2032C0002D0E29D03C43FF2D29D05B194240504042404C4061404C4000B500F0BDFC20BC1B
:2032E000AE464240504042404C4061404C4025001400002C01D46400013B803401D30133F7
:2033000064087E3B08DDFF2B09D2BC43200ADB0518433043FCBC70470020FCBC7047FF20AA
:20332000C0053043FCBC704710B51B491B4C204600F00FFE1A49204600F0AEFB19480168C7
:203340000322D203914301600169174A0A4011320261416917220A4328218A4342614268F0
:2033600001210A4043688B439A1842600F4A13688C021C43146002684B0413430360C26843
:2033800070231343C360C2680A4306239A43C26002680A43026010BDDA40000000801040B2
:2033A0006E410000009110400000FFFF2890104010B51B491B4C204600F0CBFD1A49204600
:2033C00000F06AFB194801680322D203914301600169174A0A4011320261416917220A43B4
:2033E00028218A434261426801210A4043688B439A1842600F4A13688C021C431460026892
:203400004B0413430360C26870231343C360C2680A4306239A43C26002680A43026010BDE9
:203420009E4100000020104078410000003110400000FFFF28301040F0B585B000283BD050
:203440000A9D002D38D004460B98002834D01F4604900291039200211846019100F024FA37
:20346000666C002805D038463146FFF726FC06466064274648371149304600F0FAF9002899
:2034800003D038882880B91C13E001986064236C204602993246FFF791FB3880236C2034A7
:2034A000204603993246FFF789FBB91C788038882880049A0888108005B0F0BD0AD7A33C03
:2034C000FCB40127FF0706004E40F60FF607020243001B0E2DD03A43FF2B2DD00C024D000C
:2034E0002D0E26D03C43FF2D26D05B1B0020202164085208A2424041A24200D3121B0139DA
:2035000004D0002A01D05200F4D18840384201D14000013B803001D3013300E040007F33AB
:2035200007DDFF2B08D2400ADB0518433043FCBC70470020FCBC7047FF20C0053043FCBC9E
:2035400070477047F0B50020C4431848184B0127FA067E06103B1D6815400346103B1B6886
:20356000002D08D013480068304200D027461248016879180160B71C334208D00F48006840
:20358000C00200D501240E480168611801603B40002D03D00649086810430860002B03D0E3
:2035A0000249086818430860F0BDC04648300A4048100A4080130A408001202080330A40DB
:2035C00084012020F8B5451C00780023082B32D02F78C2070CD16A780F241440E41C122C54
:2035E0000BD102242E57F4B2002E08D4EE1C0EE06D1C4A1C0F7011461AE0AE1C08E02E1DE0
:20360000ED7800957F252C40009DED012C1912343D0112095219094DAA420ED0D243002C65
:2036200005D08D5C4F1C0D70641E3946F7E7354640085B1CCAE72846C5E7F8BDFF0F00003D
:20364000F0B585B0002830D0044602A80EC00B9F00253846294600F00CF90190144E384684
:20366000314600F021F9002800D13E460A98019900292946049A00D131462164029B2360ED
:2036800003996160A260E060256123626162A262E06225632946FFF701FE6061A561E5617E
:2036A0006063A563E5636564A56405B0F0BDC04600007A44F0B581B010481149416011487D
:2036C0004160114B5960114C6160114D6960114E7160114F7960114841601149074A116070
:2036E000084A1160196021602960316039600160102000F05DFC01B0F0BDC04600080A40CA
:20370000030000B100280A4000080940000886400008874000280F400088104000281040CE
:2037200001000026F0B5164A1068C0B20B2825D1144801218B029362026852071ED4124A39
:20374000124B134C06E01D7800266655117005686D0713D4C5691678002EF8D1EEB20D2E7A
:20376000F5D00A2EEFD01E78162E04D81E78771C1F70A555EBE700251D70E8E7F0BDC0461F
:203780002090104008911040690120207801202008012020F0B585B0029000291248134A48
:2037A000014600D1114600D10246114D2846FFF703FC1048006800F031FA06460E480068DB
:2037C00000F02CFA024603AF019704AC009428463146029BFFF730FE0021605E795EFFF7AB
:2037E00067F805B0F0BDC0460000DCC20000DC42BC0020204C01202050012020EFF31080BA
:2038000072B60D4A002111600C4A11600C4A11600C4A11600C4A11600C4A11600C4A1160ED
:203820000C4A11600C4A11600C4A1170002800D0704762B67047C046800120208401202019
:203840009001202094012020980120209C012020A0012020880120208C01202079012020DB
:2038600010B5FFF7D5FC002801D0002010BD012010BD10B5FFF7CCFC002801DB002010BD74
:20388000012010BD10B5FFF7C3FC002801DD002010BD012010BD10B5FFF7D7FC002801DA4E
:2038A000002010BD012010BD10B5FFF7CEFC002801DC002010BD012010BD000080B5114939
:2038C000114800F0C1FA11480168032252020A430260026801210B021343036000224261E3
:2038E00007224262836B93438363836B120293438363826A042313438362826A0A43826228
:2039000080BDC0461042000000200F4000320F40F0B585B004460F480F490A46FFF74CFBC2
:203920000E48006800F07AF906460D48006800F075F9024603AF019704AD00950548314663
:203940002346FFF779FD0021685E795EFEF7B0FF05B0F0BDBC0020200000C8424C0120203B
:20396000500120200E480068C0B2012816D10D480168491C01600C480178FF2902D00178B2
:20398000491C017009480178491CCAB20170142A04D3002101700648012101707047C046F0
:2039A0002010874020012020740120207B0120207C01202080B500F0A5F900F047F8FEF79A
:2039C00039FB00F055FA0020FEF75EFEFDF74EFD084800F0C5F801204105074A1160074B4C
:2039E0001960C003106018600220106018601060186080BD8D40000080E200E000E100E0A4
:203A000070B50E48002404800D4804800D4E0125304621462A4600F0B7FA304621462246F6
:203A200000F0B2FA084E30462146224600F0ACFA304621462A4600F0A7FA70BDA4012020C9
:203A4000A6012020000009400000864070B50E48002404800D4804800D4E01253046214616
:203A60002A4600F091FA30462146224600F08CFA084E30462146224600F086FA30462146B8
:203A80002A4600F081FA70BDA4012020A6012020000009400000864070B511221302C218FC
:203AA000C4580125AC43C4500C888D7825438C882C43C558084E2E40084D25407419C45001
:203AC0008879CB790343087A184351687E23994318400818506070BDE798FDFF18670000F9
:203AE00010B50C48018800290ED00B4A13785C1C1470DA0703D00122D206084B1A61491E5D
:203B00000180080400D010BD0120C0060349086010BDC0466401202075012020A0320A4096
:203B20000D48002101600D48011F0A680323DB4313400B60416801229143416041681202C7
:203B400091434160016830229143016001680F22914301607047C04608030B4004010B40CE
:203B600070B50178002917D00C4CC51CAE1EC9B2204600F0FBF8317800290DD06E1E20462D
:203B800000F0F4F83178002906D0204600F0EEF82978ED1C0029E9D170BDC04600801040D5
:203BA0001CB50A0017D000230124E407A04200D20400944201D95200FBE790425B41904234
:203BC00000D3801A914201D25208F6E719000200080011001CBD01000020FFF7B2FC1CBDF0
:203BE00070B50A480A4C84420CD00A4D0A4EB54208D02A686968501C12789200A25890471C
:203C00000835F4E700BF00BF70BDC0462442000018420000344200004442000006B49E22A5
:203C2000002802D404D106BC7047414204D400E00100013A4900FCD5803101D3013200E00F
:203C40004900490AD2051143002802D50122D2071143080006BC7047FCB4020C0B0CFF24D5
:203C60002402FF34204021400C00444315005D4306005E430F005743320C3B0CA818C01875
:203C800032043B040025A1186841C9186841FCBC7047000010B50849084C204600F034F942
:203CA00007492046FEF70CFF064801680122114301600548026010BD044200000000874036
:203CC0000C410000281087400811874006B54100090E7F390DD41F22511A0CD986460002AD
:203CE0000122D2071043C8407246002A00D5404206BD002006BD02000120C007002A00D4A6
:203D0000401E06BD80B5FFF7D5FCFEF749FDFFF707FFFFF7F1F9FFF735FAFFF7BBFFFFF7A4
:203D2000CDFDFFF701FBFFF743FB0248B8210022425480BD0000202006B5002803D57346C7
:203D4000FFF7C4FF06BD4100090E7F3908D31F22511A07D300020122D2071043C84006BD5A
:203D6000002006BD0020401E06BD00000A4A80180268120605D50268120602D502681206FC
:203D8000F6D481610168C90705D00168C90702D00168C907F6D1704708110000B0B5002801
:203DA00012D0C168026904461046FFF777FA00256061A561E561E16A206BFFF76FFA60635C
:203DC000A563E5636564A564B0BD000080B508480078062807D8012181406120014202D0D1
:203DE000FFF70EFE80BD03480121017080BDC046A80120207A012020084880F3088800BFAD
:203E000000BF00F0FAF8002801D0FFF7E9FE002000F0A8F8012000F0E9F8C04600802020C3
:203E200002B49E21002805D401D102BC704701394000FCD5803001D3013100E04000400A5A
:203E4000C905084302BC704770B50122120383180C785D680C26B54334402C195C60497833
:203E600083580724A34321405918815070BD0000044800210180044801700120C0060349A8
:203E8000086070476401202075012020A0320A4080B5001D0521FFF783FE0349088003487E
:203EA0000021017080BDC0466401202075012020064802780121062A0B4600D800237F20CD
:203EC00002401E20D040184308407047A801202003480078002801D1034870470148704750
:203EE0007601202040410000B041000010B592008018044A83580724A404A34321405918F6
:203F0000815010BD3018000010B50122120383180C789C604B7883508978014A815010BD23
:203F20000C11000010B5029CA400001911431943014A815010BDC046501800000322805840
:203F4000002805D0401E4A1C00230B701146F7E7704710B50122120383180C789C6049783D
:203F6000815010BDFFF726FDFDF7D8FEFDF7D6FEFDF7D4FEF8E780B50B4603214258C11D31
:203F8000184600F02FF880BD92008018014A81507047C0461018000000200149085E7047BD
:203FA000A401202000200149085E7047A6012020811E091F00BFFCD2704780B5FFF7C2FABC
:203FC00080BD80B5FFF7AEFB80BD80B5FFF7F5FF80BD80B5FFF7C6FC80BD80B5FFF7F1FFF2
:203FE00080BD000080B5FFF739F880BD00F001F8FEE700BF7047FFE6704701207047000033
:204000004E43484431322067726179206C696E652064656D6F206F6E626F61726420554105
:204020005254302031313532303020384E310D0A004232312F52554E5049442F52554E3178
:20404000353A2067726179206C696E65203330733B2053544F502061626F7274730D0A00FD
:204060004D5055363035302064697361626C65643B20656E636F646572207370656564209F
:20408000504944206163746976650D0A004D5055363035303D44495341424C45443B2042C1
:2040A0003231207374617274732067726179206C696E65203330730D0A00436F6D6D616ED9
:2040C00064733A2052554E5049442C2052554E31352C2053544F500D0A000800F64100004E
:2040E000E641000095410000E6410000BF410000EC410000DA410000E0410000CD41000025
:20410000C6410000D4410000F141000002000000FF700200010000000000000000000000DD
:2041200030313233343536373839414243444546004552522042323120627573790D0A0035
:204140004D5055363035302D455252004F4B2052554E5049440D0A0045525220627573791D
:204160000D0A004F4B2052554E31350D0A000000180000000030000000001800000000306C
:2041800000004F4B2053544F500D0A004F4B204232310D0A00535452414947485400080024
:2041A000800C000020000100800C0000200101004D50553630353000284C4F535429004C08
:2041C000494E453330005455524E5F52005455524E5F4C0043524F53530041424F525400B0
:2041E000545241434B00435552564500444F4E45004C4F53540049444C4500284F4B290054
:18420000455252000800000800000800004F4B0008003F0000000000C4
:20421800C5350000773F00003D3F0000020000007F010000000100000F16FFF0244200005D
:10423800000020202C420000800120200000000007
:00000001FF
