:20000000008020200337000023270000232700000000000000000000000000000000000052
:200020000000000000000000000000002327000000000000000000002327000023270000E2
:2000400023270000D73600002327000023270000232700002327000023270000232700008D
:200060000000000023270000232700000000000000000000E736000023270000232700003B
:200080002327000023270000232700002327000023270000DF3600000000000000000000D9
:2000A0002327000023270000000000000000000023270000000000002327000023270000CE
:2000C000F0B58FB0002800D104E30446B74F6D21384603F0D1F97321384603F0CDF93D211A
:2000E000384603F0C9F96568002D0B942DD000270A262846314603F0D9F84643A91B302694
:2001000031430CAAD1550A2D24D30A2103F0CEF831430CA8C0194170642D1DD36421284657
:2001200003F0C4F80A2103F0C1F83143FE1C0CA8C01981707D20C100284603F0B7F8E908CE
:200140007D2937460546D3D207E03021384603F093F941E07E1C00E0BE1C002E934F3BD0C7
:20016000701E032103F0A2F8481C0027032800D00746099602D135468C4C16E00CA8801E60
:200180000A908A4C0A9880194178204603F074F9012F09D0B51E0A98815D204603F06CF91B
:2001A000BF1E2E46EED100E0751E09980328274612D30CA82818C61EB178384603F05CF9D7
:2001C0007178384603F058F9ED1E3178384603F053F9F61E002DEFD12021384603F04CF90B
:2001E0007321384603F048F974253846294603F043F96121384603F03FF93846294603F0F9
:200200003BF96521384603F037F93D21384603F033F90B9E3078062803D8800064490958A0
:2002200000E064490878002816D0CD1CAC1EC1B2384603F021F9217800290DD06C1E38464B
:2002400003F01AF92178002906D0384603F014F92878ED1C0028E9D12021384603F00CF940
:200260006721384603F008F97921384603F004F97221384603F000F96F21384603F0FCF88A
:200280003D21384603F0F8F8707E002804D0307E00280FD148490EE04F21384603F0ECF8BB
:2002A00046253846294603F0E7F83846294603F0E3F81AE041490878002816D0CD1CAC1E94
:2002C000C1B2384603F0D8F8217800290DD06C1E384603F0D1F82178002906D0384603F0FE
:2002E000CBF82878ED1C0028E9D12021384603F0C3F86221384603F0BFF86121384603F0A5
:20030000BBF86321384603F0B7F86B21384603F0B3F86521384603F0AFF86E21384603F040
:20032000ABF86421384603F0A7F83D21384603F0A3F8F1690878002816D0CD1CAC1EC1B20D
:20034000384603F099F8217800290DD06C1E384603F092F82178002906D0384603F08CF8EA
:200360002878ED1C0028E9D12021384603F084F86C21384603F080F86921384603F07CF8DF
:200380006E21384603F078F86521384603F074F83D21384603F070F8306A01F079FB242010
:2003A000305C00280CD1CD490BE0C04600001040E4370000E7380000D5380000E2380000F4
:2003C000C5490878002816D0CD1CAC1EC1B2384603F052F8217800290DD06C1E384603F006
:2003E0004BF82178002906D0384603F045F82878ED1C0028E9D120210991384603F03CF869
:2004000067210891384603F037F872210791384603F032F861210491384603F02DF8792609
:2004200038463146019603F027F83D210A91384603F022F830210391384603F01DF8782196
:20044000384603F019F80B98C48C200BA44D295C384603F011F82005000F295C384603F0E2
:200460000BF82006000F295C384603F005F80F202040295C384602F0FFFF3846099C214645
:2004800002F0FAFF3846314602F0F6FF3846049E314602F0F1FF77210591384602F0ECFF93
:2004A00038460A9902F0E8FF0B98806801F0F0FA3846214602F0E0FF742438462146029413
:2004C00002F0DAFF3846314602F0D6FF3846079902F0D2FF3846089902F0CEFF65210691B9
:2004E000384602F0C9FF3846214602F0C5FF5F210891384602F0C0FF3846019D294602F064
:20050000BBFF3846314602F0B7FF3846059C214602F0B2FF38460A9902F0AEFF0B98C068D0
:2005200001F0B6FA3846099E314602F0A5FF3846294602F0A1FF3846049D294602F09CFF4E
:200540003846214602F098FF3846089902F094FF3846079C214602F08FFF3846294602F0A2
:200560008BFF3846029D294602F086FF3846069902F082FF38460A9902F07EFF0B980069C2
:2005800001F086FA3846314602F076FF3846294602F072FF7521384602F06EFF38462146E6
:2005A00002F06AFF6E21384602F066FF3846089902F062FF3846069E314602F05DFF3846A5
:2005C000214602F059FF3846214602F055FF38460A9D294602F050FF0B9C606901F058FAB7
:2005E0003846099902F048FF7321384602F044FF70210491384602F03FFF3846314602F0A0
:200600003BFF3846314602F037FF6421384602F033FF3846294602F02FFF2546A06A00F0EA
:20062000B9FF2F243846214602F026FFE86A00F0B1FF3846099902F01FFF3846049E3146FA
:2006400002F01AFF3846059902F016FF6D253846294602F011FF3846089902F00DFF384650
:20066000314602F009FF3846069E314602F004FF3846079902F000FF3846294602F0FCFE93
:200680006921384602F0F8FE6C253846294602F0F3FE3846294602F0EFFE3846314602F056
:2006A000EBFE38460A9902F0E7FE03980B9D285E00F070FF3846214602F0DEFE3220285EA6
:2006C00000F068FF0D21384602F0D6FE0A21384602F0D2FE0FB0F0BDD0380000AC3800008E
:2006E00014380000F0B58BB0002800D14AE106900120C407BD4DBE4F049001070A91BD48D5
:200700003C612860286828600C3D81262E6038464038079001603960A020089002F0CEFF80
:20072000B24806603846303F3C60099404600A9C089802F0C3FF08952E60354605973C60F7
:20074000AB4F3C60402000F05BF9002800D1EDE00026304600F054F9002800D1E6E0039668
:20076000099C3C61A14A3946A24F176010681060089805600A9F079807600F60A02630461E
:2007800002F09CFF9948056005990C60984804603046089E0C4602F091FF35602760944850
:2007A0000760412000F02CF9002800D1EDE0049800F0DCFC0390002000F0D8FC02908B4F4F
:2007C0003D60099F27608A4807602C463546A026304602F073FF2C600A9807990860844C81
:2007E0002060304602F06AFF276182487F49086008680860304602F061FF02980007020DD6
:2008000003981418601E264686417C480768002C00D1E6E0784804800120214609900140C4
:200820000220204008906006C30F18460B304D1CD20A002A00D0CDE0184600D1CCE00029DD
:2008400000D00B38042222400899002901D00B38801C08212140002A029501D00B38001D07
:20086000102525400795002905930192009101D00B38801D202121408A06D21780230A9450
:200880002340099C2402079D002D039601D00B380830099D6E020A9D2C408018002B00D0B8
:2008A000C01C099A92020A9D2E40002C00D0401D0A9D2A40002E00D0C01D089D6D08089514
:2008C000019DAD080195009DED080095079D2D094909DB090993230A0793740A960A002A4D
:2008E00000D00930029A089BD218019BD218009BD21852195118059A8918099A8918079AC2
:20090000891809198C1902F00FFD0546204602F00DFE0146284602F0B7F9002C00D0074623
:20092000364807600699039E0A9C5BE02F4E35600A9C3946099F059807600F602E46A02526
:20094000284602F0BBFE089806600798046028480460284602F0B2FE2548076125482349E3
:20096000086008680860284602F0A8FE224800880699088021480768002630464F600E7275
:200980000BB0F0BD00200BB0F0BD184F3D60099F2760174807602C46A025284602F08EFE4B
:2009A00034600A9807990860114C2060284602F085FE27610F480D49086008680860284656
:2009C00002F07CFE0C480088069908800B480768039ED2E700D032E70D46002900D030E740
:2009E00030E706990C800498C8E7C04618804240D0120A4081000E005E0120202C01202083
:200A0000F0B587B002900120C107A04EA04A0707812535601446303C059121601160A02050
:200A2000069002F04BFE0C3E3560994908464038049007600F60069802F040FE05990696EC
:200A40003560276092480760029840280195039405D28E48056021608D48016006E08C4887
:200A600001618A498B48086008680860A025284602F024FE069E019C346004980760844843
:200A80000760284602F01AFE3460039A1760804807600298800606D47C480460059911606F
:200AA0007B48016007E07A480599016177497948086008680860A025284602F0FFFD069EE3
:200AC00034600498076072480760284602F0F6FD3460039A17606E4807600298C00606D40C
:200AE0006A480460059911606948016007E068480599016165496748086008680860A025C6
:200B0000284602F0DBFD069E34600498076060480760284602F0D2FD3460039A17605C48D8
:200B200007600298000706D458480460059911605748016007E05648059901615349554802
:200B4000086008680860A025284602F0B7FD069E3460049807604E480760284602F0AEFD39
:200B60003460039A17604A4807600298400706D446480460059911604548016007E04448B7
:200B80000599016141494348086008680860A025284602F093FD069E3460049807603C488C
:200BA0000760284602F08AFD3460039A1760384807600298800706D434480460059911606E
:200BC0003348016007E03248059901612F493148086008680860A025284602F06FFD069E72
:200BE0003460049807602A480760284602F066FD346003990F60264807600298C00706D116
:200C0000224D2C60059A0A602148026007E02048059A02611D4D1F48286028682860A0247F
:200C2000204602F04BFD019E069806600498076017480760204602F041FD06980660039873
:200C4000076013480760059901611248286028682860204602F032FD069D2E6004980760B6
:200C60000B480760204602F029FD0B48006805902E600398076006480760204602F01EFD34
:200C80000598C043C00F07B0F0BDC04618804240D0120A4081000E0080130A40F0B585B0EF
:200CA0001C46154604910CAF8ECF814E3560814D2C60814C2170814C2260814C2370814C32
:200CC0002780814C2578062D04D80126AE4061273E4219D17D4F3E78002E0ED1002903D161
:200CE0007B490978C90708D17A490968411A052603967143784EB1420AD30020387006207B
:200D00002070784802F0D0FB02F000FA05B0F0BD6D1E032DF8D80B9902910A9E6F490968E5
:200D2000471A03994F43C0467D442D796D00AF4401642F5A019603906B49049800F054FFAC
:200D40006A4807780126F107029D284688434121090602F050F9002877D0002F75D128466D
:200D60000027394602F047F9002800D1FE435F4806705F480568304602F0D6FA06465D4906
:200D800001F0EAFD294601F05EFB5E49086065E0039037465449049800F026FF5348002154
:200DA0004056C4B202F0C0FA0646514801683D46384601F043FB314601F0CEFD0646002C52
:200DC00000D126464B48314601F038FB002C4A4908609BD04749304602F00DF9002895D08B
:200DE000052003992CE0049811461A4600F0C8FA3B4887428AD3039882E7354604463F4927
:200E0000049800F0F1FE3948067870B202F08CFA0146029801F0A0FDF9087D2943D3002E64
:200E200041D04121090602F0E6F800283BD034480168491D0160962900D267E70320214618
:200E40002A4601F09BFE05B0F0BD002F00D15DE72748056878B202F067FA06460198294645
:200E600001F0ECFA314601F077FD0546214E3046294601F0E3FA204F38602846314602F074
:200E8000BAF8002800D141E7022020700398134908601B48002101603960124802F004FBA5
:200EA0001848019901E016480021016005B0F0BD480120204C0120206401202030012020E9
:200EC000660120205C0120209C0120206D0120206501202038012020A0BB0D00500120202B
:200EE00030750000BC0020200000DC42700120202801202000002A43580120200000484388
:200F00002401202054012020F0B581B0914C924800250570914805704E20914E7719C1B212
:200F2000204602F0A9FA7978204602F0A5FAB978204602F0A1FAF978204602F09DFA397998
:200F4000204602F099FA7979204602F095FAB979204602F091FAF979204602F08DFA397AB4
:200F6000204602F089FA797A204602F085FAB97A204602F081FAF97A204602F07DFA397BD0
:200F8000204602F079FA797B204602F075FAB97B204602F071FAF97B204602F06DFA397CEC
:200FA000204602F069FA797C204602F065FAB97C204602F061FAF97C1435204602F05CFA76
:200FC000387D282DAAD100254220664E7719C1B2204602F051FA7978204602F04DFAB978EA
:200FE000204602F049FAF978204602F045FA3979204602F041FA7979204602F03DFAB97956
:20100000204602F039FAF979204602F035FA397A204602F031FA797A204602F02DFAB97A71
:20102000204602F029FAF97A204602F025FA397B204602F021FA797B204602F01DFAB97B8D
:20104000204602F019FAF97B204602F015FA397C204602F011FA797C204602F00DFAB97CA9
:20106000204602F009FAF97C204602F005FA397D204602F001FA797D204602F0FDF9B97DC6
:201080001735204602F0F8F9F87D2E2D9ED100254D20354E7719C1B2204602F0EDF9797835
:2010A000204602F0E9F9B978204602F0E5F9F978204602F0E1F93979204602F0DDF979791A
:2010C000204602F0D9F9B979204602F0D5F9F979204602F0D1F9397A204602F0CDF9797A36
:2010E000204602F0C9F9B97A204602F0C5F9F97A204602F0C1F9397B204602F0BDF9797B52
:20110000204602F0B9F9B97B204602F0B5F9F97B204602F0B1F9397C204602F0ADF9797C6D
:20112000204602F0A9F9B97C204602F0A5F9F97C204602F0A1F9397D204602F09DF9797D89
:201140001635204602F098F9B87D2C2DA2D101B0F0BDC046000010406B0120206301202056
:2011600099370000103700003F370000F0B58DB008900120C1077E4C7E4A07077E480A917E
:201180001161E060E068E06081262660104640380C9007601760A025284602F08FFA774833
:2011A00000680790266073480446303C27600B940760284602F082FA6D4806600C980760AA
:2011C0006C480760284602F079FA6C480068069067480660276067480760284602F06EFAF5
:2011E000634C26600C98076062480760284602F065FA62480068059026600B9C27605D48DF
:201200000760284602F05AFA594806600C98076058480760284602F051FA58480068049053
:20122000534806602760534C2760284602F046FA4F4806600C9807602760284602F03EFA39
:201240004E48006803904A4806600B9C276049480760284602F032FA454806600C98076055
:2012600044480760284602F029FA4448006802903F48066027603F4C2760284602F01EFA74
:201280003B4806600C9807602760284602F016FA3A4800680190364806600B9C2760354859
:2012A0000760284602F00AFA314806600C98076030480760284602F001FA304800680090CF
:2012C00009962B48066027602A480760284602F0F5F90898002807D025480999C1600A9877
:2012E00020602449086007E00A982249086120492148C860C868C8600798C00F0699C90F05
:201300008900C00040180599C90F490040180499C90F401880000399C90F49004018029918
:20132000C90F401880000199C90F490040180099C90F40180890A024204602F0BFF90C4D5C
:20134000099E2E600C9807600A480760204602F0B5F92E600B98076006490F600A9808612D
:201360000548E860E868E8600898C0B20DB0F0BD0C804240D0120A4081000E0080130A401E
:20138000F0B589B00690002A23D00D466E49284601F028FE00281FD16C49284601F022FEE1
:2013A00000281BD16A49284601F01CFE002817D10324A107284601F015FE002812D100266B
:2013C0002846314601F005FE002800D190E0FF2609E05C48067806E0F62604E0F92602E0B4
:2013E000FB2600E0FD2670B2039001F09DFF01465C4F3868049101F026F805465A4C2146F9
:2014000001F002FE002800D12C46584D2046294601F0DFFD002800D125463D600021494876
:2014200005914756067052480468524E2046314601F0CFFD002810D04F49069801F08CFA0E
:20144000214601F000F80446314601F0DDFD002800D126464648066000E026460398C01B95
:2014600001F062FF07464549284601F075FA04464349049801F070FA214600F0E4FF044620
:201480003649384601F068FA214600F0DCFFFF21890501F061FA3B4901F05EFA0446304643
:2014A000214600F0CBFF05462046314600F0CBFF0246354C2046294601F094F8334800682B
:2014C00001F032FF05463248006801F02DFF024607AE019608AF009720462946069B01F057
:2014E00009FB0599785E715E00F036FD09B0F0BD7F20C105284601F075FD002800D072E795
:201500001449284601F06EFD002815D11249284601F068FD0028264600D064E70F49284602
:2015200001F060FD002809D10D49284601F05AFD002805D0072656E7012654E7052652E722
:201540000A2650E76A012020000010C10000C0C0000080C0000040400000A0400000E04068
:20156000000010414401202000004843000048C340012020000020430000C8439A99193E86
:201580000000C842EC51383DBC002020480120204C012020F0B585B00546002830D464D0F8
:2015A00000277D20C00001900A262846314601F07DFE4643A91B3026314302AAD1550A2D75
:2015C00059D30A2101F072FE314302A8C0194170642D54D36421284601F068FE0A2101F08D
:2015E00065FE3143FC1C02A8C01981702846019E314601F05BFEB54227460546D4D23BE04A
:2016000061487D21C90001912D2101F035FF6D4200240A272846394601F048FE4743E91BFF
:201620003027394302AA11550A2D3AD30A2101F03DFE394302A800194170642D35D364211C
:20164000284601F033FE0A2101F030FE3943E71C02A8001981702846019C214601F026FEF6
:20166000A5423C460546D4D21CE04748302101F003FF05B0F0BD7C1C002C03D182E0BC1C0D
:20168000002C7FD0601E032101F010FE481C0027032800D007463C49009417D125460C469D
:2016A00042E0671C002F03D16CE0A71C002F69D0781E032101F0FAFD481C0025032800D0E5
:2016C0000546009719D13C462F4E45E002A8801E019026460C46019880194178204601F041
:2016E000CBFE012F1FD0B51E0198815D204601F0C3FEBF1E2E46EED116E002A8801E0190C1
:20170000214E0198C0194178304601F0B5FE012D21D0BC1E0198C15D304601F0ADFEAD1E88
:201720002746EED118E0751E009803282AD302A82818C61EB178204601F09EFE71782046F9
:2017400001F09AFEED1E3178204601F095FEF61E002DEFD116E07C1E0098032812D302A87F
:201760002018C51EA978304601F086FE6978304601F082FEE41E2978304601F07DFEED1EEA
:20178000002CEFD105B0F0BD00001040F0B587B01D46039202910446EFF3108072B64F49C8
:2017A0000F684F490E68002800D162B600212046019101F017FC0028069500D0494C4A48BC
:2017C0000168791A494A1368F31A0497076005961660474A10684718176046490868C01829
:2017E00000900860444E3168204600F02CFE05463060424901F0FFFB002843D0384601F04B
:2018000093FD3F4F394601F0A7F8294601F03CFA0446009801F088FD394601F09DF8294639
:2018200001F032FA05463748017800291DD036480068364901F090F80646354F204639469F
:2018400001F08AF8314600F0FEFD0446314800682E4901F081F806462846394601F07CF809
:20186000314600F0F0FD054601E001210170264804602848056001981D4908601D49086079
:201880001D490860029C002C04D01F48006801F0A3FD2060039C002C069D059E049F04D074
:2018A0001C48006801F098FD20600C9C002D08D0384601F039FD124901F04EF801F08CFDF8
:2018C0002860002C08D0304601F02EFD0C4901F043F801F081FD206007B0F0BD7401202061
:2018E000780120200AD7A33B84012020880120208C01202090012020940120200AD7A33CAF
:201900009C9D0F3F6C0120207C0120209A99993E3333333F80012020F0B597B000F000FA5D
:20192000411E022905D303280ED004281DD14A4812E004464A48006800F00EFD00280AD05D
:20194000022C0CD049480BE001F0C6FD782001F025FE424800E0434801F088FC05E04248C8
:2019600001F084FCDC2001F019FE414C2068800216D4404D2878002815D1012677053E480D
:2019800001F09CFE206838420DD12E7001F016FE00284FD001F0A0FD782001F0FFFD02E0FD
:2019A000344800210170EFF3108172B6354A107800241470002900D162B6002823D001F0B1
:2019C000B5FD314900F0C8FF054613A8009016A915AA14AB2846FFF7D9FE06AE3046FEF7F7
:2019E00081FE1F480068169A159B0799377A36880094019402940391049705962946FFF73C
:201A00004DF901F0F3FB2148017801290CD104701348006806AD009521462246234600F011
:201A200081FE2846FEF74CFB7D20000201F046FE17B0F0BD0A48006800F08EFC002804D005
:201A4000DC2001F0ABFD0E4802E001F05FFB0B4801F00CFCA7E7C046C237000076380000E7
:201A6000200120204C380000403800005738000080330A406201202000E204002538000097
:201A800080380000670120200AD7A33B6F012020F0B587B004460026314601F09AFA0546E4
:201AA000002801D14D4900E04B49204600F054FF002D4B4F05D02D210446384601F0DCFCFE
:201AC000204601F0BFFC0A28029004D23021384601F0D2FC71E007460A253846294601F021
:201AE000E5FB294601F0E2FB3024214304A88155642F21D36421384601F0D8FB0A2101F025
:201B0000D5FB214304A880194170F8087D2815D37D20C100384601F0C9FB05460A2101F016
:201B2000C5FB2143F41C04A8801981702D48874226462F46D0D202E0741C00E0B41C002C2C
:201B4000274F3AD0601E032101F0B0FB481C0026032800D00646019402D12546204F16E0BE
:201B600004A8801E03901E4F039800194178384601F082FC012E09D0A51E0398015D38467F
:201B800001F07AFCB61E2C46EED100E0651E0198032812D304A82818C41EA178384601F077
:201BA0006BFC6178384601F067FCED1E2178384601F062FCE41E002DEFD12E21384601F0F5
:201BC0005BFC0A21029801F071FB30200143384601F052FC07B0F0BD000020C10000204195
:201BE0000000104010270000F0B589B01F461446059100260690314601F0F4F90028354677
:201C000051D1002F35464ED03B480168204600F015FC2746069C214601F036F803903748E0
:201C2000056804973846214600F096FE294600F00AFC0746324D294601F0E6F9002800D1CA
:201C40003D46304F2846394601F0C3F9002800D12F462A4807600021384600F07DFE05464C
:201C60008120C105049C204600F076FE294600F0EAFB05462449039800F06EFE294600F041
:201C8000E2FB0546214F394601F0BEF9002800D12F461F4D3846294601F09BF9002800D140
:201CA0003D4615480460059C2046294600F0CBFB07462046294600F0C1FB024615483946C2
:201CC00000F090FC1448006801F02EFB07461348006801F029FB024607AC0194354608AEC4
:201CE00000960C483946069B00F004FF705F615F00F032F909B0F0BD3C01202034012020E5
:201D00000000A0410000A0C10AD7A33C00007042000070C2BC002020480120204C012020CB
:201D200070B586B045480178012932D1EFF3108272B61421C943424B03E06D466D18EC752F
:201D4000C91C5C18657D002D26D0657D2E46613EF6B21A2E00D2203D6E4676187575A57DC3
:201D6000002D1BD0A57D2E46613EF6B21A2E00D2203D6E467618B575002911D0E57D002DF2
:201D800010D0E47D2546613DEDB21A2DD5D2203CD3E7002006B070BD153104E0163102E000
:201DA000172100E017316B4600245C54047025480470002A00D162B66D462A786B78AC787A
:201DC000E8782D7905290CD1522A0AD1552B08D14E2C06D1312804D1352D02D1012006B0B7
:201DE00070BD6E4606290FD1522A0DD1552B0BD14E2C09D1502807D1492D05D17579442DEE
:201E000002D1022006B070BD04255326502801D0284600E00320694072404F2C00D028467A
:201E20001143542B03D1002904D106B070BD28460029FAD0284606B070BDC04663012020BE
:201E4000080120206B012020F0B5384908463438872202603648022202600A46383A862333
:201E600013600122026085230B61140204604B61530203602F4CE01C48604B684B60086093
:201E8000086808604B68500603434B600B6803430B6082258D60284BCB604D64274D2E4681
:201EA0003C3E33606C606E686E600E46083E244F3760346834608124AC622F632C6B2C6366
:201EC000EF61EC69EC612F622C6A2C622F602C682C600C46303C174E266025682560243994
:201EE0000E600C680C6017490C68950525430D6015490C6AD20614430C620C6814430C60A9
:201F000012490A600A6312490A68042414430C600A69823B13430B610E490A6A801C024339
:201F20000A620A6802430A60F0BDC0463C804240D0120A4081000E0082000400C080424020
:201F400081000C00A0130A4028100A40A0320A4090330A4028300A40F0B585B00C467D27DA
:201F6000FD003C4A9042034600DC1346AB4200DB2B469442039400DC14461922AC4200DBAE
:201F80002C46334ED1010491334A1380334A148000280197029512D0DA175340D11A4D19B8
:201FA000012813DB01223046049901F073FB04984543F900284601F079F9074612E0002721
:201FC00001223046394601F065FB0BE004984543F900284601F06AF901460122304601F0FD
:201FE00059FB049F0025304639462A4601F052FB20B2C1174840081A02990F180398184E0B
:2020000000280BD010DD049D6F430198C100384601F04CF901460022304602E030462946C9
:202020002A4601F037FB0CE000223046049C214601F030FB67430198C100384601F036F9C4
:20204000054601223046294601F024FB05B0F0BD0000094018FCFFFF980120209A012020AC
:2020600000008640F0B5394A8218394BC0183A4D4C790B79002C22D0466F202B02D0052493
:20208000E70100E0354F2E40002B00D188273E434667846F2C403C438467446B2D4E344046
:2020A0004463846B3440846300244465846554688F26F643344054609468344094600C68CF
:2020C0008979202B09D006467036002B15D1641E4460C46E2C40882715E0641E4460C46E17
:2020E0002C401E4E3443C466046F2C40344304671B4D01246707064607E00527FF016408E0
:202100004460C46E2C403C43C46634682C403C433460C46A0F4D2C40C462046B2C4004635B
:202120000024C4640465C46F8F25ED432C40C46714682C401460194302680A4B1340BD2293
:202140000A40D118891C0160F0BDC04684180000041800008888FDFF24493E00010400001F
:20216000FFFFFFCF4000FFCFB0B53A4A80184A6842600A78222A56D8930001A4E3589F465C
:202180001D220000272200001D22000027220000272200002722000027220000272200000B
:2021A0002722000027220000272200002722000027220000272200002722000027220000D7
:2021C0000D220000272200000D2200002722000027220000272200002722000027220000EB
:2021E000272200002722000027220000272200002722000027220000272200002722000097
:202200000D220000272200000D220000036803242407A343012464071B1903E0036803243B
:202220002407A34303600B69C360CB68C46A0A4D25400A4C1C402B19C3620368084C1C4040
:202240000460097A114302683F239A43194051180160B0BD041800008888FDFF77770200F2
:202260007F00FFFFF0B585B00393174602910446066900251046294600F0B4FE002861D1E2
:202280000120C1073046049188433F21090600F0A0FE002856D13046029900F0CFF8054620
:2022A00020680290A6692846314600F0C7F801906168384600F050FB0146284600F04CFB62
:2022C00000900298019900F047FB009900F0BBF80090A068394600F0D7FC07463046019698
:2022E000314600F0B0F801460295284600F0A6F8E16900F0A8F80146384600F02DFB0099A5
:2023000000F0A1F80146606900F09DF80646039D04996940049100F05CFE0746304629465C
:2023200000F072FE002800D13546002F049800D1284660610299A1610199E16101F04CF850
:20234000054606E0E168304600F006FB6061A561E561284605B0F0BDF0B581B00446214E30
:202360003178002006293AD801252A468A4061210A4234D000F0F2FD1B48002707601B48EE
:2023800007601B4807701B4807701B4807601B4807601B4807701B4807801B4807601B489D
:2023A00007601B4807701B4807601B4807601B4807601B4804601B4807701B4807700420DF
:2023C00030701A4804601A4807601A4807601A4801F06AF80548076000F098FE284601B0F7
:2023E000F0BDC0469C0120202801202054012020700120206D01202030012020340120200A
:20240000660120205C0120203C012020440120206A01202040012020480120204C01202034
:20242000380120206501202064012020500120202401202058012020BC002020FCB4012775
:20244000FF07794002E0FCB40127FF070C024D002D0E03D1002C52D1FCBC70473C43FF2D2A
:2024600050D0A408002900D56442020243001B0E04D1002A43D10800FCBC70473A43FF2B4B
:2024800041D09208002800D552425E1B04D5170022003C0076422B00192E06D52700374195
:2024A000D2191C27F71B7F42BC40002A27D002D55242012700E00027013B5200FCD51500F0
:2024C000802635400FD01500202635402C43803208D21500402635402C4304D101263602A4
:2024E000B24300E05B1C5200023308DDFF2B0BD2500ADB051843FF073843FCBC7047002078
:20250000FCBC70470800C70FFF07FF20C0053843FCBC704780B582B01B4900220A701B49CF
:202520000A601B490A601B490A601B490A601B490A601B490A701B490A601B490A701B490B
:202540000A601B490A601B490A701B490A801B490A601B490A601B490A701B490A601B49CB
:202560000A601B490A601B4908701B4908701B48009201901A48FF218905134600F044FC4C
:2025800000F0C4FD02B080BD9C01202038012020500120202801202054012020580120201D
:2025A00070012020240120206D0120203001202034012020660120205C0120203C012020B0
:2025C000440120206A01202040012020480120204C012020640120206501202000007A442B
:2025E000BC002020F0B583B0002846D00E460446174623493046019100F0EBFC0290214D83
:202600003046294600F000FD0028284600D13046029900291A4900D101460291384618495A
:2026200000F0D7FC06463846294600F0EDFC002800D13D46002E00D10195E6682169029842
:20264000FFF7FCFE01466769304600F085F93946FFF7F9FE6061E66A216B019D2846FFF784
:20266000EDFE0146676B304600F076F93946FFF7EAFE029921612563606303B0F0BDC04656
:20268000000048C300004843002A49D084468B071CD1830722D1102A08D370B4103A78C9D7
:2026A00078C0103AFBD270BC103238D0042A2CD3082A05D30C2A01D308C908C008C908C0E2
:2026C00008C908C092072AD0920F22E00B780370491C401C521E22D08B07F7D1C30714D109
:2026E0008307D8D0121F12D308C903801B0C4380001D121FF8D20AE008C903701B0A437036
:202700001B0A83701B0AC370001D121FF4D2121D05D00B780370491C401C521EF9D160469A
:202720007047FEE770B5049C002C2DD0174D2D782570174D2D68401B0525454315480068A6
:20274000154E36686560A16021460C3145C1237612480078607600F041FF11490968E0618B
:20276000216210480078242160540F480088E0840E4800680E490968A062E16200F092FF7E
:20278000208600F095FF608670BDC0469C01202038012020540120205801202065012020CC
:2027A00030012020660120205C012020480120204C01202070B582B01B491C4C204600F0D5
:2027C00029FF1B492046FFF74DFC1A4801681A4A0A40026000250095204629462A462B467D
:2027E00000F026FF204629462A4600F005FF204629462A4600F04EFF012600962046294677
:202800002A462B4600F014FF20462946324600F0F3FE20462946324600F03CFF07488660F9
:202820000321016002B070BDDC3800000000094094380000041809407F00FFFF00110940CF
:2028400070B582B01B491C4C204600F0E3FE1B492046FFF707FC1A4801681A4A0A40026080
:2028600000250095204629462A462B4600F0E0FE204629462A4600F0BFFE204629462A46E3
:2028800000F008FF01260096204629462A462B4600F0CEFE20462946324600F0ADFE2046C4
:2028A0002946324600F0F6FE074886600321016002B070BDDF380000000086409C38000003
:2028C000041886407F00FFFF0011864040B542004B005E08164301D006004E4000D4D01A5E
:2028E00004D20120C90F06D1404204E003D90120C90F00D04042FF263606B24200D8B34283
:2029000000D9012040BD40B542004B005E08164301D006004E4000D4D01A04D20120C90F8D
:2029200006D1404204E003D90120C90F00D04042FF263606B24200D8B34201D90120404294
:2029400040BD42004B000020FF2109068A4200D88B4200D901207047FCB40127FF07060098
:202960004E4001D4002600E03E00020243001B0E30D03A43FF2B30D00C024D002D0E29D00A
:202980003C43FF2D29D05B194240504042404C4061404C4000B500F0E5FC20BCAE464240FA
:2029A000504042404C4061404C4025001400002C01D46400013B803401D3013364087E3B91
:2029C00008DDFF2B09D2BC43200ADB0518433043FCBC70470020FCBC7047FF20C0053043E1
:2029E000FCBC704710B51B491B4C204600F037FE1A49204600F0D6FB194801680322D203FF
:202A0000914301600169174A0A4011320261416917220A4328218A434261426801210A40C7
:202A200043688B439A1842600F4A13688C021C43146002684B0413430360C268702313430F
:202A4000C360C2680A4306239A43C26002680A43026010BDE23700000000104062380000CB
:202A6000001110400000FFFF2810104010B51B491B4C204600F0F3FD1A49204600F092FB53
:202A8000194801680322D203914301600169174A0A4011320261416917220A4328218A433C
:202AA0004261426801210A4043688B439A1842600F4A13688C021C43146002684B0413434C
:202AC0000360C26870231343C360C2680A4306239A43C26002680A43026010BD923800000E
:202AE000002010406C380000003110400000FFFF28301040F0B585B000283BD00A9D002DBA
:202B000038D004460B98002834D01F4604900291039200211846019100F076FA666C002808
:202B200005D038463146FFF78EFC06466064274648371149304600F04CFA002803D038888E
:202B40002880B91C13E001986064236C204602993246FFF787FB3880236C2034204603998B
:202B60003246FFF77FFBB91C788038882880049A0888108005B0F0BD0AD7A33CF0B581B082
:202B8000144605461548057015480160154800270760154E3760154800F086FC05202840BF
:202BA000012810D1134804601348C0570028134D294600DA12492046FFF745FC0C49086054
:202BC000356001B0F0BD0A480460022D03D0042D01D000F09BFA01B0F0BDC0469C01202082
:202BE000500120202401202058012020BC00202054012020280120207001202000002A432E
:202C000000002AC3F0B583B01A48002101801A4801600120C207194C2261194B1949196017
:202C2000196819601E460C3E8121316001912546403D07072F602760196020463038029240
:202C400002602260A024204600F038FD019830602F600A4D2F60204600F030FD02982861FD
:202C600008480749086008680860204600F026FD03B0F0BD5E0120202C012020D0120A4063
:202C80001880424081000E00FCB40127FF0706004E40F60FF607020243001B0E2DD03A432D
:202CA000FF2B2DD00C024D002D0E26D03C43FF2D26D05B1B0020202164085208A2424041BE
:202CC000A24200D3121B013904D0002A01D05200F4D18840384201D14000013B803001D3DC
:202CE000013300E040007F3307DDFF2B08D2400ADB0518433043FCBC70470020FCBC7047F0
:202D0000FF20C0053043FCBC70477047F0B50020C0431849184B0127FA067E06103B1D682E
:202D200015400B46103B1B68002D09D0134C24683442044600D03C46114F39686118396009
:202D4000B71C334208D00F490968C90200D501200D490C68001908603B40002D03D00649B4
:202D6000086810430860002B03D00249086818430860F0BD48300A4048100A4080130A40BE
:202D80007401202080330A4078012020F8B5451C00780023082B32D02F78C2070CD16A78BB
:202DA0000F241440E41C122C0BD102242E57F4B2002E08D4EE1C0EE06D1C4A1C0F7011465A
:202DC0001AE0AE1C08E02E1DED7800957F252C40009DED012C1912343D0112095219094DC2
:202DE000AA420ED0D243002C05D08D5C4F1C0D70641E3946F7E7354640085B1CCAE72846EA
:202E0000C5E7F8BDFF0F0000F0B585B0002830D0044602A80EC00B9F00253846294600F0D3
:202E2000D8F80190144E3846314600F0EDF8002800D13E460A98019900292946049A00D145
:202E400031462164029B236003996160A260E060256123626162A262E06225632946FFF7B6
:202E60007BFD6061A561E5616063A563E5636564A56405B0F0BDC04600007A44F0B581B0EC
:202E800010481149416011484160114B5960114C6160114D6960114E7160114F79601148C9
:202EA00041601149074A1160084A1160196021602960316039600160102000F0FFFB01B0B9
:202EC000F0BDC04600080A40030000B100280A4000080940000886400008874000280F4062
:202EE000000810400028104001000026F0B5164A1068C0B20B2825D1144801218B029362C3
:202F0000026852071ED4124A124B134C06E01D7800266655117005686D0713D4C569167883
:202F2000002EF8D1EEB20D2EF5D00A2EEFD01E78162E04D81E78771C1F70A555EBE70025A4
:202F40001D70E8E7F0BDC0462010104008111040630120206B01202008012020EFF310806E
:202F600072B60D4A002111600C4A11600C4A11600C4A11600C4A11600C4A11600C4A116096
:202F80000C4A11600C4A11600C4A1170002800D0704762B67047C0467401202078012020DA
:202FA00084012020880120208C01202090012020940120207C012020800120206C012020E5
:202FC00010B5FFF783FC002801D0002010BD012010BD10B5FFF77AFC002801DB002010BDC1
:202FE000012010BD10B5FFF771FC002801DD002010BD012010BD10B5FFF785FC002801DA9B
:20300000002010BD012010BD10B5FFF77CFC002801DC002010BD012010BD000080B5114933
:20302000114800F097FA11480168032252020A430260026801210B021343036000224261B5
:2030400007224262836B93438363836B120293438363826A042313438362826A0A438262D0
:2030600080BDC046E538000000200F4000320F400E480068C0B2012816D10D480168491C9D
:2030800001600C480178FF2902D00178491C017009480178491CCAB20170142A04D3002167
:2030A00001700648012101707047C0462010874020012020670120206E0120206F012020A2
:2030C00080B500F0A5F900F047F8FFF79BFD00F055FA0020FFF71EFAFDF716FF084800F0BA
:2030E000C5F801204105074A1160074B19604003106018600220106018601060186080BDC5
:203100006C37000080E200E000E100E070B50E48002404800D4804800D4E012530462146AF
:203120002A4600F0B7FA30462146224600F0B2FA084E30462146224600F0ACFA304621468F
:203140002A4600F0A7FA70BD980120209A012020000009400000864070B50E48002404805B
:203160000D4804800D4E0125304621462A4600F091FA30462146224600F08CFA084E3046A6
:203180002146224600F086FA304621462A4600F081FA70BD980120209A012020000009400E
:2031A0000000864070B511221302C218C4580125AC43C4500C888D7825438C882C43C5581C
:2031C000084E2E40084D25407419C4508879CB790343087A184351687E23994318400818BA
:2031E000506070BDE798FDFF1867000010B50C48018800290ED00B4A13785C1C1470DA0792
:2032000003D00122D206084B1A61491E0180080400D010BD0120C0060349086010BDC04613
:203220006001202068012020A0320A400D48002101600D48011F0A680323DB4313400B6068
:2032400041680122914341604168120291434160016830229143016001680F22914301603C
:203260007047C04608030B4004010B4070B50178002917D00C4CC51CAE1EC9B2204600F067
:20328000FBF8317800290DD06E1E204600F0F4F83178002906D0204600F0EEF82978ED1C30
:2032A0000029E9D170BDC046000010401CB50A0017D000230124E407A04200D20400944225
:2032C00001D95200FBE790425B41904200D3801A914201D25208F6E7190002000800110022
:2032E0001CBD01000020FFF710FD1CBD70B50A480A4C84420CD00A4D0A4EB54208D02A6879
:203300006968501C12789200A25890470835F4E700BF00BF70BDC046FC380000F03800005E
:203320000C3900001C39000006B49E22002802D404D106BC7047414204D400E00100013AB6
:203340004900FCD5803101D3013200E04900490AD2051143002802D50122D207114308009D
:2033600006BC7047FCB4020C0B0CFF242402FF34204021400C00444315005D4306005E43D3
:203380000F005743320C3B0CA818C01832043B040025A1186841C9186841FCBC7047000072
:2033A00010B50849084C204600F034F907492046FEF7DAFE064801680122114301600548C1
:2033C000026010BDD93800000000874000380000281087400811874006B54100090E7F3904
:2033E0000DD41F22511A0CD9864600020122D2071043C8407246002A00D5404206BD00201A
:2034000006BD02000120C007002A00D4401E06BD80B5FFF733FDFEF717FDFFF707FFFFF78A
:20342000C9F9FFF70DFAFFF7BBFFFFF7F7FDFFF7D9FAFFF71BFB0248B8210022425480BD46
:203440000000202006B5002803D57346FFF7C4FF06BD4100090E7F3908D31F22511A07D3CB
:2034600000020122D2071043C84006BD002006BD0020401E06BD00000A4A8018026812069E
:2034800005D50268120602D502681206F6D481610168C90705D00168C90702D00168C90779
:2034A000F6D1704708110000B0B5002812D0C168026904461046FFF74FFA00256061A561A7
:2034C000E561E16A206BFFF747FA6063A563E5636564A564B0BD000080B50848007806281C
:2034E00007D8012181406120014202D0FFF70EFE80BD03480121017080BDC0469C01202037
:203500006D012020084880F3088800BF00BF00F0FAF8002801D0FFF7E9FE002000F0A8F8C4
:20352000012000F0E9F8C0460080202002B49E21002805D401D102BC704701394000FCD5CB
:20354000803001D3013100E04000400AC905084302BC704770B50122120383180C785D687C
:203560000C26B54334402C195C60497883580724A34321405918815070BD000004480021C2
:203580000180044801700120C0060349086070476001202068012020A0320A4080B5001DE3
:2035A0000521FFF783FE0349088003480021017080BDC04660012020680120200648027868
:2035C0000121062A0B4600D800237F2002401E20D0401843084070479C0120200348007824
:2035E000002801D103487047014870476901202034380000A438000010B592008018044AA0
:2036000083580724A404A34321405918815010BD3018000010B50122120383180C789C6046
:203620004B7883508978014A815010BD0C11000010B5029CA400001911431943014A815001
:2036400010BDC0465018000003228058002805D0401E4A1C00230B701146F7E7704710B522
:203660000122120383180C789C604978815010BDFFF726FDFEF750F9FEF74EF9FEF74CF9CB
:20368000F8E780B50B4603214258C11D184600F02FF880BD92008018014A81507047C04674
:2036A0001018000000200149085E70479801202000200149085E70479A012020811E091F59
:2036C00000BFFCD2704780B5FFF720FB80BD80B5FFF70CFC80BD80B5FFF7F5FF80BD80B522
:2036E000FFF7C6FC80BD80B5FFF7F1FF80BD000080B5FEF7C9FF80BD00F001F8FEE700BFC1
:103700007047FFE67047012070470000000000008E
:203710004232312F52554E5049442F52554E31353A2067726179206C696E65203330733B63
:203730002053544F502061626F7274730D0A004D5055363035302064697361626C65643B01
:2037500020656E636F64657220737065656420504944206163746976650D0A004D50553650
:203770003035303D44495341424C45443B20423231207374617274732067726179206C69A6
:203790006E65203330730D0A004E43484431322067726179206C696E652064656D6F2055E4
:2037B000415254312031313532303020384E310D0A00436F6D6D616E64733A2052554E50D9
:2037D00049442C2052554E31352C2053544F500D0A000800CB380000BA380000893800003E
:2037F000BA380000B3380000C6380000C038000002000000FF700200010000000000000072
:203810000000000030313233343536373839414243444546004552522042323120627573DE
:20383000790D0A004D5055363035302D455252004F4B2052554E5049440D0A004552522069
:20385000627573790D0A004F4B2052554E31350D0A000000180000000030000000001800F2
:203870000000003000004F4B2053544F500D0A004F4B204232310D0A005354524149474869
:2038900054000800800C000020000100800C0000200101004D50553630353000284C4F538E
:2038B0005429004C494E4533300043555256450041424F525400444F4E450049444C4500AF
:2038D000284F4B2900455252000800000800000800004F4B0008003F00000000000000000B
:2038F0008D2D000083360000493600000200000071010000000100000F16FFF0FC38000009
:103910000000202004390000740120200000000075
:00000001FF
