:2000000000802020DF3200007F2300007F23000000000000000000000000000000000000CB
:200020000000000000000000000000007F23000000000000000000007F2300007F230000DA
:200040007F230000B53200007F2300007F2300007F2300007F2300007F2300007F2300004B
:20006000000000007F2300007F2300000000000000000000C53200007F2300007F23000001
:200080007F2300007F2300007F2300007F2300007F230000BD320000000000000000000047
:2000A0007F2300007F23000000000000000000007F230000000000007F2300007F23000016
:2000C000F0B58FB0002800D104E30446B74F6D21384602F0BDFF7321384602F0B9FF3D2138
:2000E000384602F0B5FF6568002D0B942DD000270A262846314602F08FFE4643A91B3026E8
:2001000031430CAAD1550A2D24D30A2102F084FE31430CA8C0194170642D1DD3642128469C
:2001200002F07AFE0A2102F077FE3143FE1C0CA8C01981707D20C100284602F06DFEE9089D
:200140007D2937460546D3D207E03021384602F07FFF41E07E1C00E0BE1C002E934F3BD0D6
:20016000701E032102F058FE481C0027032800D00746099602D135468C4C16E00CA8801EA5
:200180000A908A4C0A9880194178204602F060FF012F09D0B51E0A98815D204602F058FF39
:2001A000BF1E2E46EED100E0751E09980328274612D30CA82818C61EB178384602F048FFE6
:2001C0007178384602F044FFED1E3178384602F03FFFF61E002DEFD12021384602F038FF38
:2001E0007321384602F034FF74253846294602F02FFF6121384602F02BFF3846294602F027
:2002000027FF6521384602F023FF3D21384602F01FFF0B9E3078062803D8800064490958CC
:2002200000E064490878002816D0CD1CAC1EC1B2384602F00DFF217800290DD06C1E38465A
:2002400002F006FF2178002906D0384602F000FF2878ED1C0028E9D12021384602F0F8FE6E
:200260006721384602F0F4FE7921384602F0F0FE7221384602F0ECFE6F21384602F0E8FEC9
:200280003D21384602F0E4FE707E002804D0307E00280FD148490EE04F21384602F0D8FED9
:2002A00046253846294602F0D3FE3846294602F0CFFE1AE041490878002816D0CD1CAC1EB2
:2002C000C1B2384602F0C4FE217800290DD06C1E384602F0BDFE2178002906D0384602F01D
:2002E000B7FE2878ED1C0028E9D12021384602F0AFFE6221384602F0ABFE6121384602F0D2
:20030000A7FE6321384602F0A3FE6B21384602F09FFE6521384602F09BFE6E21384602F07C
:2003200097FE6421384602F093FE3D21384602F08FFEF1690878002816D0CD1CAC1EC1B239
:20034000384602F085FE217800290DD06C1E384602F07EFE2178002906D0384602F078FE17
:200360002878ED1C0028E9D12021384602F070FE6C21384602F06CFE6921384602F068FE0C
:200380006E21384602F064FE6521384602F060FE3D21384602F05CFE306A01F0A9F924200F
:2003A000305C00280CD1CD490BE0C04600001040BC330000BF340000AD340000BA340000A4
:2003C000C5490878002816D0CD1CAC1EC1B2384602F03EFE217800290DD06C1E384602F016
:2003E00037FE2178002906D0384602F031FE2878ED1C0028E9D120210991384602F028FE95
:2004000067210891384602F023FE72210791384602F01EFE61210491384602F019FE792636
:2004200038463146019602F013FE3D210A91384602F00EFE30210391384602F009FE7821C3
:20044000384602F005FE0B98C48C200BA44D295C384602F0FDFD2005000F295C384602F002
:20046000F7FD2006000F295C384602F0F1FD0F202040295C384602F0EBFD3846099C21467A
:2004800002F0E6FD3846314602F0E2FD3846049E314602F0DDFD77210591384602F0D8FDEB
:2004A00038460A9902F0D4FD0B98806801F020F93846214602F0CCFD742438462146029410
:2004C00002F0C6FD3846314602F0C2FD3846079902F0BEFD3846089902F0BAFD6521069111
:2004E000384602F0B5FD3846214602F0B1FD5F210891384602F0ACFD3846019D294602F0A6
:20050000A7FD3846314602F0A3FD3846059C214602F09EFD38460A9902F09AFD0B98C06828
:2005200001F0E6F83846099E314602F091FD3846294602F08DFD3846049D294602F088FD62
:200540003846214602F084FD3846089902F080FD3846079C214602F07BFD3846294602F0E4
:2005600077FD3846029D294602F072FD3846069902F06EFD38460A9902F06AFD0B9800691A
:2005800001F0B6F83846314602F062FD3846294602F05EFD7521384602F05AFD38462146FA
:2005A00002F056FD6E21384602F052FD3846089902F04EFD3846069E314602F049FD3846FD
:2005C000214602F045FD3846214602F041FD38460A9D294602F03CFD0B9C606901F088F8CB
:2005E0003846099902F034FD7321384602F030FD70210491384602F02BFD3846314602F0E2
:2006000027FD3846314602F023FD6421384602F01FFD3846294602F01BFD2546A06A00F042
:20062000AFFE2F243846214602F012FDE86A00F0A7FE3846099902F00BFD3846049E31463C
:2006400002F006FD3846059902F002FD6D253846294602F0FDFC3846089902F0F9FC3846AA
:20066000314602F0F5FC3846069E314602F0F0FC3846079902F0ECFC3846294602F0E8FCEE
:200680006921384602F0E4FC6C253846294602F0DFFC3846294602F0DBFC3846314602F098
:2006A000D7FC38460A9902F0D3FC03980B9D285E00F066FE3846214602F0CAFC3220285EF3
:2006C00000F05EFE0D21384602F0C2FC0A21384602F0BEFC0FB0F0BDA8340000843400001D
:2006E000EC330000F0B58BB0002800D14AE106900120C407BD4DBE4F049001070A91BD4802
:200700003C612860286828600C3D81262E6038464038079001603960A020089002F0B8FD98
:20072000B24806603846303F3C60099404600A9C089802F0ADFD08952E60354605973C600F
:20074000AB4F3C60402000F05BF9002800D1EDE00026304600F054F9002800D1E6E0039668
:20076000099C3C61A14A3946A24F176010681060089805600A9F079807600F60A02630461E
:2007800002F086FD9948056005990C60984804603046089E0C4602F07BFD35602760944880
:2007A0000760412000F02CF9002800D1EDE0049800F0DCFC0390002000F0D8FC02908B4F4F
:2007C0003D60099F27608A4807602C463546A026304602F05DFD2C600A9807990860844C99
:2007E0002060304602F054FD276182487F49086008680860304602F04BFD02980007020D06
:2008000003981418601E264686417C480768002C00D1E6E0784804800120214609900140C4
:200820000220204008906006C30F18460B304D1CD20A002A00D0CDE0184600D1CCE00029DD
:2008400000D00B38042222400899002901D00B38801C08212140002A029501D00B38001D07
:20086000102525400795002905930192009101D00B38801D202121408A06D21780230A9450
:200880002340099C2402079D002D039601D00B380830099D6E020A9D2C408018002B00D0B8
:2008A000C01C099A92020A9D2E40002C00D0401D0A9D2A40002E00D0C01D089D6D08089514
:2008C000019DAD080195009DED080095079D2D094909DB090993230A0793740A960A002A4D
:2008E00000D00930029A089BD218019BD218009BD21852195118059A8918099A8918079AC2
:20090000891809198C1902F0C5FA0546204602F0F7FB0146284601F0A1FF002C00D007469A
:20092000364807600699039E0A9C5BE02F4E35600A9C3946099F059807600F602E46A02526
:20094000284602F0A5FC089806600798046028480460284602F09CFC254807612548234913
:20096000086008680860284602F092FC224800880699088021480768002630464F600E728D
:200980000BB0F0BD00200BB0F0BD184F3D60099F2760174807602C46A025284602F078FC63
:2009A00034600A9807990860114C2060284602F06FFC27610F480D4908600868086028466E
:2009C00002F066FC0C480088069908800B480768039ED2E700D032E70D46002900D030E758
:2009E00030E706990C800498C8E7C04618804240D0120A4081000E004E012020240120209B
:200A0000F0B587B002900120C107A04EA04A0707812535601446303C059121601160A02050
:200A2000069002F035FC0C3E3560994908464038049007600F60069802F02AFC059906961C
:200A40003560276092480760029840280195039405D28E48056021608D48016006E08C4887
:200A600001618A498B48086008680860A025284602F00EFC069E019C34600498076084485B
:200A80000760284602F004FC3460039A1760804807600298800606D47C4804600599116087
:200AA0007B48016007E07A480599016177497948086008680860A025284602F0E9FB069EFB
:200AC00034600498076072480760284602F0E0FB3460039A17606E4807600298C00606D424
:200AE0006A480460059911606948016007E068480599016165496748086008680860A025C6
:200B0000284602F0C5FB069E34600498076060480760284602F0BCFB3460039A17605C4808
:200B200007600298000706D458480460059911605748016007E05648059901615349554802
:200B4000086008680860A025284602F0A1FB069E3460049807604E480760284602F098FB69
:200B60003460039A17604A4807600298400706D446480460059911604548016007E04448B7
:200B80000599016141494348086008680860A025284602F07DFB069E3460049807603C48A4
:200BA0000760284602F074FB3460039A1760384807600298800706D4344804600599116086
:200BC0003348016007E03248059901612F493148086008680860A025284602F059FB069E8A
:200BE0003460049807602A480760284602F050FB346003990F60264807600298C00706D12E
:200C0000224D2C60059A0A602148026007E02048059A02611D4D1F48286028682860A0247F
:200C2000204602F035FB019E069806600498076017480760204602F02BFB069806600398A3
:200C4000076013480760059901611248286028682860204602F01CFB069D2E6004980760CE
:200C60000B480760204602F013FB0B48006805902E600398076006480760204602F008FB64
:200C80000598C043C00F07B0F0BDC04618804240D0120A4081000E0080130A40F0B585B0EF
:200CA0001C46154604910CAF8ECF814E3560814D2C60814C2170814C2260814C2370814C32
:200CC0002780814F3C78062C04D80125A5406126354219D17D4D2E78002E0ED1002903D16E
:200CE0007B490978C90708D17A490968411A052603967143784EB1420AD30020287006208B
:200D00003870794802F0D2F901F0B6FF05B0F0BD641E032CF8D80B9902910A9E6F4909681C
:200D2000451A03994D43C0467C4424796400A74401642F5B019603906C49049800F084FD9B
:200D40006B4805780126F107029C204688434121090601F006FF002877D0002D75D12046C6
:200D60000025294601F0FDFE002800D1EE436048067060480468304602F08CF806465E49B8
:200D800001F018FC214601F01CF95E49086065E0039037465549049800F056FD5448002143
:200DA0004056C4B202F076F80646524801683D46384601F001F9314601F0FCFB0646002CB5
:200DC00000D126464C48314601F0F6F8002C4B4908609BD04849304601F0C3FE002895D013
:200DE000052003992A462CE03D49049800F02CFD3C4885428AD3039882E734460646384988
:200E0000049800F021FD3A48077878B202F042F80146029801F0CEFBE9087D2943D3002F5A
:200E200041D04121090601F09CFE00283BD034480168491D0160962900D267E7032031464D
:200E4000224601F085FC05B0F0BD002D00D15DE72848046868B202F01DF8064601982146CB
:200E600001F0AAF8314601F0A5FB0546224E3046294601F0A1F8214C20602846314601F0EA
:200E800070FE002800D141E7022038700398134908601B48002101602160134802F006F9E8
:200EA0001848019901E016480021016005B0F0BD380120203C012020540120202801202021
:200EC000560120204C012020740120205B0120205501202030012020A0BB0D0040012020AD
:200EE0000000484330750000BC0020200000DC425E0120202001202000002A4348012020B2
:200F00001C01202044012020F0B581B0914C924800250570914805704E20914E7719C1B22A
:200F2000204602F095F87978204602F091F8B978204602F08DF8F978204602F089F83979F0
:200F4000204602F085F87979204602F081F8B979204602F07DF8F979204602F079F8397A0C
:200F6000204602F075F8797A204602F071F8B97A204602F06DF8F97A204602F069F8397B28
:200F8000204602F065F8797B204602F061F8B97B204602F05DF8F97B204602F059F8397C44
:200FA000204602F055F8797C204602F051F8B97C204602F04DF8F97C1435204602F048F8CE
:200FC000387D282DAAD100254220664E7719C1B2204602F03DF87978204602F039F8B97816
:200FE000204602F035F8F978204602F031F83979204602F02DF87979204602F029F8B979AE
:20100000204602F025F8F979204602F021F8397A204602F01DF8797A204602F019F8B97AC9
:20102000204602F015F8F97A204602F011F8397B204602F00DF8797B204602F009F8B97BE5
:20104000204602F005F8F97B204602F001F8397C204601F0FDFF797C204601F0F9FFB97CF5
:20106000204601F0F5FFF97C204601F0F1FF397D204601F0EDFF797D204601F0E9FFB97D05
:201080001735204601F0E4FFF87D2E2D9ED100254D20354E7719C1B2204601F0D9FF797853
:2010A000204601F0D5FFB978204601F0D1FFF978204601F0CDFF3979204601F0C9FF797956
:2010C000204601F0C5FFB979204601F0C1FFF979204601F0BDFF397A204601F0B9FF797A72
:2010E000204601F0B5FFB97A204601F0B1FFF97A204601F0ADFF397B204601F0A9FF797B8E
:20110000204601F0A5FFB97B204601F0A1FFF97B204601F09DFF397C204601F099FF797CA9
:20112000204601F095FFB97C204601F091FFF97C204601F08DFF397D204601F089FF797DC5
:201140001635204601F084FFB87D2C2DA2D101B0F0BDC046000010405A0120205301202086
:2011600071330000E832000017330000F0B58DB008900120C1077E4C7E4A07077E480A9103
:201180001161E060E068E06081262660104640380C9007601760A025284602F079F877484B
:2011A00000680790266073480446303C27600B940760284602F06CF86D4806600C980760C2
:2011C0006C480760284602F063F86C480068069067480660276067480760284602F058F825
:2011E000634C26600C98076062480760284602F04FF862480068059026600B9C27605D48F7
:201200000760284602F044F8594806600C98076058480760284602F03BF858480068049083
:20122000534806602760534C2760284602F030F84F4806600C9807602760284602F028F869
:201240004E48006803904A4806600B9C276049480760284602F01CF8454806600C9807606D
:2012600044480760284602F013F84448006802903F48066027603F4C2760284602F008F8A4
:201280003B4806600C9807602760284602F000F83A4800680190364806600B9C2760354871
:2012A0000760284601F0F4FF314806600C98076030480760284601F0EBFF304800680090F3
:2012C00009962B48066027602A480760284601F0DFFF0898002807D025480999C1600A9888
:2012E00020602449086007E00A982249086120492148C860C868C8600798C00F0699C90F05
:201300008900C00040180599C90F490040180499C90F401880000399C90F49004018029918
:20132000C90F401880000199C90F490040180099C90F40180890A024204601F0A9FF0C4D6D
:20134000099E2E600C9807600A480760204601F09FFF2E600B98076006490F600A9808613E
:201360000548E860E868E8600898C0B20DB0F0BD0C804240D0120A4081000E0080130A401E
:20138000F0B585B00546002830D464D000277D20C00001900A262846314601F03DFD4643EA
:2013A000A91B3026314302AAD1550A2D59D30A2101F032FD314302A8C0194170642D54D3BF
:2013C0006421284601F028FD0A2101F025FD3143FC1C02A8C01981702846019E314601F051
:2013E0001BFDB54227460546D4D23BE061487D21C90001912D2101F02BFE6D4200240A2757
:201400002846394601F008FD4743E91B3027394302AA11550A2D3AD30A2101F0FDFC3943A1
:2014200002A800194170642D35D36421284601F0F3FC0A2101F0F0FC3943E71C02A8001982
:2014400081702846019C214601F0E6FCA5423C460546D4D21CE04748302101F0F9FD05B084
:20146000F0BD7C1C002C03D182E0BC1C002C7FD0601E032101F0D0FC481C0027032800D08D
:2014800007463C49009417D125460C4642E0671C002F03D16CE0A71C002F69D0781E032168
:2014A00001F0BAFC481C0025032800D00546009719D13C462F4E45E002A8801E01902646CC
:2014C0000C46019880194178204601F0C1FD012F1FD0B51E0198815D204601F0B9FDBF1E67
:2014E0002E46EED116E002A8801E0190214E0198C0194178304601F0ABFD012D21D0BC1E48
:201500000198C15D304601F0A3FDAD1E2746EED118E0751E009803282AD302A82818C61EFD
:20152000B178204601F094FD7178204601F090FDED1E3178204601F08BFDF61E002DEFD139
:2015400016E07C1E0098032812D302A82018C51EA978304601F07CFD6978304601F078FDD0
:20156000E41E2978304601F073FDED1E002CEFD105B0F0BD00001040F0B597B000F000FA72
:20158000411E022905D303280ED004281DD14A4812E004464A48006800F07AFD00280AD095
:2015A000022C0CD049480BE001F06AFD782001F0DFFD424800E0434801F00EFC05E0424889
:2015C00001F00AFCDC2001F0D3FD414C2068800216D4404D2878002815D1012677053E4872
:2015E00001F056FE206838420DD12E7001F0D0FD00284FD001F044FD782001F0B9FD02E0D0
:20160000344800210170EFF3108172B6354A107800241470002900D162B6002823D001F054
:201620006FFD314900F0C6FF054613A8009016A915AA14AB284600F091FD06AE3046FFF730
:2016400051F81F480068169A159B0799377A36880094019402940391049705962946FFF715
:201660001DFB01F079FB2148017801290CD104701348006806AD009521462246234600F05D
:201680007FFE2846FEF71CFD7D20000201F000FE17B0F0BD0A48006800F0FAFC002804D0B3
:2016A000DC2001F065FD0E4802E001F0E5FA0B4801F092FBA7E7C0469A3300004E3400001F
:2016C0001801202024340000183400002F34000080330A405201202000E20400FD33000004
:2016E00058340000570120200AD7A33B5D012020F0B587B004460026314601F020FA054650
:20170000002801D14D4900E04B49204600F052FF002D4B4F05D02D210446384601F098FCE7
:20172000204601F07BFC0A28029004D23021384601F08EFC71E007460A253846294601F04C
:201740006BFB294601F068FB3024214304A88155642F21D36421384601F05EFB0A2101F036
:201760005BFB214304A880194170F8087D2815D37D20C100384601F04FFB05460A2101F0AE
:201780004BFB2143F41C04A8801981702D48874226462F46D0D202E0741C00E0B41C002C4A
:2017A000274F3AD0601E032101F036FB481C0026032800D00646019402D12546204F16E0DC
:2017C00004A8801E03901E4F039800194178384601F03EFC012E09D0A51E0398015D384667
:2017E00001F036FCB61E2C46EED100E0651E0198032812D304A82818C41EA178384601F05F
:2018000027FC6178384601F023FCED1E2178384601F01EFCE41E002DEFD12E21384601F064
:2018200017FC0A21029801F0F7FA30200143384601F00EFC07B0F0BD000020C1000020413B
:201840000000104010270000F0B589B01F461446059100260690314601F07AF90028354694
:2018600051D1002F35464ED03B480168204600F0A3FB2746069C214600F0F0FF0390374837
:20188000056804973846214600F094FE294600F098FB0746324D294601F06CF9002800D15D
:2018A0003D46304F2846394601F049F9002800D12F462A4807600021384600F07BFE05466C
:2018C00041200106049C204600F074FE294600F078FB05462449039800F06CFE294600F05A
:2018E00070FB0546214F394601F044F9002800D12F461F4D3846294601F021F9002800D14A
:201900003D4615480460059C2046294600F059FB07462046294600F04FFB02461548394649
:2019200001F0BBFC1448006801F0B4FA07461348006801F0AFFA024607AC0194354608AE31
:2019400000960C483946069B01F0FCFA705F615F00F032F909B0F0BD340120202C012020A4
:201960000000A0410000A0C1CDCC4C3D0000C8420000C8C2BC002020380120203C0120207D
:2019800070B586B045480178012932D1EFF3108272B61421C943424B03E06D466D18EC75D3
:2019A000C91C5C18657D002D26D0657D2E46613EF6B21A2E00D2203D6E4676187575A57D67
:2019C000002D1BD0A57D2E46613EF6B21A2E00D2203D6E467618B575002911D0E57D002D96
:2019E00010D0E47D2546613DEDB21A2DD5D2203CD3E7002006B070BD153104E0163102E0A4
:201A0000172100E017316B4600245C54047025480470002A00D162B66D462A786B78AC781D
:201A2000E8782D7905290CD1522A0AD1552B08D14E2C06D1312804D1352D02D1012006B05A
:201A400070BD6E4606290FD1522A0DD1552B0BD14E2C09D1502807D1492D05D17579442D91
:201A600002D1022006B070BD04255326502801D0284600E00320694072404F2C00D028461E
:201A80001143542B03D1002904D106B070BD28460029FAD0284606B070BDC0465301202072
:201AA000000120205A012020F0B5384908463438872202603648022202600A46383A8623F0
:201AC00013600122026085230B61140204604B61530203602F4CE01C48604B684B60086037
:201AE000086808604B68500603434B600B6803430B6082258D60284BCB604D64274D2E4625
:201B00003C3E33606C606E686E600E46083E244F3760346834608124AC622F632C6B2C6309
:201B2000EF61EC69EC612F622C6A2C622F602C682C600C46303C174E266025682560243937
:201B40000E600C680C6017490C68950525430D6015490C6AD20614430C620C6814430C604C
:201B600012490A600A6312490A68042414430C600A69823B13430B610E490A6A801C0243DD
:201B80000A620A6802430A60F0BDC0463C804240D0120A4081000E0082000400C0804240C4
:201BA00081000C00A0130A4028100A40A0320A4090330A4028300A40F0B585B00C467D277E
:201BC000FD003C4A9042034600DC1346AB4200DB2B469442039400DC14461922AC4200DB52
:201BE0002C46334ED1010491334A1380334A148000280197029512D0DA175340D11A4D195C
:201C0000012813DB01223046049901F02DFB04984543F900284601F0FFF8074612E0002785
:201C200001223046394601F01FFB0BE004984543F900284601F0F0F801460122304601F061
:201C400013FB049F0025304639462A4601F00CFB20B2C1174840081A02990F180398184E3A
:201C600000280BD010DD049D6F430198C100384601F0D2F801460022304602E030462946E8
:201C80002A4601F0F1FA0CE000223046049C214601F0EAFA67430198C100384601F0BCF871
:201CA000054601223046294601F0DEFA05B0F0BD0000094018FCFFFF7001202072012020E7
:201CC00000008640F0B5394A8218394BC0183A4D4C790B79002C22D0466F202B02D0052437
:201CE000E70100E0354F2E40002B00D188273E434667846F2C403C438467446B2D4E3440EA
:201D00004463846B3440846300244465846554688F26F643344054609468344094600C6872
:201D20008979202B09D006467036002B15D1641E4460C46E2C40882715E0641E4460C46EBA
:201D40002C401E4E3443C466046F2C40344304671B4D01246707064607E00527FF01640883
:201D60004460C46E2C403C43C46634682C403C433460C46A0F4D2C40C462046B2C400463FF
:201D80000024C4640465C46F8F25ED432C40C46714682C401460194302680A4B1340BD2237
:201DA0000A40D118891C0160F0BDC04684180000041800008888FDFF24493E0001040000C3
:201DC000FFFFFFCF4000FFCFB0B53A4A80184A6842600A78222A56D8930001A4E3589F4600
:201DE0007D1E0000871E00007D1E0000871E0000871E0000871E0000871E0000871E0000CF
:201E0000871E0000871E0000871E0000871E0000871E0000871E0000871E0000871E00009A
:201E20006D1E0000871E00006D1E0000871E0000871E0000871E0000871E0000871E0000AE
:201E4000871E0000871E0000871E0000871E0000871E0000871E0000871E0000871E00005A
:201E60006D1E0000871E00006D1E0000036803242407A343012464071B1903E003680324CB
:201E80002407A34303600B69C360CB68C46A0A4D25400A4C1C402B19C3620368084C1C40E4
:201EA0000460097A114302683F239A43194051180160B0BD041800008888FDFF7777020096
:201EC0007F00FFFFF0B585B00393174602910446066900251046294600F03AFE002861D100
:201EE0000120C1073046049188433F21090600F026FE002856D13046029900F05DF80546B0
:201F000020680290A6692846314600F055F801906168384600F04EFB0146284600F04AFB7B
:201F200000900298019900F045FB009900F049F80090A068394600F091FC074630460196F5
:201F4000314600F03EF801460295284600F034F8E16900F036F80146384600F02BFB0099A0
:201F600000F02FF80146606900F02BF80646039D04996940049100F0E2FD0746304629465F
:201F800000F0F8FD002800D13546002F049800D1284660610299A1610199E16100F0EEFFC7
:201FA000054606E0E168304600F004FB6061A561E561284605B0F0BDFCB40127FF077940CE
:201FC00002E0FCB40127FF070C024D002D0E03D1002C52D1FCBC70473C43FF2D50D0A408A2
:201FE000002900D56442020243001B0E04D1002A43D10800FCBC70473A43FF2B41D09208F1
:20200000002800D552425E1B04D5170022003C0076422B00192E06D527003741D2191C2796
:20202000F71B7F42BC40002A27D002D55242012700E00027013B5200FCD515008026354087
:202040000FD01500202635402C43803208D21500402635402C4304D101263602B24300E06E
:202060005B1C5200023308DDFF2B0BD2500ADB051843FF073843FCBC70470020FCBC704762
:202080000800C70FFF07FF20C0053843FCBC7047F0B581B004461E4E31780020062934D8FE
:2020A00001252A468A4061210A422ED000F082FF1848002707601848076018480770184897
:2020C000077018480760184807601848077018480780184807601848076018480760184888
:2020E0000460184807701848077004203070174804601748076017480760174800F0D6FF97
:202100000548076000F0B8FD284601B0F0BDC0467401202020012020440120205E0120205A
:202120005B012020280120202C012020560120204C01202034012020380120203C0120209E
:20214000300120205501202054012020400120201C01202048012020BC002020F0B583B0A8
:202160001D4600920F460446EFF3108072B627490E68274909680291002800D162B60021A5
:20218000204600F0E5FC0028019500D0214C22490868224A15680E6002991160002F0BD0C5
:2021A000301A00F077FE1E4900F004FA214600F055FB00F0E3FE3860009F002F0CD00298C7
:2021C000401B00F067FE164900F0F4F9214600F045FB00F0D3FE3860089C019D002D08D0DC
:2021E000304600F057FE0E4900F0E4F900F0C6FE2860002C08D0029800F04CFE084900F0AB
:20220000D9F900F0BBFE206003B0F0BD60012020640120200AD7A33B680120206C01202008
:202220009C9D0F3F80B582B0194900230B7019490B6019490B6019490B6019490B6019491A
:202240000B6019490B7019490B6019490B7019490B6019490B6019490B7019490B801949C6
:202260000B6019490B6019490B60194908701949087019487F21C9050091019017483F21F5
:202280000906174A00F01AFC00F0F6FC02B080BD74012020300120204001202020012020EF
:2022A00044012020480120205E0120201C0120205B012020280120202C012020560120200B
:2022C0004C01202034012020380120203C012020540120205501202000007A44BC00202021
:2022E000CDCC4C3E002A49D084468B071CD1830722D1102A08D370B4103A78C978C0103A6C
:20230000FBD270BC103238D0042A2CD3082A05D30C2A01D308C908C008C908C008C908C06E
:2023200092072AD0920F22E00B780370491C401C521E22D08B07F7D1C30714D18307D8D013
:20234000121F12D308C903801B0C4380001D121FF8D20AE008C903701B0A43701B0A8370F3
:202360001B0AC370001D121FF4D2121D05D00B780370491C401C521EF9D160467047FEE7BA
:2023800070B5049C002C2DD0174D2D782570174D2D68401B0525454315480068154E3668E5
:2023A0006560A16021460C3145C1237612480078607600F0FDFE11490968E061216210489A
:2023C0000078242160540F480088E0840E4800680E490968A062E16200F04EFF208600F0AB
:2023E00051FF608670BDC04674012020300120204401202048012020550120202801202041
:20240000560120204C012020380120203C01202070B582B01B491C4C204600F0E5FE1B49E2
:202420002046FFF74FFC1A4801681A4A0A40026000250095204629462A462B4600F0E2FEDA
:20244000204629462A4600F0C1FE204629462A4600F00AFF01260096204629462A462B46D7
:2024600000F0D0FE20462946324600F0AFFE20462946324600F0F8FE0748866003210160C7
:2024800002B070BDB4340000000009406C340000041809407F00FFFF0011094070B582B0F9
:2024A0001B491C4C204600F09FFE1B492046FFF709FC1A4801681A4A0A4002600025009503
:2024C000204629462A462B4600F09CFE204629462A4600F07BFE204629462A4600F0C4FE17
:2024E00001260096204629462A462B4600F08AFE20462946324600F069FE20462946324600
:2025000000F0B2FE074886600321016002B070BDB734000000008640743400000418864047
:202520007F00FFFF0011864040B542004B005E08164301D006004E4000D4D01A04D20120EC
:20254000C90F06D1404204E003D90120C90F00D04042FF263606B24200D8B34200D9012023
:2025600040BD40B542004B005E08164301D006004E4000D4D01A04D20120C90F06D14042D2
:2025800004E003D90120C90F00D04042FF263606B24200D8B34201D90120404240BD420052
:2025A0004B000020FF2109068A4200D88B4200D901207047FCB40127FF0706004E4001D418
:2025C000002600E03E00020243001B0E30D03A43FF2B30D00C024D002D0E29D03C43FF2D66
:2025E00029D05B194240504042404C4061404C4000B500F06DFC20BCAE46424050404240AF
:202600004C4061404C4025001400002C01D46400013B803401D3013364087E3B08DDFF2B37
:2026200009D2BC43200ADB0518433043FCBC70470020FCBC7047FF20C0053043FCBC704724
:2026400010B51B491B4C204600F0F3FD1A49204600F05EFB194801680322D2039143016099
:202660000169174A0A4011320261416917220A4328218A434261426801210A4043688B4327
:202680009A1842600F4A13688C021C43146002684B0413430360C26870231343C360C268DF
:2026A0000A4306239A43C26002680A43026010BDBA330000000010403A34000000111040B3
:2026C0000000FFFF2810104010B51B491B4C204600F0AFFD1A49204600F01AFB194801684A
:2026E0000322D203914301600169174A0A4011320261416917220A4328218A43426142685D
:2027000001210A4043688B439A1842600F4A13688C021C43146002684B0413430360C268AF
:2027200070231343C360C2680A4306239A43C26002680A43026010BD6A34000000201040FA
:2027400044340000003110400000FFFF28301040F0B581B0144605461548057015480160CF
:20276000154800270760154E3760154800F09EFC05202840012810D1134804601348C057C5
:202780000028134D294600DA12492046FFF719FC0C490860356001B0F0BD0A480460022D07
:2027A00003D0042D01D000F067FA01B0F0BDC04674012020400120201C0120204801202073
:2027C000BC00202044012020200120205E01202000002A4300002AC3F0B583B01A480021C3
:2027E00001801A4801600120C207194C2261194B19491960196819601E460C3E81213160A9
:2028000001912546403D07072F602760196020463038029202602260A024204600F038FD0C
:20282000019830602F600A4D2F60204600F030FD029828610848074908600868086020460E
:2028400000F026FD03B0F0BD4E01202024012020D0120A401880424081000E00FCB4012764
:20286000FF0706004E40F60FF607020243001B0E2DD03A43FF2B2DD00C024D002D0E26D01F
:202880003C43FF2D26D05B1B0020202164085208A2424041A24200D3121B013904D0002A79
:2028A00001D05200F4D18840384201D14000013B803001D3013300E040007F3307DDFF2B08
:2028C00008D2400ADB0518433043FCBC70470020FCBC7047FF20C0053043FCBC70477047AB
:2028E000F0B50020C0431849184B0127FA067E06103B1D6815400B46103B1B68002D09D056
:20290000134C24683442044600D03C46114F396861183960B71C334208D00F490968C902F3
:2029200000D501200D490C68001908603B40002D03D00649086810430860002B03D0024918
:20294000086818430860F0BD48300A4048100A4080130A406001202080330A406401202013
:20296000F8B5451C00780023082B32D02F78C2070CD16A780F241440E41C122C0BD1022483
:202980002E57F4B2002E08D4EE1C0EE06D1C4A1C0F7011461AE0AE1C08E02E1DED78009554
:2029A0007F252C40009DED012C1912343D0112095219094DAA420ED0D243002C05D08D5C0E
:2029C0004F1C0D70641E3946F7E7354640085B1CCAE72846C5E7F8BDFF0F0000F0B581B092
:2029E00010481149416011484160114B5960114C6160114D6960114E7160114F796011486E
:202A000041601149074A1160084A1160196021602960316039600160102000F039FC01B022
:202A2000F0BDC04600080A40030000B100280A4000080940000886400008874000280F4006
:202A4000000810400028104001000026F0B5164A1068C0B20B2825D1144801218B02936267
:202A6000026852071ED4124A124B134C06E01D7800266655117005686D0713D4C569167828
:202A8000002EF8D1EEB20D2EF5D00A2EEFD01E78162E04D81E78771C1F70A555EBE7002549
:202AA0001D70E8E7F0BDC0462010104008111040530120205A01202000012020F0B585B0D4
:202AC00000282ED0044602A80EC00B9F00253846294600F034F80190134E3846314600F05F
:202AE00049F8002800D13E460A98019900292946049A00D131462164029B2360039961605C
:202B0000A260E060256123626162A262E06225632946FFF74FFD6061A561E5616063A5634E
:202B2000E56305B0F0BDC04600007A4410B5FFF7FBFC002801D0002010BD012010BD10B5DC
:202B4000FFF7F2FC002801DB002010BD012010BD10B5FFF7E9FC002801DD002010BD0120FE
:202B600010BD10B5FFF7FDFC002801DA002010BD012010BD10B5FFF7F4FC002801DC002026
:202B800010BD012010BD000080B51149114800F0CBFA11480168032252020A430260026889
:202BA00001210B02134303600022426107224262836B93438363836B120293438363826A47
:202BC000042313438362826A0A43826280BDC046BD34000000200F4000320F400E48006894
:202BE000C0B2012816D10D480168491C01600C480178FF2902D00178491C017009480178EF
:202C0000491CCAB20170142A04D3002101700648012101707047C0462010874018012020CD
:202C2000570120205C0120205D01202080B500F0DBF900F047F8FFF7CFFD00F089FA002044
:202C4000FFF7F0FAFEF760F9084800F0C5F801204105074A1160074B19604003106018602A
:202C60000220106018601060186080BD4433000080E200E000E100E070B50E480024048088
:202C80000D4804800D4E0125304621462A4600F0EBFA30462146224600F0E6FA084E3046D7
:202CA0002146224600F0E0FA304621462A4600F0DBFA70BD7001202072012020000009408F
:202CC0000000864070B50E48002404800D4804800D4E0125304621462A4600F0C5FA30463F
:202CE0002146224600F0C0FA084E30462146224600F0BAFA304621462A4600F0B5FA70BD03
:202D00007001202072012020000009400000864070B511221302C218C4580125AC43C450B4
:202D20000C888D7825438C882C43C558084E2E40084D25407419C4508879CB790343087AC6
:202D4000184351687E23994318400818506070BDE798FDFF1867000010B50C4801880029C8
:202D60000ED00B4A13785C1C1470DA0703D00122D206084B1A61491E0180080400D010BD8B
:202D80000120C0060349086010BDC0465001202058012020A0320A400D48002101600D4853
:202DA000011F0A680323DB4313400B60416801229143416041681202914341600168302251
:202DC0009143016001680F22914301607047C04608030B4004010B4070B50178002917D0DE
:202DE0000C4CC51CAE1EC9B2204600F031F9317800290DD06E1E204600F02AF9317800294D
:202E000006D0204600F024F92978ED1C0029E9D170BDC046000010401CB50A0017D0002374
:202E20000124E407A04200D20400944201D95200FBE790425B41904200D3801A914201D293
:202E40005208F6E719000200080011001CBD01000020FFF744FD1CBD70B50A480A4C84426A
:202E60000CD00A4D0A4EB54208D02A686968501C12789200A25890470835F4E700BF00BFA6
:202E800070BDC046D4340000C8340000E4340000F434000006B49E22002802D404D106BCAC
:202EA0007047414204D400E00100013A4900FCD5803101D3013200E04900490AD20511436B
:202EC000002802D50122D2071143080006BC7047FCB4020C0B0CFF242402FF342040214010
:202EE0000C00444315005D4306005E430F005743320C3B0CA818C01832043B040025A118CA
:202F00006841C9186841FCBC7047000010B50849084C204600F068F907492046FEF754FFF0
:202F2000064801680122114301600548026010BDB134000000008740D833000028108740D0
:202F400008118740F0B581B0002815D0069D002D12D0079F002F0FD01C46036C0646009299
:202F60002246FEF7AFFF2880336C2036304600992246FEF7A7FF388001B0F0BD06B5410085
:202F8000090E7F390DD41F22511A0CD9864600020122D2071043C8407246002A00D5404292
:202FA00006BD002006BD02000120C007002A00D4401E06BDEFF3108072B6074900220A60EC
:202FC00006490A6006490A6006490A60002800D0704762B67047C0466001202064012020FC
:202FE000680120206C01202080B5FFF7F7FCFEF75BFDFFF7D1FEFFF70BFAFFF74FFAFFF71B
:2030000085FFFFF7C1FDFFF71BFBFFF75DFB0248B8210022425480BD0000202006B50028E3
:2030200003D57346FFF7AAFF06BD4100090E7F3908D31F22511A07D300020122D2071043DB
:20304000C84006BD002006BD0020401E06BD00000A4A80180268120605D50268120602D5E0
:2030600002681206F6D481610168C90705D00168C90702D00168C907F6D170470811000039
:2030800080B508480078062807D8012181406120014202D0FFF7F0FD80BD034801210170AF
:2030A00080BDC046740120205B012020B0B5002810D0C168026904461046FFF77BFA00254B
:2030C0006061A561E561E16A206BFFF773FA6063A563E563B0BD0000084880F3088800BF18
:2030E00000BF00F0FEF8002801D0FFF7B5FE002000F0A8F8012000F0EDF8C046008020201D
:2031000002B49E21002805D401D102BC704701394000FCD5803001D3013100E04000400A87
:20312000C905084302BC704770B50122120383180C785D680C26B54334402C195C60497860
:2031400083580724A34321405918815070BD0000044800210180044801700120C0060349D5
:20316000086070475001202058012020A0320A4080B5001D0521FFF74FFE03490880034810
:203180000021017080BDC0465001202058012020064802780121062A0B4600D800237F202B
:2031A00002401E20D0401843084070477401202003480078002801D10348704701487047B1
:2031C000590120200C3400007C34000010B592008018044A83580724A404A34321405918C2
:2031E000815010BD3018000010B50122120383180C789C604B7883508978014A815010BD51
:203200000C11000010B5029CA400001911431943014A815010BDC04650180000032280586D
:20322000002805D0401E4A1C00230B701146F7E7704710B50122120383180C789C6049786A
:20324000815010BDFFF7F2FCFEF796F9FEF794F9FEF792F9F8E780B50B4603214258C11D65
:20326000184600F033F880BD92008018014A81507047C0461018000000200149085E7047E6
:203280007001202000200149085E704772012020811E091F00BFFCD27047002801D00161DD
:2032A0000263704780B5FFF71BFB80BD80B5FFF7CDFB80BD80B5FFF7F5FF80BD80B5FFF7BD
:2032C0008DFC80BD80B5FFF7F1FF80BD80B5FFF709F880BD00F001F8FEE700BF7047FBE642
:0832E000704701207047000057
:2032E8004232312F52554E5049442F52554E31353A2067726179206C696E65203330733B90
:203308002053544F502061626F7274730D0A004D5055363035302064697361626C65643B2D
:2033280020656E636F64657220737065656420504944206163746976650D0A004D5055367C
:203348003035303D44495341424C45443B20423231207374617274732067726179206C69D2
:203368006E65203330730D0A004E43484431322067726179206C696E652064656D6F205510
:20338800415254312031313532303020384E310D0A00436F6D6D616E64733A2052554E5005
:2033A80049442C2052554E31352C2053544F500D0A000800A33400009234000061340000EE
:2033C800923400008B3400009E3400009834000002000000FF70020001000000000000004E
:2033E80000000000303132333435363738394142434445460045525220423231206275730B
:20340800790D0A004D5055363035302D455252004F4B2052554E5049440D0A004552522095
:20342800627573790D0A004F4B2052554E31350D0A0000001800000000300000000018001E
:203448000000003000004F4B2053544F500D0A004F4B204232310D0A005354524149474895
:2034680054000800800C000020000100800C0000200101004D50553630353000284C4F53BA
:203488005429004C494E4533300043555256450041424F525400444F4E450049444C4500DB
:2034A800284F4B2900455252000800000800000800004F4B0008003F000000000000000037
:2034C80061290000573200001D320000020000005F010000000100000F02FFF0D434000017
:1034E80000002020DC3400006001202000000000E3
:00000001FF
