:2000000000802020533B0000872C0000872C0000000000000000000000000000000000002C
:20002000000000000000000000000000872C00000000000000000000872C0000872C0000A7
:20004000872C0000273B0000872C0000872C0000872C0000872C0000872C0000872C000059
:2000600000000000872C0000872C00000000000000000000872C0000872C0000373B000042
:20008000872C0000872C0000872C0000872C0000872C00002F3B0000000000000000000077
:2000A000872C0000872C00000000000000000000872C000000000000872C0000872C0000C1
:2000C000F0B58FB0002800D1BEE30446B84F6D21384603F0F9FB7321384603F0F5FB3D210B
:2000E000384603F0F1FB6568002D0B942DD000270A262846314603F001FB4643A91B30263F
:2001000031430CAAD1550A2D24D30A2103F0F6FA31430CA8C0194170642D1DD3642128462D
:2001200003F0ECFA0A2103F0E9FA3143FE1C0CA8C01981707D20C100284603F0DFFAE90850
:200140007D2937460546D3D207E03021384603F0BBFB41E07E1C00E0BE1C002E944F3BD09C
:20016000701E032103F0CAFA481C0027032800D00746099602D135468D4C16E00CA8801E35
:200180000A908B4C0A9880194178204603F09CFB012F09D0B51E0A98815D204603F094FBC6
:2001A000BF1E2E46EED100E0751E09980328274612D30CA82818C61EB178384603F084FBAD
:2001C0007178384603F080FBED1E3178384603F07BFBF61E002DEFD12021384603F074FB8D
:2001E0007321384603F070FB74253846294603F06BFB6121384603F067FB3846294603F07B
:2002000063FB6521384603F05FFB3D21384603F05BFB0B9E3078072803D880006549095820
:2002200000E065490878002816D0CD1CAC1EC1B2384603F049FB217800290DD06C1E384620
:2002400003F042FB2178002906D0384603F03CFB2878ED1C0028E9D12021384603F034FBC2
:200260006721384603F030FB7921384603F02CFB7221384603F028FB6F21384603F024FBE1
:200280003D21384603F020FB707E002804D0307E00280FD149490EE04F21384603F014FB64
:2002A00046253846294603F00FFB3846294603F00BFB1AE042490878002816D0CD1CAC1E3D
:2002C000C1B2384603F000FB217800290DD06C1E384603F0F9FA2178002906D0384603F0A9
:2002E000F3FA2878ED1C0028E9D13046243007902021384603F0E8FA6221384603F0E4FABF
:200300006121384603F0E0FA6321384603F0DCFA6B21384603F0D8FA6521384603F0D4FAB1
:200320006E21384603F0D0FA6421384603F0CCFA3D21384603F0C8FAF1690878002816D0BE
:20034000CD1CAC1EC1B2384603F0BEFA217800290DD06C1E384603F0B7FA2178002906D06B
:20036000384603F0B1FA2878ED1C0028E9D12021384603F0A9FA6C21384603F0A5FA69215A
:20038000384603F0A1FA6E21384603F09DFA6521384603F099FA3D21384603F095FA306A38
:2003A00001F0B0FD0798007800280DD105490CE0008010401C3C0000433D0000313D000032
:2003C0003E3D0000083D000060490878002816D0CD1CAC1EC1B2384603F076FA217800295D
:2003E0000DD06C1E384603F06FFA2178002906D0384603F069FA2878ED1C0028E9D1202184
:200400000991384603F060FA67210891384603F05BFA72210691384603F056FA61274C4889
:20042000394603F051FA79254948294603F04CFA3D210A91464803F047FA302144480491FB
:2004400003F042FA7821424803F03EFA0B98C48C200B404E315C3E4803F036FA2005000F09
:20046000315C3B4803F030FA2006000F315C384803F02AFA0F2005900440315D344803F0F1
:2004800023FA3348099903F01FFA3148089903F01BFA2F48069903F017FA2D4839462C4F6B
:2004A00003F012FA3846294603F00EFA5F21384603F00AFA6221384603F006FA7521384658
:2004C00003F002FA7321384603F0FEF938460A9903F0FAF9079C6079002805D04F213846C3
:2004E00003F0F2F94B2138E04E21384603F0ECF94121384603F0E8F94321384603F0E4F96F
:200500004B21384603F0E0F9A679002E24D0012009900A273046394603F0F0F8054639465F
:2005200003F0ECF80A916F43F01B049D28430CAC20706421304603F0E1F8A1780A2E00D34D
:2005400084E16278099C25468BE1C0462C3D000000801040703C00003021384603F0B4F986
:2005600020210991384603F0AFF967210391384603F0AAF9722638463146069603F0A4F99E
:20058000612438462146009403F09EF9792538462946019503F098F95F210891384603F0A4
:2005A00093F93846214603F08FF9642438462146049403F089F93846214603F085F9384601
:2005C000314603F081F93D210A91384603F07CF93021384603F078F97821384603F074F9AE
:2005E0000798C4792009C04E315C384603F06CF905982040315C384603F066F93846099C08
:20060000214603F061F93846294603F05DF93846009D294603F058F977210791384603F081
:2006200053F938460A9903F04FF90B98806801F069FC3846214603F047F97424384621469C
:20064000029403F041F93846294603F03DF93846069903F039F93846039903F035F96521BE
:200660000591384603F030F93846214603F02CF93846089903F028F93846019C214603F0A5
:2006800023F93846294603F01FF93846079E314603F01AF938460A9903F016F90B98C068B8
:2006A00001F030FC3846099903F00EF93846214603F00AF93846294603F006F93846314654
:2006C00003F002F93846089903F0FEF83846069C214603F0F9F83846294603F0F5F838466E
:2006E000029E314603F0F0F83846059D294603F0EBF838460A9903F0E7F80B98006901F0B3
:2007000001FC3846099903F0DFF83846314603F0DBF87521384603F0D7F83846214603F089
:20072000D3F86E21384603F0CFF83846089903F0CBF83846294603F0C7F83846214603F0DB
:20074000C3F83846214603F0BFF838460A9903F0BBF80B9C606901F0D5FB3846099903F044
:20076000B3F87321384603F0AFF870263846314603F0AAF83846294603F0A6F83846294697
:2007800003F0A2F83846049903F09EF838460A9903F09AF8E06A01F07FF82F21049138466D
:2007A00003F092F8206B01F077F83846099903F08BF83846314603F087F83846079903F0C3
:2007C00083F86D253846294603F07EF83846089903F07AF83846314603F076F83846059EBB
:2007E000314603F071F83846069903F06DF83846294603F069F86921384603F065F86C2587
:200800003846294603F060F83846294603F05CF83846314603F058F838460A9903F054F8D4
:200820003420205E01F038F83846049903F04CF83620205E01F030F80D21384603F044F8AB
:200840000A21384603F040F80FB0F0BD099C0A9A2A43642E01D2022503E02843032500247C
:2008600001460CA842708170681E032102F046FF481C0027032800D00746099402D12E4642
:20088000184C16E00CA8801E0A90164C0A9840194178204603F018F8012F09D0AE1E0A981C
:2008A000415D204603F010F8BF1E3546EED100E06E1E09980028274600D051E60CA830187D
:2008C000C51EA978384602F0FFFF6978384602F0FBFFF61E2978384602F0F6FFED1E002E08
:2008E000EFD13DE600801040703C0000F0B58BB0002800D126E1E1490978002900D123E110
:200900000690E24CE2490120870705904607E1480F61206020682060201F0A908125056052
:2009200008464038089006600E60A020049003F0EDF82560D6480446303C27600797076074
:200940000746049803F0E2F80A980560266009963E60D148007800F0A1F9002800D1FFE024
:2009600003940495079D0027384600F097F9002800D125E1C6490D61C44AC64F17601068F0
:2009800010600A9C049F2760099E089806600E60A020029003F0BAF8BC48076003990D6091
:2009A000BB48056002980D4603F0B0F827602E60B7480660B84800780599084300F06EF915
:2009C000002800D134E1AE48042102910170059800F046FD0190002000F042FD0090AB4EB1
:2009E0003760079E2E60AA480660A025284603F08DF80A980760099808990860A44C206007
:200A0000284603F083F82661A248A049086008680860284603F07AF800980007020D019846
:200A200017189948036800D183E096480780012039460A90014002263E407806C40F2046CA
:200A40000B304D1CD20A002A00D10FE100D110E1002900D00B3802993940002E01D00B38D7
:200A6000801C019608223A402E46002901D00B38001D10253D400995002A0893029107948E
:200A8000039201D00B38801D20223A409106CC17802139400A9B1B02099D002D049601D0C0
:200AA0000B3808300A9D6D023B4000190029019E00D0C01C0A9CA4023D40002B00D0401D7C
:200AC0003C40002D00D0C01D76080196029EB6080296039EF6080396099E36095209C9096A
:200AE00009911B0A0A936B0AA50A002C00D00930049C019964180299641803996418A4199F
:200B0000A218079C1219099951180A9A8918C9184D1902F031FE0646284602F02FFF014674
:200B2000304602F0D9FA002D089B00D00346564803600698059C791E3A468A410780436045
:200B4000027236E0002470E04D4A012111704D4A12884D4B1B68028043600024048160E003
:200B600047490598087049480560079F2760484C27602E46A025284602F0C8FF0A9806602A
:200B80000998089908602060284602F0BFFF276140483E49086008680860284602F0B6FF21
:200BA000384801883848026806980180426000240472334909780A1F53425341437230E0D3
:200BC0002F49022008703148049E0660039805602F480560A024204602F098FF0A980660EB
:200BE0000998089908602A490860204602F08EFF2748056127482549086008680860204633
:200C000002F084FF1F4801881F48026806980180426007721A4909780A1F53425341437279
:200C20003C4681721C490978C17220460BB0F0BD134903200870154E3760079E2E60144DD3
:200C40002E60A024204602F061FF0A9807600998089908602860204602F058FF2E610D48BC
:200C60000A49086008680860204697E7204600D0EEE60D46002900D0ECE6ECE6630120205F
:200C8000640120205E0120202C01202014804240D0120A4081000E0076012020F0B587B03F
:200CA0000290A34EA3490120840747078120019030600D46303D2C600C60A020039002F00C
:200CC00025FF361F019830609A4908464038059007600F60039802F019FF019803963060F7
:200CE0002F6094490F60029940290694049505D28F4908602C608F48046006E08D480461E4
:200D00008B498D48086008680860A025284602F0FDFE039E019C34600598076085480760C0
:200D2000284602F0F3FE3460049A1760814807600298800606D47E480460069911607D4890
:200D4000016007E07B480699016179497A48086008680860A025284602F0D8FE039E346093
:200D60000598076073480760284602F0CFFE3460049A17606F4807600298C00606D46C486B
:200D80000460069911606B48016007E069480699016167496848086008680860A02528465F
:200DA00002F0B4FE039E34600598076061480760284602F0ABFE3460049A17605D48076088
:200DC0000298000706D45A480460069911605948016007E057480699016155495648086055
:200DE00008680860A025284602F090FE039E3460059807604F480760284602F087FE3460B8
:200E0000049A17604B4807600298400706D448480460069911604748016007E04548069901
:200E2000016143494448086008680860A025284602F06CFE039E3460059807603D48076044
:200E4000284602F063FE3460049A1760394807600298800706D436480460069911603548D6
:200E6000016007E033480699016131493248086008680860A025284602F048FE039E3460DA
:200E8000059807602B480760284602F03FFE346004990F60274807600298C00706D1244DB8
:200EA0002C60069A0A602348026007E02148069A02611F4D2048286028682860A0240294AE
:200EC000204602F023FE039E019931600598076018480760204602F019FE019C34600498C6
:200EE000076014480760069901611348286028682860029D284602F009FE3460059807602E
:200F00000C48076028462C4602F000FE0B480068069908404542454101983060049807606B
:200F200004480760204602F0F1FD284607B0F0BD14804240D0120A4081000E0080130A4038
:200F4000F0B587B00593154601910490109C0F9E0E9F14980690139A12991198864B1D6005
:200F6000864B059D1D60864B05971F70854B02961E60854B03941C70844B18808448017008
:200F800084480270844806990170844C2578062D04D80120A840612108421AD1804A1078A9
:200FA00000280FD10598002803D17E480078C00708D17D4800680499081A052670437B4924
:200FC00088420AD300201070062020707A4802F093FC02F0C3FA07B0F0BD691E0329F8D83B
:200FE0000D9D0C9A72480068049B1F1A7743C0467944097949008F4401642E5B06926F494E
:2010000001AB0DCB01F02AF86D4807780126F107284688434121090602F015FA002878D0CB
:20102000002F76D100272846394602F00CFA002800D1FE436248067062480568304602F055
:201040009BFB0646604901F0F1FE294601F0BBFC6149086066E0594901981746029A039BE4
:2010600000F0FCFF564800214056C4B202F084FB0646544801683D46384601F09FFC3146F4
:2010800001F0D4FE0646002C00D126464E48314601F094FC002C4D4908609CD04A493046AB
:2010A00002F0D1F9002896D0052004992A462CE001AA07CA00F0E4FA3E4887428BD326701B
:2010C00084E70692424901AB0DCB00F0C7FF3C48067870B202F050FB0146284601F0A6FE9D
:2010E000F9087D2943D3002E41D04121090602F0AAF900283BD037480168491D016096294D
:2011000000D268E703200499069A01F0A1FF07B0F0BD002F00D15EE72A48056878B202F019
:201120002BFB06460698294601F048FC314601F07DFE0546244E3046294601F03FFC234FD8
:2011400038602846314602F07EF9002800D142E7022020700498164908601E48002101608A
:201160003960154802F0C8FB1B48069901E019480021016007B0F0BD480120204C01202084
:2011800069012020300120206B0120205C012020660120206701202068012020A001202012
:2011A000720120206A01202038012020A0BB0D005001202030750000BC0020200000DC42A0
:2011C000750120202801202000002A4358012020000048432401202054012020F0B581B08F
:2011E000994C9A4800250570994805704E20994E7719C1B2204602F067FB7978204602F0DD
:2012000063FBB978204602F05FFBF978204602F05BFB3979204602F057FB7979204602F0C8
:2012200053FBB979204602F04FFBF979204602F04BFB397A204602F047FB797A204602F0E4
:2012400043FBB97A204602F03FFBF97A204602F03BFB397B204602F037FB797B204602F000
:2012600033FBB97B204602F02FFBF97B204602F02BFB397C204602F027FB797C204602F01C
:2012800023FBB97C204602F01FFBF97C204602F01BFB397D204602F017FB797D204602F038
:2012A00013FBB97D204602F00FFBF97D1835204602F00AFB387E302D9AD100254220664EAF
:2012C0007719C1B2204602F0FFFA7978204602F0FBFAB978204602F0F7FAF978204602F039
:2012E000F3FA3979204602F0EFFA7979204602F0EBFAB979204602F0E7FAF979204602F0AA
:20130000E3FA397A204602F0DFFA797A204602F0DBFAB97A204602F0D7FAF97A204602F0C5
:20132000D3FA397B204602F0CFFA797B204602F0CBFAB97B204602F0C7FAF97B204602F0E1
:20134000C3FA397C204602F0BFFA797C204602F0BBFAB97C204602F0B7FAF97C204602F0FD
:20136000B3FA397D204602F0AFFA797D204602F0ABFAB97D1735204602F0A6FAF87D2E2DCC
:201380009ED100254D20354E7719C1B2204602F09BFA7978204602F097FAB978204602F076
:2013A00093FAF978204602F08FFA3979204602F08BFA7979204602F087FAB979204602F06A
:2013C00083FAF979204602F07FFA397A204602F07BFA797A204602F077FAB97A204602F086
:2013E00073FAF97A204602F06FFA397B204602F06BFA797B204602F067FAB97B204602F0A2
:2014000063FAF97B204602F05FFA397C204602F05BFA797C204602F057FAB97C204602F0BD
:2014200053FAF97C204602F04FFA397D204602F04BFA797D1635204602F046FAB87D2C2D8F
:20144000A2D101B0F0BDC046008010407001202065012020603B0000913B0000C03B00002C
:20146000F0B58DB00890824A824C01208107470781480A9121615060506850608126166046
:20148000204640380C9007602760A025284602F03DFB7A4800680790754806602046303CD1
:2014A00027600B940760284602F030FB704806600C9807606F480760284602F027FB6F4894
:2014C000006806906A48066027606A480760284602F01CFB664C26600C9807606548076088
:2014E000284602F013FB65480068059026600B9C276060480760284602F008FB5C480660A4
:201500000C9807605B480760284602F0FFFA5B4800680390564806602760564C276028469D
:2015200002F0F4FA524806600C9807602760284602F0ECFA5148006804904D4806600B9CBC
:2015400027604C480760284602F0E0FA484806600C98076047480760284602F0D7FA474818
:2015600000680190424806602760424C2760284602F0CCFA3E4806600C98076027602846D4
:2015800002F0C4FA3D4800680290394806600B9C276038480760284602F0B8FA344806602C
:2015A0000C98076033480760284602F0AFFA33480068009009962E48066027602D480760E4
:2015C000284602F0A3FA0898002807D02848099941600A9921602748016007E025480A99D1
:2015E00001612349244848604868486000984000C00F01994900C90F039A5200D30F069ADE
:201600005200D40F079A550F022215406419A400059D6D0F154064191B199B00049C640F24
:2016200014401B19C9188900029B5B0F1340C91840180890A024204602F068FA0C4D099E0F
:201640002E600C9807600B480760204602F05EFA2E600B98076007490F600A9808610648D7
:201660006860686868600898C0B20DB0F0BDC04610804240D0120A4081000E0080130A40DE
:20168000F0B589B00690002A23D00D466E49284601F0D0FE00281FD16C49284601F0CAFE8E
:2016A00000281BD16A49284601F0C4FE002817D10324A107284601F0BDFE002812D1002618
:2016C0002846314601F0ADFE002800D18FE0FF2609E05C48067806E0F62604E0F92602E00A
:2016E000FB2600E0FD2670B2039002F045F801465C4F3868049101F066F905465A4C214613
:2017000001F0AAFE002800D12C46584D2046294601F087FE002800D125463D600021494822
:2017200005914756067052480468524E2046314601F077FE002810D04F49069801F076FB77
:20174000214601F040F90446314601F085FE002800D126464648066000E026460398C01BA8
:2017600002F00AF807464549284601F05FFB04464349049801F05AFB214601F024F904466A
:201780004049384601F052FB214601F01CF9014601F019F93C4901F049FB0446304621466C
:2017A00001F00CF905462046314601F00CF90246364C2046294601F0C7F93548006801F0EF
:2017C000DBFF05463348006801F0D6FF024607AE019608AF009720462946069B01F0F4FB03
:2017E0000599785E715E00F0F3FD09B0F0BD7F20C105284601F01EFE002800D073E71549D0
:20180000284601F017FE002815D11349284601F011FE0028264600D065E71049284601F014
:2018200009FE002809D10E49284601F003FE002805D0072657E7012655E7052653E70A2688
:2018400051E7C0466F012020000010C10000C0C0000080C0000040400000A0400000E04089
:20186000000010414401202000004843000048C3400120200000D243000052449A99193E46
:201880000000904300009041EC51383DBC002020480120204C012020F0B585B00546002893
:2018A00030D464D000277D20C00001900A262846314601F023FF4643A91B3026314302AAF0
:2018C000D1550A2D59D30A2101F018FF314302A8C0194170642D54D36421284601F00EFFFB
:2018E0000A2101F00BFF3143FC1C02A8C01981702846019E314601F001FFB542274605469E
:20190000D4D23BE061487D21C90001912D2101F0DBFF6D4200240A272846394601F0EEFE7D
:201920004743E91B3027394302AA11550A2D3AD30A2101F0E3FE394302A800194170642D72
:2019400035D36421284601F0D9FE0A2101F0D6FE3943E71C02A8001981702846019C21462F
:2019600001F0CCFEA5423C460546D4D21CE04748302101F0A9FF05B0F0BD7C1C002C03D1E3
:2019800082E0BC1C002C7FD0601E032101F0B6FE481C0027032800D007463C49009417D177
:2019A00025460C4642E0671C002F03D16CE0A71C002F69D0781E032101F0A0FE481C002579
:2019C000032800D00546009719D13C462F4E45E002A8801E019026460C460198801941789A
:2019E000204601F071FF012F1FD0B51E0198815D204601F069FFBF1E2E46EED116E002A848
:201A0000801E0190214E0198C0194178304601F05BFF012D21D0BC1E0198C15D304601F025
:201A200053FFAD1E2746EED118E0751E009803282AD302A82818C61EB178204601F044FF81
:201A40007178204601F040FFED1E3178204601F03BFFF61E002DEFD116E07C1E009803286E
:201A600012D302A82018C51EA978304601F02CFF6978304601F028FFE41E2978304601F090
:201A800023FFED1E002CEFD105B0F0BD00801040F0B59FB000F080FB411E022905D304280E
:201AA0000ED005281DD14F4812E004464F48006800F014FE00280AD0022C0CD04E480BE0CC
:201AC00001F032FF782001F091FF474800E0484801F0F4FD05E0474801F0F0FDDC2001F0AB
:201AE00085FF464C2068800216D4454D2878002815D101267705434802F008F8206838427A
:201B00000DD12E7001F082FF002859D001F00CFF782001F06BFF02E0394800210170EFF3C0
:201B2000108172B63A4A107800241470002900D162B600282DD001F021FF364901F076F911
:201B400005461BA800901EA91DAA1CAB284600F065F80DAE3046FEF7C9FE244800680A907C
:201B60001E980C901D980B900E99377A3088727AB37AF67A0094019402940391049705A98E
:201B80004DC10A9829460C9A0B9BFFF7D9F901F055FD2148017801290CD1047013480068AF
:201BA0000DAD009521462246234600F073FF2846FEF786FA7D20000201F0A8FF1FB0F0BDA6
:201BC0000A48006800F08AFD002804D0DC2001F00DFF0E4802E001F0C1FC0B4801F06EFD4A
:201BE0009DE7C0463C3C0000D23C000020012020A83C00009C3C0000B33C000080330A40CC
:201C00006201202000E20400813C0000DC3C00006C0120200AD7A33B74012020F0B587B069
:201C20001D46039202910446EFF3108072B64F490F684F490E68002800D162B60021204680
:201C4000019101F0F7FB0028069500D0494C4A480168791A494A1368F31A049707600596A1
:201C60001660474A10684718176046490868C01800900860444E3168204600F0A4FE0546D2
:201C80003060424901F0DFFB002843D0384601F073FD3F4F394601F0C9F8294601F01CFA0F
:201CA0000446009801F068FD394601F0BFF8294601F012FA05463748017800291DD0364882
:201CC0000068364901F0B2F80646354F2046394601F0ACF8314600F076FE04463148006832
:201CE0002E4901F0A3F806462846394601F09EF8314600F068FE054601E001210170264827
:201D000004602848056001981D4908601D4908601D490860029C002C04D01F48006801F029
:201D200083FD2060039C002C069D059E049F04D01C48006801F078FD20600C9C002D08D0BC
:201D4000384601F019FD124901F070F801F06CFD2860002C08D0304601F00EFD0C4901F0AC
:201D600065F801F061FD206007B0F0BD780120207C0120200AD7A33B880120208C01202008
:201D80009001202094012020980120200AD7A33C9C9D0F3F71012020800120209A99993E00
:201DA0003333333F84012020F0B58BB04D4A4E4D01208407019046074C4F4D4800230793FD
:201DC00003804C4803604C484021009101704B4803704B48037029462C611760106810602B
:201DE000101F099081270760403D2E600E601760084630380890049404600C60A02420463C
:201E000001F084FE02970998076006952E600396354D2E60204601F079FE0498286133486E
:201E20003049086008680860204601F06FFE0798049C0790470040372B490C61294E2B48C6
:201E4000306030683060029D09980560039E069806600E60A0200A9001F058FE21480560A3
:201E600008980460204804600A9801F04FFE09980560089806601C480660F8B2FEF70EFF30
:201E800005901848056008980460174804600A9801F03CFE0998056006980660124806608A
:201EA00006460A9D284601F031FE34610D490F48086008680860284601F028FE059A002AD1
:201EC00005D10799481CC9B20629B2D9009F0A4807700B48027001985040084908700BB019
:201EE000F0BDC04614804240D0120A4081000E005E0120202C0120207601202064012020F6
:201F000063012020F0B587B004460026314601F088FA0546002801D14D4900E04B49204632
:201F200000F084FF002D4B4F05D02D210446384601F0CAFC204601F0ADFC0A28029004D22B
:201F40003021384601F0C0FC71E007460A253846294601F0D3FB294601F0D0FB30242143A9
:201F600004A88155642F21D36421384601F0C6FB0A2101F0C3FB214304A880194170F8086F
:201F80007D2815D37D20C100384601F0B7FB05460A2101F0B3FB2143F41C04A88019817076
:201FA0002D48874226462F46D0D202E0741C00E0B41C002C274F3AD0601E032101F09EFB66
:201FC000481C0026032800D00646019402D12546204F16E004A8801E03901E4F03980019FA
:201FE0004178384601F070FC012E09D0A51E0398015D384601F068FCB61E2C46EED100E0D1
:20200000651E0198032812D304A82818C41EA178384601F059FC6178384601F055FCED1E45
:202020002178384601F050FCE41E002DEFD12E21384601F049FC0A21029801F05FFB3020FA
:202040000143384601F040FC07B0F0BD000020C1000020410080104010270000F0B589B006
:202060001F461446059100260690314601F0E2F90028354650D1002F35464DD03B48016895
:20208000204600F09BFC2746069C214601F024F803903748056804973846214600F0C6FE1D
:2020A000294600F090FC0746324D294601F0D4F9002800D13D46304F2846394601F0B1F9B9
:2020C000002800D12F462A4807600021384600F0ADFE05462949049C204600F0A7FE2946B8
:2020E00000F071FC05462649039800F09FFE294600F069FC0546234F394601F0ADF90028E2
:2021000000D12F46204D3846294601F08AF9002800D13D4615480460059C2046294600F008
:2021200052FC07462046294600F048FC02461748394600F009FD1648006801F01DFB0746C3
:202140001448006801F018FB024607AC0194354608AE00960D483946069B00F035FF705FF8
:20216000615F00F035F909B0F0BDC0463C012020340120200000A0410000A0C10000484158
:20218000713D0A3E0000B4420000B4C2BC002020480120204C01202070B586B0454801786A
:2021A000012932D1EFF3108272B61421C943424B03E06D466D18EC75C91C5C18657D002DA4
:2021C00026D0657D2E46613EF6B21A2E00D2203D6E4676187575A57D002D1BD0A57D2E46F9
:2021E000613EF6B21A2E00D2203D6E467618B575002911D0E57D002D10D0E47D2546613DD2
:20220000EDB21A2DD5D2203CD3E7002006B070BD153104E0163102E0172100E017316B46B4
:2022200000245C54047025480470002A00D162B66D462A786B78AC78E8782D7905290CD1F5
:20224000522A0AD1552B08D14E2C06D1312804D1352D02D1012006B070BD6E4606290FD153
:20226000522A0DD1552B0BD14E2C09D1502807D1492D05D17579442D02D1022006B070BD81
:2022800004255326502801D0284600E00320694072404F2C00D028461143542B03D10029FE
:2022A00004D106B070BD28460029FAD0284606B070BDC0466501202008012020700120200E
:2022C000F0B5384908463438872202603648022202600A46383A8623136001220260852304
:2022E0000B61140204604B61530203602F4CE01C48604B684B600860086808604B685006CE
:2023000003434B600B6803430B6082258D61284BCB614D64274D2E463C3E33606C606E682C
:202320006E600E46083E244F3760346834608124AC622F632C6B2C63EF61EC69EC612F620D
:202340002C6A2C622F602C682C600C462C3C174E26602568256028390E600C680C601749E4
:202360000C68950525430D6015490C6AD20614430C620C6814430C6012490A600A63124945
:202380000A68042414430C600A69823B13430B610E490A6A801C02430A620A6802430A60B5
:2023A000F0BDC0463C804240D0120A4081000E0082000400C080424081000C00A0130A409F
:2023C00028100A40A0320A4090330A4028300A40F0B585B00C467D27FD003C4A9042034642
:2023E00000DC1346AB4200DB2B469442039400DC14461922AC4200DB2C46334ED10104916E
:20240000334A1380334A148000280197029512D0DA175340D11A4D19012813DB01223046DD
:20242000049901F05FFB04984543F900284601F065F9074612E0002701223046394601F06B
:2024400051FB0BE004984543F900284601F056F901460122304601F045FB049F002530462B
:2024600039462A4601F03EFB20B2C1174840081A02990F180398184E00280BD010DD049D9B
:202480006F430198C100384601F038F901460022304602E0304629462A4601F023FB0CE07F
:2024A00000223046049C214601F01CFB67430198C100384601F022F9054601223046294694
:2024C00001F010FB05B0F0BD0000094018FCFFFF9C0120209E01202000008640F0B5394A99
:2024E0008218394BC0183A4D4C790B79002C22D0466F202B02D00524E70100E0354F2E4043
:20250000002B00D188273E434667846F2C403C438467446B2D4E34404463846B344084638A
:2025200000244465846554688F26F643344054609468344094600C688979202B09D00646C9
:202540007036002B15D1641E4460C46E2C40882715E0641E4460C46E2C401E4E3443C4668B
:20256000046F2C40344304671B4D01246707064607E00527FF0164084460C46E2C403C4313
:20258000C46634682C403C433460C46A0F4D2C40C462046B2C4004630024C4640465C46FB0
:2025A0008F25ED432C40C46714682C401460194302680A4B1340BD220A40D118891C0160BE
:2025C000F0BDC04684180000041800008888FDFF24493E0001040000FFFFFFCF4000FFCFFA
:2025E000B0B53A4A80184A6842600A78222A56D8930001A4E3589F46952600009F26000032
:20260000952600009F2600009F2600009F2600009F2600009F2600009F2600009F2600009C
:202620009F2600009F2600009F2600009F2600009F2600009F260000852600009F2600008C
:20264000852600009F2600009F2600009F2600009F2600009F2600009F2600009F2600006C
:202660009F2600009F2600009F2600009F2600009F2600009F260000852600009F2600004C
:2026800085260000036803242407A343012464071B1903E0036803242407A34303600B69CB
:2026A000C360CB68C46A0A4D25400A4C1C402B19C3620368084C1C400460097A11430268FF
:2026C0003F239A43194051180160B0BD041800008888FDFF777702007F00FFFFF0B581B0C0
:2026E0000446244E31780020062941D801252A468A4061210A423BD000F058FE1E48002701
:2027000007601E4807601E4807701E4807701E4807601E4807601E4807701E4807801E4801
:2027200007701E4807701E48402101701D4807601D4807601D4807701D4807601D48076001
:202740001D4807601D4804601D4807701D480770042030701C4804601C4807601C4807600A
:202760001C4801F0C9F80548076000F0F7FE284601B0F0BDA00120202801202054012020FF
:20278000750120207201202030012020340120206B0120205C012020660120206701202052
:2027A000680120203C012020440120206F01202040012020480120204C01202038012020AE
:2027C0006A01202069012020500120202401202058012020BC002020F0B585B0039317464C
:2027E00002910446066900251046294600F022FE002861D10120C1073046049188433F211A
:20280000090600F00EFE002856D13046029900F0D5F8054620680290A6692846314600F047
:20282000CDF801906168384600F000FB0146284600F0FCFA00900298019900F0F7FA009937
:2028400000F0C1F80090A068394600F045FC074630460196314600F0B6F8014602952846CC
:2028600000F0ACF8E16900F0AEF80146384600F0DDFA009900F0A7F80146606900F0A3F895
:202880000646039D04996940049100F0CAFD07463046294600F0E0FD002800D13546002F18
:2028A000049800D1284660610299A1610199E16100F0BAFF054606E0E168304600F0B6FACA
:2028C0006061A561E561284605B0F0BD80B582B01F4900220A701F490A601F490A601F49A4
:2028E0000A601F490A601F490A601F490A701F490A601F490A701F490A601F490A601F4928
:202900000A701F490A801F490A701F490A701F4940230B701E490A601E490A601E490A70BE
:202920001E490A601E490A601E490A601E4908701E4908701E487F21C905009101901D480B
:202940001D49134600F088FC00F008FE02B080BDA00120203801202050012020280120200B
:20296000540120205801202075012020240120207201202030012020340120206B012020C9
:202980005C0120206601202067012020680120203C012020440120206F012020400120206F
:2029A000480120204C012020690120206A01202000007A44BC002020E17A4440FCB401273B
:2029C000FF07794002E0FCB40127FF070C024D002D0E03D1002C52D1FCBC70473C43FF2DA5
:2029E00050D0A408002900D56442020243001B0E04D1002A43D10800FCBC70473A43FF2BC6
:202A000041D09208002800D552425E1B04D5170022003C0076422B00192E06D5270037410F
:202A2000D2191C27F71B7F42BC40002A27D002D55242012700E00027013B5200FCD515006A
:202A4000802635400FD01500202635402C43803208D21500402635402C4304D1012636021E
:202A6000B24300E05B1C5200023308DDFF2B0BD2500ADB051843FF073843FCBC70470020F2
:202A8000FCBC70470800C70FFF07FF20C0053843FCBC7047F0B581B0069C002C37D02546FF
:202AA00024351C4E367826701B4E3668801B052646431A4800681A4F3F686660A1602146B1
:202AC0000C3185C1237617480078607600F0AEFF15490968E0612162144800782870144835
:202AE0000088E08413480078287113480078687112480078A8711248006812490968E06217
:202B0000216300F0F7FFA08600F0FAFFE08601B0F0BDC046A0012020380120205401202083
:202B2000580120206A012020300120206B0120205C0120206601202067012020680120209F
:202B4000480120204C012020F0B583B0002846D00E460446174623493046019100F061FC8D
:202B60000290214D3046294600F076FC0028284600D13046029900291A4900D1014602915F
:202B80003846184900F04DFC06463846294600F063FC002800D13D46002E00D10195E66836
:202BA00021690298FFF70AFF01466769304600F03DF93946FFF707FF6061E66A216B019D89
:202BC0002846FFF7FBFE0146676B304600F02EF93946FFF7F8FE029921612563606303B06C
:202BE000F0BDC046000016C400001644002A49D084468B071CD1830722D1102A08D370B4AC
:202C0000103A78C978C0103AFBD270BC103238D0042A2CD3082A05D30C2A01D308C908C08A
:202C200008C908C008C908C092072AD0920F22E00B780370491C401C521E22D08B07F7D1B9
:202C4000C30714D18307D8D0121F12D308C903801B0C4380001D121FF8D20AE008C90370F9
:202C60001B0A43701B0A83701B0AC370001D121FF4D2121D05D00B780370491C401C521ECD
:202C8000F9D160467047FEE770B582B01B491C4C204600F0E7FE1B492046FFF71FFC1A488D
:202CA00001681A4A0A40026000250095204629462A462B4600F0E4FE204629462A4600F024
:202CC000C3FE204629462A4600F00CFF01260096204629462A462B4600F0D2FE20462946EB
:202CE000324600F0B1FE20462946324600F0FAFE074886600321016002B070BD383D00007A
:202D000000000940F03C0000041809407F00FFFF0011094070B582B01B491C4C204600F089
:202D2000A1FE1B492046FFF7D9FB1A4801681A4A0A40026000250095204629462A462B4615
:202D400000F09EFE204629462A4600F07DFE204629462A4600F0C6FE0126009620462946AC
:202D60002A462B4600F08CFE20462946324600F06BFE20462946324600F0B4FE074886602E
:202D80000321016002B070BD3B3D000000008640F83C0000041886407F00FFFF0011864027
:202DA00040B542004B005E08164301D006004E4000D4D01A04D20120C90F06D1404204E0A3
:202DC00003D90120C90F00D04042FF263606B24200D8B34200D9012040BD40B542004B0031
:202DE0005E08164301D006004E4000D4D01A04D20120C90F06D1404204E003D90120C90F10
:202E000000D04042FF263606B24200D8B34201D90120404240BD42004B000020FF210906E8
:202E20008A4200D88B4200D901207047FCB40127FF0706004E4001D4002600E03E000202E1
:202E400043001B0E30D03A43FF2B30D00C024D002D0E29D03C43FF2D29D05B1942405040A6
:202E600042404C4061404C4000B500F0A3FC20BCAE464240504042404C4061404C40250091
:202E80001400002C01D46400013B803401D3013364087E3B08DDFF2B09D2BC43200ADB05A9
:202EA00018433043FCBC70470020FCBC7047FF20C0053043FCBC704710B51B491B4C20468A
:202EC00000F0F5FD1A49204600F094FB194801680322D203914301600169174A0A40113277
:202EE0000261416917220A4328218A434261426801210A4043688B439A1842600F4A1368CF
:202F00008C021C43146002684B0413430360C26870231343C360C2680A4306239A43C26009
:202F200002680A43026010BD1A3C000000801040BE3C0000009110400000FFFF28901040A4
:202F400010B51B491B4C204600F0B1FD1A49204600F050FB194801680322D20391430160E0
:202F60000169174A0A4011320261416917220A4328218A434261426801210A4043688B431E
:202F80009A1842600F4A13688C021C43146002684B0413430360C26870231343C360C268D6
:202FA0000A4306239A43C26002680A43026010BDEE3C000000201040C83C00000031104097
:202FC0000000FFFF28301040F0B585B000283BD00A9D002D38D004460B98002834D01F46E4
:202FE00004900291039200211846019100F034FA666C002805D038463146FFF7E4FC064600
:203000006064274648371149304600F00AFA002803D038882880B91C13E001986064236C25
:20302000204602993246FFF7D7FB3880236C2034204603993246FFF7CFFBB91C78803888ED
:203040002880049A0888108005B0F0BD0AD7A33CF0B581B0144605461548057015480160DD
:20306000154800270760154E3760154800F044FC05202840012810D1134804601348C05716
:203080000028134D294600DA12492046FFF79BFC0C490860356001B0F0BD0A480460022D7C
:2030A00003D0042D01D000F059FA01B0F0BDC046A001202050012020240120205801202024
:2030C000BC00202054012020280120207501202000002A4300002AC3FCB40127FF07060002
:2030E0004E40F60FF607020243001B0E2DD03A43FF2B2DD00C024D002D0E26D03C43FF2DF8
:2031000026D05B1B0020202164085208A2424041A24200D3121B013904D0002A01D0520078
:20312000F4D18840384201D14000013B803001D3013300E040007F3307DDFF2B08D2400A7E
:20314000DB0518433043FCBC70470020FCBC7047FF20C0053043FCBC70477047F0B5002081
:20316000C4431848184B0127FA067E06103B1D6815400346103B1B68002D08D013480068D5
:20318000304200D027461248016879180160B71C334208D00F480068C00200D501240E48DA
:2031A0000168611801603B40002D03D00649086810430860002B03D002490868184308605B
:2031C000F0BDC04648300A4048100A4080130A407801202080330A407C012020F8B5451C7A
:2031E00000780023082B32D02F78C2070CD16A780F241440E41C122C0BD102242E57F4B2DE
:20320000002E08D4EE1C0EE06D1C4A1C0F7011461AE0AE1C08E02E1DED7800957F252C40E6
:20322000009DED012C1912343D0112095219094DAA420ED0D243002C05D08D5C4F1C0D70AD
:20324000641E3946F7E7354640085B1CCAE72846C5E7F8BDFF0F0000F0B585B0002830D0C5
:20326000044602A80EC00B9F00253846294600F0D8F80190144E3846314600F0EDF800282B
:2032800000D13E460A98019900292946049A00D131462164029B236003996160A260E060DB
:2032A000256123626162A262E06225632946FFF7BDFD6061A561E5616063A563E56365646A
:2032C000A56405B0F0BDC04600007A44F0B581B010481149416011484160114B5960114C2A
:2032E0006160114D6960114E7160114F7960114841601149074A1160084A116019602160AA
:203300002960316039600160102000F0FFFB01B0F0BDC04600080A40030000B100280A40A3
:2033200000080940000886400008874000280F40008810400028104001000026F0B5164AAC
:203340001068C0B20B2825D1144801218B029362026852071ED4124A124B134C06E01D7812
:2033600000266655117005686D0713D4C5691678002EF8D1EEB20D2EF5D00A2EEFD01E7843
:20338000162E04D81E78771C1F70A555EBE700251D70E8E7F0BDC04620901040089110406C
:2033A000650120207001202008012020EFF3108072B60D4A002111600C4A11600C4A11605C
:2033C0000C4A11600C4A11600C4A11600C4A11600C4A11600C4A11600C4A1170002800D074
:2033E000704762B67047C046780120207C012020880120208C01202090012020940120208F
:203400009801202080012020840120207101202010B5FFF7C5FC002801D0002010BD012018
:2034200010BD10B5FFF7BCFC002801DB002010BD012010BD10B5FFF7B3FC002801DD0020DD
:2034400010BD012010BD10B5FFF7C7FC002801DA002010BD012010BD10B5FFF7BEFC0028B8
:2034600001DC002010BD012010BD000080B51149114800F097FA11480168032252020A43A3
:203480000260026801210B02134303600022426107224262836B93438363836B1202934364
:2034A0008363826A042313438362826A0A43826280BDC046413D000000200F4000320F400A
:2034C0000E480068C0B2012816D10D480168491C01600C480178FF2902D00178491C017012
:2034E00009480178491CCAB20170142A04D3002101700648012101707047C0462010874074
:20350000200120206C012020730120207401202080B500F0A5F900F047F8FEF745FC00F01C
:2035200055FA0020FFF7D2F9FDF758FE084800F0C5F801204105074A1160074B1960C0035D
:20354000106018600220106018601060186080BDED3B000080E200E000E100E070B50E48AE
:20356000002404800D4804800D4E0125304621462A4600F0B7FA30462146224600F0B2FA7A
:20358000084E30462146224600F0ACFA304621462A4600F0A7FA70BD9C0120209E01202033
:2035A000000009400000864070B50E48002404800D4804800D4E0125304621462A4600F042
:2035C00091FA30462146224600F08CFA084E30462146224600F086FA304621462A4600F05D
:2035E00081FA70BD9C0120209E012020000009400000864070B511221302C218C4580125CF
:20360000AC43C4500C888D7825438C882C43C558084E2E40084D25407419C4508879CB79A2
:203620000343087A184351687E23994318400818506070BDE798FDFF1867000010B50C48C9
:20364000018800290ED00B4A13785C1C1470DA0703D00122D206084B1A61491E018008048D
:2036600000D010BD0120C0060349086010BDC046600120206D012020A0320A400D4800215E
:2036800001600D48011F0A680323DB4313400B60416801229143416041681202914341606D
:2036A000016830229143016001680F22914301607047C04608030B4004010B4070B501784A
:2036C000002917D00C4CC51CAE1EC9B2204600F0FBF8317800290DD06E1E204600F0F4F894
:2036E0003178002906D0204600F0EEF82978ED1C0029E9D170BDC046008010401CB50A007B
:2037000017D000230124E407A04200D20400944201D95200FBE790425B41904200D3801A46
:20372000914201D25208F6E719000200080011001CBD01000020FFF710FD1CBD70B50A482B
:203740000A4C84420CD00A4D0A4EB54208D02A686968501C12789200A25890470835F4E71F
:2037600000BF00BF70BDC046543D0000483D0000643D0000743D000006B49E22002802D4B8
:2037800004D106BC7047414204D400E00100013A4900FCD5803101D3013200E04900490A16
:2037A000D2051143002802D50122D2071143080006BC7047FCB4020C0B0CFF242402FF34BD
:2037C000204021400C00444315005D4306005E430F005743320C3B0CA818C01832043B04FE
:2037E0000025A1186841C9186841FCBC7047000010B50849084C204600F034F907492046A6
:20380000FEF7EEFE064801680122114301600548026010BD353D0000000087405C3C0000EB
:20382000281087400811874006B54100090E7F390DD41F22511A0CD9864600020122D207A2
:203840001043C8407246002A00D5404206BD002006BD02000120C007002A00D4401E06BD25
:2038600080B5FFF733FDFEF72BFDFFF707FFFFF70BFAFFF74FFAFFF7BBFFFFF7F7FDFFF70A
:203880001BFBFFF75DFB0248B8210022425480BD0000202006B5002803D57346FFF7C4FF3F
:2038A00006BD4100090E7F3908D31F22511A07D300020122D2071043C84006BD002006BDD5
:2038C0000020401E06BD00000A4A80180268120605D50268120602D502681206F6D48161D8
:2038E0000168C90705D00168C90702D00168C907F6D1704708110000B0B5002812D0C16847
:20390000026904461046FFF791FA00256061A561E561E16A206BFFF789FA6063A563E56387
:203920006564A564B0BD000080B508480078062807D8012181406120014202D0FFF70EFEC3
:2039400080BD03480121017080BDC046A001202072012020084880F3088800BF00BF00F0B4
:20396000FAF8002801D0FFF7E9FE002000F0A8F8012000F0E9F8C0460080202002B49E21A2
:20398000002805D401D102BC704701394000FCD5803001D3013100E04000400AC90508435B
:2039A00002BC704770B50122120383180C785D680C26B54334402C195C60497883580724EB
:2039C000A34321405918815070BD0000044800210180044801700120C00603490860704734
:2039E000600120206D012020A0320A4080B5001D0521FFF783FE03490880034800210170BC
:203A000080BDC046600120206D012020064802780121062A0B4600D800237F2002401E208F
:203A2000D040184308407047A001202003480078002801D103487047014870476E012020CD
:203A4000903C0000003D000010B592008018044A83580724A404A34321405918815010BD1C
:203A60003018000010B50122120383180C789C604B7883508978014A815010BD0C11000049
:203A800010B5029CA400001911431943014A815010BDC0465018000003228058002805D005
:203AA000401E4A1C00230B701146F7E7704710B50122120383180C789C604978815010BD41
:203AC000FFF726FDFDF7E4FFFDF7E2FFFDF7E0FFF8E780B50B4603214258C11D184600F0FF
:203AE0002FF880BD92008018014A81507047C0461018000000200149085E70479C012020D3
:203B000000200149085E70479E012020811E091F00BFFCD2704780B5FFF720FB80BD80B57C
:203B2000FFF70CFC80BD80B5FFF7F5FF80BD80B5FFF7C6FC80BD80B5FFF7F1FF80BD00006C
:203B400080B5FFF753F880BD00F001F8FEE700BF7047FFE6704701207047000000000000FA
:203B60004E43484431322067726179206C696E652064656D6F206F6E626F617264205541AA
:203B80005254302031313532303020384E310D0A004232312F52554E5049442F52554E311D
:203BA000353A2067726179206C696E65203330733B2053544F502061626F7274730D0A00A2
:203BC0004D5055363035302064697361626C65643B20656E636F6465722073706565642044
:203BE000504944206163746976650D0A004D5055363035303D44495341424C45443B204266
:203C00003231207374617274732067726179206C696E65203330730D0A000800273D00006C
:203C20001C3D0000E53C00001C3D00000F3D0000433D0000223D0000163D0000436F6D6DA7
:203C4000616E64733A2052554E5049442C2052554E31352C2053544F500D0A000200000040
:203C6000FF7002000100000000000000000000003031323334353637383941424344454630
:203C8000004552522042323120627573790D0A004D5055363035302D455252004F4B20529D
:203CA000554E5049440D0A0045525220627573790D0A004F4B2052554E31350D0A0000005E
:203CC0001800000000300000000018000000003000004F4B2053544F500D0A004F4B204241
:203CE00032310D0A005354524149474854000800800C000020000100800C00002001010081
:203D00004D50553630353000284C4F535429004C494E4533300041424F5254004355525610
:203D20004500444F4E450049444C4500284F4B2900455252000800000800000800004F4B74
:083D40000008003F0000000034
:203D4800DD310000D33A0000993A00000200000077010000000100000F16FFF0543D00004D
:103D6800000020205C3D00007801202000000000B9
:00000001FF
