:20000000008020209B3B00002F2B00002F2B00000000000000000000000000000000000096
:200020000000000000000000000000002F2B000000000000000000002F2B00002F2B0000B2
:200040002F2B0000713B00002F2B00002F2B00002F2B00002F2B00002F2B00002F2B00007E
:20006000000000002F2B00002F2B00000000000000000000813B00002F2B00002F2B00005C
:200080002F2B00002F2B00002F2B00002F2B00002F2B0000793B00000000000000000000EA
:2000A0002F2B00002F2B000000000000000000002F2B0000000000002F2B00002F2B00007E
:2000C000F0B58FB0002800D104E30446B74F6D21384603F003FC7321384603F0FFFB3D21B1
:2000E000384603F0FBFB6568002D0B942DD000270A262846314603F09FFA4643A91B302698
:2001000031430CAAD1550A2D24D30A2103F094FA31430CA8C0194170642D1DD3642128468F
:2001200003F08AFA0A2103F087FA3143FE1C0CA8C01981707D20C100284603F07DFAE90876
:200140007D2937460546D3D207E03021384603F0C5FB41E07E1C00E0BE1C002E934F3BD093
:20016000701E032103F068FA481C0027032800D00746099602D135468C4C16E00CA8801E98
:200180000A908A4C0A9880194178204603F0A6FB012F09D0B51E0A98815D204603F09EFBB3
:2001A000BF1E2E46EED100E0751E09980328274612D30CA82818C61EB178384603F08EFBA3
:2001C0007178384603F08AFBED1E3178384603F085FBF61E002DEFD12021384603F07EFB6F
:2001E0007321384603F07AFB74253846294603F075FB6121384603F071FB3846294603F05D
:200200006DFB6521384603F069FB3D21384603F065FB0B9E3078062803D880006449095804
:2002200000E064490878002816D0CD1CAC1EC1B2384603F053FB217800290DD06C1E384617
:2002400003F04CFB2178002906D0384603F046FB2878ED1C0028E9D12021384603F03EFBA4
:200260006721384603F03AFB7921384603F036FB7221384603F032FB6F21384603F02EFBB9
:200280003D21384603F02AFB707E002804D0307E00280FD148490EE04F21384603F01EFB51
:2002A00046253846294603F019FB3846294603F015FB1AE041490878002816D0CD1CAC1E2A
:2002C000C1B2384603F00AFB217800290DD06C1E384603F003FB2178002906D0384603F094
:2002E000FDFA2878ED1C0028E9D12021384603F0F5FA6221384603F0F1FA6121384603F009
:20030000EDFA6321384603F0E9FA6B21384603F0E5FA6521384603F0E1FA6E21384603F070
:20032000DDFA6421384603F0D9FA3D21384603F0D5FAF1690878002816D0CD1CAC1EC1B271
:20034000384603F0CBFA217800290DD06C1E384603F0C4FA2178002906D0384603F0BEFA4E
:200360002878ED1C0028E9D12021384603F0B6FA6C21384603F0B2FA6921384603F0AEFA43
:200380006E21384603F0AAFA6521384603F0A6FA3D21384603F0A2FA306A01F079FC242073
:2003A000305C00280CD1CD490BE0C046000010406C3C00008D3D0000793D0000863D00006A
:2003C000C5490878002816D0CD1CAC1EC1B2384603F084FA217800290DD06C1E384603F0D2
:2003E0007DFA2178002906D0384603F077FA2878ED1C0028E9D120210991384603F06EFACD
:2004000067210891384603F069FA72210791384603F064FA61210491384603F05FFA79266D
:2004200038463146019603F059FA3D210A91384603F054FA30210391384603F04FFA7821FA
:20044000384603F04BFA0B98C48C200BA44D295C384603F043FA2005000F295C384603F07A
:200460003DFA2006000F295C384603F037FA0F202040295C384603F031FA3846099C2146AF
:2004800003F02CFA3846314603F028FA3846049E314603F023FA77210591384603F01EFADB
:2004A00038460A9903F01AFA0B98806801F0F0FB3846214603F012FA7424384621460294B6
:2004C00003F00CFA3846314603F008FA3846079903F004FA3846089903F000FA6521069101
:2004E000384603F0FBF93846214603F0F7F95F210891384603F0F2F93846019D294603F0DC
:20050000EDF93846314603F0E9F93846059C214603F0E4F938460A9903F0E0F90B98C0681D
:2005200001F0B6FB3846099E314603F0D7F93846294603F0D3F93846049D294603F0CEF9C6
:200540003846214603F0CAF93846089903F0C6F93846079C214603F0C1F93846294603F01A
:20056000BDF93846029D294603F0B8F93846069903F0B4F938460A9903F0B0F90B9800690F
:2005800001F086FB3846314603F0A8F93846294603F0A4F97521384603F0A0F9384621465E
:2005A00003F09CF96E21384603F098F93846089903F094F93846069E314603F08FF93846F1
:2005C000214603F08BF93846214603F087F938460A9D294603F082F90B9C606901F058FB2F
:2005E0003846099903F07AF97321384603F076F970210491384603F071F93846314603F018
:200600006DF93846314603F069F96421384603F065F93846294603F061F92546A06A01F036
:2006200065F82F243846214603F058F9E86A01F05DF83846099903F051F93846049E314655
:2006400003F04CF93846059903F048F96D253846294603F043F93846089903F03FF938469C
:20066000314603F03BF93846069E314603F036F93846079903F032F93846294603F02EF9DE
:200680006921384603F02AF96C253846294603F025F93846294603F021F93846314603F0CB
:2006A0001DF938460A9903F019F903980B9D285E01F01CF83846214603F010F93220285E77
:2006C00001F014F80D21384603F008F90A21384603F004F90FB0F0BD743D0000503D00003A
:2006E000B83C0000F0B597B0012415A900250D70CB480570CB4F3D70CB480570CB48056046
:20070000CB480560CB480560CB480560CB4805607520224601F0E6F8002800D17CE115A81A
:2007200000786838082800D976E101218140FF200430014200D16FE16B20802101F084FC0A
:20074000002800D168E1BE4803F000FA6B20012101F07AFC002800D15EE16C2000252946F8
:2007600001F072FC002800D156E11A20032101F06BFC002800D14FE11920042101F064FC5C
:20078000002800D148E11B200025294601F05CFC002800D140E100266420AA4D1396149017
:2007A000472016A9022201F09DF8002800D132E116AE3078129070781190284603F0C6F9A6
:2007C00047200222314601F08DF8002800D122E116AE3078109070780F90284603F0B6F902
:2007E00047200222314601F07DF8002800D112E116AE30780E9070780D90284603F0A6F916
:2008000047200222314601F06DF8002800D102E116AE30780C9070780B90284603F096F929
:2008200047200222314601F05DF8002800D1F2E016AE30780A9070780990284603F086F93E
:2008400047200222314601F04DF8002800D1E2E016AE3078089070780790284603F076F952
:2008600047200222314601F03DF8002800D1D2E016AE3078069070780590284603F066F966
:2008800047200222314601F02DF8002800D1C2E016AE3078049070780390284603F056F97A
:2008A00047200222314601F01DF8002800D1B2E016AE3078029070780190284603F046F98E
:2008C00047200222314601F00DF8002800D1A2E0129800021199401800B202F009FF5A49A8
:2008E00002F094FB0146139801F043FF0646109800020F99401800B202F0FAFE524902F033
:2009000085FB0146304601F034FF06460E9800020D99401800B202F0EBFE4B4902F076FB00
:200920000146304601F025FF06460C9800020B99401800B202F0DCFE434902F067FB014652
:20094000304601F016FF06460A9800020999401800B202F0CDFE3C4902F058FB014630463B
:2009600001F007FF0646089800020799401800B202F0BEFE344902F049FB0146304601F0D9
:20098000F8FE0646069800020599401800B202F0AFFE2D4902F03AFB0146304601F0E9FEFC
:2009A0000646049800020399401800B202F0A0FE254902F02BFB0146304601F0DAFE0646BF
:2009C000029800020199401800B202F091FE1E4902F01CFB0146304601F0CBFE0646169875
:2009E000C0BA02F085FE184902F010FB0146304601F0BFFE0646284603F0A8F814980A3804
:200A000000D0CBE61149304602F000FB07490860034F254600E000253C70284617B0F0BD90
:200A20006B0120206A012020640120202801202024012020540120205801202014320F4029
:200A400000E2040000710200000003430000C842F0B58BB0002800D14AE106900120C40767
:200A6000BD4DBE4F049001070A91BD483C612860286828600C3D81262E60384640380790DB
:200A800001603960A020089003F060F8B24806603846303F3C60099404600A9C089803F096
:200AA00055F808952E60354605973C60AB4F3C60402000F05BF9002800D1EDE0002630466F
:200AC00000F054F9002800D1E6E00396099C3C61A14A3946A24F1760106810600898056080
:200AE0000A9F079807600F60A026304603F02EF89948056005990C60984804603046089ED3
:200B00000C4603F023F83560276094480760412000F02CF9002800D1EDE0049800F0DCFC76
:200B20000390002000F0D8FC02908B4F3D60099F27608A4807602C463546A026304603F0B1
:200B400005F82C600A9807990860844C2060304602F0FCFF276182487F4908600868086055
:200B6000304602F0F3FF02980007020D03981418601E264686417C480768002C00D1E6E0FD
:200B80007848048001202146099001400220204008906006C30F18460B304D1CD20A002A55
:200BA00000D0CDE0184600D1CCE0002900D00B38042222400899002901D00B38801C082176
:200BC0002140002A029501D00B38001D102525400795002905930192009101D00B38801DF6
:200BE000202121408A06D21780230A942340099C2402079D002D039601D00B380830099D0F
:200C00006E020A9D2C408018002B00D0C01C099A92020A9D2E40002C00D0401D0A9D2A402C
:200C2000002E00D0C01D089D6D080895019DAD080195009DED080095079D2D094909DB0902
:200C40000993230A0793740A960A002A00D00930029A089BD218019BD218009BD218521941
:200C60005118059A8918099A8918079A891809198C1902F03DFD0546204602F087FE0146E3
:200C8000284602F0C3F9002C00D00746364807600699039E0A9C5BE02F4E35600A9C3946B2
:200CA000099F059807600F602E46A025284602F04DFF0898066007980460284804602846E9
:200CC00002F044FF2548076125482349086008680860284602F03AFF22480088069908803F
:200CE00021480768002630464F600E720BB0F0BD00200BB0F0BD184F3D60099F27601748CF
:200D000007602C46A025284602F020FF34600A9807990860114C2060284602F017FF27619D
:200D20000F480D49086008680860284602F00EFF0C480088069908800B480768039ED2E73A
:200D400000D032E70D46002900D030E730E706990C800498C8E7C04618804240D0120A406E
:200D600081000E005E0120202C012020F0B587B002900120C107A04EA04A07078125356060
:200D80001446303C059121601160A020069002F0DDFE0C3E35609949084640380490076060
:200DA0000F60069802F0D2FE059906963560276092480760029840280195039405D28E48F1
:200DC000056021608D48016006E08C4801618A498B48086008680860A025284602F0B6FE1C
:200DE000069E019C34600498076084480760284602F0ACFE3460039A17608048076002986D
:200E0000800606D47C480460059911607B48016007E07A4805990161774979480860086815
:200E20000860A025284602F091FE069E34600498076072480760284602F088FE3460039A23
:200E400017606E4807600298C00606D46A480460059911606948016007E0684805990161F6
:200E600065496748086008680860A025284602F06DFE069E3460049807606048076028468D
:200E800002F064FE3460039A17605C4807600298000706D4584804600599116057480160BD
:200EA00007E056480599016153495548086008680860A025284602F049FE069E34600498F4
:200EC00007604E480760284602F040FE3460039A17604A4807600298400706D446480460C2
:200EE000059911604548016007E044480599016141494348086008680860A025284602F008
:200F000025FE069E3460049807603C480760284602F01CFE3460039A1760384807600298E5
:200F2000800706D434480460059911603348016007E03248059901612F493148086008685B
:200F40000860A025284602F001FE069E3460049807602A480760284602F0F8FD346003996C
:200F60000F60264807600298C00706D1224D2C60059A0A602148026007E02048059A0261D5
:200F80001D4D1F48286028682860A024204602F0DDFD019E0698066004980760174807607E
:200FA000204602F0D3FD0698066003980760134807600599016112482860286828602046E1
:200FC00002F0C4FD069D2E60049807600B480760204602F0BBFD0B48006805902E600398E7
:200FE000076006480760204602F0B0FD0598C043C00F07B0F0BDC04618804240D0120A40B1
:2010000081000E0080130A40F0B585B01C46154604910CAF8ECF814E3560814D2C60814C95
:201020002170814C2260814C2370814C2780814F3C78062C04D80125A5406126354219D177
:201040007D4D2E78002E0ED1002903D17B490978C90708D17A490968411A05260396714321
:20106000784EB1420AD30020287006203870794802F062FC02F010FA05B0F0BD641E032C34
:20108000F8D80B9902910A9E6F490968451A03994D43C0467C4424796400A74401642F5B4C
:2010A000019603906C49049800F09EFE6B4805780126F107029C204688434121090602F0A8
:2010C00086F9002877D0002D75D120460025294602F07DF9002800D1EE436048067060485D
:2010E0000468304602F004FB06465E4901F03AFE214601F03EFB5E49086065E0039037460C
:201100005549049800F070FE544800214056C4B202F0EEFA0646524801683D46384601F053
:2011200023FB314601F01EFE0646002C00D126464C48314601F018FB002C4B4908609BD0B6
:201140004849304602F043F9002895D0052003992A462CE03D49049800F046FE3C488542EF
:201160008AD3039882E7344606463849049800F03BFE3A48077878B202F0BAFA0146029850
:2011800001F0F0FDE9087D2943D3002F41D04121090602F01CF900283BD034480168491D8E
:2011A0000160962900D267E703203146224601F0A7FE05B0F0BD002D00D15DE728480468D7
:2011C00068B202F095FA06460198214601F0CCFA314601F0C7FD0546224E3046294601F0B4
:2011E000C3FA214C20602846314602F0F0F8002800D141E7022038700398134908601B48D9
:20120000002101602160134802F096FB1848019901E016480021016005B0F0BD400120204F
:20122000440120206501202030012020670120205C012020880120206D01202066012020AF
:2012400038012020A0BB0D00480120200000484330750000BC0020200000DC427001202029
:201260002001202000002A43500120201C0120204C012020F0B581B0914C924800250570FE
:20128000914805704E20914E7719C1B2204602F025FB7978204602F021FBB978204602F04A
:2012A0001DFBF978204602F019FB3979204602F015FB7979204602F011FBB979204602F03F
:2012C0000DFBF979204602F009FB397A204602F005FB797A204602F001FBB97A204602F05B
:2012E000FDFAF97A204602F0F9FA397B204602F0F5FA797B204602F0F1FAB97B204602F07B
:20130000EDFAF97B204602F0E9FA397C204602F0E5FA797C204602F0E1FAB97C204602F096
:20132000DDFAF97C1435204602F0D8FA387D282DAAD100254220664E7719C1B2204602F0D3
:20134000CDFA7978204602F0C9FAB978204602F0C5FAF978204602F0C1FA3979204602F0E4
:20136000BDFA7979204602F0B9FAB979204602F0B5FAF979204602F0B1FA397A204602F000
:20138000ADFA797A204602F0A9FAB97A204602F0A5FAF97A204602F0A1FA397B204602F01C
:2013A0009DFA797B204602F099FAB97B204602F095FAF97B204602F091FA397C204602F038
:2013C0008DFA797C204602F089FAB97C204602F085FAF97C204602F081FA397D204602F054
:2013E0007DFA797D204602F079FAB97D1735204602F074FAF87D2E2D9ED100254D20354E19
:201400007719C1B2204602F069FA7978204602F065FAB978204602F061FAF978204602F0B9
:201420005DFA3979204602F059FA7979204602F055FAB979204602F051FAF979204602F0C0
:201440004DFA397A204602F049FA797A204602F045FAB97A204602F041FAF97A204602F0DC
:201460003DFA397B204602F039FA797B204602F035FAB97B204602F031FAF97B204602F0F8
:201480002DFA397C204602F029FA797C204602F025FAB97C204602F021FAF97C204602F014
:2014A0001DFA397D204602F019FA797D1635204602F014FAB87D2C2DA2D101B0F0BDC046E8
:2014C000000010406C01202063012020043C0000A83B0000D73B0000F0B58DB0089001209B
:2014E000C1077E4C7E4A07077E480A911161E060E068E06081262660104640380C900760EB
:201500001760A025284602F021FB774800680790266073480446303C27600B940760284663
:2015200002F014FB6D4806600C9807606C480760284602F00BFB6C4800680690674806603C
:20154000276067480760284602F000FB634C26600C98076062480760284602F0F7FA624847
:201560000068059026600B9C27605D480760284602F0ECFA594806600C980760584807604F
:20158000284602F0E3FA584800680490534806602760534C2760284602F0D8FA4F48066095
:2015A0000C9807602760284602F0D0FA4E48006803904A4806600B9C276049480760284652
:2015C00002F0C4FA454806600C98076044480760284602F0BBFA4448006802903F480660E2
:2015E00027603F4C2760284602F0B0FA3B4806600C9807602760284602F0A8FA3A480068E1
:201600000190364806600B9C276035480760284602F09CFA314806600C9807603048076084
:20162000284602F093FA30480068009009962B48066027602A480760284602F087FA0898F4
:20164000002807D025480999C1600A9820602449086007E00A982249086120492148C8600D
:20166000C868C8600798C00F0699C90F8900C00040180599C90F490040180499C90F4018A8
:2016800080000399C90F490040180299C90F401880000199C90F490040180099C90F40188E
:2016A0000890A024204602F051FA0C4D099E2E600C9807600A480760204602F047FA2E60B2
:2016C0000B98076006490F600A9808610548E860E868E8600898C0B20DB0F0BD0C80424080
:2016E000D0120A4081000E0080130A40F0B585B00546002830D464D000277D20C0000190B8
:201700000A262846314601F097FF4643A91B3026314302AAD1550A2D59D30A2101F08CFF3A
:20172000314302A8C0194170642D54D36421284601F082FF0A2101F07FFF3143FC1C02A814
:20174000C01981702846019E314601F075FFB54227460546D4D23BE061487D21C9000191C4
:201760002D2102F0BBF86D4200240A272846394601F062FF4743E91B3027394302AA1155C0
:201780000A2D3AD30A2101F057FF394302A800194170642D35D36421284601F04DFF0A21AF
:2017A00001F04AFF3943E71C02A8001981702846019C214601F040FFA5423C460546D4D2C0
:2017C0001CE04748302102F089F805B0F0BD7C1C002C03D182E0BC1C002C7FD0601E032169
:2017E00001F02AFF481C0027032800D007463C49009417D125460C4642E0671C002F03D196
:201800006CE0A71C002F69D0781E032101F014FF481C0025032800D00546009719D13C46C1
:201820002F4E45E002A8801E019026460C46019880194178204602F051F8012F1FD0B51EF1
:201840000198815D204602F049F8BF1E2E46EED116E002A8801E0190214E0198C0194178FF
:20186000304602F03BF8012D21D0BC1E0198C15D304602F033F8AD1E2746EED118E0751E08
:20188000009803282AD302A82818C61EB178204602F024F87178204602F020F8ED1E317810
:2018A000204602F01BF8F61E002DEFD116E07C1E0098032812D302A82018C51EA978304628
:2018C00002F00CF86978304602F008F8E41E2978304602F003F8ED1E002CEFD105B0F0BD6A
:2018E00000001040F0B587B006AB18700020002900D1CFE005906A48012702E0C01C012E5E
:201900001DD0684C23685B061DD5246840252C406342634146424641002C3C4600D034469B
:20192000002C0CD1441C5F4B1E682E407342734165426541002E3E46E0D02E46DEE7002B24
:20194000584C00D1A8E0039204915749574E0520C501681C02908861304601F08DFE06A990
:201960000122304601F0BAFC012800D094E0504B50492246083A10681840D0300192106009
:20198000231F186808404C4940181860444AD01E454E3168294207D13168C01C7CD02942C1
:2019A00002D131682942F4D0B561080674D40093104603E0C01C012B3A4C1CD02168490602
:2019C0001BD52468402214406142614143424341002C3C4600D01C46002C324C0BD1431CC2
:2019E00024681440614261415A425A41002C3B46E0D01346DEE700294ED00298B0612B48AB
:201A000001F054FF019A106829490840D1210143116003990804009C2268264B1A40024330
:201A20000720104320601E4C224604981D4F7B6A1B0709D17B6A1B0706D1002A2CD07B6A08
:201A40001B0701D1D21CF1E77A680270012910D02146144B5A6A120709D15A6A120706D13D
:201A6000002919D05A6A120701D1C91CF1E759684170E01E3168294207D13168C01C0BD04C
:201A8000294202D131682942F4D0B56180220A405042504107B0F0BD059807B0F0BDC046B0
:201AA000C1BDF0FF18320F4030300F4000200F4000F8FFFFF8FF00F007000100F0B59BB02D
:201AC00000F02EFA411E022905D303281BD0042821D161481DE0054602F02CF8002810D049
:201AE00002F02EF85E48046802F018F80146204600F0C2FD002804D0022D00D19FE05B4840
:201B00009EE0584805E001F001FF782001F076FF524801F071FD564C2068800216D4554DA2
:201B20002878002815D101267705534802F00EF8206838420DD12E7001F070FF002869D082
:201B400001F0E4FE782001F059FF02E0494800210170EFF3108172B64A4A1078002313706F
:201B6000002900D162B6002834D0099301F00EFF454901F0F7F8044617A800901AA919AA00
:201B800018AB204600F0C2FE0AAD2846FEF760FF204600F055FE3248006806901A98089088
:201BA0001998079001F0BAFF074601F0BDFF064601F0C0FF0B992A7A2B880097019602AD65
:201BC0000FC506982146089A079BFFF71DFA01F0D3FC099B2D480178012915D1037020489E
:201BE000046801F09BFF054601F09EFF064601F0A1FF03460AAF009720462946324600F062
:201C000097FF3846FEF75CFA7D20000201F09EFF1BB0F0BD01F08EFF002817D001F090FFB3
:201C20000F48046801F07AFF0146204600F024FD00280BD0DC2001F0E1FE114809E00A4856
:201C400001F0DAFCDC2001F0D9FE64E701F024FC0A4801F0D1FC7CE72D3C00001A3D00006A
:201C600018012020FB3C0000D83C0000F03C000080330A406201202000E20400C93C000009
:201C8000243D0000680120200AD7A33B6F012020F0B587B004460026314601F086FB05464B
:201CA000002801D14D4900E04B49204601F05AF8002D4B4F05D02D210446384601F00EFEC8
:201CC000204601F0D9FD0A28029004D23021384601F004FE71E007460A253846294601F0D0
:201CE000ABFC294601F0A8FC3024214304A88155642F21D36421384601F09EFC0A2101F0CE
:201D00009BFC214304A880194170F8087D2815D37D20C100384601F08FFC05460A2101F086
:201D20008BFC2143F41C04A8801981702D48874226462F46D0D202E0741C00E0B41C002C63
:201D4000274F3AD0601E032101F076FC481C0026032800D00646019402D12546204F16E0F5
:201D600004A8801E03901E4F039800194178384601F0B4FD012E09D0A51E0398015D38464A
:201D800001F0ACFDB61E2C46EED100E0651E0198032812D304A82818C41EA178384601F042
:201DA0009DFD6178384601F099FDED1E2178384601F094FDE41E002DEFD12E21384601F05A
:201DC0008DFD0A21029801F037FC30200143384601F084FD07B0F0BD000020C10000204166
:201DE0000000104010270000F0B589B01F461446059100260690314601F0E0FA0028354688
:201E000051D1002F35464ED03B480168204600F0ABFC2746069C214601F0F8F80390374886
:201E2000056804973846214600F09CFF294600F0A0FC0746324D294601F0D2FA002800D13E
:201E40003D46304F2846394601F0AFFA002800D12F462A4807600021384600F083FF054656
:201E600041200106049C204600F07CFF294600F080FC05462449039800F074FF294600F099
:201E800078FC0546214F394601F0AAFA002800D12F461F4D3846294601F087FA002800D1CD
:201EA0003D4615480460059C2046294600F061FC07462046294600F057FC02461548394692
:201EC00001F049FE1448006801F012FC07461348006801F00DFC024607AC0194354608AE3C
:201EE00000960C483946069B01F05AFC705F615F00F0C2F909B0F0BD3C01202034012020FF
:201F00000000A0410000A0C1CDCC4C3D0000C8420000C8C2BC0020204001202044012020C7
:201F200070B586B045480178012932D1EFF3108272B61421C943424B03E06D466D18EC752D
:201F4000C91C5C18657D002D26D0657D2E46613EF6B21A2E00D2203D6E4676187575A57DC1
:201F6000002D1BD0A57D2E46613EF6B21A2E00D2203D6E467618B575002911D0E57D002DF0
:201F800010D0E47D2546613DEDB21A2DD5D2203CD3E7002006B070BD153104E0163102E0FE
:201FA000172100E017316B4600245C54047025480470002A00D162B66D462A786B78AC7878
:201FC000E8782D7905290CD1522A0AD1552B08D14E2C06D1312804D1352D02D1012006B0B5
:201FE00070BD6E4606290FD1522A0DD1552B0BD14E2C09D1502807D1492D05D17579442DEC
:2020000002D1022006B070BD04255326502801D0284600E00320694072404F2C00D0284678
:202020001143542B03D1002904D106B070BD28460029FAD0284606B070BDC04663012020BC
:20204000000120206C012020F0B585B03F4D404F012601AA10705170284602E0C01C012B32
:202060001BD0396849061AD53C68402214406142614143424341002C344600D01C46002CEA
:202080000BD1431C3C681440614261415A425A41002C3346E2D01346E0E700294FD02D495C
:2020A0000520C401601C88612B4801F0E5FA01A90222294801F012F90146002002291DD1D3
:2020C000394608390A68254B1340D0330B60391F0A68234B1340234A9A180A60E91E1D4B1A
:2020E0001A68224207D11A68C91C07D0224202D11A682242F4D09C61110604D505B0F0BDB4
:20210000ED1C012AFAD0386840061BD53B6840210B40584258416A426A41002B334600D09E
:202120001346002BEAD16A1C3B680B405842584151425141002B3246E2D00A46E0E7002008
:2021400005B0F0BD304605B0F0BDC046C1BDF0FF18320F4030300F4000200F4000F8FFFF25
:20216000F8FF00F007000200F0B5384908463438872202603648022202600A46383A862315
:2021800013600122026085230B61140204604B61530203602F4CE01C48604B684B60086070
:2021A000086808604B68500603434B600B6803430B6082258D60284BCB604D64274D2E465E
:2021C0003C3E33606C606E686E600E46083E244F3760346834608124AC622F632C6B2C6343
:2021E000EF61EC69EC612F622C6A2C622F602C682C600C46303C174E266025682560243971
:202200000E600C680C6017490C68950525430D6015490C6AD20614430C620C6814430C6085
:2022200012490A600A6312490A68042414430C600A69823B13430B610E490A6A801C024316
:202240000A620A6802430A60F0BDC0463C804240D0120A4081000E0082000400C0804240FD
:2022600081000C00A0130A4028100A40A0320A4090330A4028300A40F0B585B00C467D27B7
:20228000FD003C4A9042034600DC1346AB4200DB2B469442039400DC14461922AC4200DB8B
:2022A0002C46334ED1010491334A1380334A148000280197029512D0DA175340D11A4D1995
:2022C000012813DB01223046049901F013FC04984543F900284601F0AFF9074612E0002727
:2022E00001223046394601F005FC0BE004984543F900284601F0A0F901460122304601F003
:20230000F9FB049F0025304639462A4601F0F2FB20B2C1174840081A02990F180398184EA7
:2023200000280BD010DD049D6F430198C100384601F082F901460022304602E03046294670
:202340002A4601F0D7FB0CE000223046049C214601F0D0FB67430198C100384601F06CF92B
:20236000054601223046294601F0C4FB05B0F0BD0000094018FCFFFF840120208601202011
:2023800000008640F0B5394A8218394BC0183A4D4C790B79002C22D0466F202B02D0052470
:2023A000E70100E0354F2E40002B00D188273E434667846F2C403C438467446B2D4E344023
:2023C0004463846B3440846300244465846554688F26F643344054609468344094600C68AC
:2023E0008979202B09D006467036002B15D1641E4460C46E2C40882715E0641E4460C46EF4
:202400002C401E4E3443C466046F2C40344304671B4D01246707064607E00527FF016408BC
:202420004460C46E2C403C43C46634682C403C433460C46A0F4D2C40C462046B2C40046338
:202440000024C4640465C46F8F25ED432C40C46714682C401460194302680A4B1340BD2270
:202460000A40D118891C0160F0BDC04684180000041800008888FDFF24493E0001040000FC
:20248000FFFFFFCF4000FFCFB0B53A4A80184A6842600A78222A56D8930001A4E3589F4639
:2024A0003D250000472500003D2500004725000047250000472500004725000047250000D0
:2024C00047250000472500004725000047250000472500004725000047250000472500009C
:2024E0002D250000472500002D2500004725000047250000472500004725000047250000B0
:2025000047250000472500004725000047250000472500004725000047250000472500005B
:202520002D250000472500002D250000036803242407A343012464071B1903E003680324AF
:202540002407A34303600B69C360CB68C46A0A4D25400A4C1C402B19C3620368084C1C401D
:202560000460097A114302683F239A43194051180160B0BD041800008888FDFF77770200CF
:202580007F00FFFFF0B585B00393174602910446066900251046294600F010FF002861D162
:2025A0000120C1073046049188433F21090600F0FCFE002856D13046029900F0D5F805469B
:2025C00020680290A6692846314600F0CDF801906168384600F0C6FB0146284600F0C2FB4D
:2025E00000900298019900F0BDFB009900F0C1F80090A068394600F009FD074630460196C6
:20260000314600F0B6F801460295284600F0ACF8E16900F0AEF80146384600F0A3FB0099F9
:2026200000F0A7F80146606900F0A3F80646039D04996940049100F0B8FE074630462946D1
:2026400000F0CEFE002800D13546002F049800D1284660610299A1610199E16101F0BCF861
:20266000054606E0E168304600F07CFB6061A561E561284605B0F0BDF0B581B00C460546B3
:20268000254801780020062943D8012632468A4061210A423DD021490978012939D101F096
:2026A000B7F81F48002707601E4807601E4807701E4807701E4807601E4807601E48077078
:2026C0001E4807801E4807601E4807601E4807601E480560114806700F4806701C48056076
:2026E0001C4807601C4D2F601C4801F025F90C4804600D48C0570028194F394600DA194935
:20270000204600F036F8074908602F6000F0C4FE304601B0F0BDC0468801202065012020F3
:20272000200120204C012020700120206D0120203001202034012020670120205C01202021
:202740003C012020400120204401202038012020480120201C01202050012020BC0020200A
:2027600000002A4300002AC3FCB40127FF07794002E0FCB40127FF070C024D002D0E03D13E
:20278000002C52D1FCBC70473C43FF2D50D0A408002900D56442020243001B0E04D1002AF1
:2027A00043D10800FCBC70473A43FF2B41D09208002800D552425E1B04D5170022003C00E4
:2027C00076422B00192E06D527003741D2191C27F71B7F42BC40002A27D002D552420127A4
:2027E00000E00027013B5200FCD51500802635400FD01500202635402C43803208D2150084
:20280000402635402C4304D101263602B24300E05B1C5200023308DDFF2B0BD2500ADB0541
:202820001843FF073843FCBC70470020FCBC70470800C70FFF07FF20C0053843FCBC70470C
:20284000F0B581B00546274E37780024214600F0B5FD002830D1002F2ED047206946022276
:20286000FFF740F8002827D001240098C0BA00F03FFF1D4900F0CAFB1C490968FFF774FF4C
:202880000646E10788431A4900F08FFD002800D0002618480178002910D017480068174933
:2028A00000F060FA07461649304600F05BFA3946FFF75FFF064602E034700FE004700E4809
:2028C000066010480660104807683046294600F049FA3946FFF74DFF0B490860204601B061
:2028E000F0BDC0466B0120200000034328012020CDCC4C3E64012020240120206666263F6C
:202900003333B33E5801202054012020F0B583B01D4600920F460446EFF3108072B62749BC
:202920000E68274909680291002800D162B60021204600F043FD0028019500D0214C22497F
:202940000868224A15680E6002991160002F0BD0301A00F0CDFE1E4900F004FA214600F0E9
:2029600055FB00F039FF3860009F002F0CD00298401B00F0BDFE164900F0F4F9214600F06A
:2029800045FB00F029FF3860089C019D002D08D0304600F0ADFE0E4900F0E4F900F01CFFC0
:2029A0002860002C08D0029800F0A2FE084900F0D9F900F011FF206003B0F0BD74012020B9
:2029C000780120200AD7A33B7C012020800120209C9D0F3F80B582B0194900230B701949B1
:2029E0000B6019490B6019490B6019490B6019490B6019490B7019490B6019490B7019494F
:202A00000B6019490B6019490B7019490B8019490B6019490B6019490B6019490870194911
:202A2000087019487F21C9050091019017483F210906174A00F01AFC00F02EFD02B080BDEE
:202A4000880120203801202048012020200120204C01202050012020700120201C0120201E
:202A60006D0120203001202034012020670120205C0120203C0120204001202044012020FA
:202A8000650120206601202000007A44BC002020CDCC4C3E002A49D084468B071CD18307F6
:202AA00022D1102A08D370B4103A78C978C0103AFBD270BC103238D0042A2CD3082A05D363
:202AC0000C2A01D308C908C008C908C008C908C092072AD0920F22E00B780370491C401C34
:202AE000521E22D08B07F7D1C30714D18307D8D0121F12D308C903801B0C4380001D121F97
:202B0000F8D20AE008C903701B0A43701B0A83701B0AC370001D121FF4D2121D05D00B78DA
:202B20000370491C401C521EF9D160467047FEE770B5049C002C2DD0174D2D782570174DF5
:202B40002D68401B0525454315480068154E36686560A16021460C3145C123761248007832
:202B6000607600F06BFF11490968E061216210480078242160540F480088E0840E480068CC
:202B80000E490968A062E16200F0BCFF208600F0BFFF608670BDC0468801202038012020CE
:202BA0004C012020500120206601202030012020670120205C012020400120204401202094
:202BC00070B582B01B491C4C204600F053FF1B492046FFF7D7FB1A4801681A4A0A400260BD
:202BE00000250095204629462A462B4600F050FF204629462A4600F02FFF204629462A467E
:202C000000F078FF01260096204629462A462B4600F03EFF20462946324600F01DFF2046EE
:202C20002946324600F066FF074886600321016002B070BD803D000000000940383D000044
:202C4000041809407F00FFFF0011094070B582B01B491C4C204600F00DFF1B492046FFF7F3
:202C600091FB1A4801681A4A0A40026000250095204629462A462B4600F00AFF20462946AF
:202C80002A4600F0E9FE204629462A4600F032FF01260096204629462A462B4600F0F8FE2E
:202CA00020462946324600F0D7FE20462946324600F020FF074886600321016002B070BD0D
:202CC000833D000000008640403D0000041886407F00FFFF0011864040B542004B005E08D3
:202CE000164301D006004E4000D4D01A04D20120C90F06D1404204E003D90120C90F00D0A7
:202D00004042FF263606B24200D8B34200D9012040BD40B542004B005E08164301D0060000
:202D20004E4000D4D01A04D20120C90F06D1404204E003D90120C90F00D04042FF263606B3
:202D4000B24200D8B34201D90120404240BD42004B000020FF2109068A4200D88B4200D912
:202D600001207047FCB40127FF0706004E4001D4002600E03E00020243001B0E30D03A4303
:202D8000FF2B30D00C024D002D0E29D03C43FF2D29D05B194240504042404C4061404C4015
:202DA00000B500F0C3FC20BCAE464240504042404C4061404C4025001400002C01D46400F4
:202DC000013B803401D3013364087E3B08DDFF2B09D2BC43200ADB0518433043FCBC7047A6
:202DE0000020FCBC7047FF20C0053043FCBC704710B51B491B4C204600F061FE1A49204670
:202E000000F096FB194801680322D203914301600169174A0A4011320261416917220A434D
:202E200028218A434261426801210A4043688B439A1842600F4A13688C021C431460026857
:202E40004B0413430360C26870231343C360C2680A4306239A43C26002680A43026010BDAF
:202E6000363D000000001040063D0000001110400000FFFF2810104010B51B491B4C20466F
:202E800000F01DFE1A49204600F052FB194801680322D203914301600169174A0A401132D0
:202EA0000261416917220A4328218A434261426801210A4043688B439A1842600F4A13680F
:202EC0008C021C43146002684B0413430360C26870231343C360C2680A4306239A43C2604A
:202EE00002680A43026010BD893D000000201040103D0000003110400000FFFF2830104042
:202F0000F0B581B0144605461548057015480160154800270760154E3760154800F00CFD6B
:202F200005202840012810D1134804601348C0570028134D294600DA12492046FFF719FC2C
:202F40000C490860356001B0F0BD0A480460022D03D0042D01D000F09FFA01B0F0BDC0461A
:202F600088012020480120201C01202050012020BC0020204C012020200120207001202076
:202F800000002A4300002AC3F0B583B01A48002101801A4801600120C207194C2261194B02
:202FA00019491960196819601E460C3E8121316001912546403D07072F60276019602046DE
:202FC0003038029202602260A024204600F0BEFD019830602F600A4D2F60204600F0B6FD95
:202FE0000298286108480749086008680860204600F0ACFD03B0F0BD5E0120202C01202063
:20300000D0120A401880424081000E00FCB40127FF0706004E40F60FF607020243001B0EF7
:203020002DD03A43FF2B2DD00C024D002D0E26D03C43FF2D26D05B1B002020216408520825
:20304000A2424041A24200D3121B013904D0002A01D05200F4D18840384201D14000013B77
:20306000803001D3013300E040007F3307DDFF2B08D2400ADB0518433043FCBC7047002057
:20308000FCBC7047FF20C0053043FCBC70477047F0B50020C0431849184B0127FA067E060C
:2030A000103B1D6815400B46103B1B68002D09D0134C24683442044600D03C46114F3968C8
:2030C00061183960B71C334208D00F490968C90200D501200D490C68001908603B40002D41
:2030E00003D00649086810430860002B03D00249086818430860F0BD48300A4048100A40F6
:2031000080130A407401202080330A4078012020F8B5451C00780023082B32D02F78C20719
:203120000CD16A780F241440E41C122C0BD102242E57F4B2002E08D4EE1C0EE06D1C4A1CED
:203140000F7011461AE0AE1C08E02E1DED7800957F252C40009DED012C1912343D01120929
:203160005219094DAA420ED0D243002C05D08D5C4F1C0D70641E3946F7E7354640085B1CC4
:20318000CAE72846C5E7F8BDFF0F0000F0B581B010481149416011484160114B5960114C0C
:2031A0006160114D6960114E7160114F7960114841601149074A1160084A116019602160EB
:2031C0002960316039600160102000F0BFFC01B0F0BDC04600080A40030000B100280A4024
:2031E00000080940000886400008874000280F40000810400028104001000026F0B5164A6E
:203200001068C0B20B2825D1144801218B029362026852071ED4124A124B134C06E01D7853
:2032200000266655117005686D0713D4C5691678002EF8D1EEB20D2EF5D00A2EEFD01E7884
:20324000162E04D81E78771C1F70A555EBE700251D70E8E7F0BDC0462010104008111040AD
:20326000630120206C01202000012020F0B585B000282ED0044602A80EC00B9F00253846AD
:20328000294600F092F80190134E3846314600F0A7F8002800D13E460A980199002929467E
:2032A000049A00D131462164029B236003996160A260E060256123626162A262E062256348
:2032C0002946FFF74FFD6061A561E5616063A563E56305B0F0BDC04600007A44F0B581B021
:2032E000002A22D091235B01C3180F200402901E0090561E0020DF6927421BD00F5C1F603A
:20330000864210D0DF69274211D00F187D781D60009D854207D0DD6925420AD0BD781D6066
:20332000C01C8242E7D1104604E0002002E0401C00E0801C80B201B0F0BD000010B500F0DC
:2033400081FA00F0CFF8FFF71FFE00F047FBFDF7C9F90446FFF73EFBFDF78CFF002C01D14A
:203360000A4800E0084800F047F901204105084A1160084B196040031060186002201060E8
:2033800018601060186010BD4D3C0000883C000080E200E000E100E010B5FFF79DFC002834
:2033A00001D0002010BD012010BD10B5FFF794FC002801DB002010BD012010BD10B5FFF77C
:2033C0008BFC002801DD002010BD012010BD10B5FFF79FFC002801DA002010BD012010BD51
:2033E00010B5FFF796FC002801DC002010BD012010BD000080B51149114800F0DBFA11489A
:203400000168032252020A430260026801210B02134303600022426107224262836B934373
:203420008363836B120293438363826A042313438362826A0A43826280BDC0468B3D000072
:2034400000200F4000320F400E480068C0B2012816D10D480168491C01600C480178FF29C3
:2034600002D00178491C017009480178491CCAB20170142A04D30021017006480121017087
:203480007047C0462010874018012020680120206E0120206F01202070B50E4800240480F4
:2034A0000D4804800D4E0125304621462A4600F021FB30462146224600F01CFB084E304641
:2034C0002146224600F016FB304621462A4600F011FB70BD840120208601202000000940D1
:2034E0000000864070B50E48002404800D4804800D4E0125304621462A4600F0FBFA3046E1
:203500002146224600F0F6FA084E30462146224600F0F0FA304621462A4600F0EBFA70BD38
:203520008401202086012020000009400000864070B511221302C218C4580125AC43C45064
:203540000C888D7825438C882C43C558084E2E40084D25407419C4508879CB790343087A9E
:20356000184351687E23994318400818506070BDE798FDFF1867000010B50C4801880029A0
:203580000ED00B4A13785C1C1470DA0703D00122D206084B1A61491E0180080400D010BD63
:2035A0000120C0060349086010BDC0466001202069012020A0320A400D48002101600D480A
:2035C000011F0A680323DB4313400B60416801229143416041681202914341600168302229
:2035E0009143016001680F22914301607047C04608030B4004010B4070B50178002917D0B6
:203600000C4CC51CAE1EC9B2204600F067F9317800290DD06E1E204600F060F931780029B8
:2036200006D0204600F05AF92978ED1C0029E9D170BDC046000010401CB50A0017D0002316
:203640000124E407A04200D20400944201D95200FBE790425B41904200D3801A914201D26B
:203660005208F6E719000200080011001CBD01000020FFF70CFD1CBD70B50D4D41190F2203
:2036800012020123DC02465980231E43465148681040A04207D048681040A04203D04868BC
:2036A0001040A042F3D108689843086070BDC0463812000070B50A480A4C84420CD00A4D1E
:2036C0000A4EB54208D02A686968501C12789200A25890470835F4E700BF00BF70BDC0463E
:2036E0009C3D0000903D0000AC3D0000BC3D000006B49E22002802D404D106BC70474142F9
:2037000004D400E00100013A4900FCD5803101D3013200E04900490AD2051143002802D53D
:203720000122D2071143080006BC7047FCB4020C0B0CFF242402FF34204021400C00444313
:2037400015005D4306005E430F005743320C3B0CA818C01832043B040025A1186841C9186A
:203760006841FCBC7047000010B50849084C204600F080F907492046FEF786FE0648016812
:203780000122114301600548026010BD7D3D000000008740A43C0000281087400811874095
:2037A000F0B581B0002815D0069D002D12D0079F002F0FD01C46036C064600922246FEF7B4
:2037C000E1FE2880336C2036304600992246FEF7D9FE388001B0F0BD06B54100090E7F3949
:2037E0000DD41F22511A0CD9864600020122D2071043C8407246002A00D5404206BD002016
:2038000006BD02000120C007002A00D4401E06BDEFF3108072B6074900220A6006490A60AD
:2038200006490A6006490A60002800D0704762B67047C04674012020780120207C01202067
:203840008001202080B5FFF7A1FCFEF78DFCFFF7B3FEFFF7B5F9FFF7F9F9FFF785FFFFF7BE
:20386000C9FDFFF7C5FAFFF707FB0248B8210022425480BD0000202006B5002803D5734609
:20388000FFF7AAFF06BD4100090E7F3908D31F22511A07D300020122D2071043C84006BD39
:2038A000002006BD0020401E06BD000010B50A4BC118C4580122D2031443C45048680007BB
:2038C00005D04868000702D048680007F6D108689043086010BDC046381200000A4A801858
:2038E0000268120605D50268120602D502681206F6D481610168C90705D00168C90702D0CC
:203900000168C907F6D170470811000080B508480078062807D8012181406120014202D054
:20392000FFF7BAFD80BD03480121017080BDC046880120206D012020B0B5002810D0C1686F
:20394000026904461046FFF70DFA00256061A561E561E16A206BFFF705FA6063A563E5634F
:20396000B0BD0000084880F3088800BF00BF00F016F9002801D0FFF79DFE002000F0A8F8D0
:20398000012000F005F9C0460080202002B49E21002805D401D102BC704701394000FCD54A
:2039A000803001D3013100E04000400AC905084302BC704770B50122120383180C785D6818
:2039C0000C26B54334402C195C60497883580724A34321405918815070BD0000044800215E
:2039E0000180044801700120C0060349086070476001202069012020A0320A4080B5001D7E
:203A00000521FFF719FE0349088003480021017080BDC0466001202069012020064802786C
:203A20000121062A0B4600D800237F2002401E20D0401843084070478801202003480078D3
:203A4000002801D103487047014870476A012020E43C0000483D000010B592008018044ADD
:203A600083580724A404A34321405918815010BD3018000010B50122120383180C789C60E2
:203A80004B7883508978014A815010BD0C11000010B5029CA400001911431943014A81509D
:203AA00010BDC0465018000003228058002805D0401E4A1C00230B701146F7E7704710B5BE
:203AC0000122120383180C789C604978815010BDFFF734FCFDF7F2FFFDF7F0FFFDF7EEFF65
:203AE000F8E780B50B4603214258C11D184600F04BF880BD92008018014A81507047C046F4
:203B00001018000000200149085E70478401202000200149085E7047860120200148006832
:203B20007047C04654012020014800687047C04658012020014800787047C0466B01202002
:203B4000014800210160704754012020811E091F00BFFCD27047002801D0016102637047CC
:203B600080B5FFF795FA80BD80B5FFF747FB80BD80B5FFF7F5FF80BD80B5FFF765FC80BD7F
:203B800080B5FFF7F1FF80BD80B5FEF783FF80BD00F001F8FEE700BF7047E3E670470120FF
:083BA000704700000000000066
:203BA8004232312F52554E5049442F52554E31353A2067726179206C696E65203330733BC7
:203BC8002053544F502061626F7274730D0A004D5055363035302064697361626C65643B65
:203BE80020656E636F64657220737065656420504944206163746976650D0A004E434844BF
:203C080031322067726179206C696E652064656D6F205541525431203131353230302038AB
:203C28004E310D0A00436F6D6D616E64733A2052554E5049442C2052554E31352C205354EE
:203C48004F500D0A004D5055363035303D4F4B3B206779726F20726F7574652072656164EB
:203C6800790D0A006F3D00005E3D00002D3D00005E3D0000573D00006A3D0000643D000084
:203C88004D5055363035303D4552523B207374617274206C6F636B65640D0A000200000005
:203CA800FF70020001000000000000000000000030313233343536373839414243444546E8
:203CC800004552522042323120627573790D0A004F4B2052554E5049440D0A004D50553669
:203CE8003035302D455252004F4B2052554E31350D0A0045525220627573790D0A00000002
:203D08001800000000300000000018000000003000004F4B2053544F500D0A004F4B2042F8
:203D280032310D0A005354524149474854000800800C000020000100800C00002001010038
:203D48004D50553630353000284C4F535429004C494E4533300043555256450041424F52D7
:203D68005400444F4E450049444C4500284F4B2900455252000800000800000800004F4B1D
:083D880000080008003F0000E4
:203D900011310000E33A0000A93A00000200000071010000000100000F02FFF09C3D000083
:103DB00000002020A43D000074012020000000002D
:00000001FF
